{
  "contractName": "DefaultReserveInterestRateStrategy",
  "abi": [
    {
      "inputs": [
        {
          "internalType": "address",
          "name": "_reserve",
          "type": "address"
        },
        {
          "internalType": "contract LendingPoolAddressesProvider",
          "name": "_provider",
          "type": "address"
        },
        {
          "internalType": "uint256",
          "name": "_baseVariableBorrowRate",
          "type": "uint256"
        },
        {
          "internalType": "uint256",
          "name": "_variableRateSlope1",
          "type": "uint256"
        },
        {
          "internalType": "uint256",
          "name": "_variableRateSlope2",
          "type": "uint256"
        },
        {
          "internalType": "uint256",
          "name": "_stableRateSlope1",
          "type": "uint256"
        },
        {
          "internalType": "uint256",
          "name": "_stableRateSlope2",
          "type": "uint256"
        }
      ],
      "payable": false,
      "stateMutability": "nonpayable",
      "type": "constructor"
    },
    {
      "constant": true,
      "inputs": [],
      "name": "EXCESS_UTILIZATION_RATE",
      "outputs": [
        {
          "internalType": "uint256",
          "name": "",
          "type": "uint256"
        }
      ],
      "payable": false,
      "stateMutability": "view",
      "type": "function"
    },
    {
      "constant": true,
      "inputs": [],
      "name": "OPTIMAL_UTILIZATION_RATE",
      "outputs": [
        {
          "internalType": "uint256",
          "name": "",
          "type": "uint256"
        }
      ],
      "payable": false,
      "stateMutability": "view",
      "type": "function"
    },
    {
      "constant": true,
      "inputs": [],
      "name": "addressesProvider",
      "outputs": [
        {
          "internalType": "contract LendingPoolAddressesProvider",
          "name": "",
          "type": "address"
        }
      ],
      "payable": false,
      "stateMutability": "view",
      "type": "function"
    },
    {
      "constant": true,
      "inputs": [],
      "name": "baseVariableBorrowRate",
      "outputs": [
        {
          "internalType": "uint256",
          "name": "",
          "type": "uint256"
        }
      ],
      "payable": false,
      "stateMutability": "view",
      "type": "function"
    },
    {
      "constant": true,
      "inputs": [],
      "name": "reserve",
      "outputs": [
        {
          "internalType": "address",
          "name": "",
          "type": "address"
        }
      ],
      "payable": false,
      "stateMutability": "view",
      "type": "function"
    },
    {
      "constant": true,
      "inputs": [],
      "name": "stableRateSlope1",
      "outputs": [
        {
          "internalType": "uint256",
          "name": "",
          "type": "uint256"
        }
      ],
      "payable": false,
      "stateMutability": "view",
      "type": "function"
    },
    {
      "constant": true,
      "inputs": [],
      "name": "stableRateSlope2",
      "outputs": [
        {
          "internalType": "uint256",
          "name": "",
          "type": "uint256"
        }
      ],
      "payable": false,
      "stateMutability": "view",
      "type": "function"
    },
    {
      "constant": true,
      "inputs": [],
      "name": "variableRateSlope1",
      "outputs": [
        {
          "internalType": "uint256",
          "name": "",
          "type": "uint256"
        }
      ],
      "payable": false,
      "stateMutability": "view",
      "type": "function"
    },
    {
      "constant": true,
      "inputs": [],
      "name": "variableRateSlope2",
      "outputs": [
        {
          "internalType": "uint256",
          "name": "",
          "type": "uint256"
        }
      ],
      "payable": false,
      "stateMutability": "view",
      "type": "function"
    },
    {
      "constant": true,
      "inputs": [],
      "name": "getBaseVariableBorrowRate",
      "outputs": [
        {
          "internalType": "uint256",
          "name": "",
          "type": "uint256"
        }
      ],
      "payable": false,
      "stateMutability": "view",
      "type": "function"
    },
    {
      "constant": true,
      "inputs": [],
      "name": "getVariableRateSlope1",
      "outputs": [
        {
          "internalType": "uint256",
          "name": "",
          "type": "uint256"
        }
      ],
      "payable": false,
      "stateMutability": "view",
      "type": "function"
    },
    {
      "constant": true,
      "inputs": [],
      "name": "getVariableRateSlope2",
      "outputs": [
        {
          "internalType": "uint256",
          "name": "",
          "type": "uint256"
        }
      ],
      "payable": false,
      "stateMutability": "view",
      "type": "function"
    },
    {
      "constant": true,
      "inputs": [],
      "name": "getStableRateSlope1",
      "outputs": [
        {
          "internalType": "uint256",
          "name": "",
          "type": "uint256"
        }
      ],
      "payable": false,
      "stateMutability": "view",
      "type": "function"
    },
    {
      "constant": true,
      "inputs": [],
      "name": "getStableRateSlope2",
      "outputs": [
        {
          "internalType": "uint256",
          "name": "",
          "type": "uint256"
        }
      ],
      "payable": false,
      "stateMutability": "view",
      "type": "function"
    },
    {
      "constant": true,
      "inputs": [
        {
          "internalType": "address",
          "name": "_reserve",
          "type": "address"
        },
        {
          "internalType": "uint256",
          "name": "_availableLiquidity",
          "type": "uint256"
        },
        {
          "internalType": "uint256",
          "name": "_totalBorrowsStable",
          "type": "uint256"
        },
        {
          "internalType": "uint256",
          "name": "_totalBorrowsVariable",
          "type": "uint256"
        },
        {
          "internalType": "uint256",
          "name": "_averageStableBorrowRate",
          "type": "uint256"
        }
      ],
      "name": "calculateInterestRates",
      "outputs": [
        {
          "internalType": "uint256",
          "name": "currentLiquidityRate",
          "type": "uint256"
        },
        {
          "internalType": "uint256",
          "name": "currentStableBorrowRate",
          "type": "uint256"
        },
        {
          "internalType": "uint256",
          "name": "currentVariableBorrowRate",
          "type": "uint256"
        }
      ],
      "payable": false,
      "stateMutability": "view",
      "type": "function"
    }
  ],
  "bytecode": "0x608060405234801561001057600080fd5b50604051610957380380610957833981810160405260e081101561003357600080fd5b508051602082015160408301516060840151608085015160a086015160c090960151600080546001600160a01b039687166001600160a01b031991821617909155600194909455600292909255600355600494909455600593909355600680549190921692169190911790556108a9806100ae6000396000f3fe608060405234801561001057600080fd5b50600436106100f55760003560e01c80637b832f5811610097578063ccab01a311610066578063ccab01a3146101d4578063cd3293de146101dc578063d5cd7391146101e4578063f4202409146101ec576100f5565b80637b832f5814610198578063a15f30ac146101a0578063b2589544146101a8578063c72c4d10146101b0576100f5565b806317319873116100d3578063173198731461012457806334762ca51461012c57806357e37af01461013457806365614f8114610190576100f5565b80630b3429a2146100fa5780630bdf953f1461011457806314e32da41461011c575b600080fd5b6101026101f4565b60408051918252519081900360200190f35b6101026101fa565b610102610200565b610102610206565b610102610215565b610172600480360360a081101561014a57600080fd5b506001600160a01b03813516906020810135906040810135906060810135906080013561021b565b60408051938452602084019290925282820152519081900360600190f35b6101026104c2565b6101026104c8565b6101026104ce565b6101026104de565b6101b86104e4565b604080516001600160a01b039092168252519081900360200190f35b6101026104f3565b6101b86104f9565b610102610508565b61010261050e565b60025490565b60045481565b60055490565b6aa56fa5b99019a5c800000081565b60015490565b6000808080610230878763ffffffff61051416565b9050600081158015610240575088155b610269576102646102578a8463ffffffff61051416565b839063ffffffff61057716565b61026c565b60005b90506000809054906101000a90046001600160a01b03166001600160a01b0316633618abba6040518163ffffffff1660e01b815260040160206040518083038186803b1580156102bb57600080fd5b505afa1580156102cf573d6000803e3d6000fd5b505050506040513d60208110156102e557600080fd5b50516040805163bb85c0bb60e01b81526001600160a01b038d811660048301529151919092169163bb85c0bb916024808301926020929190829003018186803b15801561033157600080fd5b505afa158015610345573d6000803e3d6000fd5b505050506040513d602081101561035b57600080fd5b505193506b0295be96e64066972000000081111561041d5760006103ac6aa56fa5b99019a5c80000006103a0846b0295be96e64066972000000063ffffffff6105bb16565b9063ffffffff61057716565b90506103e66103c6826005546105fd90919063ffffffff16565b6004546103da90889063ffffffff61051416565b9063ffffffff61051416565b9450610415610400826003546105fd90919063ffffffff16565b6002546001546103da9163ffffffff61051416565b9350506104a3565b61045b61044e61043f836b0295be96e64066972000000063ffffffff61057716565b6004549063ffffffff6105fd16565b859063ffffffff61051416565b93506104a06104916002546104856b0295be96e6406697200000008561057790919063ffffffff16565b9063ffffffff6105fd16565b6001549063ffffffff61051416565b92505b6104b3816104858a8a878b610635565b94505050955095509592505050565b60035481565b60025481565b6b0295be96e64066972000000081565b60015481565b6000546001600160a01b031681565b60055481565b6006546001600160a01b031681565b60045490565b60035490565b60008282018381101561056e576040805162461bcd60e51b815260206004820152601b60248201527f536166654d6174683a206164646974696f6e206f766572666c6f770000000000604482015290519081900360640190fd5b90505b92915050565b6000600282046105b3836105a761059a876b033b2e3c9fd0803ce80000006106a6565b849063ffffffff61051416565b9063ffffffff6106ff16565b949350505050565b600061056e83836040518060400160405280601e81526020017f536166654d6174683a207375627472616374696f6e206f766572666c6f770000815250610741565b600061056e6b033b2e3c9fd0803ce80000006105a7610622868663ffffffff6106a616565b6b019d971e4fe8401e7400000090610514565b600080610648868663ffffffff61051416565b9050806106595760009150506105b3565b600061066885610485886107d8565b90506000610679856104858a6107d8565b90506000610699610689856107d8565b6103a0858563ffffffff61051416565b9998505050505050505050565b6000826106b557506000610571565b828202828482816106c257fe5b041461056e5760405162461bcd60e51b81526004018080602001828103825260218152602001806108546021913960400191505060405180910390fd5b600061056e83836040518060400160405280601a81526020017f536166654d6174683a206469766973696f6e206279207a65726f0000000000008152506107ee565b600081848411156107d05760405162461bcd60e51b81526004018080602001828103825283818151815260200191508051906020019080838360005b8381101561079557818101518382015260200161077d565b50505050905090810190601f1680156107c25780820380516001836020036101000a031916815260200191505b509250505060405180910390fd5b505050900390565b600061057182633b9aca0063ffffffff6106a616565b6000818361083d5760405162461bcd60e51b815260206004820181815283516024840152835190928392604490910191908501908083836000831561079557818101518382015260200161077d565b50600083858161084957fe5b049594505050505056fe536166654d6174683a206d756c7469706c69636174696f6e206f766572666c6f77a265627a7a72315820becdd09462435a20c2fedf1d3f2c932de0c2ce8555aa54e431ceecf8fb105e5964736f6c634300050c0032",
  "source": "pragma solidity ^0.5.0;\n\nimport \"../interfaces/IReserveInterestRateStrategy.sol\";\nimport \"../libraries/WadRayMath.sol\";\nimport \"../configuration/LendingPoolAddressesProvider.sol\";\nimport \"./LendingPoolCore.sol\";\nimport \"../interfaces/ILendingRateOracle.sol\";\n\nimport \"@openzeppelin/contracts/math/SafeMath.sol\";\n\n/**\n* @title DefaultReserveInterestRateStrategy contract\n* @notice implements the calculation of the interest rates depending on the reserve parameters.\n* @dev if there is need to update the calculation of the interest rates for a specific reserve,\n* a new version of this contract will be deployed.\n* @author Aave\n**/\ncontract DefaultReserveInterestRateStrategy is IReserveInterestRateStrategy {\n    using WadRayMath for uint256;\n    using SafeMath for uint256;\n\n\n\n   /**\n    * @dev this constant represents the utilization rate at which the pool aims to obtain most competitive borrow rates\n    * expressed in ray\n    **/\n    uint256 public constant OPTIMAL_UTILIZATION_RATE = 0.8 * 1e27;\n\n   /**\n    * @dev this constant represents the excess utilization rate above the optimal. It's always equal to\n    * 1-optimal utilization rate. Added as a constant here for gas optimizations\n    * expressed in ray\n    **/\n\n    uint256 public constant EXCESS_UTILIZATION_RATE = 0.2 * 1e27;\n\n    LendingPoolAddressesProvider public addressesProvider;\n\n\n    //base variable borrow rate when Utilization rate = 0. Expressed in ray\n    uint256 public baseVariableBorrowRate;\n\n    //slope of the variable interest curve when utilization rate > 0 and <= OPTIMAL_UTILIZATION_RATE. Expressed in ray\n    uint256 public variableRateSlope1;\n\n    //slope of the variable interest curve when utilization rate > OPTIMAL_UTILIZATION_RATE. Expressed in ray\n    uint256 public variableRateSlope2;\n\n    //slope of the stable interest curve when utilization rate > 0 and <= OPTIMAL_UTILIZATION_RATE. Expressed in ray\n    uint256 public stableRateSlope1;\n\n    //slope of the stable interest curve when utilization rate > OPTIMAL_UTILIZATION_RATE. Expressed in ray\n    uint256 public stableRateSlope2;\n    address public reserve;\n\n    constructor(\n        address _reserve,\n        LendingPoolAddressesProvider _provider,\n        uint256 _baseVariableBorrowRate,\n        uint256 _variableRateSlope1,\n        uint256 _variableRateSlope2,\n        uint256 _stableRateSlope1,\n        uint256 _stableRateSlope2\n    ) public {\n        addressesProvider = _provider;\n        baseVariableBorrowRate = _baseVariableBorrowRate;\n        variableRateSlope1 = _variableRateSlope1;\n        variableRateSlope2 = _variableRateSlope2;\n        stableRateSlope1 = _stableRateSlope1;\n        stableRateSlope2 = _stableRateSlope2;\n        reserve = _reserve;\n    }\n\n    /**\n    @dev accessors\n     */\n\n    function getBaseVariableBorrowRate() external view returns (uint256) {\n        return baseVariableBorrowRate;\n    }\n\n    function getVariableRateSlope1() external view returns (uint256) {\n        return variableRateSlope1;\n    }\n\n    function getVariableRateSlope2() external view returns (uint256) {\n        return variableRateSlope2;\n    }\n\n    function getStableRateSlope1() external view returns (uint256) {\n        return stableRateSlope1;\n    }\n\n    function getStableRateSlope2() external view returns (uint256) {\n        return stableRateSlope2;\n    }\n\n    /**\n    * @dev calculates the interest rates depending on the available liquidity and the total borrowed.\n    * @param _reserve the address of the reserve\n    * @param _availableLiquidity the liquidity available in the reserve\n    * @param _totalBorrowsStable the total borrowed from the reserve a stable rate\n    * @param _totalBorrowsVariable the total borrowed from the reserve at a variable rate\n    * @param _averageStableBorrowRate the weighted average of all the stable rate borrows\n    * @return the liquidity rate, stable borrow rate and variable borrow rate calculated from the input parameters\n    **/\n    function calculateInterestRates(\n        address _reserve,\n        uint256 _availableLiquidity,\n        uint256 _totalBorrowsStable,\n        uint256 _totalBorrowsVariable,\n        uint256 _averageStableBorrowRate\n    )\n        external\n        view\n        returns (\n            uint256 currentLiquidityRate,\n            uint256 currentStableBorrowRate,\n            uint256 currentVariableBorrowRate\n        )\n    {\n        uint256 totalBorrows = _totalBorrowsStable.add(_totalBorrowsVariable);\n\n        uint256 utilizationRate = (totalBorrows == 0 && _availableLiquidity == 0)\n            ? 0\n            : totalBorrows.rayDiv(_availableLiquidity.add(totalBorrows));\n\n        currentStableBorrowRate = ILendingRateOracle(addressesProvider.getLendingRateOracle())\n            .getMarketBorrowRate(_reserve);\n\n        if (utilizationRate > OPTIMAL_UTILIZATION_RATE) {\n            uint256 excessUtilizationRateRatio = utilizationRate\n                .sub(OPTIMAL_UTILIZATION_RATE)\n                .rayDiv(EXCESS_UTILIZATION_RATE);\n\n            currentStableBorrowRate = currentStableBorrowRate.add(stableRateSlope1).add(\n                stableRateSlope2.rayMul(excessUtilizationRateRatio)\n            );\n\n            currentVariableBorrowRate = baseVariableBorrowRate.add(variableRateSlope1).add(\n                variableRateSlope2.rayMul(excessUtilizationRateRatio)\n            );\n        } else {\n            currentStableBorrowRate = currentStableBorrowRate.add(\n                stableRateSlope1.rayMul(\n                    utilizationRate.rayDiv(\n                        OPTIMAL_UTILIZATION_RATE\n                    )\n                )\n            );\n            currentVariableBorrowRate = baseVariableBorrowRate.add(\n                utilizationRate.rayDiv(OPTIMAL_UTILIZATION_RATE).rayMul(variableRateSlope1)\n            );\n        }\n\n        currentLiquidityRate = getOverallBorrowRateInternal(\n            _totalBorrowsStable,\n            _totalBorrowsVariable,\n            currentVariableBorrowRate,\n            _averageStableBorrowRate\n        )\n            .rayMul(utilizationRate);\n\n    }\n\n    /**\n    * @dev calculates the overall borrow rate as the weighted average between the total variable borrows and total stable borrows.\n    * @param _totalBorrowsStable the total borrowed from the reserve a stable rate\n    * @param _totalBorrowsVariable the total borrowed from the reserve at a variable rate\n    * @param _currentVariableBorrowRate the current variable borrow rate\n    * @param _currentAverageStableBorrowRate the weighted average of all the stable rate borrows\n    * @return the weighted averaged borrow rate\n    **/\n    function getOverallBorrowRateInternal(\n        uint256 _totalBorrowsStable,\n        uint256 _totalBorrowsVariable,\n        uint256 _currentVariableBorrowRate,\n        uint256 _currentAverageStableBorrowRate\n    ) internal pure returns (uint256) {\n        uint256 totalBorrows = _totalBorrowsStable.add(_totalBorrowsVariable);\n\n        if (totalBorrows == 0) return 0;\n\n        uint256 weightedVariableRate = _totalBorrowsVariable.wadToRay().rayMul(\n            _currentVariableBorrowRate\n        );\n\n        uint256 weightedStableRate = _totalBorrowsStable.wadToRay().rayMul(\n            _currentAverageStableBorrowRate\n        );\n\n        uint256 overallBorrowRate = weightedVariableRate.add(weightedStableRate).rayDiv(\n            totalBorrows.wadToRay()\n        );\n\n        return overallBorrowRate;\n    }\n}\n",
  "sourcePath": "/home/faycal/Desktop/rtoken-monorepo/packages/contracts/aave/contracts/lendingpool/DefaultReserveInterestRateStrategy.sol",
  "compiler": {
    "name": "solc",
    "version": "0.5.12+commit.7709ece9.Emscripten.clang"
  },
  "schemaVersion": "3.0.21",
  "updatedAt": "2020-05-09T23:24:58.195Z",
  "devdoc": {
    "author": "Aave*",
    "details": "if there is need to update the calculation of the interest rates for a specific reserve, a new version of this contract will be deployed.",
    "methods": {
      "calculateInterestRates(address,uint256,uint256,uint256,uint256)": {
        "details": "calculates the interest rates depending on the available liquidity and the total borrowed.",
        "params": {
          "_availableLiquidity": "the liquidity available in the reserve",
          "_averageStableBorrowRate": "the weighted average of all the stable rate borrows",
          "_reserve": "the address of the reserve",
          "_totalBorrowsStable": "the total borrowed from the reserve a stable rate",
          "_totalBorrowsVariable": "the total borrowed from the reserve at a variable rate"
        },
        "return": "the liquidity rate, stable borrow rate and variable borrow rate calculated from the input parameters*"
      },
      "getBaseVariableBorrowRate()": {
        "details": "accessors"
      }
    },
    "title": "DefaultReserveInterestRateStrategy contract"
  },
  "userdoc": {
    "methods": {},
    "notice": "implements the calculation of the interest rates depending on the reserve parameters."
  }
}