{
  "contractName": "TokenDistributor",
  "abi": [
    {
      "anonymous": false,
      "inputs": [
        {
          "indexed": false,
          "internalType": "uint256",
          "name": "amount",
          "type": "uint256"
        }
      ],
      "name": "Burn",
      "type": "event"
    },
    {
      "anonymous": false,
      "inputs": [
        {
          "indexed": false,
          "internalType": "address",
          "name": "receiver",
          "type": "address"
        },
        {
          "indexed": false,
          "internalType": "uint256",
          "name": "percentage",
          "type": "uint256"
        },
        {
          "indexed": false,
          "internalType": "uint256",
          "name": "amount",
          "type": "uint256"
        }
      ],
      "name": "Distributed",
      "type": "event"
    },
    {
      "anonymous": false,
      "inputs": [
        {
          "indexed": false,
          "internalType": "address[]",
          "name": "receivers",
          "type": "address[]"
        },
        {
          "indexed": false,
          "internalType": "uint256[]",
          "name": "percentages",
          "type": "uint256[]"
        }
      ],
      "name": "DistributionUpdated",
      "type": "event"
    },
    {
      "anonymous": false,
      "inputs": [
        {
          "indexed": false,
          "internalType": "address",
          "name": "tokenToBurn",
          "type": "address"
        },
        {
          "indexed": false,
          "internalType": "address",
          "name": "kyberProxy",
          "type": "address"
        },
        {
          "indexed": false,
          "internalType": "address",
          "name": "_recipientBurn",
          "type": "address"
        }
      ],
      "name": "Setup",
      "type": "event"
    },
    {
      "anonymous": false,
      "inputs": [
        {
          "indexed": true,
          "internalType": "address",
          "name": "from",
          "type": "address"
        },
        {
          "indexed": false,
          "internalType": "uint256",
          "name": "fromAmount",
          "type": "uint256"
        },
        {
          "indexed": false,
          "internalType": "uint256",
          "name": "toAmount",
          "type": "uint256"
        }
      ],
      "name": "Trade",
      "type": "event"
    },
    {
      "payable": true,
      "stateMutability": "payable",
      "type": "fallback"
    },
    {
      "constant": true,
      "inputs": [],
      "name": "DISTRIBUTION_BASE",
      "outputs": [
        {
          "internalType": "uint256",
          "name": "",
          "type": "uint256"
        }
      ],
      "payable": false,
      "stateMutability": "view",
      "type": "function"
    },
    {
      "constant": true,
      "inputs": [],
      "name": "IMPLEMENTATION_REVISION",
      "outputs": [
        {
          "internalType": "uint256",
          "name": "",
          "type": "uint256"
        }
      ],
      "payable": false,
      "stateMutability": "view",
      "type": "function"
    },
    {
      "constant": true,
      "inputs": [],
      "name": "KYBER_ETH_MOCK_ADDRESS",
      "outputs": [
        {
          "internalType": "address",
          "name": "",
          "type": "address"
        }
      ],
      "payable": false,
      "stateMutability": "view",
      "type": "function"
    },
    {
      "constant": true,
      "inputs": [],
      "name": "MAX_UINT",
      "outputs": [
        {
          "internalType": "uint256",
          "name": "",
          "type": "uint256"
        }
      ],
      "payable": false,
      "stateMutability": "view",
      "type": "function"
    },
    {
      "constant": true,
      "inputs": [],
      "name": "MAX_UINT_MINUS_ONE",
      "outputs": [
        {
          "internalType": "uint256",
          "name": "",
          "type": "uint256"
        }
      ],
      "payable": false,
      "stateMutability": "view",
      "type": "function"
    },
    {
      "constant": true,
      "inputs": [],
      "name": "MIN_CONVERSION_RATE",
      "outputs": [
        {
          "internalType": "uint256",
          "name": "",
          "type": "uint256"
        }
      ],
      "payable": false,
      "stateMutability": "view",
      "type": "function"
    },
    {
      "constant": true,
      "inputs": [],
      "name": "kyberProxy",
      "outputs": [
        {
          "internalType": "contract IKyberNetworkProxyInterface",
          "name": "",
          "type": "address"
        }
      ],
      "payable": false,
      "stateMutability": "view",
      "type": "function"
    },
    {
      "constant": true,
      "inputs": [],
      "name": "recipientBurn",
      "outputs": [
        {
          "internalType": "address",
          "name": "",
          "type": "address"
        }
      ],
      "payable": false,
      "stateMutability": "view",
      "type": "function"
    },
    {
      "constant": true,
      "inputs": [],
      "name": "tokenToBurn",
      "outputs": [
        {
          "internalType": "address",
          "name": "",
          "type": "address"
        }
      ],
      "payable": false,
      "stateMutability": "view",
      "type": "function"
    },
    {
      "constant": false,
      "inputs": [
        {
          "internalType": "address",
          "name": "_recipientBurn",
          "type": "address"
        },
        {
          "internalType": "address",
          "name": "_tokenToBurn",
          "type": "address"
        },
        {
          "internalType": "address",
          "name": "_kyberProxy",
          "type": "address"
        },
        {
          "internalType": "address[]",
          "name": "_receivers",
          "type": "address[]"
        },
        {
          "internalType": "uint256[]",
          "name": "_percentages",
          "type": "uint256[]"
        },
        {
          "internalType": "contract IERC20[]",
          "name": "_tokens",
          "type": "address[]"
        }
      ],
      "name": "initialize",
      "outputs": [],
      "payable": false,
      "stateMutability": "nonpayable",
      "type": "function"
    },
    {
      "constant": false,
      "inputs": [
        {
          "internalType": "contract IERC20[]",
          "name": "_tokens",
          "type": "address[]"
        }
      ],
      "name": "distribute",
      "outputs": [],
      "payable": false,
      "stateMutability": "nonpayable",
      "type": "function"
    },
    {
      "constant": false,
      "inputs": [
        {
          "internalType": "contract IERC20[]",
          "name": "_tokens",
          "type": "address[]"
        }
      ],
      "name": "approveKyber",
      "outputs": [],
      "payable": false,
      "stateMutability": "nonpayable",
      "type": "function"
    },
    {
      "constant": true,
      "inputs": [],
      "name": "getDistribution",
      "outputs": [
        {
          "internalType": "address[]",
          "name": "receivers",
          "type": "address[]"
        },
        {
          "internalType": "uint256[]",
          "name": "percentages",
          "type": "uint256[]"
        }
      ],
      "payable": false,
      "stateMutability": "view",
      "type": "function"
    }
  ],
  "bytecode": "0x60806040526000805534801561001457600080fd5b50611741806100246000396000f3fe6080604052600436106100c25760003560e01c80634f1b86eb1161007f5780637623bac5116100595780637623bac5146103655780638c0c9a2514610538578063e5b5019a1461054d578063f0eeed8114610562576100c2565b80634f1b86eb146101f45780634fbea8ea146102095780636138889b146102b7576100c2565b8063043c41d4146100c457806313520658146100eb5780631cced51b14610100578063217ab806146101ae57806323879bb1146101df57806340d58a4a146101df575b005b3480156100d057600080fd5b506100d9610577565b60408051918252519081900360200190f35b3480156100f757600080fd5b506100d961057d565b34801561010c57600080fd5b50610115610583565b604051808060200180602001838103835285818151815260200191508051906020019060200280838360005b83811015610159578181015183820152602001610141565b50505050905001838103825284818151815260200191508051906020019060200280838360005b83811015610198578181015183820152602001610180565b5050505090500194505050505060405180910390f35b3480156101ba57600080fd5b506101c3610640565b604080516001600160a01b039092168252519081900360200190f35b3480156101eb57600080fd5b506100d961064f565b34801561020057600080fd5b506101c3610654565b34801561021557600080fd5b506100c26004803603602081101561022c57600080fd5b810190602081018135600160201b81111561024657600080fd5b82018360208201111561025857600080fd5b803590602001918460208302840111600160201b8311171561027957600080fd5b919080806020026020016040519081016040528093929190818152602001838360200280828437600092019190915250929550610663945050505050565b3480156102c357600080fd5b506100c2600480360360208110156102da57600080fd5b810190602081018135600160201b8111156102f457600080fd5b82018360208201111561030657600080fd5b803590602001918460208302840111600160201b8311171561032757600080fd5b9190808060200260200160405190810160405280939291908181526020018383602002808284376000920191909152509295506106f1945050505050565b34801561037157600080fd5b506100c2600480360360c081101561038857600080fd5b6001600160a01b0382358116926020810135821692604082013590921691810190608081016060820135600160201b8111156103c357600080fd5b8201836020820111156103d557600080fd5b803590602001918460208302840111600160201b831117156103f657600080fd5b9190808060200260200160405190810160405280939291908181526020018383602002808284376000920191909152509295949360208101935035915050600160201b81111561044557600080fd5b82018360208201111561045757600080fd5b803590602001918460208302840111600160201b8311171561047857600080fd5b9190808060200260200160405190810160405280939291908181526020018383602002808284376000920191909152509295949360208101935035915050600160201b8111156104c757600080fd5b8201836020820111156104d957600080fd5b803590602001918460208302840111600160201b831117156104fa57600080fd5b919080806020026020016040519081016040528093929190818152602001838360200280828437600092019190915250929550610b16945050505050565b34801561054457600080fd5b506101c3610c53565b34801561055957600080fd5b506100d9610c6b565b34801561056e57600080fd5b506101c3610c71565b60011981565b61271081565b60608060346000018054806020026020016040519081016040528092919081815260200182805480156105df57602002820191906000526020600020905b81546001600160a01b031681526001909101906020018083116105c1575b50505050509150603460010180548060200260200160405190810160405280929190818152602001828054801561063557602002820191906000526020600020905b815481526020019060010190808311610621575b505050505090509091565b6038546001600160a01b031681565b600181565b6037546001600160a01b031681565b60005b81518110156106ed57610677610c80565b6001600160a01b031682828151811061068c57fe5b60200260200101516001600160a01b0316146106e55760365482516106e5916001600160a01b031690600119908590859081106106c557fe5b60200260200101516001600160a01b0316610c999092919063ffffffff16565b600101610666565b5050565b60005b81518110156106ed57600082828151811061070b57fe5b60200260200101519050600061071f610c80565b6001600160a01b0316826001600160a01b0316141561073f5730316107d5565b83838151811061074b57fe5b60200260200101516001600160a01b03166370a08231306040518263ffffffff1660e01b815260040180826001600160a01b03166001600160a01b0316815260200191505060206040518083038186803b1580156107a857600080fd5b505afa1580156107bc573d6000803e3d6000fd5b505050506040513d60208110156107d257600080fd5b50515b9050600081116107e6575050610b0e565b6107ee611520565b60408051603480546060602082028401810185529383018181529293919284929091849184018282801561084b57602002820191906000526020600020905b81546001600160a01b0316815260019091019060200180831161082d575b50505050508152602001600182018054806020026020016040519081016040528092919081815260200182805480156108a357602002820191906000526020600020905b81548152602001906001019080831161088f575b505050505081525050905060008090505b815151811015610b095760006108fc6127106108f0856020015185815181106108d957fe5b602002602001015187610db190919063ffffffff16565b9063ffffffff610e1316565b835180519192506000918490811061091057fe5b60200260200101516001600160a01b031614610ad15761092e610c80565b6001600160a01b0316856001600160a01b0316146109935761098e8360000151838151811061095957fe5b60200260200101518289898151811061096e57fe5b60200260200101516001600160a01b0316610e559092919063ffffffff16565b610a52565b6000836000015183815181106109a557fe5b60200260200101516001600160a01b03168260405180600001905060006040518083038185875af1925050503d80600081146109fd576040519150601f19603f3d011682016040523d82523d6000602084013e610a02565b606091505b5050905080610a50576040805162461bcd60e51b81526020600482015260156024820152742932bb32b93a32b21022aa24103a3930b739b332b960591b604482015290519081900360640190fd5b505b7f60ce3cc2d133631eac66a476f14997a9fa682bd05a60dd993cf02285822d78d883600001518381518110610a8357fe5b602002602001015184602001518481518110610a9b57fe5b602090810291909101810151604080516001600160a01b03909416845291830152818101849052519081900360600190a1610b00565b60375481906001600160a01b03878116911614610af557610af28683610ea7565b90505b610afe81611029565b505b506001016108b4565b505050505b6001016106f4565b6000610b2061111f565b60015490915060ff1680610b375750610b37611124565b80610b43575060005481115b610b7e5760405162461bcd60e51b815260040180806020018281038252602e815260200180611646602e913960400191505060405180910390fd5b60015460ff16158015610b9d576001805460ff19168117905560008290555b603880546001600160a01b03808b166001600160a01b031992831617909255603780548a84169083161790556036805492891692909116919091179055610be4858561112a565b610bed83610663565b604080516001600160a01b03808a16825280891660208301528a168183015290517f99566d155bc7902033d8db6b0f091f12209d9651abdae3aad004632bd3e657b59181900360600190a18015610c49576001805460ff191690555b5050505050505050565b73eeeeeeeeeeeeeeeeeeeeeeeeeeeeeeeeeeeeeeee81565b60001981565b6036546001600160a01b031681565b73eeeeeeeeeeeeeeeeeeeeeeeeeeeeeeeeeeeeeeee5b90565b801580610d1f575060408051636eb1769f60e11b81523060048201526001600160a01b03848116602483015291519185169163dd62ed3e91604480820192602092909190829003018186803b158015610cf157600080fd5b505afa158015610d05573d6000803e3d6000fd5b505050506040513d6020811015610d1b57600080fd5b5051155b610d5a5760405162461bcd60e51b81526004018080602001828103825260368152602001806116d76036913960400191505060405180910390fd5b604080516001600160a01b038416602482015260448082018490528251808303909101815260649091019091526020810180516001600160e01b031663095ea7b360e01b179052610dac908490611284565b505050565b600082610dc057506000610e0d565b82820282848281610dcd57fe5b0414610e0a5760405162461bcd60e51b81526004018080602001828103825260218152602001806116256021913960400191505060405180910390fd5b90505b92915050565b6000610e0a83836040518060400160405280601a81526020017f536166654d6174683a206469766973696f6e206279207a65726f000000000000815250611442565b604080516001600160a01b038416602482015260448082018490528251808303909101815260649091019091526020810180516001600160e01b031663a9059cbb60e01b179052610dac908490611284565b600080610eb2610c80565b6001600160a01b0316846001600160a01b031614610ed05783610ee6565b73eeeeeeeeeeeeeeeeeeeeeeeeeeeeeeeeeeeeeeee5b90506000610ef2610c80565b6001600160a01b0316856001600160a01b031614610f11576000610f13565b835b603654603754604080516329589f6160e01b81526001600160a01b038781166004830152602482018a905292831660448201523060648201526000196084820152600160a4820152600060c4820181905261010060e483015261010482018190529151949550909391909216916329589f619185916101448082019260209290919082900301818588803b158015610faa57600080fd5b505af1158015610fbe573d6000803e3d6000fd5b50505050506040513d6020811015610fd557600080fd5b5051604080518781526020810183905281519293506001600160a01b038616927fc6c64663abd604372f6cce5d7fa31596ffb4de182467cd1fc81bd8adb88c2c2e929181900390910190a295945050505050565b6037546038546040805163a9059cbb60e01b81526001600160a01b039283166004820152602481018590529051919092169163a9059cbb9160448083019260209291908290030181600087803b15801561108257600080fd5b505af1158015611096573d6000803e3d6000fd5b505050506040513d60208110156110ac57600080fd5b50516110e95760405162461bcd60e51b81526004018080602001828103825260398152602001806116746039913960400191505060405180910390fd5b6040805182815290517fb90306ad06b2a6ff86ddc9327db583062895ef6540e62dc50add009db5b356eb9181900360200190a150565b600190565b303b1590565b8051825114611180576040805162461bcd60e51b815260206004820152601d60248201527f4172726179206c656e677468732073686f756c6420626520657175616c000000604482015290519081900360640190fd5b60408051808201909152828152602080820183905283516034916111a891839187019061153a565b5060208281015180516111c1926001850192019061159f565b509050507fdc9f439f707945ade720b0154668dd64af0689fb88b40abdb0f0289156d23e9d8282604051808060200180602001838103835285818151815260200191508051906020019060200280838360005b8381101561122c578181015183820152602001611214565b50505050905001838103825284818151815260200191508051906020019060200280838360005b8381101561126b578181015183820152602001611253565b5050505090500194505050505060405180910390a15050565b611296826001600160a01b03166114e4565b6112e7576040805162461bcd60e51b815260206004820152601f60248201527f5361666545524332303a2063616c6c20746f206e6f6e2d636f6e747261637400604482015290519081900360640190fd5b60006060836001600160a01b0316836040518082805190602001908083835b602083106113255780518252601f199092019160209182019101611306565b6001836020036101000a0380198251168184511680821785525050505050509050019150506000604051808303816000865af19150503d8060008114611387576040519150601f19603f3d011682016040523d82523d6000602084013e61138c565b606091505b5091509150816113e3576040805162461bcd60e51b815260206004820181905260248201527f5361666545524332303a206c6f772d6c6576656c2063616c6c206661696c6564604482015290519081900360640190fd5b80511561143c578080602001905160208110156113ff57600080fd5b505161143c5760405162461bcd60e51b815260040180806020018281038252602a8152602001806116ad602a913960400191505060405180910390fd5b50505050565b600081836114ce5760405162461bcd60e51b81526004018080602001828103825283818151815260200191508051906020019080838360005b8381101561149357818101518382015260200161147b565b50505050905090810190601f1680156114c05780820380516001836020036101000a031916815260200191505b509250505060405180910390fd5b5060008385816114da57fe5b0495945050505050565b6000813f7fc5d2460186f7233c927e7db2dcc703c0e500b653ca82273b7bfad8045d85a47081158015906115185750808214155b949350505050565b604051806040016040528060608152602001606081525090565b82805482825590600052602060002090810192821561158f579160200282015b8281111561158f57825182546001600160a01b0319166001600160a01b0390911617825560209092019160019091019061155a565b5061159b9291506115e6565b5090565b8280548282559060005260206000209081019282156115da579160200282015b828111156115da5782518255916020019190600101906115bf565b5061159b92915061160a565b610c9691905b8082111561159b5780546001600160a01b03191681556001016115ec565b610c9691905b8082111561159b576000815560010161161056fe536166654d6174683a206d756c7469706c69636174696f6e206f766572666c6f77436f6e747261637420696e7374616e63652068617320616c7265616479206265656e20696e697469616c697a6564494e5445524e414c5f4255524e2e205265766572746564207472616e7366657220746f20726563697069656e744275726e20616464726573735361666545524332303a204552433230206f7065726174696f6e20646964206e6f7420737563636565645361666545524332303a20617070726f76652066726f6d206e6f6e2d7a65726f20746f206e6f6e2d7a65726f20616c6c6f77616e6365a265627a7a723158207128e394e28267a3db18d40b463c8fd70575d5775ca888f5895ef7c31edc96cf64736f6c634300050c0032",
  "source": "pragma solidity ^0.5.0;\n\nimport \"@openzeppelin/contracts/math/SafeMath.sol\";\nimport \"@openzeppelin/contracts/token/ERC20/IERC20.sol\";\nimport \"@openzeppelin/contracts/token/ERC20/SafeERC20.sol\";\nimport \"@openzeppelin/contracts/token/ERC20/ERC20Burnable.sol\";\n\nimport \"../libraries/openzeppelin-upgradeability/VersionedInitializable.sol\";\nimport \"../interfaces/IKyberNetworkProxyInterface.sol\";\nimport \"../libraries/EthAddressLib.sol\";\n\n\n/// @title TokenDistributor\n/// @author Aave\n/// @notice Receives tokens and manages the distribution amongst receivers\n///  The usage is as follows:\n///  - The distribution addresses and percentages are set up on construction\n///  - The Kyber Proxy is approved for a list of tokens in construction, which will be later burnt\n///  - At any moment, anyone can call distribute() with a list of token addresses in order to distribute\n///    the accumulated token amounts and/or ETH in this contract to all the receivers with percentages\n///  - If the address(0) is used as receiver, this contract will trade in Kyber to tokenToBurn (LEND)\n///    and burn it (sending to address(0) the tokenToBurn)\ncontract TokenDistributor is VersionedInitializable {\n    using SafeMath for uint256;\n    using SafeERC20 for IERC20;\n\n    struct Distribution {\n        address[] receivers;\n        uint256[] percentages;\n    }\n\n    event DistributionUpdated(address[] receivers, uint256[] percentages);\n    event Distributed(address receiver, uint256 percentage, uint256 amount);\n    event Setup(address tokenToBurn, address kyberProxy, address _recipientBurn);\n    event Trade(address indexed from, uint256 fromAmount, uint256 toAmount);\n    event Burn(uint256 amount);\n\n    uint256 public constant IMPLEMENTATION_REVISION = 0x1;\n\n    uint256 public constant MAX_UINT = 2**256 - 1;\n\n    uint256 public constant MAX_UINT_MINUS_ONE = (2**256 - 1) - 1;\n\n    /// @notice A value of 1 will execute the trade according to market price in the time of the transaction confirmation\n    uint256 public constant MIN_CONVERSION_RATE = 1;\n\n    address public constant KYBER_ETH_MOCK_ADDRESS = address(0x00eeeeeeeeeeeeeeeeeeeeeeeeeeeeeeeeeeeeeeee);\n\n    /// @notice Defines how tokens and ETH are distributed on each call to .distribute()\n    Distribution private distribution;\n\n    /// @notice Instead of using 100 for percentages, higher base to have more precision in the distribution\n    uint256 public constant DISTRIBUTION_BASE = 10000;\n\n    /// @notice Kyber Proxy contract to trade tokens/ETH to tokenToBurn\n    IKyberNetworkProxyInterface public kyberProxy;\n\n    /// @notice The address of the token to burn (LEND token)\n    address public tokenToBurn;\n\n    /// @notice Address to send tokens to \"burn\".\n    /// Because of limitations on OZ ERC20, on dev it's needed to use the 0x00000...1 address instead of address(0)\n    /// So this param needs to be received on construction\n    address public recipientBurn;\n\n    /// @notice Called by the proxy when setting this contract as implementation\n    function initialize(\n        address _recipientBurn,\n        address _tokenToBurn,\n        address _kyberProxy,\n        address[] memory _receivers,\n        uint256[] memory _percentages,\n        IERC20[] memory _tokens\n    ) public initializer {\n        recipientBurn = _recipientBurn;\n        tokenToBurn = _tokenToBurn;\n        kyberProxy = IKyberNetworkProxyInterface(_kyberProxy);\n        internalSetTokenDistribution(_receivers, _percentages);\n        approveKyber(_tokens);\n        emit Setup(_tokenToBurn, _kyberProxy, _recipientBurn);\n    }\n\n    /// @notice In order to receive ETH transfers\n    function() external payable {}\n\n    /// @notice Distributes a list of _tokens balances in this contract, depending on the distribution\n    /// @param _tokens list of ERC20 tokens to distribute\n    function distribute(IERC20[] memory _tokens) public {\n        for (uint256 i = 0; i < _tokens.length; i++) {\n            address _tokenAddress = address(_tokens[i]);\n            uint256 _balanceToDistribute = (_tokenAddress != EthAddressLib.ethAddress())\n                ? _tokens[i].balanceOf(address(this))\n                : address(this).balance;\n            if (_balanceToDistribute <= 0) {\n                continue;\n            }\n\n            Distribution memory _distribution = distribution;\n            for (uint256 j = 0; j < _distribution.receivers.length; j++) {\n                uint256 _amount = _balanceToDistribute.mul(_distribution.percentages[j]).div(DISTRIBUTION_BASE);\n                if (_distribution.receivers[j] != address(0)) {\n                    if (_tokenAddress != EthAddressLib.ethAddress()) {\n                        _tokens[i].safeTransfer(_distribution.receivers[j], _amount);\n                    } else {\n                        (bool _success,) = _distribution.receivers[j].call.value(_amount)(\"\");\n                        require(_success, \"Reverted ETH transfer\");\n                    }\n                    emit Distributed(_distribution.receivers[j], _distribution.percentages[j], _amount);\n                } else {\n                    uint256 _amountToBurn = _amount;\n                    // If the token to burn is already tokenToBurn, we don't trade, burning directly\n                    if (_tokenAddress != tokenToBurn) {\n                        _amountToBurn = internalTrade(_tokenAddress, _amount);\n                    }\n                    internalBurn(_amountToBurn);\n                }\n            }\n        }\n    }\n\n    /// @notice \"Infinite\" approval for all the tokens initialized\n    /// @param _tokens List of IERC20 to approve\n    function approveKyber(IERC20[] memory _tokens) public {\n        for (uint256 i = 0; i < _tokens.length; i++) {\n            if (address(_tokens[i]) != EthAddressLib.ethAddress()) {\n                _tokens[i].safeApprove(address(kyberProxy), MAX_UINT_MINUS_ONE);\n            }\n        }\n    }\n\n    /// @notice Returns the receivers and percentages of the contract Distribution\n    /// @return receivers array of addresses and percentages array on uints\n    function getDistribution() public view returns(address[] memory receivers, uint256[] memory percentages) {\n        receivers = distribution.receivers;\n        percentages = distribution.percentages;\n    }\n\n    /// @notice Gets the revision number of the contract\n    /// @return The revision numeric reference\n    function getRevision() internal pure returns (uint256) {\n        return IMPLEMENTATION_REVISION;\n    }\n\n    /// @notice Sets _receivers addresses with _percentages for each one\n    /// @param _receivers Array of addresses receiving a percentage of the distribution, both user addresses\n    ///   or contracts\n    /// @param _percentages Array of percentages each _receivers member will get\n    function internalSetTokenDistribution(address[] memory _receivers, uint256[] memory _percentages) internal {\n        require(_receivers.length == _percentages.length, \"Array lengths should be equal\");\n\n        distribution = Distribution({receivers: _receivers, percentages: _percentages});\n        emit DistributionUpdated(_receivers, _percentages);\n    }\n\n    /// @notice Internal trade function\n    /// @param _from The token to trade from\n    /// @param _amount The amount to trade\n    function internalTrade(address _from, uint256 _amount) internal returns(uint256) {\n        address _kyberFromRef = (_from == EthAddressLib.ethAddress())\n            ? KYBER_ETH_MOCK_ADDRESS\n            : _from;\n        uint256 _value = (_from == EthAddressLib.ethAddress())\n            ? _amount\n            : 0;\n\n        uint256 _amountReceived = kyberProxy.tradeWithHint.value(_value)(\n            // _from token (or ETH mock address)\n            IERC20(_kyberFromRef),\n            // amount of the _from token to trade\n            _amount,\n            // _to token (or ETH mock address)\n            IERC20(tokenToBurn),\n            // address which will receive the _to token amount traded\n            address(this),\n            // max amount to receive, no limit, using the max uint\n            MAX_UINT,\n            // conversion rate, use 1 for market price\n            MIN_CONVERSION_RATE,\n            // Related with a referral program, not needed\n            0x0000000000000000000000000000000000000000,\n            // Related with filtering of reserves by permisionless or not. Not needed\n            \"\"\n        );\n        emit Trade(_kyberFromRef, _amount, _amountReceived);\n        return _amountReceived;\n    }\n\n    /// @notice Internal function to send _amount of tokenToBurn to the 0x0 address\n    /// @param _amount The amount to burn\n    function internalBurn(uint256 _amount) internal {\n        require(IERC20(tokenToBurn).transfer(recipientBurn, _amount), \"INTERNAL_BURN. Reverted transfer to recipientBurn address\");\n        emit Burn(_amount);\n    }\n\n}",
  "sourcePath": "/home/faycal/Desktop/rtoken-monorepo/packages/contracts/aave/contracts/fees/TokenDistributor.sol",
  "compiler": {
    "name": "solc",
    "version": "0.5.12+commit.7709ece9.Emscripten.clang"
  },
  "schemaVersion": "3.0.21",
  "updatedAt": "2020-05-09T23:24:58.178Z",
  "devdoc": {
    "author": "Aave",
    "methods": {
      "approveKyber(address[])": {
        "params": {
          "_tokens": "List of IERC20 to approve"
        }
      },
      "distribute(address[])": {
        "params": {
          "_tokens": "list of ERC20 tokens to distribute"
        }
      },
      "getDistribution()": {
        "return": "receivers array of addresses and percentages array on uints"
      }
    },
    "title": "TokenDistributor"
  },
  "userdoc": {
    "methods": {
      "approveKyber(address[])": {
        "notice": "\"Infinite\" approval for all the tokens initialized"
      },
      "distribute(address[])": {
        "notice": "Distributes a list of _tokens balances in this contract, depending on the distribution"
      },
      "getDistribution()": {
        "notice": "Returns the receivers and percentages of the contract Distribution"
      },
      "initialize(address,address,address,address[],uint256[],address[])": {
        "notice": "Called by the proxy when setting this contract as implementation"
      }
    },
    "notice": "Receives tokens and manages the distribution amongst receivers  The usage is as follows:  - The distribution addresses and percentages are set up on construction  - The Kyber Proxy is approved for a list of tokens in construction, which will be later burnt  - At any moment, anyone can call distribute() with a list of token addresses in order to distribute    the accumulated token amounts and/or ETH in this contract to all the receivers with percentages  - If the address(0) is used as receiver, this contract will trade in Kyber to tokenToBurn (LEND)    and burn it (sending to address(0) the tokenToBurn)"
  }
}