{
  "contractName": "LendingPoolCore",
  "abi": [
    {
      "anonymous": false,
      "inputs": [
        {
          "indexed": true,
          "internalType": "address",
          "name": "reserve",
          "type": "address"
        },
        {
          "indexed": false,
          "internalType": "uint256",
          "name": "liquidityRate",
          "type": "uint256"
        },
        {
          "indexed": false,
          "internalType": "uint256",
          "name": "stableBorrowRate",
          "type": "uint256"
        },
        {
          "indexed": false,
          "internalType": "uint256",
          "name": "variableBorrowRate",
          "type": "uint256"
        },
        {
          "indexed": false,
          "internalType": "uint256",
          "name": "liquidityIndex",
          "type": "uint256"
        },
        {
          "indexed": false,
          "internalType": "uint256",
          "name": "variableBorrowIndex",
          "type": "uint256"
        }
      ],
      "name": "ReserveUpdated",
      "type": "event"
    },
    {
      "payable": true,
      "stateMutability": "payable",
      "type": "fallback"
    },
    {
      "constant": true,
      "inputs": [],
      "name": "CORE_REVISION",
      "outputs": [
        {
          "internalType": "uint256",
          "name": "",
          "type": "uint256"
        }
      ],
      "payable": false,
      "stateMutability": "view",
      "type": "function"
    },
    {
      "constant": true,
      "inputs": [],
      "name": "addressesProvider",
      "outputs": [
        {
          "internalType": "contract LendingPoolAddressesProvider",
          "name": "",
          "type": "address"
        }
      ],
      "payable": false,
      "stateMutability": "view",
      "type": "function"
    },
    {
      "constant": true,
      "inputs": [],
      "name": "lendingPoolAddress",
      "outputs": [
        {
          "internalType": "address",
          "name": "",
          "type": "address"
        }
      ],
      "payable": false,
      "stateMutability": "view",
      "type": "function"
    },
    {
      "constant": true,
      "inputs": [
        {
          "internalType": "uint256",
          "name": "",
          "type": "uint256"
        }
      ],
      "name": "reservesList",
      "outputs": [
        {
          "internalType": "address",
          "name": "",
          "type": "address"
        }
      ],
      "payable": false,
      "stateMutability": "view",
      "type": "function"
    },
    {
      "constant": false,
      "inputs": [
        {
          "internalType": "contract LendingPoolAddressesProvider",
          "name": "_addressesProvider",
          "type": "address"
        }
      ],
      "name": "initialize",
      "outputs": [],
      "payable": false,
      "stateMutability": "nonpayable",
      "type": "function"
    },
    {
      "constant": false,
      "inputs": [
        {
          "internalType": "address",
          "name": "_reserve",
          "type": "address"
        },
        {
          "internalType": "address",
          "name": "_user",
          "type": "address"
        },
        {
          "internalType": "uint256",
          "name": "_amount",
          "type": "uint256"
        },
        {
          "internalType": "bool",
          "name": "_isFirstDeposit",
          "type": "bool"
        }
      ],
      "name": "updateStateOnDeposit",
      "outputs": [],
      "payable": false,
      "stateMutability": "nonpayable",
      "type": "function"
    },
    {
      "constant": false,
      "inputs": [
        {
          "internalType": "address",
          "name": "_reserve",
          "type": "address"
        },
        {
          "internalType": "address",
          "name": "_user",
          "type": "address"
        },
        {
          "internalType": "uint256",
          "name": "_amountRedeemed",
          "type": "uint256"
        },
        {
          "internalType": "bool",
          "name": "_userRedeemedEverything",
          "type": "bool"
        }
      ],
      "name": "updateStateOnRedeem",
      "outputs": [],
      "payable": false,
      "stateMutability": "nonpayable",
      "type": "function"
    },
    {
      "constant": false,
      "inputs": [
        {
          "internalType": "address",
          "name": "_reserve",
          "type": "address"
        },
        {
          "internalType": "uint256",
          "name": "_availableLiquidityBefore",
          "type": "uint256"
        },
        {
          "internalType": "uint256",
          "name": "_income",
          "type": "uint256"
        },
        {
          "internalType": "uint256",
          "name": "_protocolFee",
          "type": "uint256"
        }
      ],
      "name": "updateStateOnFlashLoan",
      "outputs": [],
      "payable": false,
      "stateMutability": "nonpayable",
      "type": "function"
    },
    {
      "constant": false,
      "inputs": [
        {
          "internalType": "address",
          "name": "_reserve",
          "type": "address"
        },
        {
          "internalType": "address",
          "name": "_user",
          "type": "address"
        },
        {
          "internalType": "uint256",
          "name": "_amountBorrowed",
          "type": "uint256"
        },
        {
          "internalType": "uint256",
          "name": "_borrowFee",
          "type": "uint256"
        },
        {
          "internalType": "enum CoreLibrary.InterestRateMode",
          "name": "_rateMode",
          "type": "uint8"
        }
      ],
      "name": "updateStateOnBorrow",
      "outputs": [
        {
          "internalType": "uint256",
          "name": "",
          "type": "uint256"
        },
        {
          "internalType": "uint256",
          "name": "",
          "type": "uint256"
        }
      ],
      "payable": false,
      "stateMutability": "nonpayable",
      "type": "function"
    },
    {
      "constant": false,
      "inputs": [
        {
          "internalType": "address",
          "name": "_reserve",
          "type": "address"
        },
        {
          "internalType": "address",
          "name": "_user",
          "type": "address"
        },
        {
          "internalType": "uint256",
          "name": "_paybackAmountMinusFees",
          "type": "uint256"
        },
        {
          "internalType": "uint256",
          "name": "_originationFeeRepaid",
          "type": "uint256"
        },
        {
          "internalType": "uint256",
          "name": "_balanceIncrease",
          "type": "uint256"
        },
        {
          "internalType": "bool",
          "name": "_repaidWholeLoan",
          "type": "bool"
        }
      ],
      "name": "updateStateOnRepay",
      "outputs": [],
      "payable": false,
      "stateMutability": "nonpayable",
      "type": "function"
    },
    {
      "constant": false,
      "inputs": [
        {
          "internalType": "address",
          "name": "_reserve",
          "type": "address"
        },
        {
          "internalType": "address",
          "name": "_user",
          "type": "address"
        },
        {
          "internalType": "uint256",
          "name": "_principalBorrowBalance",
          "type": "uint256"
        },
        {
          "internalType": "uint256",
          "name": "_compoundedBorrowBalance",
          "type": "uint256"
        },
        {
          "internalType": "uint256",
          "name": "_balanceIncrease",
          "type": "uint256"
        },
        {
          "internalType": "enum CoreLibrary.InterestRateMode",
          "name": "_currentRateMode",
          "type": "uint8"
        }
      ],
      "name": "updateStateOnSwapRate",
      "outputs": [
        {
          "internalType": "enum CoreLibrary.InterestRateMode",
          "name": "",
          "type": "uint8"
        },
        {
          "internalType": "uint256",
          "name": "",
          "type": "uint256"
        }
      ],
      "payable": false,
      "stateMutability": "nonpayable",
      "type": "function"
    },
    {
      "constant": false,
      "inputs": [
        {
          "internalType": "address",
          "name": "_principalReserve",
          "type": "address"
        },
        {
          "internalType": "address",
          "name": "_collateralReserve",
          "type": "address"
        },
        {
          "internalType": "address",
          "name": "_user",
          "type": "address"
        },
        {
          "internalType": "uint256",
          "name": "_amountToLiquidate",
          "type": "uint256"
        },
        {
          "internalType": "uint256",
          "name": "_collateralToLiquidate",
          "type": "uint256"
        },
        {
          "internalType": "uint256",
          "name": "_feeLiquidated",
          "type": "uint256"
        },
        {
          "internalType": "uint256",
          "name": "_liquidatedCollateralForFee",
          "type": "uint256"
        },
        {
          "internalType": "uint256",
          "name": "_balanceIncrease",
          "type": "uint256"
        },
        {
          "internalType": "bool",
          "name": "_liquidatorReceivesAToken",
          "type": "bool"
        }
      ],
      "name": "updateStateOnLiquidation",
      "outputs": [],
      "payable": false,
      "stateMutability": "nonpayable",
      "type": "function"
    },
    {
      "constant": false,
      "inputs": [
        {
          "internalType": "address",
          "name": "_reserve",
          "type": "address"
        },
        {
          "internalType": "address",
          "name": "_user",
          "type": "address"
        },
        {
          "internalType": "uint256",
          "name": "_balanceIncrease",
          "type": "uint256"
        }
      ],
      "name": "updateStateOnRebalance",
      "outputs": [
        {
          "internalType": "uint256",
          "name": "",
          "type": "uint256"
        }
      ],
      "payable": false,
      "stateMutability": "nonpayable",
      "type": "function"
    },
    {
      "constant": false,
      "inputs": [
        {
          "internalType": "address",
          "name": "_reserve",
          "type": "address"
        },
        {
          "internalType": "address",
          "name": "_user",
          "type": "address"
        },
        {
          "internalType": "bool",
          "name": "_useAsCollateral",
          "type": "bool"
        }
      ],
      "name": "setUserUseReserveAsCollateral",
      "outputs": [],
      "payable": false,
      "stateMutability": "nonpayable",
      "type": "function"
    },
    {
      "constant": false,
      "inputs": [
        {
          "internalType": "address",
          "name": "_reserve",
          "type": "address"
        },
        {
          "internalType": "address payable",
          "name": "_user",
          "type": "address"
        },
        {
          "internalType": "uint256",
          "name": "_amount",
          "type": "uint256"
        }
      ],
      "name": "transferToUser",
      "outputs": [],
      "payable": false,
      "stateMutability": "nonpayable",
      "type": "function"
    },
    {
      "constant": false,
      "inputs": [
        {
          "internalType": "address",
          "name": "_token",
          "type": "address"
        },
        {
          "internalType": "address",
          "name": "_user",
          "type": "address"
        },
        {
          "internalType": "uint256",
          "name": "_amount",
          "type": "uint256"
        },
        {
          "internalType": "address",
          "name": "_destination",
          "type": "address"
        }
      ],
      "name": "transferToFeeCollectionAddress",
      "outputs": [],
      "payable": true,
      "stateMutability": "payable",
      "type": "function"
    },
    {
      "constant": false,
      "inputs": [
        {
          "internalType": "address",
          "name": "_token",
          "type": "address"
        },
        {
          "internalType": "uint256",
          "name": "_amount",
          "type": "uint256"
        },
        {
          "internalType": "address",
          "name": "_destination",
          "type": "address"
        }
      ],
      "name": "liquidateFee",
      "outputs": [],
      "payable": true,
      "stateMutability": "payable",
      "type": "function"
    },
    {
      "constant": false,
      "inputs": [
        {
          "internalType": "address",
          "name": "_reserve",
          "type": "address"
        },
        {
          "internalType": "address payable",
          "name": "_user",
          "type": "address"
        },
        {
          "internalType": "uint256",
          "name": "_amount",
          "type": "uint256"
        }
      ],
      "name": "transferToReserve",
      "outputs": [],
      "payable": true,
      "stateMutability": "payable",
      "type": "function"
    },
    {
      "constant": true,
      "inputs": [
        {
          "internalType": "address",
          "name": "_reserve",
          "type": "address"
        },
        {
          "internalType": "address",
          "name": "_user",
          "type": "address"
        }
      ],
      "name": "getUserBasicReserveData",
      "outputs": [
        {
          "internalType": "uint256",
          "name": "",
          "type": "uint256"
        },
        {
          "internalType": "uint256",
          "name": "",
          "type": "uint256"
        },
        {
          "internalType": "uint256",
          "name": "",
          "type": "uint256"
        },
        {
          "internalType": "bool",
          "name": "",
          "type": "bool"
        }
      ],
      "payable": false,
      "stateMutability": "view",
      "type": "function"
    },
    {
      "constant": true,
      "inputs": [
        {
          "internalType": "address",
          "name": "_reserve",
          "type": "address"
        },
        {
          "internalType": "address",
          "name": "_user",
          "type": "address"
        },
        {
          "internalType": "uint256",
          "name": "_amount",
          "type": "uint256"
        }
      ],
      "name": "isUserAllowedToBorrowAtStable",
      "outputs": [
        {
          "internalType": "bool",
          "name": "",
          "type": "bool"
        }
      ],
      "payable": false,
      "stateMutability": "view",
      "type": "function"
    },
    {
      "constant": true,
      "inputs": [
        {
          "internalType": "address",
          "name": "_reserve",
          "type": "address"
        },
        {
          "internalType": "address",
          "name": "_user",
          "type": "address"
        }
      ],
      "name": "getUserUnderlyingAssetBalance",
      "outputs": [
        {
          "internalType": "uint256",
          "name": "",
          "type": "uint256"
        }
      ],
      "payable": false,
      "stateMutability": "view",
      "type": "function"
    },
    {
      "constant": true,
      "inputs": [
        {
          "internalType": "address",
          "name": "_reserve",
          "type": "address"
        }
      ],
      "name": "getReserveInterestRateStrategyAddress",
      "outputs": [
        {
          "internalType": "address",
          "name": "",
          "type": "address"
        }
      ],
      "payable": false,
      "stateMutability": "view",
      "type": "function"
    },
    {
      "constant": true,
      "inputs": [
        {
          "internalType": "address",
          "name": "_reserve",
          "type": "address"
        }
      ],
      "name": "getReserveATokenAddress",
      "outputs": [
        {
          "internalType": "address",
          "name": "",
          "type": "address"
        }
      ],
      "payable": false,
      "stateMutability": "view",
      "type": "function"
    },
    {
      "constant": true,
      "inputs": [
        {
          "internalType": "address",
          "name": "_reserve",
          "type": "address"
        }
      ],
      "name": "getReserveAvailableLiquidity",
      "outputs": [
        {
          "internalType": "uint256",
          "name": "",
          "type": "uint256"
        }
      ],
      "payable": false,
      "stateMutability": "view",
      "type": "function"
    },
    {
      "constant": true,
      "inputs": [
        {
          "internalType": "address",
          "name": "_reserve",
          "type": "address"
        }
      ],
      "name": "getReserveTotalLiquidity",
      "outputs": [
        {
          "internalType": "uint256",
          "name": "",
          "type": "uint256"
        }
      ],
      "payable": false,
      "stateMutability": "view",
      "type": "function"
    },
    {
      "constant": true,
      "inputs": [
        {
          "internalType": "address",
          "name": "_reserve",
          "type": "address"
        }
      ],
      "name": "getReserveNormalizedIncome",
      "outputs": [
        {
          "internalType": "uint256",
          "name": "",
          "type": "uint256"
        }
      ],
      "payable": false,
      "stateMutability": "view",
      "type": "function"
    },
    {
      "constant": true,
      "inputs": [
        {
          "internalType": "address",
          "name": "_reserve",
          "type": "address"
        }
      ],
      "name": "getReserveTotalBorrows",
      "outputs": [
        {
          "internalType": "uint256",
          "name": "",
          "type": "uint256"
        }
      ],
      "payable": false,
      "stateMutability": "view",
      "type": "function"
    },
    {
      "constant": true,
      "inputs": [
        {
          "internalType": "address",
          "name": "_reserve",
          "type": "address"
        }
      ],
      "name": "getReserveTotalBorrowsStable",
      "outputs": [
        {
          "internalType": "uint256",
          "name": "",
          "type": "uint256"
        }
      ],
      "payable": false,
      "stateMutability": "view",
      "type": "function"
    },
    {
      "constant": true,
      "inputs": [
        {
          "internalType": "address",
          "name": "_reserve",
          "type": "address"
        }
      ],
      "name": "getReserveTotalBorrowsVariable",
      "outputs": [
        {
          "internalType": "uint256",
          "name": "",
          "type": "uint256"
        }
      ],
      "payable": false,
      "stateMutability": "view",
      "type": "function"
    },
    {
      "constant": true,
      "inputs": [
        {
          "internalType": "address",
          "name": "_reserve",
          "type": "address"
        }
      ],
      "name": "getReserveLiquidationThreshold",
      "outputs": [
        {
          "internalType": "uint256",
          "name": "",
          "type": "uint256"
        }
      ],
      "payable": false,
      "stateMutability": "view",
      "type": "function"
    },
    {
      "constant": true,
      "inputs": [
        {
          "internalType": "address",
          "name": "_reserve",
          "type": "address"
        }
      ],
      "name": "getReserveLiquidationBonus",
      "outputs": [
        {
          "internalType": "uint256",
          "name": "",
          "type": "uint256"
        }
      ],
      "payable": false,
      "stateMutability": "view",
      "type": "function"
    },
    {
      "constant": true,
      "inputs": [
        {
          "internalType": "address",
          "name": "_reserve",
          "type": "address"
        }
      ],
      "name": "getReserveCurrentVariableBorrowRate",
      "outputs": [
        {
          "internalType": "uint256",
          "name": "",
          "type": "uint256"
        }
      ],
      "payable": false,
      "stateMutability": "view",
      "type": "function"
    },
    {
      "constant": true,
      "inputs": [
        {
          "internalType": "address",
          "name": "_reserve",
          "type": "address"
        }
      ],
      "name": "getReserveCurrentStableBorrowRate",
      "outputs": [
        {
          "internalType": "uint256",
          "name": "",
          "type": "uint256"
        }
      ],
      "payable": false,
      "stateMutability": "view",
      "type": "function"
    },
    {
      "constant": true,
      "inputs": [
        {
          "internalType": "address",
          "name": "_reserve",
          "type": "address"
        }
      ],
      "name": "getReserveCurrentAverageStableBorrowRate",
      "outputs": [
        {
          "internalType": "uint256",
          "name": "",
          "type": "uint256"
        }
      ],
      "payable": false,
      "stateMutability": "view",
      "type": "function"
    },
    {
      "constant": true,
      "inputs": [
        {
          "internalType": "address",
          "name": "_reserve",
          "type": "address"
        }
      ],
      "name": "getReserveCurrentLiquidityRate",
      "outputs": [
        {
          "internalType": "uint256",
          "name": "",
          "type": "uint256"
        }
      ],
      "payable": false,
      "stateMutability": "view",
      "type": "function"
    },
    {
      "constant": true,
      "inputs": [
        {
          "internalType": "address",
          "name": "_reserve",
          "type": "address"
        }
      ],
      "name": "getReserveLiquidityCumulativeIndex",
      "outputs": [
        {
          "internalType": "uint256",
          "name": "",
          "type": "uint256"
        }
      ],
      "payable": false,
      "stateMutability": "view",
      "type": "function"
    },
    {
      "constant": true,
      "inputs": [
        {
          "internalType": "address",
          "name": "_reserve",
          "type": "address"
        }
      ],
      "name": "getReserveVariableBorrowsCumulativeIndex",
      "outputs": [
        {
          "internalType": "uint256",
          "name": "",
          "type": "uint256"
        }
      ],
      "payable": false,
      "stateMutability": "view",
      "type": "function"
    },
    {
      "constant": true,
      "inputs": [
        {
          "internalType": "address",
          "name": "_reserve",
          "type": "address"
        }
      ],
      "name": "getReserveConfiguration",
      "outputs": [
        {
          "internalType": "uint256",
          "name": "",
          "type": "uint256"
        },
        {
          "internalType": "uint256",
          "name": "",
          "type": "uint256"
        },
        {
          "internalType": "uint256",
          "name": "",
          "type": "uint256"
        },
        {
          "internalType": "bool",
          "name": "",
          "type": "bool"
        }
      ],
      "payable": false,
      "stateMutability": "view",
      "type": "function"
    },
    {
      "constant": true,
      "inputs": [
        {
          "internalType": "address",
          "name": "_reserve",
          "type": "address"
        }
      ],
      "name": "getReserveDecimals",
      "outputs": [
        {
          "internalType": "uint256",
          "name": "",
          "type": "uint256"
        }
      ],
      "payable": false,
      "stateMutability": "view",
      "type": "function"
    },
    {
      "constant": true,
      "inputs": [
        {
          "internalType": "address",
          "name": "_reserve",
          "type": "address"
        }
      ],
      "name": "isReserveBorrowingEnabled",
      "outputs": [
        {
          "internalType": "bool",
          "name": "",
          "type": "bool"
        }
      ],
      "payable": false,
      "stateMutability": "view",
      "type": "function"
    },
    {
      "constant": true,
      "inputs": [
        {
          "internalType": "address",
          "name": "_reserve",
          "type": "address"
        }
      ],
      "name": "isReserveUsageAsCollateralEnabled",
      "outputs": [
        {
          "internalType": "bool",
          "name": "",
          "type": "bool"
        }
      ],
      "payable": false,
      "stateMutability": "view",
      "type": "function"
    },
    {
      "constant": true,
      "inputs": [
        {
          "internalType": "address",
          "name": "_reserve",
          "type": "address"
        }
      ],
      "name": "getReserveIsStableBorrowRateEnabled",
      "outputs": [
        {
          "internalType": "bool",
          "name": "",
          "type": "bool"
        }
      ],
      "payable": false,
      "stateMutability": "view",
      "type": "function"
    },
    {
      "constant": true,
      "inputs": [
        {
          "internalType": "address",
          "name": "_reserve",
          "type": "address"
        }
      ],
      "name": "getReserveIsActive",
      "outputs": [
        {
          "internalType": "bool",
          "name": "",
          "type": "bool"
        }
      ],
      "payable": false,
      "stateMutability": "view",
      "type": "function"
    },
    {
      "constant": true,
      "inputs": [
        {
          "internalType": "address",
          "name": "_reserve",
          "type": "address"
        }
      ],
      "name": "getReserveIsFreezed",
      "outputs": [
        {
          "internalType": "bool",
          "name": "",
          "type": "bool"
        }
      ],
      "payable": false,
      "stateMutability": "view",
      "type": "function"
    },
    {
      "constant": true,
      "inputs": [
        {
          "internalType": "address",
          "name": "_reserve",
          "type": "address"
        }
      ],
      "name": "getReserveLastUpdate",
      "outputs": [
        {
          "internalType": "uint40",
          "name": "timestamp",
          "type": "uint40"
        }
      ],
      "payable": false,
      "stateMutability": "view",
      "type": "function"
    },
    {
      "constant": true,
      "inputs": [
        {
          "internalType": "address",
          "name": "_reserve",
          "type": "address"
        }
      ],
      "name": "getReserveUtilizationRate",
      "outputs": [
        {
          "internalType": "uint256",
          "name": "",
          "type": "uint256"
        }
      ],
      "payable": false,
      "stateMutability": "view",
      "type": "function"
    },
    {
      "constant": true,
      "inputs": [],
      "name": "getReserves",
      "outputs": [
        {
          "internalType": "address[]",
          "name": "",
          "type": "address[]"
        }
      ],
      "payable": false,
      "stateMutability": "view",
      "type": "function"
    },
    {
      "constant": true,
      "inputs": [
        {
          "internalType": "address",
          "name": "_reserve",
          "type": "address"
        },
        {
          "internalType": "address",
          "name": "_user",
          "type": "address"
        }
      ],
      "name": "isUserUseReserveAsCollateralEnabled",
      "outputs": [
        {
          "internalType": "bool",
          "name": "",
          "type": "bool"
        }
      ],
      "payable": false,
      "stateMutability": "view",
      "type": "function"
    },
    {
      "constant": true,
      "inputs": [
        {
          "internalType": "address",
          "name": "_reserve",
          "type": "address"
        },
        {
          "internalType": "address",
          "name": "_user",
          "type": "address"
        }
      ],
      "name": "getUserOriginationFee",
      "outputs": [
        {
          "internalType": "uint256",
          "name": "",
          "type": "uint256"
        }
      ],
      "payable": false,
      "stateMutability": "view",
      "type": "function"
    },
    {
      "constant": true,
      "inputs": [
        {
          "internalType": "address",
          "name": "_reserve",
          "type": "address"
        },
        {
          "internalType": "address",
          "name": "_user",
          "type": "address"
        }
      ],
      "name": "getUserCurrentBorrowRateMode",
      "outputs": [
        {
          "internalType": "enum CoreLibrary.InterestRateMode",
          "name": "",
          "type": "uint8"
        }
      ],
      "payable": false,
      "stateMutability": "view",
      "type": "function"
    },
    {
      "constant": true,
      "inputs": [
        {
          "internalType": "address",
          "name": "_reserve",
          "type": "address"
        },
        {
          "internalType": "address",
          "name": "_user",
          "type": "address"
        }
      ],
      "name": "getUserCurrentStableBorrowRate",
      "outputs": [
        {
          "internalType": "uint256",
          "name": "",
          "type": "uint256"
        }
      ],
      "payable": false,
      "stateMutability": "view",
      "type": "function"
    },
    {
      "constant": true,
      "inputs": [
        {
          "internalType": "address",
          "name": "_reserve",
          "type": "address"
        },
        {
          "internalType": "address",
          "name": "_user",
          "type": "address"
        }
      ],
      "name": "getUserBorrowBalances",
      "outputs": [
        {
          "internalType": "uint256",
          "name": "",
          "type": "uint256"
        },
        {
          "internalType": "uint256",
          "name": "",
          "type": "uint256"
        },
        {
          "internalType": "uint256",
          "name": "",
          "type": "uint256"
        }
      ],
      "payable": false,
      "stateMutability": "view",
      "type": "function"
    },
    {
      "constant": true,
      "inputs": [
        {
          "internalType": "address",
          "name": "_reserve",
          "type": "address"
        },
        {
          "internalType": "address",
          "name": "_user",
          "type": "address"
        }
      ],
      "name": "getUserVariableBorrowCumulativeIndex",
      "outputs": [
        {
          "internalType": "uint256",
          "name": "",
          "type": "uint256"
        }
      ],
      "payable": false,
      "stateMutability": "view",
      "type": "function"
    },
    {
      "constant": true,
      "inputs": [
        {
          "internalType": "address",
          "name": "_reserve",
          "type": "address"
        },
        {
          "internalType": "address",
          "name": "_user",
          "type": "address"
        }
      ],
      "name": "getUserLastUpdate",
      "outputs": [
        {
          "internalType": "uint256",
          "name": "timestamp",
          "type": "uint256"
        }
      ],
      "payable": false,
      "stateMutability": "view",
      "type": "function"
    },
    {
      "constant": false,
      "inputs": [],
      "name": "refreshConfiguration",
      "outputs": [],
      "payable": false,
      "stateMutability": "nonpayable",
      "type": "function"
    },
    {
      "constant": false,
      "inputs": [
        {
          "internalType": "address",
          "name": "_reserve",
          "type": "address"
        },
        {
          "internalType": "address",
          "name": "_aTokenAddress",
          "type": "address"
        },
        {
          "internalType": "uint256",
          "name": "_decimals",
          "type": "uint256"
        },
        {
          "internalType": "address",
          "name": "_interestRateStrategyAddress",
          "type": "address"
        }
      ],
      "name": "initReserve",
      "outputs": [],
      "payable": false,
      "stateMutability": "nonpayable",
      "type": "function"
    },
    {
      "constant": false,
      "inputs": [
        {
          "internalType": "address",
          "name": "_reserveToRemove",
          "type": "address"
        }
      ],
      "name": "removeLastAddedReserve",
      "outputs": [],
      "payable": false,
      "stateMutability": "nonpayable",
      "type": "function"
    },
    {
      "constant": false,
      "inputs": [
        {
          "internalType": "address",
          "name": "_reserve",
          "type": "address"
        },
        {
          "internalType": "address",
          "name": "_rateStrategyAddress",
          "type": "address"
        }
      ],
      "name": "setReserveInterestRateStrategyAddress",
      "outputs": [],
      "payable": false,
      "stateMutability": "nonpayable",
      "type": "function"
    },
    {
      "constant": false,
      "inputs": [
        {
          "internalType": "address",
          "name": "_reserve",
          "type": "address"
        },
        {
          "internalType": "bool",
          "name": "_stableBorrowRateEnabled",
          "type": "bool"
        }
      ],
      "name": "enableBorrowingOnReserve",
      "outputs": [],
      "payable": false,
      "stateMutability": "nonpayable",
      "type": "function"
    },
    {
      "constant": false,
      "inputs": [
        {
          "internalType": "address",
          "name": "_reserve",
          "type": "address"
        }
      ],
      "name": "disableBorrowingOnReserve",
      "outputs": [],
      "payable": false,
      "stateMutability": "nonpayable",
      "type": "function"
    },
    {
      "constant": false,
      "inputs": [
        {
          "internalType": "address",
          "name": "_reserve",
          "type": "address"
        },
        {
          "internalType": "uint256",
          "name": "_baseLTVasCollateral",
          "type": "uint256"
        },
        {
          "internalType": "uint256",
          "name": "_liquidationThreshold",
          "type": "uint256"
        },
        {
          "internalType": "uint256",
          "name": "_liquidationBonus",
          "type": "uint256"
        }
      ],
      "name": "enableReserveAsCollateral",
      "outputs": [],
      "payable": false,
      "stateMutability": "nonpayable",
      "type": "function"
    },
    {
      "constant": false,
      "inputs": [
        {
          "internalType": "address",
          "name": "_reserve",
          "type": "address"
        }
      ],
      "name": "disableReserveAsCollateral",
      "outputs": [],
      "payable": false,
      "stateMutability": "nonpayable",
      "type": "function"
    },
    {
      "constant": false,
      "inputs": [
        {
          "internalType": "address",
          "name": "_reserve",
          "type": "address"
        }
      ],
      "name": "enableReserveStableBorrowRate",
      "outputs": [],
      "payable": false,
      "stateMutability": "nonpayable",
      "type": "function"
    },
    {
      "constant": false,
      "inputs": [
        {
          "internalType": "address",
          "name": "_reserve",
          "type": "address"
        }
      ],
      "name": "disableReserveStableBorrowRate",
      "outputs": [],
      "payable": false,
      "stateMutability": "nonpayable",
      "type": "function"
    },
    {
      "constant": false,
      "inputs": [
        {
          "internalType": "address",
          "name": "_reserve",
          "type": "address"
        }
      ],
      "name": "activateReserve",
      "outputs": [],
      "payable": false,
      "stateMutability": "nonpayable",
      "type": "function"
    },
    {
      "constant": false,
      "inputs": [
        {
          "internalType": "address",
          "name": "_reserve",
          "type": "address"
        }
      ],
      "name": "deactivateReserve",
      "outputs": [],
      "payable": false,
      "stateMutability": "nonpayable",
      "type": "function"
    },
    {
      "constant": false,
      "inputs": [
        {
          "internalType": "address",
          "name": "_reserve",
          "type": "address"
        }
      ],
      "name": "freezeReserve",
      "outputs": [],
      "payable": false,
      "stateMutability": "nonpayable",
      "type": "function"
    },
    {
      "constant": false,
      "inputs": [
        {
          "internalType": "address",
          "name": "_reserve",
          "type": "address"
        }
      ],
      "name": "unfreezeReserve",
      "outputs": [],
      "payable": false,
      "stateMutability": "nonpayable",
      "type": "function"
    },
    {
      "constant": false,
      "inputs": [
        {
          "internalType": "address",
          "name": "_reserve",
          "type": "address"
        },
        {
          "internalType": "uint256",
          "name": "_ltv",
          "type": "uint256"
        }
      ],
      "name": "setReserveBaseLTVasCollateral",
      "outputs": [],
      "payable": false,
      "stateMutability": "nonpayable",
      "type": "function"
    },
    {
      "constant": false,
      "inputs": [
        {
          "internalType": "address",
          "name": "_reserve",
          "type": "address"
        },
        {
          "internalType": "uint256",
          "name": "_threshold",
          "type": "uint256"
        }
      ],
      "name": "setReserveLiquidationThreshold",
      "outputs": [],
      "payable": false,
      "stateMutability": "nonpayable",
      "type": "function"
    },
    {
      "constant": false,
      "inputs": [
        {
          "internalType": "address",
          "name": "_reserve",
          "type": "address"
        },
        {
          "internalType": "uint256",
          "name": "_bonus",
          "type": "uint256"
        }
      ],
      "name": "setReserveLiquidationBonus",
      "outputs": [],
      "payable": false,
      "stateMutability": "nonpayable",
      "type": "function"
    },
    {
      "constant": false,
      "inputs": [
        {
          "internalType": "address",
          "name": "_reserve",
          "type": "address"
        },
        {
          "internalType": "uint256",
          "name": "_decimals",
          "type": "uint256"
        }
      ],
      "name": "setReserveDecimals",
      "outputs": [],
      "payable": false,
      "stateMutability": "nonpayable",
      "type": "function"
    }
  ],
  "bytecode": "0x60806040526000805534801561001457600080fd5b5061584b80620000256000396000f3fe60806040526004361061041b5760003560e01c8063a2353fdc1161021e578063d15e005311610123578063e8ae2f5b116100ab578063f61483111161007a578063f6148311146113bf578063f6ea8d7614611443578063fa51854c1461147e578063fa93b2a5146114c3578063feab31ac146115065761041b565b8063e8ae2f5b146112eb578063eede87c11461131e578063ef1f937314611359578063f054ab461461138c5761041b565b8063dae4c4e7116100f2578063dae4c4e7146111d4578063e10076ad14611207578063e2174d8614611242578063e240301914611285578063e6d18190146112b85761041b565b8063d15e0053146110fc578063d3ae26b31461112f578063d466016f14611144578063da12d96f1461117d5761041b565b8063bd7fd79a116101a6578063c540148e11610175578063c540148e14611012578063c72c4d1014611045578063c76a6c9c1461105a578063c7d142371461108d578063d06e2ec1146110c95761041b565b8063bd7fd79a14610f46578063bfacad8414610f79578063c33cfd9014610fac578063c4d66de814610fdf5761041b565b8063afcdbea3116101ed578063afcdbea314610e17578063b701d09314610e62578063b75d6f3414610e95578063b8c0f74514610ec8578063bcd6ffa414610efb5761041b565b8063a2353fdc14610d29578063a5bc826c14610d5c578063a8dc0f4514610da1578063af825b0714610dd45761041b565b80635cf2e656116103245780637aca76eb116102ac578063906c0a411161027b578063906c0a4114610bfc57806398bd473714610c2f5780639e3c4f3b14610c625780639e67484814610c9d5780639fb8afcd14610cd05761041b565b80637aca76eb14610b2d5780637f90fec514610b6057806388079d8814610b935780638f385c2214610bc65761041b565b806366d103f3116102f357806366d103f3146109e057806368beb4d614610a1b5780636ae1441614610a865780636fffab0c14610ab957806370fb84f414610af45761041b565b80635cf2e656146109045780635fc526ff14610937578063646810831461099257806366bbd928146109a75761041b565b80633443a14b116103a757806345330a401161037657806345330a40146107de57806346bc0f28146108275780634a08accb1461085a5780634f1446091461088d5780634fe7a6e5146108da5761041b565b80633443a14b146106b757806334b3beee146106f057806337ac6fe41461073f5780633e72a454146107ab5761041b565b806318a4dbca116103ee57806318a4dbca1461057957806318f9bbae146105b45780631ca19f19146105e75780631d2118f91461064657806328fcf4d3146106815761041b565b806305075d6e146104615780630902f1ac146104a857806309ac29531461050d5780630c7de4e914610552575b61042433611541565b61045f5760405162461bcd60e51b815260040180806020018281038252603681526020018061559f6036913960400191505060405180910390fd5b005b34801561046d57600080fd5b506104946004803603602081101561048457600080fd5b50356001600160a01b031661157f565b604080519115158252519081900360200190f35b3480156104b457600080fd5b506104bd6115a7565b60408051602080825283518183015283519192839290830191858101910280838360005b838110156104f95781810151838201526020016104e1565b505050509050019250505060405180910390f35b34801561051957600080fd5b5061045f6004803603608081101561053057600080fd5b506001600160a01b038135169060208101359060408101359060600135611609565b34801561055e57600080fd5b506105676116d7565b60408051918252519081900360200190f35b34801561058557600080fd5b506105676004803603604081101561059c57600080fd5b506001600160a01b03813581169160200135166116dc565b3480156105c057600080fd5b50610494600480360360208110156105d757600080fd5b50356001600160a01b031661176f565b3480156105f357600080fd5b506106226004803603604081101561060a57600080fd5b506001600160a01b0381358116916020013516611797565b6040518082600281111561063257fe5b60ff16815260200191505060405180910390f35b34801561065257600080fd5b5061045f6004803603604081101561066957600080fd5b506001600160a01b03813581169160200135166117ec565b61045f6004803603606081101561069757600080fd5b506001600160a01b038135811691602081013590911690604001356118d2565b3480156106c357600080fd5b5061045f600480360360408110156106da57600080fd5b506001600160a01b038135169060200135611a9d565b3480156106fc57600080fd5b506107236004803603602081101561071357600080fd5b50356001600160a01b0316611b71565b604080516001600160a01b039092168252519081900360200190f35b34801561074b57600080fd5b50610792600480360360a081101561076257600080fd5b5080356001600160a01b03908116916020810135909116906040810135906060810135906080013560ff16611b92565b6040805192835260208301919091528051918290030190f35b3480156107b757600080fd5b5061045f600480360360208110156107ce57600080fd5b50356001600160a01b0316611c32565b3480156107ea57600080fd5b5061045f6004803603608081101561080157600080fd5b506001600160a01b03813581169160208101358216916040820135916060013516611d0e565b34801561083357600080fd5b506105676004803603602081101561084a57600080fd5b50356001600160a01b0316611e68565b34801561086657600080fd5b506104946004803603602081101561087d57600080fd5b50356001600160a01b0316611e86565b34801561089957600080fd5b506108c0600480360360208110156108b057600080fd5b50356001600160a01b0316611eae565b6040805164ffffffffff9092168252519081900360200190f35b3480156108e657600080fd5b50610723600480360360208110156108fd57600080fd5b5035611eda565b34801561091057600080fd5b506104946004803603602081101561092757600080fd5b50356001600160a01b0316611f01565b34801561094357600080fd5b5061096a6004803603602081101561095a57600080fd5b50356001600160a01b0316611f29565b6040805194855260208501939093528383019190915215156060830152519081900360800190f35b34801561099e57600080fd5b5061045f611f67565b3480156109b357600080fd5b5061045f600480360360408110156109ca57600080fd5b506001600160a01b038135169060200135612026565b3480156109ec57600080fd5b5061056760048036036040811015610a0357600080fd5b506001600160a01b03813581169160200135166120fa565b348015610a2757600080fd5b5061045f6004803603610120811015610a3f57600080fd5b506001600160a01b03813581169160208101358216916040820135169060608101359060808101359060a08101359060c08101359060e08101359061010001351515612130565b348015610a9257600080fd5b5061072360048036036020811015610aa957600080fd5b50356001600160a01b03166121d2565b348015610ac557600080fd5b5061056760048036036040811015610adc57600080fd5b506001600160a01b03813581169160200135166121f3565b348015610b0057600080fd5b5061045f60048036036040811015610b1757600080fd5b506001600160a01b038135169060200135612222565b348015610b3957600080fd5b5061045f60048036036020811015610b5057600080fd5b50356001600160a01b03166122f6565b348015610b6c57600080fd5b5061056760048036036020811015610b8357600080fd5b50356001600160a01b03166123d8565b348015610b9f57600080fd5b5061056760048036036020811015610bb657600080fd5b50356001600160a01b03166123f6565b61045f60048036036060811015610bdc57600080fd5b506001600160a01b0381358116916020810135916040909101351661251e565b348015610c0857600080fd5b5061056760048036036020811015610c1f57600080fd5b50356001600160a01b0316612634565b348015610c3b57600080fd5b5061056760048036036020811015610c5257600080fd5b50356001600160a01b03166126e4565b348015610c6e57600080fd5b5061049460048036036040811015610c8557600080fd5b506001600160a01b0381358116916020013516612702565b348015610ca957600080fd5b5061049460048036036020811015610cc057600080fd5b50356001600160a01b031661273b565b348015610cdc57600080fd5b50610d0b60048036036040811015610cf357600080fd5b506001600160a01b0381358116916020013516612763565b60408051938452602084019290925282820152519081900360600190f35b348015610d3557600080fd5b5061056760048036036020811015610d4c57600080fd5b50356001600160a01b03166127ee565b348015610d6857600080fd5b5061045f60048036036080811015610d7f57600080fd5b506001600160a01b03813516906020810135906040810135906060013561280c565b348015610dad57600080fd5b5061045f60048036036020811015610dc457600080fd5b50356001600160a01b031661295a565b348015610de057600080fd5b5061056760048036036060811015610df757600080fd5b506001600160a01b03813581169160208101359091169060400135612a89565b348015610e2357600080fd5b5061045f60048036036080811015610e3a57600080fd5b506001600160a01b038135811691602081013590911690604081013590606001351515612b29565b348015610e6e57600080fd5b5061056760048036036020811015610e8557600080fd5b50356001600160a01b0316612bb1565b348015610ea157600080fd5b5061045f60048036036020811015610eb857600080fd5b50356001600160a01b0316612bcf565b348015610ed457600080fd5b5061045f60048036036020811015610eeb57600080fd5b50356001600160a01b0316612d02565b348015610f0757600080fd5b5061045f60048036036080811015610f1e57600080fd5b506001600160a01b038135811691602081013590911690604081013590606001351515612dde565b348015610f5257600080fd5b5061056760048036036020811015610f6957600080fd5b50356001600160a01b0316612e66565b348015610f8557600080fd5b5061056760048036036020811015610f9c57600080fd5b50356001600160a01b0316612e81565b348015610fb857600080fd5b5061056760048036036020811015610fcf57600080fd5b50356001600160a01b0316612eeb565b348015610feb57600080fd5b5061045f6004803603602081101561100257600080fd5b50356001600160a01b0316612f24565b34801561101e57600080fd5b506105676004803603602081101561103557600080fd5b50356001600160a01b0316612fe3565b34801561105157600080fd5b50610723613001565b34801561106657600080fd5b506105676004803603602081101561107d57600080fd5b50356001600160a01b0316613010565b61045f600480360360808110156110a357600080fd5b506001600160a01b0381358116916020810135821691604082013591606001351661302e565b3480156110d557600080fd5b5061045f600480360360208110156110ec57600080fd5b50356001600160a01b03166131e0565b34801561110857600080fd5b506105676004803603602081101561111f57600080fd5b50356001600160a01b03166133e5565b34801561113b57600080fd5b50610723613406565b34801561115057600080fd5b5061045f6004803603604081101561116757600080fd5b506001600160a01b038135169060200135613415565b34801561118957600080fd5b5061045f600480360360c08110156111a057600080fd5b506001600160a01b03813581169160208101359091169060408101359060608101359060808101359060a0013515156134e9565b3480156111e057600080fd5b5061045f600480360360208110156111f757600080fd5b50356001600160a01b0316613558565b34801561121357600080fd5b5061096a6004803603604081101561122a57600080fd5b506001600160a01b038135811691602001351661363a565b34801561124e57600080fd5b506104946004803603606081101561126557600080fd5b506001600160a01b038135811691602081013590911690604001356136e7565b34801561129157600080fd5b50610567600480360360208110156112a857600080fd5b50356001600160a01b031661377d565b3480156112c457600080fd5b50610567600480360360208110156112db57600080fd5b50356001600160a01b0316613822565b3480156112f757600080fd5b5061045f6004803603602081101561130e57600080fd5b50356001600160a01b0316613843565b34801561132a57600080fd5b5061045f6004803603604081101561134157600080fd5b506001600160a01b038135169060200135151561395e565b34801561136557600080fd5b5061045f6004803603602081101561137c57600080fd5b50356001600160a01b0316613a95565b34801561139857600080fd5b50610567600480360360208110156113af57600080fd5b50356001600160a01b0316613b71565b3480156113cb57600080fd5b50611418600480360360c08110156113e257600080fd5b5080356001600160a01b039081169160208101359091169060408101359060608101359060808101359060a0013560ff16613b8f565b6040518083600281111561142857fe5b60ff1681526020018281526020019250505060405180910390f35b34801561144f57600080fd5b506105676004803603604081101561146657600080fd5b506001600160a01b0381358116916020013516613c21565b34801561148a57600080fd5b5061045f600480360360608110156114a157600080fd5b506001600160a01b038135811691602081013590911690604001351515613c50565b3480156114cf57600080fd5b5061045f600480360360608110156114e657600080fd5b506001600160a01b03813581169160208101359091169060400135613ce2565b34801561151257600080fd5b506105676004803603604081101561152957600080fd5b506001600160a01b0381358116916020013516613e09565b6000813f7fc5d2460186f7233c927e7db2dcc703c0e500b653ca82273b7bfad8045d85a47081158015906115755750808214155b925050505b919050565b6001600160a01b03166000908152603660205260409020600d0154600160e01b900460ff1690565b606060388054806020026020016040519081016040528092919081815260200182805480156115ff57602002820191906000526020600020905b81546001600160a01b031681526001909101906020018083116115e1575b5050505050905090565b6034546001600160a01b031633146116525760405162461bcd60e51b815260040180806020018281038252602a8152602001806157a0602a913960400191505060405180910390fd5b61165c8482613e38565b6001600160a01b038416600090815260366020526040902061167d90613f1b565b600061169861168b86613822565b859063ffffffff613fb316565b6001600160a01b03861660009081526036602052604090209091506116c490828563ffffffff61400d16565b6116d08584600061406b565b5050505050565b600481565b6001600160a01b038083166000908152603660209081526040808320600c015481516370a0823160e01b8152868616600482015291519394169283926370a082319260248082019391829003018186803b15801561173957600080fd5b505afa15801561174d573d6000803e3d6000fd5b505050506040513d602081101561176357600080fd5b50519150505b92915050565b6001600160a01b03166000908152603660205260409020600d0154600160d01b900460ff1690565b6001600160a01b038082166000908152603760209081526040808320938616835292905290812080546117ce576000915050611769565b60008160030154116117e15760026117e4565b60015b949350505050565b603554604080516385c858b160e01b8152905133926001600160a01b0316916385c858b1916004808301926020929190829003018186803b15801561183057600080fd5b505afa158015611844573d6000803e3d6000fd5b505050506040513d602081101561185a57600080fd5b50516001600160a01b0316146118a15760405162461bcd60e51b81526004018080602001828103825260378152602001806156f66037913960400191505060405180910390fd5b6001600160a01b039182166000908152603660205260409020600d0180546001600160a01b03191691909216179055565b6034546001600160a01b0316331461191b5760405162461bcd60e51b815260040180806020018281038252602a8152602001806157a0602a913960400191505060405180910390fd5b611923614204565b6001600160a01b0316836001600160a01b0316146119985734156119785760405162461bcd60e51b81526004018080602001828103825260328152602001806156356032913960400191505060405180910390fd5b6119936001600160a01b03841683308463ffffffff61421c16565b611a98565b803410156119d75760405162461bcd60e51b815260040180806020018281038252603581526020018061556a6035913960400191505060405180910390fd5b80341115611a985760006119f1348363ffffffff61427616565b6040519091506000906001600160a01b0385169061c35090849084818181858888f193505050503d8060008114611a44576040519150601f19603f3d011682016040523d82523d6000602084013e611a49565b606091505b50509050806116d0576040805162461bcd60e51b8152602060048201526016602482015275151c985b9cd9995c881bd9881155120819985a5b195960521b604482015290519081900360640190fd5b505050565b603554604080516385c858b160e01b8152905133926001600160a01b0316916385c858b1916004808301926020929190829003018186803b158015611ae157600080fd5b505afa158015611af5573d6000803e3d6000fd5b505050506040513d6020811015611b0b57600080fd5b50516001600160a01b031614611b525760405162461bcd60e51b81526004018080602001828103825260378152602001806156f66037913960400191505060405180910390fd5b6001600160a01b03909116600090815260366020526040902060090155565b6001600160a01b039081166000908152603660205260409020600c01541690565b60345460009081906001600160a01b03163314611be05760405162461bcd60e51b815260040180806020018281038252602a8152602001806157a0602a913960400191505060405180910390fd5b600080611bed8989612763565b9250509150611c00898984848b8a6142b8565b611c0e898989848a8a6142e7565b611c1a8960008961406b565b611c24898961440c565b999098509650505050505050565b603554604080516385c858b160e01b8152905133926001600160a01b0316916385c858b1916004808301926020929190829003018186803b158015611c7657600080fd5b505afa158015611c8a573d6000803e3d6000fd5b505050506040513d6020811015611ca057600080fd5b50516001600160a01b031614611ce75760405162461bcd60e51b81526004018080602001828103825260378152602001806156f66037913960400191505060405180910390fd5b6001600160a01b03166000908152603660205260409020600d01805460ff60e01b19169055565b603554604080516385c858b160e01b8152905133926001600160a01b0316916385c858b1916004808301926020929190829003018186803b158015611d5257600080fd5b505afa158015611d66573d6000803e3d6000fd5b505050506040513d6020811015611d7c57600080fd5b50516001600160a01b031614611dc35760405162461bcd60e51b81526004018080602001828103825260378152602001806156f66037913960400191505060405180910390fd5b6001600160a01b0380851660009081526036602052604080822081516304dda73560e21b8152600481019190915286841660248201526044810186905292841660648401525173__CoreLibrary___________________________926313769cd4926084808301939192829003018186803b158015611e4157600080fd5b505af4158015611e55573d6000803e3d6000fd5b50505050611e628461449e565b50505050565b6001600160a01b031660009081526036602052604090206006015490565b6001600160a01b03166000908152603660205260409020600d0154600160e81b900460ff1690565b6001600160a01b03166000908152603660205260409020600d0154600160a01b900464ffffffffff1690565b60388181548110611ee757fe5b6000918252602090912001546001600160a01b0316905081565b6001600160a01b03166000908152603660205260409020600d0154600160c81b900460ff1690565b6001600160a01b03166000908152603660205260409020600b81015460088201546009830154600d909301549193909291600160d01b900460ff1690565b603554604080516385c858b160e01b8152905133926001600160a01b0316916385c858b1916004808301926020929190829003018186803b158015611fab57600080fd5b505afa158015611fbf573d6000803e3d6000fd5b505050506040513d6020811015611fd557600080fd5b50516001600160a01b03161461201c5760405162461bcd60e51b81526004018080602001828103825260378152602001806156f66037913960400191505060405180910390fd5b612024614542565b565b603554604080516385c858b160e01b8152905133926001600160a01b0316916385c858b1916004808301926020929190829003018186803b15801561206a57600080fd5b505afa15801561207e573d6000803e3d6000fd5b505050506040513d602081101561209457600080fd5b50516001600160a01b0316146120db5760405162461bcd60e51b81526004018080602001828103825260378152602001806156f66037913960400191505060405180910390fd5b6001600160a01b039091166000908152603660205260409020600b0155565b6001600160a01b0390811660009081526037602090815260408083209490931682529290925290206004015464ffffffffff1690565b6034546001600160a01b031633146121795760405162461bcd60e51b815260040180806020018281038252602a8152602001806157a0602a913960400191505060405180910390fd5b612185898888856145dd565b61218e88614696565b61219b89888887866146ba565b6121a78987600061406b565b806121c7576121c78860006121c2888763ffffffff613fb316565b61406b565b505050505050505050565b6001600160a01b039081166000908152603660205260409020600d01541690565b6001600160a01b0380821660009081526037602090815260408083209386168352929052206003015492915050565b603554604080516385c858b160e01b8152905133926001600160a01b0316916385c858b1916004808301926020929190829003018186803b15801561226657600080fd5b505afa15801561227a573d6000803e3d6000fd5b505050506040513d602081101561229057600080fd5b50516001600160a01b0316146122d75760405162461bcd60e51b81526004018080602001828103825260378152602001806156f66037913960400191505060405180910390fd5b6001600160a01b039091166000908152603660205260409020600a0155565b603554604080516385c858b160e01b8152905133926001600160a01b0316916385c858b1916004808301926020929190829003018186803b15801561233a57600080fd5b505afa15801561234e573d6000803e3d6000fd5b505050506040513d602081101561236457600080fd5b50516001600160a01b0316146123ab5760405162461bcd60e51b81526004018080602001828103825260378152602001806156f66037913960400191505060405180910390fd5b6001600160a01b03166000908152603660205260409020600d01805460ff60e81b1916600160e81b179055565b6001600160a01b031660009081526036602052604090206002015490565b6001600160a01b0380821660009081526036602090815260408083206035548251631b0c55dd60e11b815292519495919486949190921692633618abba9260048083019392829003018186803b15801561244f57600080fd5b505afa158015612463573d6000803e3d6000fd5b505050506040513d602081101561247957600080fd5b5051600583015490915061251357806001600160a01b031663bb85c0bb856040518263ffffffff1660e01b815260040180826001600160a01b03166001600160a01b0316815260200191505060206040518083038186803b1580156124dd57600080fd5b505afa1580156124f1573d6000803e3d6000fd5b505050506040513d602081101561250757600080fd5b5051925061157a915050565b506005015492915050565b6034546001600160a01b031633146125675760405162461bcd60e51b815260040180806020018281038252602a8152602001806157a0602a913960400191505060405180910390fd5b8034156125a55760405162461bcd60e51b81526004018080602001828103825260368152602001806154e46036913960400191505060405180910390fd5b6125ad614204565b6001600160a01b0316846001600160a01b0316146125e4576125df6001600160a01b038516828563ffffffff61476c16565b611e62565b6040516000906001600160a01b0383169061c35090869084818181858888f193505050503d8060008114611a44576040519150601f19603f3d011682016040523d82523d6000602084013e611a49565b6001600160a01b038116600090815260366020526040812060048101546126da5780600d0160009054906101000a90046001600160a01b03166001600160a01b03166334762ca56040518163ffffffff1660e01b815260040160206040518083038186803b1580156126a557600080fd5b505afa1580156126b9573d6000803e3d6000fd5b505050506040513d60208110156126cf57600080fd5b5051915061157a9050565b6004015492915050565b6001600160a01b031660009081526036602052604090206003015490565b6001600160a01b03908116600090815260376020908152604080832094909316825292909252902060040154600160281b900460ff1690565b6001600160a01b03166000908152603660205260409020600d0154600160d81b900460ff1690565b6001600160a01b03808216600090815260376020908152604080832093861683529290529081208054829182916127a45750600092508291508190506127e7565b80546001600160a01b03871660009081526036602052604081206127c99084906147be565b905081816127dd818363ffffffff61427616565b9550955095505050505b9250925092565b6001600160a01b03166000908152603660205260409020600b015490565b603554604080516385c858b160e01b8152905133926001600160a01b0316916385c858b1916004808301926020929190829003018186803b15801561285057600080fd5b505afa158015612864573d6000803e3d6000fd5b505050506040513d602081101561287a57600080fd5b50516001600160a01b0316146128c15760405162461bcd60e51b81526004018080602001828103825260378152602001806156f66037913960400191505060405180910390fd5b6001600160a01b038416600090815260366020526040808220815163126ee27360e11b81526004810191909152602481018690526044810185905260648101849052905173__CoreLibrary___________________________926324ddc4e69260848082019391829003018186803b15801561293c57600080fd5b505af4158015612950573d6000803e3d6000fd5b5050505050505050565b603554604080516385c858b160e01b8152905133926001600160a01b0316916385c858b1916004808301926020929190829003018186803b15801561299e57600080fd5b505afa1580156129b2573d6000803e3d6000fd5b505050506040513d60208110156129c857600080fd5b50516001600160a01b031614612a0f5760405162461bcd60e51b81526004018080602001828103825260378152602001806156f66037913960400191505060405180910390fd5b6001600160a01b03811660009081526036602052604080822081516372efab5360e11b81526004810191909152905173__CoreLibrary___________________________9263e5df56a69260248082019391829003018186803b158015612a7557600080fd5b505af41580156116d0573d6000803e3d6000fd5b6034546000906001600160a01b03163314612ad55760405162461bcd60e51b815260040180806020018281038252602a8152602001806157a0602a913960400191505060405180910390fd5b612ae08484846148b0565b612aeb848484614900565b612af78460008061406b565b506001600160a01b038083166000908152603760209081526040808320938716835292905220600301545b9392505050565b6034546001600160a01b03163314612b725760405162461bcd60e51b815260040180806020018281038252602a8152602001806157a0602a913960400191505060405180910390fd5b6001600160a01b0384166000908152603660205260409020612b9390613f1b565b612b9f8460008461406b565b8015611e6257611e6284846000613c50565b6001600160a01b031660009081526036602052604090206007015490565b603554604080516385c858b160e01b8152905133926001600160a01b0316916385c858b1916004808301926020929190829003018186803b158015612c1357600080fd5b505afa158015612c27573d6000803e3d6000fd5b505050506040513d6020811015612c3d57600080fd5b50516001600160a01b031614612c845760405162461bcd60e51b81526004018080602001828103825260378152602001806156f66037913960400191505060405180910390fd5b6001600160a01b0381166000908152603660205260409020805415801590612cb0575060008160070154115b612ceb5760405162461bcd60e51b815260040180806020018281038252602481526020018061572d6024913960400191505060405180910390fd5b600d01805460ff60e01b1916600160e01b17905550565b603554604080516385c858b160e01b8152905133926001600160a01b0316916385c858b1916004808301926020929190829003018186803b158015612d4657600080fd5b505afa158015612d5a573d6000803e3d6000fd5b505050506040513d6020811015612d7057600080fd5b50516001600160a01b031614612db75760405162461bcd60e51b81526004018080602001828103825260378152602001806156f66037913960400191505060405180910390fd5b6001600160a01b03166000908152603660205260409020600d01805460ff60d81b19169055565b6034546001600160a01b03163314612e275760405162461bcd60e51b815260040180806020018281038252602a8152602001806157a0602a913960400191505060405180910390fd5b6001600160a01b0384166000908152603660205260409020612e4890613f1b565b612e548483600061406b565b8015611e6257611e6284846001613c50565b6001600160a01b031660009081526036602052604090205490565b6001600160a01b038116600090815260366020526040812081612ea382614969565b905080612eb55760009250505061157a565b6000612ec08561377d565b9050612ee2612ed5828463ffffffff613fb316565b839063ffffffff61498616565b95945050505050565b6001600160a01b0381166000908152603660205260408120612b22612f0f82614969565b612f188561377d565b9063ffffffff613fb316565b6000612f2e6149c2565b60015490915060ff1680612f455750612f456149c7565b80612f51575060005481115b612f8c5760405162461bcd60e51b815260040180806020018281038252602e815260200180615772602e913960400191505060405180910390fd5b60015460ff16158015612fab576001805460ff19168117905560008290555b603580546001600160a01b0319166001600160a01b038516179055612fce614542565b8015611a98576001805460ff19169055505050565b6001600160a01b031660009081526036602052604090206001015490565b6035546001600160a01b031681565b6001600160a01b03166000908152603660205260409020600a015490565b6034546001600160a01b031633146130775760405162461bcd60e51b815260040180806020018281038252602a8152602001806157a0602a913960400191505060405180910390fd5b80613080614204565b6001600160a01b0316856001600160a01b0316146130f55734156130d55760405162461bcd60e51b815260040180806020018281038252605f815260200180615667605f913960600191505060405180910390fd5b6130f06001600160a01b03861685838663ffffffff61421c16565b6116d0565b823410156131345760405162461bcd60e51b815260040180806020018281038252603581526020018061556a6035913960400191505060405180910390fd5b6040516000906001600160a01b0383169061c35090869084818181858888f193505050503d8060008114613184576040519150601f19603f3d011682016040523d82523d6000602084013e613189565b606091505b50509050806131d8576040805162461bcd60e51b8152602060048201526016602482015275151c985b9cd9995c881bd9881155120819985a5b195960521b604482015290519081900360640190fd5b505050505050565b603554604080516385c858b160e01b8152905133926001600160a01b0316916385c858b1916004808301926020929190829003018186803b15801561322457600080fd5b505afa158015613238573d6000803e3d6000fd5b505050506040513d602081101561324e57600080fd5b50516001600160a01b0316146132955760405162461bcd60e51b81526004018080602001828103825260378152602001806156f66037913960400191505060405180910390fd5b603880546000919060001981019081106132ab57fe5b6000918252602090912001546001600160a01b039081169150821681146133035760405162461bcd60e51b815260040180806020018281038252603d8152602001806155f8603d913960400191505060405180910390fd5b61330c81613822565b156133485760405162461bcd60e51b81526004018080602001828103825260308152602001806156c66030913960400191505060405180910390fd5b6001600160a01b0381166000908152603660205260408120600d81018054600c830180546001600160a01b0319169055600b8301849055838355600783018490556008830184905560098301849055600a90920192909255600168ff00ffff000000000160a01b031916905560388054806133bf57fe5b600082815260209020810160001990810180546001600160a01b03191690550190555050565b6001600160a01b0381166000908152603660205260408120612b22816149cd565b6034546001600160a01b031681565b603554604080516385c858b160e01b8152905133926001600160a01b0316916385c858b1916004808301926020929190829003018186803b15801561345957600080fd5b505afa15801561346d573d6000803e3d6000fd5b505050506040513d602081101561348357600080fd5b50516001600160a01b0316146134ca5760405162461bcd60e51b81526004018080602001828103825260378152602001806156f66037913960400191505060405180910390fd5b6001600160a01b03909116600090815260366020526040902060080155565b6034546001600160a01b031633146135325760405162461bcd60e51b815260040180806020018281038252602a8152602001806157a0602a913960400191505060405180910390fd5b61353e868686856149fb565b61354c868686868686614a5f565b6131d88685600061406b565b603554604080516385c858b160e01b8152905133926001600160a01b0316916385c858b1916004808301926020929190829003018186803b15801561359c57600080fd5b505afa1580156135b0573d6000803e3d6000fd5b505050506040513d60208110156135c657600080fd5b50516001600160a01b03161461360d5760405162461bcd60e51b81526004018080602001828103825260378152602001806156f66037913960400191505060405180910390fd5b6001600160a01b03166000908152603660205260409020600d01805460ff60d81b1916600160d81b179055565b6001600160a01b03808316600081815260366020908152604080832094861683526037825280832093835292905290812090918291829182918261367e89896116dc565b82549091506136ab576004909101549095506000945084935060ff600160281b9091041691506136de9050565b806136bc838563ffffffff6147be16565b6002840154600490940154919850965091945050600160281b900460ff169150505b92959194509250565b6001600160a01b038381166000818152603660209081526040808320948716835260378252808320938352929052908120600d830154919291600160d81b900460ff1661373957600092505050612b22565b6004810154600160281b900460ff1615806137605750600d820154600160d01b900460ff16155b80613773575061377086866116dc565b84115b9695505050505050565b600080613788614204565b6001600160a01b0316836001600160a01b031614156137a957503031611769565b604080516370a0823160e01b815230600482015290516001600160a01b038516916370a08231916024808301926020929190829003018186803b1580156137ef57600080fd5b505afa158015613803573d6000803e3d6000fd5b505050506040513d602081101561381957600080fd5b50519392505050565b6001600160a01b038116600090815260366020526040812061176990614969565b603554604080516385c858b160e01b8152905133926001600160a01b0316916385c858b1916004808301926020929190829003018186803b15801561388757600080fd5b505afa15801561389b573d6000803e3d6000fd5b505050506040513d60208110156138b157600080fd5b50516001600160a01b0316146138f85760405162461bcd60e51b81526004018080602001828103825260378152602001806156f66037913960400191505060405180910390fd5b6001600160a01b038116600090815260366020526040808220815163041e0b2d60e51b81526004810191909152905173__CoreLibrary___________________________926383c165a09260248082019391829003018186803b158015612a7557600080fd5b603554604080516385c858b160e01b8152905133926001600160a01b0316916385c858b1916004808301926020929190829003018186803b1580156139a257600080fd5b505afa1580156139b6573d6000803e3d6000fd5b505050506040513d60208110156139cc57600080fd5b50516001600160a01b031614613a135760405162461bcd60e51b81526004018080602001828103825260378152602001806156f66037913960400191505060405180910390fd5b6001600160a01b0382166000908152603660205260408082208151637b1dd5df60e11b815260048101919091528315156024820152905173__CoreLibrary___________________________9263f63babbe9260448082019391829003018186803b158015613a8157600080fd5b505af41580156131d8573d6000803e3d6000fd5b603554604080516385c858b160e01b8152905133926001600160a01b0316916385c858b1916004808301926020929190829003018186803b158015613ad957600080fd5b505afa158015613aed573d6000803e3d6000fd5b505050506040513d6020811015613b0357600080fd5b50516001600160a01b031614613b4a5760405162461bcd60e51b81526004018080602001828103825260378152602001806156f66037913960400191505060405180910390fd5b6001600160a01b03166000908152603660205260409020600d01805460ff60e81b19169055565b6001600160a01b031660009081526036602052604090206009015490565b60345460009081906001600160a01b03163314613bdd5760405162461bcd60e51b815260040180806020018281038252602a8152602001806157a0602a913960400191505060405180910390fd5b613bea8888888887614adc565b6000613bf889898787614bdb565b9050613c068960008061406b565b80613c118a8a61440c565b9250925050965096945050505050565b6001600160a01b0380821660009081526037602090815260408083209386168352929052206001015492915050565b6034546001600160a01b03163314613c995760405162461bcd60e51b815260040180806020018281038252602a8152602001806157a0602a913960400191505060405180910390fd5b6001600160a01b0391821660009081526037602090815260408083209590941682529390935291206004018054911515600160281b0265ff000000000019909216919091179055565b6034546001600160a01b03163314613d2b5760405162461bcd60e51b815260040180806020018281038252602a8152602001806157a0602a913960400191505060405180910390fd5b613d33614204565b6001600160a01b0316836001600160a01b031614613d65576119936001600160a01b038416838363ffffffff61476c16565b6040516000906001600160a01b0384169061c35090849084818181858888f193505050503d8060008114613db5576040519150601f19603f3d011682016040523d82523d6000602084013e613dba565b606091505b5050905080611e62576040805162461bcd60e51b8152602060048201526016602482015275151c985b9cd9995c881bd9881155120819985a5b195960521b604482015290519081900360640190fd5b6001600160a01b0380821660009081526037602090815260408083209386168352929052206002015492915050565b60355460408051637744894b60e11b815290516000926001600160a01b03169163ee891296916004808301926020929190829003018186803b158015613e7d57600080fd5b505afa158015613e91573d6000803e3d6000fd5b505050506040513d6020811015613ea757600080fd5b50519050613eb3614204565b6001600160a01b0316836001600160a01b031614613ee5576119936001600160a01b038416828463ffffffff61476c16565b6040516001600160a01b0382169083156108fc029084906000818181858888f19350505050158015611e62573d6000803e3d6000fd5b6000613f2682614969565b90508015613faf576001820154600d830154600091613f5291600160a01b900464ffffffffff16614cd9565b8354909150613f6890829063ffffffff614d2416565b83556004830154600d840154600091613f8e91600160a01b900464ffffffffff16614d5c565b9050613fa7846007015482614d2490919063ffffffff16565b600785015550505b5050565b600082820183811015612b22576040805162461bcd60e51b815260206004820152601b60248201527f536166654d6174683a206164646974696f6e206f766572666c6f770000000000604482015290519081900360640190fd5b600061403061401b84614dab565b61402484614dab565b9063ffffffff61498616565b9050600061404c61403f614dc1565b839063ffffffff613fb316565b855490915061406290829063ffffffff614d2416565b90945550505050565b6001600160a01b038084166000908152603660205260408120600d810154909282918291166357e37af0886140b3886140a78b612f188561377d565b9063ffffffff61427616565b8760020154886003015489600601546040518663ffffffff1660e01b815260040180866001600160a01b03166001600160a01b031681526020018581526020018481526020018381526020018281526020019550505050505060606040518083038186803b15801561412457600080fd5b505afa158015614138573d6000803e3d6000fd5b505050506040513d606081101561414e57600080fd5b508051602080830151604093840151600189018490556005890182905560048901819055600d8901805464ffffffffff4216600160a01b0264ffffffffff60a01b19909116179055885460078a0154865186815294850184905284870183905260608501919091526080840152935192965094509192506001600160a01b038916917f04e4f521f16fcfd987978b05504262c2a2db223844977aab000e5accedb2d725919081900360a00190a250505050505050565b73eeeeeeeeeeeeeeeeeeeeeeeeeeeeeeeeeeeeeeee90565b604080516001600160a01b0385811660248301528416604482015260648082018490528251808303909101815260849091019091526020810180516001600160e01b03166323b872dd60e01b179052611e62908590614dd1565b6000612b2283836040518060400160405280601e81526020017f536166654d6174683a207375627472616374696f6e206f766572666c6f770000815250614f89565b6001600160a01b03861660009081526036602052604090206142d990613f1b565b6131d8868686868686615020565b6001600160a01b038087166000818152603660209081526040808320948a1683526037825280832093835292905220600183600281111561432457fe5b14156143405760058201546003820155600060018201556143b7565b600283600281111561434e57fe5b141561436a5760006003820155600782015460018201556143b7565b6040805162461bcd60e51b815260206004820152601860248201527f496e76616c696420626f72726f772072617465206d6f64650000000000000000604482015290519081900360640190fd5b80546143cf908690612f18908963ffffffff613fb316565b815560028101546143e6908563ffffffff613fb316565b6002820155600401805464ffffffffff19164264ffffffffff1617905550505050505050565b6000806144198484611797565b9050600081600281111561442957fe5b1415614439576000915050611769565b600181600281111561444757fe5b1461446d576001600160a01b0384166000908152603660205260409020600401546117e4565b50506001600160a01b0390811660009081526037602090815260408083209490931682529290925290206003015490565b6000805b6038548110156144eb57826001600160a01b0316603882815481106144c357fe5b6000918252602090912001546001600160a01b031614156144e357600191505b6001016144a2565b5080613faf57603880546001810182556000919091527f38395c5dceade9603479b177b68959049485df8aa97b39f3533039af5f4561990180546001600160a01b0384166001600160a01b03199091161790555050565b603560009054906101000a90046001600160a01b03166001600160a01b0316630261bf8b6040518163ffffffff1660e01b815260040160206040518083038186803b15801561459057600080fd5b505afa1580156145a4573d6000803e3d6000fd5b505050506040513d60208110156145ba57600080fd5b5051603480546001600160a01b0319166001600160a01b03909216919091179055565b6001600160a01b0380851660008181526036602090815260408083209488168352603782528083209383529290522061461582613f1b565b60006146218787611797565b905060015b81600281111561463257fe5b141561466d576003820154614650908490869063ffffffff61517c16565b6003820154614668908490879063ffffffff6151ec16565b61468d565b61467d838563ffffffff6152f716565b61468d838663ffffffff61531816565b50505050505050565b6001600160a01b03811660009081526036602052604090206146b790613f1b565b50565b6001600160a01b0380851660009081526037602090815260408083209389168352928152828220603690915291902081546147019086906140a7908663ffffffff613fb316565b8255600261470f8888611797565b600281111561471a57fe5b141561472b57600781015460018301555b831561474c576002820154614746908563ffffffff61427616565b60028301555b50600401805464ffffffffff19164264ffffffffff161790555050505050565b604080516001600160a01b038416602482015260448082018490528251808303909101815260649091019091526020810180516001600160e01b031663a9059cbb60e01b179052611a98908490614dd1565b81546000906147cf57506000611769565b60006147de8460000154614dab565b6003850154909150600090819015614812576003860154600487015461480b919064ffffffffff16614d5c565b9050614854565b6148518660010154614024876007015461484589600401548a600d0160149054906101000a900464ffffffffff16614d5c565b9063ffffffff614d2416565b90505b61486c614867848363ffffffff614d2416565b615370565b86549092508214156148a757600486015464ffffffffff1642146148a757855461489d90600163ffffffff613fb316565b9350505050611769565b50949350505050565b6001600160a01b038084166000818152603660209081526040808320948716835260378252808320938352929052206148e882613f1b565b60038101546116d0908390859063ffffffff61517c16565b6001600160a01b038083166000908152603760209081526040808320938716835292815282822060369091529190208154614941908463ffffffff613fb316565b8255600501546003820155600401805464ffffffffff19164264ffffffffff16179055505050565b600061176982600301548360020154613fb390919063ffffffff16565b6000600282046117e4836149b66149a9876b033b2e3c9fd0803ce8000000615389565b849063ffffffff613fb316565b9063ffffffff6153e216565b600490565b303b1590565b600080612b228360000154614845856001015486600d0160149054906101000a900464ffffffffff16614cd9565b6001600160a01b03808516600090815260366020908152604080832060378352818420948816845293909152812090614a348787611797565b6001600160a01b0388166000908152603660205260409020909150614a5890613f1b565b6001614626565b6001600160a01b038087166000818152603660209081526040808320948a16835260378252808320938352929052208054614aa69087906140a7908763ffffffff613fb316565b8155600782015460018201558215614ac75760006003820181905560018201555b60028101546143e6908663ffffffff61427616565b6001600160a01b03808616600081815260366020908152604080832094891683526037825280832093835292905220614b1482613f1b565b6001836002811115614b2257fe5b1415614b54576003810154614b3e83878363ffffffff6151ec16565b614b4e838663ffffffff6152f716565b5061468d565b6002836002811115614b6257fe5b1415614b8e576005820154614b7d838763ffffffff61531816565b614b4e83868363ffffffff61517c16565b6040805162461bcd60e51b815260206004820152601a60248201527f496e76616c69642072617465206d6f6465207265636569766564000000000000604482015290519081900360640190fd5b6001600160a01b03808416600090815260376020908152604080832093881683529281528282206036909152918120909190826002856002811115614c1c57fe5b1415614c3d5750600581015460038301556000600183810191909155614ca1565b6001856002811115614c4b57fe5b1415614c6a575060006003830155600781015460018301556002614ca1565b60405162461bcd60e51b81526004018080602001828103825260238152602001806157ca6023913960400191505060405180910390fd5b8254614cb3908763ffffffff613fb316565b83556004909201805464ffffffffff19164264ffffffffff161790555095945050505050565b600080614cf34264ffffffffff851663ffffffff61427616565b90506000614d0761401b6301e13380614dab565b9050612ee2614d14614dc1565b612f18878463ffffffff614d2416565b6000612b226b033b2e3c9fd0803ce80000006149b6614d49868663ffffffff61538916565b6b019d971e4fe8401e7400000090613fb3565b600080614d764264ffffffffff851663ffffffff61427616565b90506000614d8e856301e1338063ffffffff6153e216565b9050612ee282614d9f6149a9614dc1565b9063ffffffff61542416565b600061176982633b9aca0063ffffffff61538916565b6b033b2e3c9fd0803ce800000090565b614de3826001600160a01b0316611541565b614e34576040805162461bcd60e51b815260206004820152601f60248201527f5361666545524332303a2063616c6c20746f206e6f6e2d636f6e747261637400604482015290519081900360640190fd5b60006060836001600160a01b0316836040518082805190602001908083835b60208310614e725780518252601f199092019160209182019101614e53565b6001836020036101000a0380198251168184511680821785525050505050509050019150506000604051808303816000865af19150503d8060008114614ed4576040519150601f19603f3d011682016040523d82523d6000602084013e614ed9565b606091505b509150915081614f30576040805162461bcd60e51b815260206004820181905260248201527f5361666545524332303a206c6f772d6c6576656c2063616c6c206661696c6564604482015290519081900360640190fd5b805115611e6257808060200190516020811015614f4c57600080fd5b5051611e625760405162461bcd60e51b815260040180806020018281038252602a8152602001806157ed602a913960400191505060405180910390fd5b600081848411156150185760405162461bcd60e51b81526004018080602001828103825283818151815260200191508051906020019080838360005b83811015614fdd578181015183820152602001614fc5565b50505050905090810190601f16801561500a5780820380516001836020036101000a031916815260200191505b509250505060405180910390fd5b505050900390565b600061502c8787611797565b6001600160a01b0388166000908152603660205260409020909150600182600281111561505557fe5b141561509e576001600160a01b038088166000908152603760209081526040808320938c168352929052206003810154615098908390899063ffffffff6151ec16565b506150c2565b60028260028111156150ac57fe5b14156150c2576150c2818763ffffffff61531816565b60006150d885612f18898963ffffffff613fb316565b905060018460028111156150e857fe5b141561510b576005820154615106908390839063ffffffff61517c16565b6121c7565b600284600281111561511957fe5b141561512f57615106828263ffffffff6152f716565b6040805162461bcd60e51b815260206004820152601c60248201527f496e76616c6964206e657720626f72726f772072617465206d6f646500000000604482015290519081900360640190fd5b6002830154615191818463ffffffff613fb316565b600285015560006151a58361484586614dab565b905060006151ba866006015461484585614dab565b90506151dc6151cc8760020154614dab565b614024848463ffffffff613fb316565b8660060181905550505050505050565b8183600201541015615245576040805162461bcd60e51b815260206004820152601a60248201527f496e76616c696420616d6f756e7420746f206465637265617365000000000000604482015290519081900360640190fd5b600283015461525a818463ffffffff61427616565b60028501819055615272575060006006840155611a98565b60006152818361484586614dab565b90506000615296866006015461484585614dab565b9050818110156152d75760405162461bcd60e51b81526004018080602001828103825260238152602001806155d56023913960400191505060405180910390fd5b6151dc6152e78760020154614dab565b614024838563ffffffff61427616565b600382015461530c908263ffffffff613fb316565b82600301819055505050565b808260030154101561535b5760405162461bcd60e51b815260040180806020018281038252605081526020018061551a6050913960600191505060405180910390fd5b600382015461530c908263ffffffff61427616565b6000631dcd6500612b22633b9aca006149b68386613fb3565b60008261539857506000611769565b828202828482816153a557fe5b0414612b225760405162461bcd60e51b81526004018080602001828103825260218152602001806157516021913960400191505060405180910390fd5b6000612b2283836040518060400160405280601a81526020017f536166654d6174683a206469766973696f6e206279207a65726f00000000000081525061547e565b600060028206615440576b033b2e3c9fd0803ce8000000615442565b825b90506002820491505b81156117695761545b8384614d24565b92506002820615615473576154708184614d24565b90505b60028204915061544b565b600081836154cd5760405162461bcd60e51b8152602060048201818152835160248401528351909283926044909101919085019080838360008315614fdd578181015183820152602001614fc5565b5060008385816154d957fe5b049594505050505056fe466565206c69717569646174696f6e20646f6573206e6f74207265717569726520616e79207472616e73666572206f662076616c756554686520616d6f756e742074686174206973206265696e6720737562747261637465642066726f6d20746865207661726961626c6520746f74616c20626f72726f777320697320696e636f727265637454686520616d6f756e7420616e64207468652076616c75652073656e7420746f206465706f73697420646f206e6f74206d617463684f6e6c7920636f6e7472616374732063616e2073656e6420657468657220746f20746865204c656e64696e6720706f6f6c20636f726554686520616d6f756e747320746f20737562747261637420646f6e2774206d6174636852657365727665206265696e672072656d6f76656420697320646966666572656e74207468616e20746865207265736572766520726571756573746564557365722069732073656e64696e672045544820616c6f6e67207769746820746865204552433230207472616e736665722e557365722069732073656e64696e672045544820616c6f6e67207769746820746865204552433230207472616e736665722e20436865636b207468652076616c756520617474726962757465206f6620746865207472616e73616374696f6e43616e6e6f742072656d6f7665206120726573657276652077697468206c6971756964697479206465706f73697465645468652063616c6c6572206d7573742062652061206c656e64696e6720706f6f6c20636f6e666967757261746f7220636f6e74726163745265736572766520686173206e6f74206265656e20696e697469616c697a656420796574536166654d6174683a206d756c7469706c69636174696f6e206f766572666c6f77436f6e747261637420696e7374616e63652068617320616c7265616479206265656e20696e697469616c697a65645468652063616c6c6572206d7573742062652061206c656e64696e6720706f6f6c20636f6e7472616374496e76616c696420696e7465726573742072617465206d6f64652072656365697665645361666545524332303a204552433230206f7065726174696f6e20646964206e6f742073756363656564a265627a7a72315820a8459c0bc59df063b6c13aabd6ecb0c50cc16302e8a70dab52a34d11de47f06364736f6c634300050c0032",
  "source": "pragma solidity ^0.5.0;\n\nimport \"@openzeppelin/contracts/math/SafeMath.sol\";\nimport \"@openzeppelin/contracts/token/ERC20/SafeERC20.sol\";\nimport \"@openzeppelin/contracts/token/ERC20/ERC20.sol\";\nimport \"@openzeppelin/contracts/utils/Address.sol\";\nimport \"../libraries/openzeppelin-upgradeability/VersionedInitializable.sol\";\n\nimport \"../libraries/CoreLibrary.sol\";\nimport \"../configuration/LendingPoolAddressesProvider.sol\";\nimport \"../interfaces/ILendingRateOracle.sol\";\nimport \"../interfaces/IReserveInterestRateStrategy.sol\";\nimport \"../libraries/WadRayMath.sol\";\nimport \"../tokenization/AToken.sol\";\nimport \"../libraries/EthAddressLib.sol\";\n\n/**\n* @title LendingPoolCore contract\n* @author Aave\n* @notice Holds the state of the lending pool and all the funds deposited\n* @dev NOTE: The core does not enforce security checks on the update of the state\n* (eg, updateStateOnBorrow() does not enforce that borrowed is enabled on the reserve).\n* The check that an action can be performed is a duty of the overlying LendingPool contract.\n**/\n\ncontract LendingPoolCore is VersionedInitializable {\n    using SafeMath for uint256;\n    using WadRayMath for uint256;\n    using CoreLibrary for CoreLibrary.ReserveData;\n    using CoreLibrary for CoreLibrary.UserReserveData;\n    using SafeERC20 for ERC20;\n    using Address for address payable;\n\n    /**\n    * @dev Emitted when the state of a reserve is updated\n    * @param reserve the address of the reserve\n    * @param liquidityRate the new liquidity rate\n    * @param stableBorrowRate the new stable borrow rate\n    * @param variableBorrowRate the new variable borrow rate\n    * @param liquidityIndex the new liquidity index\n    * @param variableBorrowIndex the new variable borrow index\n    **/\n    event ReserveUpdated(\n        address indexed reserve,\n        uint256 liquidityRate,\n        uint256 stableBorrowRate,\n        uint256 variableBorrowRate,\n        uint256 liquidityIndex,\n        uint256 variableBorrowIndex\n    );\n\n    address public lendingPoolAddress;\n\n    LendingPoolAddressesProvider public addressesProvider;\n\n    /**\n    * @dev only lending pools can use functions affected by this modifier\n    **/\n    modifier onlyLendingPool {\n        require(lendingPoolAddress == msg.sender, \"The caller must be a lending pool contract\");\n        _;\n    }\n\n    /**\n    * @dev only lending pools configurator can use functions affected by this modifier\n    **/\n    modifier onlyLendingPoolConfigurator {\n        require(\n            addressesProvider.getLendingPoolConfigurator() == msg.sender,\n            \"The caller must be a lending pool configurator contract\"\n        );\n        _;\n    }\n\n    mapping(address => CoreLibrary.ReserveData) internal reserves;\n    mapping(address => mapping(address => CoreLibrary.UserReserveData)) internal usersReserveData;\n\n    address[] public reservesList;\n\n    uint256 public constant CORE_REVISION = 0x4;\n\n    /**\n    * @dev returns the revision number of the contract\n    **/\n    function getRevision() internal pure returns (uint256) {\n        return CORE_REVISION;\n    }\n\n    /**\n    * @dev initializes the Core contract, invoked upon registration on the AddressesProvider\n    * @param _addressesProvider the addressesProvider contract\n    **/\n\n    function initialize(LendingPoolAddressesProvider _addressesProvider) public initializer {\n        addressesProvider = _addressesProvider;\n        refreshConfigInternal();\n    }\n\n    /**\n    * @dev updates the state of the core as a result of a deposit action\n    * @param _reserve the address of the reserve in which the deposit is happening\n    * @param _user the address of the the user depositing\n    * @param _amount the amount being deposited\n    * @param _isFirstDeposit true if the user is depositing for the first time\n    **/\n\n    function updateStateOnDeposit(\n        address _reserve,\n        address _user,\n        uint256 _amount,\n        bool _isFirstDeposit\n    ) external onlyLendingPool {\n        reserves[_reserve].updateCumulativeIndexes();\n        updateReserveInterestRatesAndTimestampInternal(_reserve, _amount, 0);\n\n        if (_isFirstDeposit) {\n            //if this is the first deposit of the user, we configure the deposit as enabled to be used as collateral\n            setUserUseReserveAsCollateral(_reserve, _user, true);\n        }\n    }\n\n    /**\n    * @dev updates the state of the core as a result of a redeem action\n    * @param _reserve the address of the reserve in which the redeem is happening\n    * @param _user the address of the the user redeeming\n    * @param _amountRedeemed the amount being redeemed\n    * @param _userRedeemedEverything true if the user is redeeming everything\n    **/\n    function updateStateOnRedeem(\n        address _reserve,\n        address _user,\n        uint256 _amountRedeemed,\n        bool _userRedeemedEverything\n    ) external onlyLendingPool {\n        //compound liquidity and variable borrow interests\n        reserves[_reserve].updateCumulativeIndexes();\n        updateReserveInterestRatesAndTimestampInternal(_reserve, 0, _amountRedeemed);\n\n        //if user redeemed everything the useReserveAsCollateral flag is reset\n        if (_userRedeemedEverything) {\n            setUserUseReserveAsCollateral(_reserve, _user, false);\n        }\n    }\n\n    /**\n    * @dev updates the state of the core as a result of a flashloan action\n    * @param _reserve the address of the reserve in which the flashloan is happening\n    * @param _income the income of the protocol as a result of the action\n    **/\n    function updateStateOnFlashLoan(\n        address _reserve,\n        uint256 _availableLiquidityBefore,\n        uint256 _income,\n        uint256 _protocolFee\n    ) external onlyLendingPool {\n        transferFlashLoanProtocolFeeInternal(_reserve, _protocolFee);\n\n        //compounding the cumulated interest\n        reserves[_reserve].updateCumulativeIndexes();\n\n        uint256 totalLiquidityBefore = _availableLiquidityBefore.add(\n            getReserveTotalBorrows(_reserve)\n        );\n\n        //compounding the received fee into the reserve\n        reserves[_reserve].cumulateToLiquidityIndex(totalLiquidityBefore, _income);\n\n        //refresh interest rates\n        updateReserveInterestRatesAndTimestampInternal(_reserve, _income, 0);\n    }\n\n    /**\n    * @dev updates the state of the core as a consequence of a borrow action.\n    * @param _reserve the address of the reserve on which the user is borrowing\n    * @param _user the address of the borrower\n    * @param _amountBorrowed the new amount borrowed\n    * @param _borrowFee the fee on the amount borrowed\n    * @param _rateMode the borrow rate mode (stable, variable)\n    * @return the new borrow rate for the user\n    **/\n    function updateStateOnBorrow(\n        address _reserve,\n        address _user,\n        uint256 _amountBorrowed,\n        uint256 _borrowFee,\n        CoreLibrary.InterestRateMode _rateMode\n    ) external onlyLendingPool returns (uint256, uint256) {\n        // getting the previous borrow data of the user\n        (uint256 principalBorrowBalance, , uint256 balanceIncrease) = getUserBorrowBalances(\n            _reserve,\n            _user\n        );\n\n        updateReserveStateOnBorrowInternal(\n            _reserve,\n            _user,\n            principalBorrowBalance,\n            balanceIncrease,\n            _amountBorrowed,\n            _rateMode\n        );\n\n        updateUserStateOnBorrowInternal(\n            _reserve,\n            _user,\n            _amountBorrowed,\n            balanceIncrease,\n            _borrowFee,\n            _rateMode\n        );\n\n        updateReserveInterestRatesAndTimestampInternal(_reserve, 0, _amountBorrowed);\n\n        return (getUserCurrentBorrowRate(_reserve, _user), balanceIncrease);\n    }\n\n    /**\n    * @dev updates the state of the core as a consequence of a repay action.\n    * @param _reserve the address of the reserve on which the user is repaying\n    * @param _user the address of the borrower\n    * @param _paybackAmountMinusFees the amount being paid back minus fees\n    * @param _originationFeeRepaid the fee on the amount that is being repaid\n    * @param _balanceIncrease the accrued interest on the borrowed amount\n    * @param _repaidWholeLoan true if the user is repaying the whole loan\n    **/\n\n    function updateStateOnRepay(\n        address _reserve,\n        address _user,\n        uint256 _paybackAmountMinusFees,\n        uint256 _originationFeeRepaid,\n        uint256 _balanceIncrease,\n        bool _repaidWholeLoan\n    ) external onlyLendingPool {\n        updateReserveStateOnRepayInternal(\n            _reserve,\n            _user,\n            _paybackAmountMinusFees,\n            _balanceIncrease\n        );\n        updateUserStateOnRepayInternal(\n            _reserve,\n            _user,\n            _paybackAmountMinusFees,\n            _originationFeeRepaid,\n            _balanceIncrease,\n            _repaidWholeLoan\n        );\n\n        updateReserveInterestRatesAndTimestampInternal(_reserve, _paybackAmountMinusFees, 0);\n    }\n\n    /**\n    * @dev updates the state of the core as a consequence of a swap rate action.\n    * @param _reserve the address of the reserve on which the user is repaying\n    * @param _user the address of the borrower\n    * @param _principalBorrowBalance the amount borrowed by the user\n    * @param _compoundedBorrowBalance the amount borrowed plus accrued interest\n    * @param _balanceIncrease the accrued interest on the borrowed amount\n    * @param _currentRateMode the current interest rate mode for the user\n    **/\n    function updateStateOnSwapRate(\n        address _reserve,\n        address _user,\n        uint256 _principalBorrowBalance,\n        uint256 _compoundedBorrowBalance,\n        uint256 _balanceIncrease,\n        CoreLibrary.InterestRateMode _currentRateMode\n    ) external onlyLendingPool returns (CoreLibrary.InterestRateMode, uint256) {\n        updateReserveStateOnSwapRateInternal(\n            _reserve,\n            _user,\n            _principalBorrowBalance,\n            _compoundedBorrowBalance,\n            _currentRateMode\n        );\n\n        CoreLibrary.InterestRateMode newRateMode = updateUserStateOnSwapRateInternal(\n            _reserve,\n            _user,\n            _balanceIncrease,\n            _currentRateMode\n        );\n\n        updateReserveInterestRatesAndTimestampInternal(_reserve, 0, 0);\n\n        return (newRateMode, getUserCurrentBorrowRate(_reserve, _user));\n    }\n\n    /**\n    * @dev updates the state of the core as a consequence of a liquidation action.\n    * @param _principalReserve the address of the principal reserve that is being repaid\n    * @param _collateralReserve the address of the collateral reserve that is being liquidated\n    * @param _user the address of the borrower\n    * @param _amountToLiquidate the amount being repaid by the liquidator\n    * @param _collateralToLiquidate the amount of collateral being liquidated\n    * @param _feeLiquidated the amount of origination fee being liquidated\n    * @param _liquidatedCollateralForFee the amount of collateral equivalent to the origination fee + bonus\n    * @param _balanceIncrease the accrued interest on the borrowed amount\n    * @param _liquidatorReceivesAToken true if the liquidator will receive aTokens, false otherwise\n    **/\n    function updateStateOnLiquidation(\n        address _principalReserve,\n        address _collateralReserve,\n        address _user,\n        uint256 _amountToLiquidate,\n        uint256 _collateralToLiquidate,\n        uint256 _feeLiquidated,\n        uint256 _liquidatedCollateralForFee,\n        uint256 _balanceIncrease,\n        bool _liquidatorReceivesAToken\n    ) external onlyLendingPool {\n        updatePrincipalReserveStateOnLiquidationInternal(\n            _principalReserve,\n            _user,\n            _amountToLiquidate,\n            _balanceIncrease\n        );\n\n        updateCollateralReserveStateOnLiquidationInternal(\n            _collateralReserve\n        );\n\n        updateUserStateOnLiquidationInternal(\n            _principalReserve,\n            _user,\n            _amountToLiquidate,\n            _feeLiquidated,\n            _balanceIncrease\n        );\n\n        updateReserveInterestRatesAndTimestampInternal(_principalReserve, _amountToLiquidate, 0);\n\n        if (!_liquidatorReceivesAToken) {\n            updateReserveInterestRatesAndTimestampInternal(\n                _collateralReserve,\n                0,\n                _collateralToLiquidate.add(_liquidatedCollateralForFee)\n            );\n        }\n\n    }\n\n    /**\n    * @dev updates the state of the core as a consequence of a stable rate rebalance\n    * @param _reserve the address of the principal reserve where the user borrowed\n    * @param _user the address of the borrower\n    * @param _balanceIncrease the accrued interest on the borrowed amount\n    * @return the new stable rate for the user\n    **/\n    function updateStateOnRebalance(address _reserve, address _user, uint256 _balanceIncrease)\n        external\n        onlyLendingPool\n        returns (uint256)\n    {\n        updateReserveStateOnRebalanceInternal(_reserve, _user, _balanceIncrease);\n\n        //update user data and rebalance the rate\n        updateUserStateOnRebalanceInternal(_reserve, _user, _balanceIncrease);\n        updateReserveInterestRatesAndTimestampInternal(_reserve, 0, 0);\n        return usersReserveData[_user][_reserve].stableBorrowRate;\n    }\n\n    /**\n    * @dev enables or disables a reserve as collateral\n    * @param _reserve the address of the principal reserve where the user deposited\n    * @param _user the address of the depositor\n    * @param _useAsCollateral true if the depositor wants to use the reserve as collateral\n    **/\n    function setUserUseReserveAsCollateral(address _reserve, address _user, bool _useAsCollateral)\n        public\n        onlyLendingPool\n    {\n        CoreLibrary.UserReserveData storage user = usersReserveData[_user][_reserve];\n        user.useAsCollateral = _useAsCollateral;\n    }\n\n    /**\n    * @notice ETH/token transfer functions\n    **/\n\n    /**\n    * @dev fallback function enforces that the caller is a contract, to support flashloan transfers\n    **/\n    function() external payable {\n        //only contracts can send ETH to the core\n        require(msg.sender.isContract(), \"Only contracts can send ether to the Lending pool core\");\n\n    }\n\n    /**\n    * @dev transfers to the user a specific amount from the reserve.\n    * @param _reserve the address of the reserve where the transfer is happening\n    * @param _user the address of the user receiving the transfer\n    * @param _amount the amount being transferred\n    **/\n    function transferToUser(address _reserve, address payable _user, uint256 _amount)\n        external\n        onlyLendingPool\n    {\n        if (_reserve != EthAddressLib.ethAddress()) {\n            ERC20(_reserve).safeTransfer(_user, _amount);\n        } else {\n            //solium-disable-next-line\n            (bool result, ) = _user.call.value(_amount).gas(50000)(\"\");\n            require(result, \"Transfer of ETH failed\");\n        }\n    }\n\n    /**\n    * @dev transfers the protocol fees to the fees collection address\n    * @param _token the address of the token being transferred\n    * @param _user the address of the user from where the transfer is happening\n    * @param _amount the amount being transferred\n    * @param _destination the fee receiver address\n    **/\n\n    function transferToFeeCollectionAddress(\n        address _token,\n        address _user,\n        uint256 _amount,\n        address _destination\n    ) external payable onlyLendingPool {\n        address payable feeAddress = address(uint160(_destination)); //cast the address to payable\n\n        if (_token != EthAddressLib.ethAddress()) {\n            require(\n                msg.value == 0,\n                \"User is sending ETH along with the ERC20 transfer. Check the value attribute of the transaction\"\n            );\n            ERC20(_token).safeTransferFrom(_user, feeAddress, _amount);\n        } else {\n            require(msg.value >= _amount, \"The amount and the value sent to deposit do not match\");\n            //solium-disable-next-line\n            (bool result, ) = feeAddress.call.value(_amount).gas(50000)(\"\");\n            require(result, \"Transfer of ETH failed\");\n        }\n    }\n\n    /**\n    * @dev transfers the fees to the fees collection address in the case of liquidation\n    * @param _token the address of the token being transferred\n    * @param _amount the amount being transferred\n    * @param _destination the fee receiver address\n    **/\n    function liquidateFee(\n        address _token,\n        uint256 _amount,\n        address _destination\n    ) external payable onlyLendingPool {\n        address payable feeAddress = address(uint160(_destination)); //cast the address to payable\n        require(\n            msg.value == 0,\n            \"Fee liquidation does not require any transfer of value\"\n        );\n\n        if (_token != EthAddressLib.ethAddress()) {\n            ERC20(_token).safeTransfer(feeAddress, _amount);\n        } else {\n            //solium-disable-next-line\n            (bool result, ) = feeAddress.call.value(_amount).gas(50000)(\"\");\n            require(result, \"Transfer of ETH failed\");\n        }\n    }\n\n    /**\n    * @dev transfers an amount from a user to the destination reserve\n    * @param _reserve the address of the reserve where the amount is being transferred\n    * @param _user the address of the user from where the transfer is happening\n    * @param _amount the amount being transferred\n    **/\n    function transferToReserve(address _reserve, address payable _user, uint256 _amount)\n        external\n        payable\n        onlyLendingPool\n    {\n        if (_reserve != EthAddressLib.ethAddress()) {\n            require(msg.value == 0, \"User is sending ETH along with the ERC20 transfer.\");\n            ERC20(_reserve).safeTransferFrom(_user, address(this), _amount);\n\n        } else {\n            require(msg.value >= _amount, \"The amount and the value sent to deposit do not match\");\n\n            if (msg.value > _amount) {\n                //send back excess ETH\n                uint256 excessAmount = msg.value.sub(_amount);\n                //solium-disable-next-line\n                (bool result, ) = _user.call.value(excessAmount).gas(50000)(\"\");\n                require(result, \"Transfer of ETH failed\");\n            }\n        }\n    }\n\n    /**\n    * @notice data access functions\n    **/\n\n    /**\n    * @dev returns the basic data (balances, fee accrued, reserve enabled/disabled as collateral)\n    * needed to calculate the global account data in the LendingPoolDataProvider\n    * @param _reserve the address of the reserve\n    * @param _user the address of the user\n    * @return the user deposited balance, the principal borrow balance, the fee, and if the reserve is enabled as collateral or not\n    **/\n    function getUserBasicReserveData(address _reserve, address _user)\n        external\n        view\n        returns (uint256, uint256, uint256, bool)\n    {\n        CoreLibrary.ReserveData storage reserve = reserves[_reserve];\n        CoreLibrary.UserReserveData storage user = usersReserveData[_user][_reserve];\n\n        uint256 underlyingBalance = getUserUnderlyingAssetBalance(_reserve, _user);\n\n        if (user.principalBorrowBalance == 0) {\n            return (underlyingBalance, 0, 0, user.useAsCollateral);\n        }\n\n        return (\n            underlyingBalance,\n            user.getCompoundedBorrowBalance(reserve),\n            user.originationFee,\n            user.useAsCollateral\n        );\n    }\n\n    /**\n    * @dev checks if a user is allowed to borrow at a stable rate\n    * @param _reserve the reserve address\n    * @param _user the user\n    * @param _amount the amount the the user wants to borrow\n    * @return true if the user is allowed to borrow at a stable rate, false otherwise\n    **/\n\n    function isUserAllowedToBorrowAtStable(address _reserve, address _user, uint256 _amount)\n        external\n        view\n        returns (bool)\n    {\n        CoreLibrary.ReserveData storage reserve = reserves[_reserve];\n        CoreLibrary.UserReserveData storage user = usersReserveData[_user][_reserve];\n\n        if (!reserve.isStableBorrowRateEnabled) return false;\n\n        return\n            !user.useAsCollateral ||\n            !reserve.usageAsCollateralEnabled ||\n            _amount > getUserUnderlyingAssetBalance(_reserve, _user);\n    }\n\n    /**\n    * @dev gets the underlying asset balance of a user based on the corresponding aToken balance.\n    * @param _reserve the reserve address\n    * @param _user the user address\n    * @return the underlying deposit balance of the user\n    **/\n\n    function getUserUnderlyingAssetBalance(address _reserve, address _user)\n        public\n        view\n        returns (uint256)\n    {\n        AToken aToken = AToken(reserves[_reserve].aTokenAddress);\n        return aToken.balanceOf(_user);\n\n    }\n\n    /**\n    * @dev gets the interest rate strategy contract address for the reserve\n    * @param _reserve the reserve address\n    * @return the address of the interest rate strategy contract\n    **/\n    function getReserveInterestRateStrategyAddress(address _reserve) public view returns (address) {\n        CoreLibrary.ReserveData storage reserve = reserves[_reserve];\n        return reserve.interestRateStrategyAddress;\n    }\n\n    /**\n    * @dev gets the aToken contract address for the reserve\n    * @param _reserve the reserve address\n    * @return the address of the aToken contract\n    **/\n\n    function getReserveATokenAddress(address _reserve) public view returns (address) {\n        CoreLibrary.ReserveData storage reserve = reserves[_reserve];\n        return reserve.aTokenAddress;\n    }\n\n    /**\n    * @dev gets the available liquidity in the reserve. The available liquidity is the balance of the core contract\n    * @param _reserve the reserve address\n    * @return the available liquidity\n    **/\n    function getReserveAvailableLiquidity(address _reserve) public view returns (uint256) {\n        uint256 balance = 0;\n\n        if (_reserve == EthAddressLib.ethAddress()) {\n            balance = address(this).balance;\n        } else {\n            balance = IERC20(_reserve).balanceOf(address(this));\n        }\n        return balance;\n    }\n\n    /**\n    * @dev gets the total liquidity in the reserve. The total liquidity is the balance of the core contract + total borrows\n    * @param _reserve the reserve address\n    * @return the total liquidity\n    **/\n    function getReserveTotalLiquidity(address _reserve) public view returns (uint256) {\n        CoreLibrary.ReserveData storage reserve = reserves[_reserve];\n        return getReserveAvailableLiquidity(_reserve).add(reserve.getTotalBorrows());\n    }\n\n    /**\n    * @dev gets the normalized income of the reserve. a value of 1e27 means there is no income. A value of 2e27 means there\n    * there has been 100% income.\n    * @param _reserve the reserve address\n    * @return the reserve normalized income\n    **/\n    function getReserveNormalizedIncome(address _reserve) external view returns (uint256) {\n        CoreLibrary.ReserveData storage reserve = reserves[_reserve];\n        return reserve.getNormalizedIncome();\n    }\n\n    /**\n    * @dev gets the reserve total borrows\n    * @param _reserve the reserve address\n    * @return the total borrows (stable + variable)\n    **/\n    function getReserveTotalBorrows(address _reserve) public view returns (uint256) {\n        return reserves[_reserve].getTotalBorrows();\n    }\n\n    /**\n    * @dev gets the reserve total borrows stable\n    * @param _reserve the reserve address\n    * @return the total borrows stable\n    **/\n    function getReserveTotalBorrowsStable(address _reserve) external view returns (uint256) {\n        CoreLibrary.ReserveData storage reserve = reserves[_reserve];\n        return reserve.totalBorrowsStable;\n    }\n\n    /**\n    * @dev gets the reserve total borrows variable\n    * @param _reserve the reserve address\n    * @return the total borrows variable\n    **/\n\n    function getReserveTotalBorrowsVariable(address _reserve) external view returns (uint256) {\n        CoreLibrary.ReserveData storage reserve = reserves[_reserve];\n        return reserve.totalBorrowsVariable;\n    }\n\n    /**\n    * @dev gets the reserve liquidation threshold\n    * @param _reserve the reserve address\n    * @return the reserve liquidation threshold\n    **/\n\n    function getReserveLiquidationThreshold(address _reserve) external view returns (uint256) {\n        CoreLibrary.ReserveData storage reserve = reserves[_reserve];\n        return reserve.liquidationThreshold;\n    }\n\n    /**\n    * @dev gets the reserve liquidation bonus\n    * @param _reserve the reserve address\n    * @return the reserve liquidation bonus\n    **/\n\n    function getReserveLiquidationBonus(address _reserve) external view returns (uint256) {\n        CoreLibrary.ReserveData storage reserve = reserves[_reserve];\n        return reserve.liquidationBonus;\n    }\n\n    /**\n    * @dev gets the reserve current variable borrow rate. Is the base variable borrow rate if the reserve is empty\n    * @param _reserve the reserve address\n    * @return the reserve current variable borrow rate\n    **/\n\n    function getReserveCurrentVariableBorrowRate(address _reserve) external view returns (uint256) {\n        CoreLibrary.ReserveData storage reserve = reserves[_reserve];\n\n        if (reserve.currentVariableBorrowRate == 0) {\n            return\n                IReserveInterestRateStrategy(reserve.interestRateStrategyAddress)\n                .getBaseVariableBorrowRate();\n        }\n        return reserve.currentVariableBorrowRate;\n    }\n\n    /**\n    * @dev gets the reserve current stable borrow rate. Is the market rate if the reserve is empty\n    * @param _reserve the reserve address\n    * @return the reserve current stable borrow rate\n    **/\n\n    function getReserveCurrentStableBorrowRate(address _reserve) public view returns (uint256) {\n        CoreLibrary.ReserveData storage reserve = reserves[_reserve];\n        ILendingRateOracle oracle = ILendingRateOracle(addressesProvider.getLendingRateOracle());\n\n        if (reserve.currentStableBorrowRate == 0) {\n            //no stable rate borrows yet\n            return oracle.getMarketBorrowRate(_reserve);\n        }\n\n        return reserve.currentStableBorrowRate;\n    }\n\n    /**\n    * @dev gets the reserve average stable borrow rate. The average stable rate is the weighted average\n    * of all the loans taken at stable rate.\n    * @param _reserve the reserve address\n    * @return the reserve current average borrow rate\n    **/\n    function getReserveCurrentAverageStableBorrowRate(address _reserve)\n        external\n        view\n        returns (uint256)\n    {\n        CoreLibrary.ReserveData storage reserve = reserves[_reserve];\n        return reserve.currentAverageStableBorrowRate;\n    }\n\n    /**\n    * @dev gets the reserve liquidity rate\n    * @param _reserve the reserve address\n    * @return the reserve liquidity rate\n    **/\n    function getReserveCurrentLiquidityRate(address _reserve) external view returns (uint256) {\n        CoreLibrary.ReserveData storage reserve = reserves[_reserve];\n        return reserve.currentLiquidityRate;\n    }\n\n    /**\n    * @dev gets the reserve liquidity cumulative index\n    * @param _reserve the reserve address\n    * @return the reserve liquidity cumulative index\n    **/\n    function getReserveLiquidityCumulativeIndex(address _reserve) external view returns (uint256) {\n        CoreLibrary.ReserveData storage reserve = reserves[_reserve];\n        return reserve.lastLiquidityCumulativeIndex;\n    }\n\n    /**\n    * @dev gets the reserve variable borrow index\n    * @param _reserve the reserve address\n    * @return the reserve variable borrow index\n    **/\n    function getReserveVariableBorrowsCumulativeIndex(address _reserve)\n        external\n        view\n        returns (uint256)\n    {\n        CoreLibrary.ReserveData storage reserve = reserves[_reserve];\n        return reserve.lastVariableBorrowCumulativeIndex;\n    }\n\n    /**\n    * @dev this function aggregates the configuration parameters of the reserve.\n    * It's used in the LendingPoolDataProvider specifically to save gas, and avoid\n    * multiple external contract calls to fetch the same data.\n    * @param _reserve the reserve address\n    * @return the reserve decimals\n    * @return the base ltv as collateral\n    * @return the liquidation threshold\n    * @return if the reserve is used as collateral or not\n    **/\n    function getReserveConfiguration(address _reserve)\n        external\n        view\n        returns (uint256, uint256, uint256, bool)\n    {\n        uint256 decimals;\n        uint256 baseLTVasCollateral;\n        uint256 liquidationThreshold;\n        bool usageAsCollateralEnabled;\n\n        CoreLibrary.ReserveData storage reserve = reserves[_reserve];\n        decimals = reserve.decimals;\n        baseLTVasCollateral = reserve.baseLTVasCollateral;\n        liquidationThreshold = reserve.liquidationThreshold;\n        usageAsCollateralEnabled = reserve.usageAsCollateralEnabled;\n\n        return (decimals, baseLTVasCollateral, liquidationThreshold, usageAsCollateralEnabled);\n    }\n\n    /**\n    * @dev returns the decimals of the reserve\n    * @param _reserve the reserve address\n    * @return the reserve decimals\n    **/\n    function getReserveDecimals(address _reserve) external view returns (uint256) {\n        return reserves[_reserve].decimals;\n    }\n\n    /**\n    * @dev returns true if the reserve is enabled for borrowing\n    * @param _reserve the reserve address\n    * @return true if the reserve is enabled for borrowing, false otherwise\n    **/\n\n    function isReserveBorrowingEnabled(address _reserve) external view returns (bool) {\n        CoreLibrary.ReserveData storage reserve = reserves[_reserve];\n        return reserve.borrowingEnabled;\n    }\n\n    /**\n    * @dev returns true if the reserve is enabled as collateral\n    * @param _reserve the reserve address\n    * @return true if the reserve is enabled as collateral, false otherwise\n    **/\n\n    function isReserveUsageAsCollateralEnabled(address _reserve) external view returns (bool) {\n        CoreLibrary.ReserveData storage reserve = reserves[_reserve];\n        return reserve.usageAsCollateralEnabled;\n    }\n\n    /**\n    * @dev returns true if the stable rate is enabled on reserve\n    * @param _reserve the reserve address\n    * @return true if the stable rate is enabled on reserve, false otherwise\n    **/\n    function getReserveIsStableBorrowRateEnabled(address _reserve) external view returns (bool) {\n        CoreLibrary.ReserveData storage reserve = reserves[_reserve];\n        return reserve.isStableBorrowRateEnabled;\n    }\n\n    /**\n    * @dev returns true if the reserve is active\n    * @param _reserve the reserve address\n    * @return true if the reserve is active, false otherwise\n    **/\n    function getReserveIsActive(address _reserve) external view returns (bool) {\n        CoreLibrary.ReserveData storage reserve = reserves[_reserve];\n        return reserve.isActive;\n    }\n\n    /**\n    * @notice returns if a reserve is freezed\n    * @param _reserve the reserve for which the information is needed\n    * @return true if the reserve is freezed, false otherwise\n    **/\n\n    function getReserveIsFreezed(address _reserve) external view returns (bool) {\n        CoreLibrary.ReserveData storage reserve = reserves[_reserve];\n        return reserve.isFreezed;\n    }\n\n    /**\n    * @notice returns the timestamp of the last action on the reserve\n    * @param _reserve the reserve for which the information is needed\n    * @return the last updated timestamp of the reserve\n    **/\n\n    function getReserveLastUpdate(address _reserve) external view returns (uint40 timestamp) {\n        CoreLibrary.ReserveData storage reserve = reserves[_reserve];\n        timestamp = reserve.lastUpdateTimestamp;\n    }\n\n    /**\n    * @dev returns the utilization rate U of a specific reserve\n    * @param _reserve the reserve for which the information is needed\n    * @return the utilization rate in ray\n    **/\n\n    function getReserveUtilizationRate(address _reserve) public view returns (uint256) {\n        CoreLibrary.ReserveData storage reserve = reserves[_reserve];\n\n        uint256 totalBorrows = reserve.getTotalBorrows();\n\n        if (totalBorrows == 0) {\n            return 0;\n        }\n\n        uint256 availableLiquidity = getReserveAvailableLiquidity(_reserve);\n\n        return totalBorrows.rayDiv(availableLiquidity.add(totalBorrows));\n    }\n\n    /**\n    * @return the array of reserves configured on the core\n    **/\n    function getReserves() external view returns (address[] memory) {\n        return reservesList;\n    }\n\n    /**\n    * @param _reserve the address of the reserve for which the information is needed\n    * @param _user the address of the user for which the information is needed\n    * @return true if the user has chosen to use the reserve as collateral, false otherwise\n    **/\n    function isUserUseReserveAsCollateralEnabled(address _reserve, address _user)\n        external\n        view\n        returns (bool)\n    {\n        CoreLibrary.UserReserveData storage user = usersReserveData[_user][_reserve];\n        return user.useAsCollateral;\n    }\n\n    /**\n    * @param _reserve the address of the reserve for which the information is needed\n    * @param _user the address of the user for which the information is needed\n    * @return the origination fee for the user\n    **/\n    function getUserOriginationFee(address _reserve, address _user)\n        external\n        view\n        returns (uint256)\n    {\n        CoreLibrary.UserReserveData storage user = usersReserveData[_user][_reserve];\n        return user.originationFee;\n    }\n\n    /**\n    * @dev users with no loans in progress have NONE as borrow rate mode\n    * @param _reserve the address of the reserve for which the information is needed\n    * @param _user the address of the user for which the information is needed\n    * @return the borrow rate mode for the user,\n    **/\n\n    function getUserCurrentBorrowRateMode(address _reserve, address _user)\n        public\n        view\n        returns (CoreLibrary.InterestRateMode)\n    {\n        CoreLibrary.UserReserveData storage user = usersReserveData[_user][_reserve];\n\n        if (user.principalBorrowBalance == 0) {\n            return CoreLibrary.InterestRateMode.NONE;\n        }\n\n        return\n            user.stableBorrowRate > 0\n            ? CoreLibrary.InterestRateMode.STABLE\n            : CoreLibrary.InterestRateMode.VARIABLE;\n    }\n\n    /**\n    * @dev gets the current borrow rate of the user\n    * @param _reserve the address of the reserve for which the information is needed\n    * @param _user the address of the user for which the information is needed\n    * @return the borrow rate for the user,\n    **/\n    function getUserCurrentBorrowRate(address _reserve, address _user)\n        internal\n        view\n        returns (uint256)\n    {\n        CoreLibrary.InterestRateMode rateMode = getUserCurrentBorrowRateMode(_reserve, _user);\n\n        if (rateMode == CoreLibrary.InterestRateMode.NONE) {\n            return 0;\n        }\n\n        return\n            rateMode == CoreLibrary.InterestRateMode.STABLE\n            ? usersReserveData[_user][_reserve].stableBorrowRate\n            : reserves[_reserve].currentVariableBorrowRate;\n    }\n\n    /**\n    * @dev the stable rate returned is 0 if the user is borrowing at variable or not borrowing at all\n    * @param _reserve the address of the reserve for which the information is needed\n    * @param _user the address of the user for which the information is needed\n    * @return the user stable rate\n    **/\n    function getUserCurrentStableBorrowRate(address _reserve, address _user)\n        external\n        view\n        returns (uint256)\n    {\n        CoreLibrary.UserReserveData storage user = usersReserveData[_user][_reserve];\n        return user.stableBorrowRate;\n    }\n\n    /**\n    * @dev calculates and returns the borrow balances of the user\n    * @param _reserve the address of the reserve\n    * @param _user the address of the user\n    * @return the principal borrow balance, the compounded balance and the balance increase since the last borrow/repay/swap/rebalance\n    **/\n\n    function getUserBorrowBalances(address _reserve, address _user)\n        public\n        view\n        returns (uint256, uint256, uint256)\n    {\n        CoreLibrary.UserReserveData storage user = usersReserveData[_user][_reserve];\n        if (user.principalBorrowBalance == 0) {\n            return (0, 0, 0);\n        }\n\n        uint256 principal = user.principalBorrowBalance;\n        uint256 compoundedBalance = CoreLibrary.getCompoundedBorrowBalance(\n            user,\n            reserves[_reserve]\n        );\n        return (principal, compoundedBalance, compoundedBalance.sub(principal));\n    }\n\n    /**\n    * @dev the variable borrow index of the user is 0 if the user is not borrowing or borrowing at stable\n    * @param _reserve the address of the reserve for which the information is needed\n    * @param _user the address of the user for which the information is needed\n    * @return the variable borrow index for the user\n    **/\n\n    function getUserVariableBorrowCumulativeIndex(address _reserve, address _user)\n        external\n        view\n        returns (uint256)\n    {\n        CoreLibrary.UserReserveData storage user = usersReserveData[_user][_reserve];\n        return user.lastVariableBorrowCumulativeIndex;\n    }\n\n    /**\n    * @dev the variable borrow index of the user is 0 if the user is not borrowing or borrowing at stable\n    * @param _reserve the address of the reserve for which the information is needed\n    * @param _user the address of the user for which the information is needed\n    * @return the variable borrow index for the user\n    **/\n\n    function getUserLastUpdate(address _reserve, address _user)\n        external\n        view\n        returns (uint256 timestamp)\n    {\n        CoreLibrary.UserReserveData storage user = usersReserveData[_user][_reserve];\n        timestamp = user.lastUpdateTimestamp;\n    }\n\n    /**\n    * @dev updates the lending pool core configuration\n    **/\n    function refreshConfiguration() external onlyLendingPoolConfigurator {\n        refreshConfigInternal();\n    }\n\n    /**\n    * @dev initializes a reserve\n    * @param _reserve the address of the reserve\n    * @param _aTokenAddress the address of the overlying aToken contract\n    * @param _decimals the decimals of the reserve currency\n    * @param _interestRateStrategyAddress the address of the interest rate strategy contract\n    **/\n    function initReserve(\n        address _reserve,\n        address _aTokenAddress,\n        uint256 _decimals,\n        address _interestRateStrategyAddress\n    ) external onlyLendingPoolConfigurator {\n        reserves[_reserve].init(_aTokenAddress, _decimals, _interestRateStrategyAddress);\n        addReserveToListInternal(_reserve);\n\n    }\n\n\n\n    /**\n    * @dev removes the last added reserve in the reservesList array\n    * @param _reserveToRemove the address of the reserve\n    **/\n    function removeLastAddedReserve(address _reserveToRemove)\n     external onlyLendingPoolConfigurator {\n\n        address lastReserve = reservesList[reservesList.length-1];\n\n        require(lastReserve == _reserveToRemove, \"Reserve being removed is different than the reserve requested\");\n\n        //as we can't check if totalLiquidity is 0 (since the reserve added might not be an ERC20) we at least check that there is nothing borrowed\n        require(getReserveTotalBorrows(lastReserve) == 0, \"Cannot remove a reserve with liquidity deposited\");\n\n        reserves[lastReserve].isActive = false;\n        reserves[lastReserve].aTokenAddress = address(0);\n        reserves[lastReserve].decimals = 0;\n        reserves[lastReserve].lastLiquidityCumulativeIndex = 0;\n        reserves[lastReserve].lastVariableBorrowCumulativeIndex = 0;\n        reserves[lastReserve].borrowingEnabled = false;\n        reserves[lastReserve].usageAsCollateralEnabled = false;\n        reserves[lastReserve].baseLTVasCollateral = 0;\n        reserves[lastReserve].liquidationThreshold = 0;\n        reserves[lastReserve].liquidationBonus = 0;\n        reserves[lastReserve].interestRateStrategyAddress = address(0);\n\n        reservesList.pop();\n    }\n\n    /**\n    * @dev updates the address of the interest rate strategy contract\n    * @param _reserve the address of the reserve\n    * @param _rateStrategyAddress the address of the interest rate strategy contract\n    **/\n\n    function setReserveInterestRateStrategyAddress(address _reserve, address _rateStrategyAddress)\n        external\n        onlyLendingPoolConfigurator\n    {\n        reserves[_reserve].interestRateStrategyAddress = _rateStrategyAddress;\n    }\n\n    /**\n    * @dev enables borrowing on a reserve. Also sets the stable rate borrowing\n    * @param _reserve the address of the reserve\n    * @param _stableBorrowRateEnabled true if the stable rate needs to be enabled, false otherwise\n    **/\n\n    function enableBorrowingOnReserve(address _reserve, bool _stableBorrowRateEnabled)\n        external\n        onlyLendingPoolConfigurator\n    {\n        reserves[_reserve].enableBorrowing(_stableBorrowRateEnabled);\n    }\n\n    /**\n    * @dev disables borrowing on a reserve\n    * @param _reserve the address of the reserve\n    **/\n\n    function disableBorrowingOnReserve(address _reserve) external onlyLendingPoolConfigurator {\n        reserves[_reserve].disableBorrowing();\n    }\n\n    /**\n    * @dev enables a reserve to be used as collateral\n    * @param _reserve the address of the reserve\n    **/\n    function enableReserveAsCollateral(\n        address _reserve,\n        uint256 _baseLTVasCollateral,\n        uint256 _liquidationThreshold,\n        uint256 _liquidationBonus\n    ) external onlyLendingPoolConfigurator {\n        reserves[_reserve].enableAsCollateral(\n            _baseLTVasCollateral,\n            _liquidationThreshold,\n            _liquidationBonus\n        );\n    }\n\n    /**\n    * @dev disables a reserve to be used as collateral\n    * @param _reserve the address of the reserve\n    **/\n    function disableReserveAsCollateral(address _reserve) external onlyLendingPoolConfigurator {\n        reserves[_reserve].disableAsCollateral();\n    }\n\n    /**\n    * @dev enable the stable borrow rate mode on a reserve\n    * @param _reserve the address of the reserve\n    **/\n    function enableReserveStableBorrowRate(address _reserve) external onlyLendingPoolConfigurator {\n        CoreLibrary.ReserveData storage reserve = reserves[_reserve];\n        reserve.isStableBorrowRateEnabled = true;\n    }\n\n    /**\n    * @dev disable the stable borrow rate mode on a reserve\n    * @param _reserve the address of the reserve\n    **/\n    function disableReserveStableBorrowRate(address _reserve) external onlyLendingPoolConfigurator {\n        CoreLibrary.ReserveData storage reserve = reserves[_reserve];\n        reserve.isStableBorrowRateEnabled = false;\n    }\n\n    /**\n    * @dev activates a reserve\n    * @param _reserve the address of the reserve\n    **/\n    function activateReserve(address _reserve) external onlyLendingPoolConfigurator {\n        CoreLibrary.ReserveData storage reserve = reserves[_reserve];\n\n        require(\n            reserve.lastLiquidityCumulativeIndex > 0 &&\n                reserve.lastVariableBorrowCumulativeIndex > 0,\n            \"Reserve has not been initialized yet\"\n        );\n        reserve.isActive = true;\n    }\n\n    /**\n    * @dev deactivates a reserve\n    * @param _reserve the address of the reserve\n    **/\n    function deactivateReserve(address _reserve) external onlyLendingPoolConfigurator {\n        CoreLibrary.ReserveData storage reserve = reserves[_reserve];\n        reserve.isActive = false;\n    }\n\n    /**\n    * @notice allows the configurator to freeze the reserve.\n    * A freezed reserve does not allow any action apart from repay, redeem, liquidationCall, rebalance.\n    * @param _reserve the address of the reserve\n    **/\n    function freezeReserve(address _reserve) external onlyLendingPoolConfigurator {\n        CoreLibrary.ReserveData storage reserve = reserves[_reserve];\n        reserve.isFreezed = true;\n    }\n\n    /**\n    * @notice allows the configurator to unfreeze the reserve. A unfreezed reserve allows any action to be executed.\n    * @param _reserve the address of the reserve\n    **/\n    function unfreezeReserve(address _reserve) external onlyLendingPoolConfigurator {\n        CoreLibrary.ReserveData storage reserve = reserves[_reserve];\n        reserve.isFreezed = false;\n    }\n\n    /**\n    * @notice allows the configurator to update the loan to value of a reserve\n    * @param _reserve the address of the reserve\n    * @param _ltv the new loan to value\n    **/\n    function setReserveBaseLTVasCollateral(address _reserve, uint256 _ltv)\n        external\n        onlyLendingPoolConfigurator\n    {\n        CoreLibrary.ReserveData storage reserve = reserves[_reserve];\n        reserve.baseLTVasCollateral = _ltv;\n    }\n\n    /**\n    * @notice allows the configurator to update the liquidation threshold of a reserve\n    * @param _reserve the address of the reserve\n    * @param _threshold the new liquidation threshold\n    **/\n    function setReserveLiquidationThreshold(address _reserve, uint256 _threshold)\n        external\n        onlyLendingPoolConfigurator\n    {\n        CoreLibrary.ReserveData storage reserve = reserves[_reserve];\n        reserve.liquidationThreshold = _threshold;\n    }\n\n    /**\n    * @notice allows the configurator to update the liquidation bonus of a reserve\n    * @param _reserve the address of the reserve\n    * @param _bonus the new liquidation bonus\n    **/\n    function setReserveLiquidationBonus(address _reserve, uint256 _bonus)\n        external\n        onlyLendingPoolConfigurator\n    {\n        CoreLibrary.ReserveData storage reserve = reserves[_reserve];\n        reserve.liquidationBonus = _bonus;\n    }\n\n    /**\n    * @notice allows the configurator to update the reserve decimals\n    * @param _reserve the address of the reserve\n    * @param _decimals the decimals of the reserve\n    **/\n    function setReserveDecimals(address _reserve, uint256 _decimals)\n        external\n        onlyLendingPoolConfigurator\n    {\n        CoreLibrary.ReserveData storage reserve = reserves[_reserve];\n        reserve.decimals = _decimals;\n    }\n\n    /**\n    * @notice internal functions\n    **/\n\n    /**\n    * @dev updates the state of a reserve as a consequence of a borrow action.\n    * @param _reserve the address of the reserve on which the user is borrowing\n    * @param _user the address of the borrower\n    * @param _principalBorrowBalance the previous borrow balance of the borrower before the action\n    * @param _balanceIncrease the accrued interest of the user on the previous borrowed amount\n    * @param _amountBorrowed the new amount borrowed\n    * @param _rateMode the borrow rate mode (stable, variable)\n    **/\n\n    function updateReserveStateOnBorrowInternal(\n        address _reserve,\n        address _user,\n        uint256 _principalBorrowBalance,\n        uint256 _balanceIncrease,\n        uint256 _amountBorrowed,\n        CoreLibrary.InterestRateMode _rateMode\n    ) internal {\n        reserves[_reserve].updateCumulativeIndexes();\n\n        //increasing reserve total borrows to account for the new borrow balance of the user\n        //NOTE: Depending on the previous borrow mode, the borrows might need to be switched from variable to stable or vice versa\n\n        updateReserveTotalBorrowsByRateModeInternal(\n            _reserve,\n            _user,\n            _principalBorrowBalance,\n            _balanceIncrease,\n            _amountBorrowed,\n            _rateMode\n        );\n    }\n\n    /**\n    * @dev updates the state of a user as a consequence of a borrow action.\n    * @param _reserve the address of the reserve on which the user is borrowing\n    * @param _user the address of the borrower\n    * @param _amountBorrowed the amount borrowed\n    * @param _balanceIncrease the accrued interest of the user on the previous borrowed amount\n    * @param _rateMode the borrow rate mode (stable, variable)\n    * @return the final borrow rate for the user. Emitted by the borrow() event\n    **/\n\n    function updateUserStateOnBorrowInternal(\n        address _reserve,\n        address _user,\n        uint256 _amountBorrowed,\n        uint256 _balanceIncrease,\n        uint256 _fee,\n        CoreLibrary.InterestRateMode _rateMode\n    ) internal {\n        CoreLibrary.ReserveData storage reserve = reserves[_reserve];\n        CoreLibrary.UserReserveData storage user = usersReserveData[_user][_reserve];\n\n        if (_rateMode == CoreLibrary.InterestRateMode.STABLE) {\n            //stable\n            //reset the user variable index, and update the stable rate\n            user.stableBorrowRate = reserve.currentStableBorrowRate;\n            user.lastVariableBorrowCumulativeIndex = 0;\n        } else if (_rateMode == CoreLibrary.InterestRateMode.VARIABLE) {\n            //variable\n            //reset the user stable rate, and store the new borrow index\n            user.stableBorrowRate = 0;\n            user.lastVariableBorrowCumulativeIndex = reserve.lastVariableBorrowCumulativeIndex;\n        } else {\n            revert(\"Invalid borrow rate mode\");\n        }\n        //increase the principal borrows and the origination fee\n        user.principalBorrowBalance = user.principalBorrowBalance.add(_amountBorrowed).add(\n            _balanceIncrease\n        );\n        user.originationFee = user.originationFee.add(_fee);\n\n        //solium-disable-next-line\n        user.lastUpdateTimestamp = uint40(block.timestamp);\n\n    }\n\n    /**\n    * @dev updates the state of the reserve as a consequence of a repay action.\n    * @param _reserve the address of the reserve on which the user is repaying\n    * @param _user the address of the borrower\n    * @param _paybackAmountMinusFees the amount being paid back minus fees\n    * @param _balanceIncrease the accrued interest on the borrowed amount\n    **/\n\n    function updateReserveStateOnRepayInternal(\n        address _reserve,\n        address _user,\n        uint256 _paybackAmountMinusFees,\n        uint256 _balanceIncrease\n    ) internal {\n        CoreLibrary.ReserveData storage reserve = reserves[_reserve];\n        CoreLibrary.UserReserveData storage user = usersReserveData[_reserve][_user];\n\n        CoreLibrary.InterestRateMode borrowRateMode = getUserCurrentBorrowRateMode(_reserve, _user);\n\n        //update the indexes\n        reserves[_reserve].updateCumulativeIndexes();\n\n        //compound the cumulated interest to the borrow balance and then subtracting the payback amount\n        if (borrowRateMode == CoreLibrary.InterestRateMode.STABLE) {\n            reserve.increaseTotalBorrowsStableAndUpdateAverageRate(\n                _balanceIncrease,\n                user.stableBorrowRate\n            );\n            reserve.decreaseTotalBorrowsStableAndUpdateAverageRate(\n                _paybackAmountMinusFees,\n                user.stableBorrowRate\n            );\n        } else {\n            reserve.increaseTotalBorrowsVariable(_balanceIncrease);\n            reserve.decreaseTotalBorrowsVariable(_paybackAmountMinusFees);\n        }\n    }\n\n    /**\n    * @dev updates the state of the user as a consequence of a repay action.\n    * @param _reserve the address of the reserve on which the user is repaying\n    * @param _user the address of the borrower\n    * @param _paybackAmountMinusFees the amount being paid back minus fees\n    * @param _originationFeeRepaid the fee on the amount that is being repaid\n    * @param _balanceIncrease the accrued interest on the borrowed amount\n    * @param _repaidWholeLoan true if the user is repaying the whole loan\n    **/\n    function updateUserStateOnRepayInternal(\n        address _reserve,\n        address _user,\n        uint256 _paybackAmountMinusFees,\n        uint256 _originationFeeRepaid,\n        uint256 _balanceIncrease,\n        bool _repaidWholeLoan\n    ) internal {\n        CoreLibrary.ReserveData storage reserve = reserves[_reserve];\n        CoreLibrary.UserReserveData storage user = usersReserveData[_user][_reserve];\n\n        //update the user principal borrow balance, adding the cumulated interest and then subtracting the payback amount\n        user.principalBorrowBalance = user.principalBorrowBalance.add(_balanceIncrease).sub(\n            _paybackAmountMinusFees\n        );\n        user.lastVariableBorrowCumulativeIndex = reserve.lastVariableBorrowCumulativeIndex;\n\n        //if the balance decrease is equal to the previous principal (user is repaying the whole loan)\n        //and the rate mode is stable, we reset the interest rate mode of the user\n        if (_repaidWholeLoan) {\n            user.stableBorrowRate = 0;\n            user.lastVariableBorrowCumulativeIndex = 0;\n        }\n        user.originationFee = user.originationFee.sub(_originationFeeRepaid);\n\n        //solium-disable-next-line\n        user.lastUpdateTimestamp = uint40(block.timestamp);\n\n    }\n\n    /**\n    * @dev updates the state of the user as a consequence of a swap rate action.\n    * @param _reserve the address of the reserve on which the user is performing the rate swap\n    * @param _user the address of the borrower\n    * @param _principalBorrowBalance the the principal amount borrowed by the user\n    * @param _compoundedBorrowBalance the principal amount plus the accrued interest\n    * @param _currentRateMode the rate mode at which the user borrowed\n    **/\n    function updateReserveStateOnSwapRateInternal(\n        address _reserve,\n        address _user,\n        uint256 _principalBorrowBalance,\n        uint256 _compoundedBorrowBalance,\n        CoreLibrary.InterestRateMode _currentRateMode\n    ) internal {\n        CoreLibrary.ReserveData storage reserve = reserves[_reserve];\n        CoreLibrary.UserReserveData storage user = usersReserveData[_user][_reserve];\n\n        //compounding reserve indexes\n        reserve.updateCumulativeIndexes();\n\n        if (_currentRateMode == CoreLibrary.InterestRateMode.STABLE) {\n            uint256 userCurrentStableRate = user.stableBorrowRate;\n\n            //swap to variable\n            reserve.decreaseTotalBorrowsStableAndUpdateAverageRate(\n                _principalBorrowBalance,\n                userCurrentStableRate\n            ); //decreasing stable from old principal balance\n            reserve.increaseTotalBorrowsVariable(_compoundedBorrowBalance); //increase variable borrows\n        } else if (_currentRateMode == CoreLibrary.InterestRateMode.VARIABLE) {\n            //swap to stable\n            uint256 currentStableRate = reserve.currentStableBorrowRate;\n            reserve.decreaseTotalBorrowsVariable(_principalBorrowBalance);\n            reserve.increaseTotalBorrowsStableAndUpdateAverageRate(\n                _compoundedBorrowBalance,\n                currentStableRate\n            );\n\n        } else {\n            revert(\"Invalid rate mode received\");\n        }\n    }\n\n    /**\n    * @dev updates the state of the user as a consequence of a swap rate action.\n    * @param _reserve the address of the reserve on which the user is performing the swap\n    * @param _user the address of the borrower\n    * @param _balanceIncrease the accrued interest on the borrowed amount\n    * @param _currentRateMode the current rate mode of the user\n    **/\n\n    function updateUserStateOnSwapRateInternal(\n        address _reserve,\n        address _user,\n        uint256 _balanceIncrease,\n        CoreLibrary.InterestRateMode _currentRateMode\n    ) internal returns (CoreLibrary.InterestRateMode) {\n        CoreLibrary.UserReserveData storage user = usersReserveData[_user][_reserve];\n        CoreLibrary.ReserveData storage reserve = reserves[_reserve];\n\n        CoreLibrary.InterestRateMode newMode = CoreLibrary.InterestRateMode.NONE;\n\n        if (_currentRateMode == CoreLibrary.InterestRateMode.VARIABLE) {\n            //switch to stable\n            newMode = CoreLibrary.InterestRateMode.STABLE;\n            user.stableBorrowRate = reserve.currentStableBorrowRate;\n            user.lastVariableBorrowCumulativeIndex = 0;\n        } else if (_currentRateMode == CoreLibrary.InterestRateMode.STABLE) {\n            newMode = CoreLibrary.InterestRateMode.VARIABLE;\n            user.stableBorrowRate = 0;\n            user.lastVariableBorrowCumulativeIndex = reserve.lastVariableBorrowCumulativeIndex;\n        } else {\n            revert(\"Invalid interest rate mode received\");\n        }\n        //compounding cumulated interest\n        user.principalBorrowBalance = user.principalBorrowBalance.add(_balanceIncrease);\n        //solium-disable-next-line\n        user.lastUpdateTimestamp = uint40(block.timestamp);\n\n        return newMode;\n    }\n\n    /**\n    * @dev updates the state of the principal reserve as a consequence of a liquidation action.\n    * @param _principalReserve the address of the principal reserve that is being repaid\n    * @param _user the address of the borrower\n    * @param _amountToLiquidate the amount being repaid by the liquidator\n    * @param _balanceIncrease the accrued interest on the borrowed amount\n    **/\n\n    function updatePrincipalReserveStateOnLiquidationInternal(\n        address _principalReserve,\n        address _user,\n        uint256 _amountToLiquidate,\n        uint256 _balanceIncrease\n    ) internal {\n        CoreLibrary.ReserveData storage reserve = reserves[_principalReserve];\n        CoreLibrary.UserReserveData storage user = usersReserveData[_user][_principalReserve];\n\n        //update principal reserve data\n        reserve.updateCumulativeIndexes();\n\n        CoreLibrary.InterestRateMode borrowRateMode = getUserCurrentBorrowRateMode(\n            _principalReserve,\n            _user\n        );\n\n        if (borrowRateMode == CoreLibrary.InterestRateMode.STABLE) {\n            //increase the total borrows by the compounded interest\n            reserve.increaseTotalBorrowsStableAndUpdateAverageRate(\n                _balanceIncrease,\n                user.stableBorrowRate\n            );\n\n            //decrease by the actual amount to liquidate\n            reserve.decreaseTotalBorrowsStableAndUpdateAverageRate(\n                _amountToLiquidate,\n                user.stableBorrowRate\n            );\n\n        } else {\n            //increase the total borrows by the compounded interest\n            reserve.increaseTotalBorrowsVariable(_balanceIncrease);\n\n            //decrease by the actual amount to liquidate\n            reserve.decreaseTotalBorrowsVariable(_amountToLiquidate);\n        }\n\n    }\n\n    /**\n    * @dev updates the state of the collateral reserve as a consequence of a liquidation action.\n    * @param _collateralReserve the address of the collateral reserve that is being liquidated\n    **/\n    function updateCollateralReserveStateOnLiquidationInternal(\n        address _collateralReserve\n    ) internal {\n        //update collateral reserve\n        reserves[_collateralReserve].updateCumulativeIndexes();\n\n    }\n\n    /**\n    * @dev updates the state of the user being liquidated as a consequence of a liquidation action.\n    * @param _reserve the address of the principal reserve that is being repaid\n    * @param _user the address of the borrower\n    * @param _amountToLiquidate the amount being repaid by the liquidator\n    * @param _feeLiquidated the amount of origination fee being liquidated\n    * @param _balanceIncrease the accrued interest on the borrowed amount\n    **/\n    function updateUserStateOnLiquidationInternal(\n        address _reserve,\n        address _user,\n        uint256 _amountToLiquidate,\n        uint256 _feeLiquidated,\n        uint256 _balanceIncrease\n    ) internal {\n        CoreLibrary.UserReserveData storage user = usersReserveData[_user][_reserve];\n        CoreLibrary.ReserveData storage reserve = reserves[_reserve];\n        //first increase by the compounded interest, then decrease by the liquidated amount\n        user.principalBorrowBalance = user.principalBorrowBalance.add(_balanceIncrease).sub(\n            _amountToLiquidate\n        );\n\n        if (\n            getUserCurrentBorrowRateMode(_reserve, _user) == CoreLibrary.InterestRateMode.VARIABLE\n        ) {\n            user.lastVariableBorrowCumulativeIndex = reserve.lastVariableBorrowCumulativeIndex;\n        }\n\n        if(_feeLiquidated > 0){\n            user.originationFee = user.originationFee.sub(_feeLiquidated);\n        }\n\n        //solium-disable-next-line\n        user.lastUpdateTimestamp = uint40(block.timestamp);\n    }\n\n    /**\n    * @dev updates the state of the reserve as a consequence of a stable rate rebalance\n    * @param _reserve the address of the principal reserve where the user borrowed\n    * @param _user the address of the borrower\n    * @param _balanceIncrease the accrued interest on the borrowed amount\n    **/\n\n    function updateReserveStateOnRebalanceInternal(\n        address _reserve,\n        address _user,\n        uint256 _balanceIncrease\n    ) internal {\n        CoreLibrary.ReserveData storage reserve = reserves[_reserve];\n        CoreLibrary.UserReserveData storage user = usersReserveData[_user][_reserve];\n\n        reserve.updateCumulativeIndexes();\n\n        reserve.increaseTotalBorrowsStableAndUpdateAverageRate(\n            _balanceIncrease,\n            user.stableBorrowRate\n        );\n\n    }\n\n    /**\n    * @dev updates the state of the user as a consequence of a stable rate rebalance\n    * @param _reserve the address of the principal reserve where the user borrowed\n    * @param _user the address of the borrower\n    * @param _balanceIncrease the accrued interest on the borrowed amount\n    **/\n\n    function updateUserStateOnRebalanceInternal(\n        address _reserve,\n        address _user,\n        uint256 _balanceIncrease\n    ) internal {\n        CoreLibrary.UserReserveData storage user = usersReserveData[_user][_reserve];\n        CoreLibrary.ReserveData storage reserve = reserves[_reserve];\n\n        user.principalBorrowBalance = user.principalBorrowBalance.add(_balanceIncrease);\n        user.stableBorrowRate = reserve.currentStableBorrowRate;\n\n        //solium-disable-next-line\n        user.lastUpdateTimestamp = uint40(block.timestamp);\n    }\n\n    /**\n    * @dev updates the state of the user as a consequence of a stable rate rebalance\n    * @param _reserve the address of the principal reserve where the user borrowed\n    * @param _user the address of the borrower\n    * @param _balanceIncrease the accrued interest on the borrowed amount\n    * @param _amountBorrowed the accrued interest on the borrowed amount\n    **/\n    function updateReserveTotalBorrowsByRateModeInternal(\n        address _reserve,\n        address _user,\n        uint256 _principalBalance,\n        uint256 _balanceIncrease,\n        uint256 _amountBorrowed,\n        CoreLibrary.InterestRateMode _newBorrowRateMode\n    ) internal {\n        CoreLibrary.InterestRateMode previousRateMode = getUserCurrentBorrowRateMode(\n            _reserve,\n            _user\n        );\n        CoreLibrary.ReserveData storage reserve = reserves[_reserve];\n\n        if (previousRateMode == CoreLibrary.InterestRateMode.STABLE) {\n            CoreLibrary.UserReserveData storage user = usersReserveData[_user][_reserve];\n            reserve.decreaseTotalBorrowsStableAndUpdateAverageRate(\n                _principalBalance,\n                user.stableBorrowRate\n            );\n        } else if (previousRateMode == CoreLibrary.InterestRateMode.VARIABLE) {\n            reserve.decreaseTotalBorrowsVariable(_principalBalance);\n        }\n\n        uint256 newPrincipalAmount = _principalBalance.add(_balanceIncrease).add(_amountBorrowed);\n        if (_newBorrowRateMode == CoreLibrary.InterestRateMode.STABLE) {\n            reserve.increaseTotalBorrowsStableAndUpdateAverageRate(\n                newPrincipalAmount,\n                reserve.currentStableBorrowRate\n            );\n        } else if (_newBorrowRateMode == CoreLibrary.InterestRateMode.VARIABLE) {\n            reserve.increaseTotalBorrowsVariable(newPrincipalAmount);\n        } else {\n            revert(\"Invalid new borrow rate mode\");\n        }\n    }\n\n    /**\n    * @dev Updates the reserve current stable borrow rate Rf, the current variable borrow rate Rv and the current liquidity rate Rl.\n    * Also updates the lastUpdateTimestamp value. Please refer to the whitepaper for further information.\n    * @param _reserve the address of the reserve to be updated\n    * @param _liquidityAdded the amount of liquidity added to the protocol (deposit or repay) in the previous action\n    * @param _liquidityTaken the amount of liquidity taken from the protocol (redeem or borrow)\n    **/\n\n    function updateReserveInterestRatesAndTimestampInternal(\n        address _reserve,\n        uint256 _liquidityAdded,\n        uint256 _liquidityTaken\n    ) internal {\n        CoreLibrary.ReserveData storage reserve = reserves[_reserve];\n        (uint256 newLiquidityRate, uint256 newStableRate, uint256 newVariableRate) = IReserveInterestRateStrategy(\n            reserve\n                .interestRateStrategyAddress\n        )\n            .calculateInterestRates(\n            _reserve,\n            getReserveAvailableLiquidity(_reserve).add(_liquidityAdded).sub(_liquidityTaken),\n            reserve.totalBorrowsStable,\n            reserve.totalBorrowsVariable,\n            reserve.currentAverageStableBorrowRate\n        );\n\n        reserve.currentLiquidityRate = newLiquidityRate;\n        reserve.currentStableBorrowRate = newStableRate;\n        reserve.currentVariableBorrowRate = newVariableRate;\n\n        //solium-disable-next-line\n        reserve.lastUpdateTimestamp = uint40(block.timestamp);\n\n        emit ReserveUpdated(\n            _reserve,\n            newLiquidityRate,\n            newStableRate,\n            newVariableRate,\n            reserve.lastLiquidityCumulativeIndex,\n            reserve.lastVariableBorrowCumulativeIndex\n        );\n    }\n\n    /**\n    * @dev transfers to the protocol fees of a flashloan to the fees collection address\n    * @param _token the address of the token being transferred\n    * @param _amount the amount being transferred\n    **/\n\n    function transferFlashLoanProtocolFeeInternal(address _token, uint256 _amount) internal {\n        address payable receiver = address(uint160(addressesProvider.getTokenDistributor()));\n\n        if (_token != EthAddressLib.ethAddress()) {\n            ERC20(_token).safeTransfer(receiver, _amount);\n        } else {\n            receiver.transfer(_amount);\n        }\n    }\n\n    /**\n    * @dev updates the internal configuration of the core\n    **/\n    function refreshConfigInternal() internal {\n        lendingPoolAddress = addressesProvider.getLendingPool();\n    }\n\n    /**\n    * @dev adds a reserve to the array of the reserves address\n    **/\n    function addReserveToListInternal(address _reserve) internal {\n        bool reserveAlreadyAdded = false;\n        for (uint256 i = 0; i < reservesList.length; i++)\n            if (reservesList[i] == _reserve) {\n                reserveAlreadyAdded = true;\n            }\n        if (!reserveAlreadyAdded) reservesList.push(_reserve);\n    }\n\n}\n",
  "sourcePath": "/home/faycal/Desktop/rtoken-monorepo/packages/contracts/aave/contracts/lendingpool/LendingPoolCore.sol",
  "compiler": {
    "name": "solc",
    "version": "0.5.12+commit.7709ece9.Emscripten.clang"
  },
  "schemaVersion": "3.0.21",
  "updatedAt": "2020-05-09T23:24:58.227Z",
  "devdoc": {
    "author": "Aave",
    "details": "NOTE: The core does not enforce security checks on the update of the state (eg, updateStateOnBorrow() does not enforce that borrowed is enabled on the reserve). The check that an action can be performed is a duty of the overlying LendingPool contract.*",
    "methods": {
      "activateReserve(address)": {
        "details": "activates a reserve",
        "params": {
          "_reserve": "the address of the reserve*"
        }
      },
      "deactivateReserve(address)": {
        "details": "deactivates a reserve",
        "params": {
          "_reserve": "the address of the reserve*"
        }
      },
      "disableBorrowingOnReserve(address)": {
        "details": "disables borrowing on a reserve",
        "params": {
          "_reserve": "the address of the reserve*"
        }
      },
      "disableReserveAsCollateral(address)": {
        "details": "disables a reserve to be used as collateral",
        "params": {
          "_reserve": "the address of the reserve*"
        }
      },
      "disableReserveStableBorrowRate(address)": {
        "details": "disable the stable borrow rate mode on a reserve",
        "params": {
          "_reserve": "the address of the reserve*"
        }
      },
      "enableBorrowingOnReserve(address,bool)": {
        "details": "enables borrowing on a reserve. Also sets the stable rate borrowing",
        "params": {
          "_reserve": "the address of the reserve",
          "_stableBorrowRateEnabled": "true if the stable rate needs to be enabled, false otherwise*"
        }
      },
      "enableReserveAsCollateral(address,uint256,uint256,uint256)": {
        "details": "enables a reserve to be used as collateral",
        "params": {
          "_reserve": "the address of the reserve*"
        }
      },
      "enableReserveStableBorrowRate(address)": {
        "details": "enable the stable borrow rate mode on a reserve",
        "params": {
          "_reserve": "the address of the reserve*"
        }
      },
      "freezeReserve(address)": {
        "params": {
          "_reserve": "the address of the reserve*"
        }
      },
      "getReserveATokenAddress(address)": {
        "details": "gets the aToken contract address for the reserve",
        "params": {
          "_reserve": "the reserve address"
        },
        "return": "the address of the aToken contract*"
      },
      "getReserveAvailableLiquidity(address)": {
        "details": "gets the available liquidity in the reserve. The available liquidity is the balance of the core contract",
        "params": {
          "_reserve": "the reserve address"
        },
        "return": "the available liquidity*"
      },
      "getReserveConfiguration(address)": {
        "details": "this function aggregates the configuration parameters of the reserve. It's used in the LendingPoolDataProvider specifically to save gas, and avoid multiple external contract calls to fetch the same data.",
        "params": {
          "_reserve": "the reserve address"
        },
        "return": "the reserve decimalsthe base ltv as collateralthe liquidation thresholdif the reserve is used as collateral or not*"
      },
      "getReserveCurrentAverageStableBorrowRate(address)": {
        "details": "gets the reserve average stable borrow rate. The average stable rate is the weighted average of all the loans taken at stable rate.",
        "params": {
          "_reserve": "the reserve address"
        },
        "return": "the reserve current average borrow rate*"
      },
      "getReserveCurrentLiquidityRate(address)": {
        "details": "gets the reserve liquidity rate",
        "params": {
          "_reserve": "the reserve address"
        },
        "return": "the reserve liquidity rate*"
      },
      "getReserveCurrentStableBorrowRate(address)": {
        "details": "gets the reserve current stable borrow rate. Is the market rate if the reserve is empty",
        "params": {
          "_reserve": "the reserve address"
        },
        "return": "the reserve current stable borrow rate*"
      },
      "getReserveCurrentVariableBorrowRate(address)": {
        "details": "gets the reserve current variable borrow rate. Is the base variable borrow rate if the reserve is empty",
        "params": {
          "_reserve": "the reserve address"
        },
        "return": "the reserve current variable borrow rate*"
      },
      "getReserveDecimals(address)": {
        "details": "returns the decimals of the reserve",
        "params": {
          "_reserve": "the reserve address"
        },
        "return": "the reserve decimals*"
      },
      "getReserveInterestRateStrategyAddress(address)": {
        "details": "gets the interest rate strategy contract address for the reserve",
        "params": {
          "_reserve": "the reserve address"
        },
        "return": "the address of the interest rate strategy contract*"
      },
      "getReserveIsActive(address)": {
        "details": "returns true if the reserve is active",
        "params": {
          "_reserve": "the reserve address"
        },
        "return": "true if the reserve is active, false otherwise*"
      },
      "getReserveIsFreezed(address)": {
        "params": {
          "_reserve": "the reserve for which the information is needed"
        },
        "return": "true if the reserve is freezed, false otherwise*"
      },
      "getReserveIsStableBorrowRateEnabled(address)": {
        "details": "returns true if the stable rate is enabled on reserve",
        "params": {
          "_reserve": "the reserve address"
        },
        "return": "true if the stable rate is enabled on reserve, false otherwise*"
      },
      "getReserveLastUpdate(address)": {
        "params": {
          "_reserve": "the reserve for which the information is needed"
        },
        "return": "the last updated timestamp of the reserve*"
      },
      "getReserveLiquidationBonus(address)": {
        "details": "gets the reserve liquidation bonus",
        "params": {
          "_reserve": "the reserve address"
        },
        "return": "the reserve liquidation bonus*"
      },
      "getReserveLiquidationThreshold(address)": {
        "details": "gets the reserve liquidation threshold",
        "params": {
          "_reserve": "the reserve address"
        },
        "return": "the reserve liquidation threshold*"
      },
      "getReserveLiquidityCumulativeIndex(address)": {
        "details": "gets the reserve liquidity cumulative index",
        "params": {
          "_reserve": "the reserve address"
        },
        "return": "the reserve liquidity cumulative index*"
      },
      "getReserveNormalizedIncome(address)": {
        "details": "gets the normalized income of the reserve. a value of 1e27 means there is no income. A value of 2e27 means there there has been 100% income.",
        "params": {
          "_reserve": "the reserve address"
        },
        "return": "the reserve normalized income*"
      },
      "getReserveTotalBorrows(address)": {
        "details": "gets the reserve total borrows",
        "params": {
          "_reserve": "the reserve address"
        },
        "return": "the total borrows (stable + variable)*"
      },
      "getReserveTotalBorrowsStable(address)": {
        "details": "gets the reserve total borrows stable",
        "params": {
          "_reserve": "the reserve address"
        },
        "return": "the total borrows stable*"
      },
      "getReserveTotalBorrowsVariable(address)": {
        "details": "gets the reserve total borrows variable",
        "params": {
          "_reserve": "the reserve address"
        },
        "return": "the total borrows variable*"
      },
      "getReserveTotalLiquidity(address)": {
        "details": "gets the total liquidity in the reserve. The total liquidity is the balance of the core contract + total borrows",
        "params": {
          "_reserve": "the reserve address"
        },
        "return": "the total liquidity*"
      },
      "getReserveUtilizationRate(address)": {
        "details": "returns the utilization rate U of a specific reserve",
        "params": {
          "_reserve": "the reserve for which the information is needed"
        },
        "return": "the utilization rate in ray*"
      },
      "getReserveVariableBorrowsCumulativeIndex(address)": {
        "details": "gets the reserve variable borrow index",
        "params": {
          "_reserve": "the reserve address"
        },
        "return": "the reserve variable borrow index*"
      },
      "getReserves()": {
        "return": "the array of reserves configured on the core*"
      },
      "getUserBasicReserveData(address,address)": {
        "details": "returns the basic data (balances, fee accrued, reserve enabled/disabled as collateral) needed to calculate the global account data in the LendingPoolDataProvider",
        "params": {
          "_reserve": "the address of the reserve",
          "_user": "the address of the user"
        },
        "return": "the user deposited balance, the principal borrow balance, the fee, and if the reserve is enabled as collateral or not*"
      },
      "getUserBorrowBalances(address,address)": {
        "details": "calculates and returns the borrow balances of the user",
        "params": {
          "_reserve": "the address of the reserve",
          "_user": "the address of the user"
        },
        "return": "the principal borrow balance, the compounded balance and the balance increase since the last borrow/repay/swap/rebalance*"
      },
      "getUserCurrentBorrowRateMode(address,address)": {
        "details": "users with no loans in progress have NONE as borrow rate mode",
        "params": {
          "_reserve": "the address of the reserve for which the information is needed",
          "_user": "the address of the user for which the information is needed"
        },
        "return": "the borrow rate mode for the user,*"
      },
      "getUserCurrentStableBorrowRate(address,address)": {
        "details": "the stable rate returned is 0 if the user is borrowing at variable or not borrowing at all",
        "params": {
          "_reserve": "the address of the reserve for which the information is needed",
          "_user": "the address of the user for which the information is needed"
        },
        "return": "the user stable rate*"
      },
      "getUserLastUpdate(address,address)": {
        "details": "the variable borrow index of the user is 0 if the user is not borrowing or borrowing at stable",
        "params": {
          "_reserve": "the address of the reserve for which the information is needed",
          "_user": "the address of the user for which the information is needed"
        },
        "return": "the variable borrow index for the user*"
      },
      "getUserOriginationFee(address,address)": {
        "params": {
          "_reserve": "the address of the reserve for which the information is needed",
          "_user": "the address of the user for which the information is needed"
        },
        "return": "the origination fee for the user*"
      },
      "getUserUnderlyingAssetBalance(address,address)": {
        "details": "gets the underlying asset balance of a user based on the corresponding aToken balance.",
        "params": {
          "_reserve": "the reserve address",
          "_user": "the user address"
        },
        "return": "the underlying deposit balance of the user*"
      },
      "getUserVariableBorrowCumulativeIndex(address,address)": {
        "details": "the variable borrow index of the user is 0 if the user is not borrowing or borrowing at stable",
        "params": {
          "_reserve": "the address of the reserve for which the information is needed",
          "_user": "the address of the user for which the information is needed"
        },
        "return": "the variable borrow index for the user*"
      },
      "initReserve(address,address,uint256,address)": {
        "details": "initializes a reserve",
        "params": {
          "_aTokenAddress": "the address of the overlying aToken contract",
          "_decimals": "the decimals of the reserve currency",
          "_interestRateStrategyAddress": "the address of the interest rate strategy contract*",
          "_reserve": "the address of the reserve"
        }
      },
      "initialize(address)": {
        "details": "initializes the Core contract, invoked upon registration on the AddressesProvider",
        "params": {
          "_addressesProvider": "the addressesProvider contract*"
        }
      },
      "isReserveBorrowingEnabled(address)": {
        "details": "returns true if the reserve is enabled for borrowing",
        "params": {
          "_reserve": "the reserve address"
        },
        "return": "true if the reserve is enabled for borrowing, false otherwise*"
      },
      "isReserveUsageAsCollateralEnabled(address)": {
        "details": "returns true if the reserve is enabled as collateral",
        "params": {
          "_reserve": "the reserve address"
        },
        "return": "true if the reserve is enabled as collateral, false otherwise*"
      },
      "isUserAllowedToBorrowAtStable(address,address,uint256)": {
        "details": "checks if a user is allowed to borrow at a stable rate",
        "params": {
          "_amount": "the amount the the user wants to borrow",
          "_reserve": "the reserve address",
          "_user": "the user"
        },
        "return": "true if the user is allowed to borrow at a stable rate, false otherwise*"
      },
      "isUserUseReserveAsCollateralEnabled(address,address)": {
        "params": {
          "_reserve": "the address of the reserve for which the information is needed",
          "_user": "the address of the user for which the information is needed"
        },
        "return": "true if the user has chosen to use the reserve as collateral, false otherwise*"
      },
      "liquidateFee(address,uint256,address)": {
        "details": "transfers the fees to the fees collection address in the case of liquidation",
        "params": {
          "_amount": "the amount being transferred",
          "_destination": "the fee receiver address*",
          "_token": "the address of the token being transferred"
        }
      },
      "refreshConfiguration()": {
        "details": "updates the lending pool core configuration*"
      },
      "removeLastAddedReserve(address)": {
        "details": "removes the last added reserve in the reservesList array",
        "params": {
          "_reserveToRemove": "the address of the reserve*"
        }
      },
      "setReserveBaseLTVasCollateral(address,uint256)": {
        "params": {
          "_ltv": "the new loan to value*",
          "_reserve": "the address of the reserve"
        }
      },
      "setReserveDecimals(address,uint256)": {
        "params": {
          "_decimals": "the decimals of the reserve*",
          "_reserve": "the address of the reserve"
        }
      },
      "setReserveInterestRateStrategyAddress(address,address)": {
        "details": "updates the address of the interest rate strategy contract",
        "params": {
          "_rateStrategyAddress": "the address of the interest rate strategy contract*",
          "_reserve": "the address of the reserve"
        }
      },
      "setReserveLiquidationBonus(address,uint256)": {
        "params": {
          "_bonus": "the new liquidation bonus*",
          "_reserve": "the address of the reserve"
        }
      },
      "setReserveLiquidationThreshold(address,uint256)": {
        "params": {
          "_reserve": "the address of the reserve",
          "_threshold": "the new liquidation threshold*"
        }
      },
      "setUserUseReserveAsCollateral(address,address,bool)": {
        "details": "enables or disables a reserve as collateral",
        "params": {
          "_reserve": "the address of the principal reserve where the user deposited",
          "_useAsCollateral": "true if the depositor wants to use the reserve as collateral*",
          "_user": "the address of the depositor"
        }
      },
      "transferToFeeCollectionAddress(address,address,uint256,address)": {
        "details": "transfers the protocol fees to the fees collection address",
        "params": {
          "_amount": "the amount being transferred",
          "_destination": "the fee receiver address*",
          "_token": "the address of the token being transferred",
          "_user": "the address of the user from where the transfer is happening"
        }
      },
      "transferToReserve(address,address,uint256)": {
        "details": "transfers an amount from a user to the destination reserve",
        "params": {
          "_amount": "the amount being transferred*",
          "_reserve": "the address of the reserve where the amount is being transferred",
          "_user": "the address of the user from where the transfer is happening"
        }
      },
      "transferToUser(address,address,uint256)": {
        "details": "transfers to the user a specific amount from the reserve.",
        "params": {
          "_amount": "the amount being transferred*",
          "_reserve": "the address of the reserve where the transfer is happening",
          "_user": "the address of the user receiving the transfer"
        }
      },
      "unfreezeReserve(address)": {
        "params": {
          "_reserve": "the address of the reserve*"
        }
      },
      "updateStateOnBorrow(address,address,uint256,uint256,uint8)": {
        "details": "updates the state of the core as a consequence of a borrow action.",
        "params": {
          "_amountBorrowed": "the new amount borrowed",
          "_borrowFee": "the fee on the amount borrowed",
          "_rateMode": "the borrow rate mode (stable, variable)",
          "_reserve": "the address of the reserve on which the user is borrowing",
          "_user": "the address of the borrower"
        },
        "return": "the new borrow rate for the user*"
      },
      "updateStateOnDeposit(address,address,uint256,bool)": {
        "details": "updates the state of the core as a result of a deposit action",
        "params": {
          "_amount": "the amount being deposited",
          "_isFirstDeposit": "true if the user is depositing for the first time*",
          "_reserve": "the address of the reserve in which the deposit is happening",
          "_user": "the address of the the user depositing"
        }
      },
      "updateStateOnFlashLoan(address,uint256,uint256,uint256)": {
        "details": "updates the state of the core as a result of a flashloan action",
        "params": {
          "_income": "the income of the protocol as a result of the action*",
          "_reserve": "the address of the reserve in which the flashloan is happening"
        }
      },
      "updateStateOnLiquidation(address,address,address,uint256,uint256,uint256,uint256,uint256,bool)": {
        "details": "updates the state of the core as a consequence of a liquidation action.",
        "params": {
          "_amountToLiquidate": "the amount being repaid by the liquidator",
          "_balanceIncrease": "the accrued interest on the borrowed amount",
          "_collateralReserve": "the address of the collateral reserve that is being liquidated",
          "_collateralToLiquidate": "the amount of collateral being liquidated",
          "_feeLiquidated": "the amount of origination fee being liquidated",
          "_liquidatedCollateralForFee": "the amount of collateral equivalent to the origination fee + bonus",
          "_liquidatorReceivesAToken": "true if the liquidator will receive aTokens, false otherwise*",
          "_principalReserve": "the address of the principal reserve that is being repaid",
          "_user": "the address of the borrower"
        }
      },
      "updateStateOnRebalance(address,address,uint256)": {
        "details": "updates the state of the core as a consequence of a stable rate rebalance",
        "params": {
          "_balanceIncrease": "the accrued interest on the borrowed amount",
          "_reserve": "the address of the principal reserve where the user borrowed",
          "_user": "the address of the borrower"
        },
        "return": "the new stable rate for the user*"
      },
      "updateStateOnRedeem(address,address,uint256,bool)": {
        "details": "updates the state of the core as a result of a redeem action",
        "params": {
          "_amountRedeemed": "the amount being redeemed",
          "_reserve": "the address of the reserve in which the redeem is happening",
          "_user": "the address of the the user redeeming",
          "_userRedeemedEverything": "true if the user is redeeming everything*"
        }
      },
      "updateStateOnRepay(address,address,uint256,uint256,uint256,bool)": {
        "details": "updates the state of the core as a consequence of a repay action.",
        "params": {
          "_balanceIncrease": "the accrued interest on the borrowed amount",
          "_originationFeeRepaid": "the fee on the amount that is being repaid",
          "_paybackAmountMinusFees": "the amount being paid back minus fees",
          "_repaidWholeLoan": "true if the user is repaying the whole loan*",
          "_reserve": "the address of the reserve on which the user is repaying",
          "_user": "the address of the borrower"
        }
      },
      "updateStateOnSwapRate(address,address,uint256,uint256,uint256,uint8)": {
        "details": "updates the state of the core as a consequence of a swap rate action.",
        "params": {
          "_balanceIncrease": "the accrued interest on the borrowed amount",
          "_compoundedBorrowBalance": "the amount borrowed plus accrued interest",
          "_currentRateMode": "the current interest rate mode for the user*",
          "_principalBorrowBalance": "the amount borrowed by the user",
          "_reserve": "the address of the reserve on which the user is repaying",
          "_user": "the address of the borrower"
        }
      }
    },
    "title": "LendingPoolCore contract"
  },
  "userdoc": {
    "methods": {
      "freezeReserve(address)": {
        "notice": "allows the configurator to freeze the reserve. A freezed reserve does not allow any action apart from repay, redeem, liquidationCall, rebalance."
      },
      "getReserveIsFreezed(address)": {
        "notice": "returns if a reserve is freezed"
      },
      "getReserveLastUpdate(address)": {
        "notice": "returns the timestamp of the last action on the reserve"
      },
      "setReserveBaseLTVasCollateral(address,uint256)": {
        "notice": "allows the configurator to update the loan to value of a reserve"
      },
      "setReserveDecimals(address,uint256)": {
        "notice": "allows the configurator to update the reserve decimals"
      },
      "setReserveLiquidationBonus(address,uint256)": {
        "notice": "allows the configurator to update the liquidation bonus of a reserve"
      },
      "setReserveLiquidationThreshold(address,uint256)": {
        "notice": "allows the configurator to update the liquidation threshold of a reserve"
      },
      "unfreezeReserve(address)": {
        "notice": "allows the configurator to unfreeze the reserve. A unfreezed reserve allows any action to be executed."
      }
    },
    "notice": "Holds the state of the lending pool and all the funds deposited"
  }
}