{
  "contractName": "LendingPoolLiquidationManager",
  "abi": [
    {
      "anonymous": false,
      "inputs": [
        {
          "indexed": true,
          "internalType": "address",
          "name": "_collateral",
          "type": "address"
        },
        {
          "indexed": true,
          "internalType": "address",
          "name": "_reserve",
          "type": "address"
        },
        {
          "indexed": true,
          "internalType": "address",
          "name": "_user",
          "type": "address"
        },
        {
          "indexed": false,
          "internalType": "uint256",
          "name": "_purchaseAmount",
          "type": "uint256"
        },
        {
          "indexed": false,
          "internalType": "uint256",
          "name": "_liquidatedCollateralAmount",
          "type": "uint256"
        },
        {
          "indexed": false,
          "internalType": "uint256",
          "name": "_accruedBorrowInterest",
          "type": "uint256"
        },
        {
          "indexed": false,
          "internalType": "address",
          "name": "_liquidator",
          "type": "address"
        },
        {
          "indexed": false,
          "internalType": "bool",
          "name": "_receiveAToken",
          "type": "bool"
        },
        {
          "indexed": false,
          "internalType": "uint256",
          "name": "_timestamp",
          "type": "uint256"
        }
      ],
      "name": "LiquidationCall",
      "type": "event"
    },
    {
      "anonymous": false,
      "inputs": [
        {
          "indexed": true,
          "internalType": "address",
          "name": "_collateral",
          "type": "address"
        },
        {
          "indexed": true,
          "internalType": "address",
          "name": "_reserve",
          "type": "address"
        },
        {
          "indexed": true,
          "internalType": "address",
          "name": "_user",
          "type": "address"
        },
        {
          "indexed": false,
          "internalType": "uint256",
          "name": "_feeLiquidated",
          "type": "uint256"
        },
        {
          "indexed": false,
          "internalType": "uint256",
          "name": "_liquidatedCollateralForFee",
          "type": "uint256"
        },
        {
          "indexed": false,
          "internalType": "uint256",
          "name": "_timestamp",
          "type": "uint256"
        }
      ],
      "name": "OriginationFeeLiquidated",
      "type": "event"
    },
    {
      "constant": true,
      "inputs": [],
      "name": "addressesProvider",
      "outputs": [
        {
          "internalType": "contract LendingPoolAddressesProvider",
          "name": "",
          "type": "address"
        }
      ],
      "payable": false,
      "stateMutability": "view",
      "type": "function"
    },
    {
      "constant": false,
      "inputs": [
        {
          "internalType": "address",
          "name": "_collateral",
          "type": "address"
        },
        {
          "internalType": "address",
          "name": "_reserve",
          "type": "address"
        },
        {
          "internalType": "address",
          "name": "_user",
          "type": "address"
        },
        {
          "internalType": "uint256",
          "name": "_purchaseAmount",
          "type": "uint256"
        },
        {
          "internalType": "bool",
          "name": "_receiveAToken",
          "type": "bool"
        }
      ],
      "name": "liquidationCall",
      "outputs": [
        {
          "internalType": "uint256",
          "name": "",
          "type": "uint256"
        },
        {
          "internalType": "string",
          "name": "",
          "type": "string"
        }
      ],
      "payable": true,
      "stateMutability": "payable",
      "type": "function"
    }
  ],
  "bytecode": "0x60806040526000600181815590556113178061001c6000396000f3fe6080604052600436106100285760003560e01c8062a718a91461002d578063c72c4d10146100f0575b600080fd5b610071600480360360a081101561004357600080fd5b506001600160a01b038135811691602081013582169160408201351690606081013590608001351515610121565b6040518083815260200180602001828103825283818151815260200191508051906020019080838360005b838110156100b457818101518382015260200161009c565b50505050905090810190601f1680156100e15780820380516001836020036101000a031916815260200191505b50935050505060405180910390f35b3480156100fc57600080fd5b50610105610cd6565b604080516001600160a01b039092168252519081900360200190f35b6000606061012d61115b565b60375460408051632c6d0e9b60e01b81526001600160a01b03898116600483015291519190921691632c6d0e9b91602480830192610100929190829003018186803b15801561017b57600080fd5b505afa15801561018f573d6000803e3d6000fd5b505050506040513d6101008110156101a657600080fd5b5060e0015115156101e082018190526101de576004604051806060016040528060288152602001611291602891399250925050610ccc565b60365460408051630c526de560e11b81526001600160a01b038b811660048301528981166024830152915191909216916318a4dbca916044808301926020929190829003018186803b15801561023357600080fd5b505afa158015610247573d6000803e3d6000fd5b505050506040513d602081101561025d57600080fd5b50518082526102a557505060408051808201909152601f81527f496e76616c696420636f6c6c61746572616c20746f206c697175696461746500602082015260019150610ccc565b60365460408051630c7cddd760e11b81526001600160a01b038b81166004830152915191909216916318f9bbae916024808301926020929190829003018186803b1580156102f257600080fd5b505afa158015610306573d6000803e3d6000fd5b505050506040513d602081101561031c57600080fd5b505180156103a7575060365460408051639e3c4f3b60e01b81526001600160a01b038b81166004830152898116602483015291519190921691639e3c4f3b916044808301926020929190829003018186803b15801561037a57600080fd5b505afa15801561038e573d6000803e3d6000fd5b505050506040513d60208110156103a457600080fd5b50515b15156101c082018190526103da5760026040518060600160405280602a8152602001611267602a91399250925050610ccc565b60365460408051639fb8afcd60e01b81526001600160a01b038a81166004830152898116602483015291519190921691639fb8afcd916044808301926060929190829003018186803b15801561042f57600080fd5b505afa158015610443573d6000803e3d6000fd5b505050506040513d606081101561045957600080fd5b5060208082015160409283015192840192909252820181905261049b5760036040518060600160405280602a81526020016112b9602a91399250925050610ccc565b6104c460646104b860328460200151610ce590919063ffffffff16565b9063ffffffff610d4716565b6060820181905285116104d757846104dd565b80606001515b60808201819052815160009182916104f9918c918c9190610d89565b60365460408051633faacc6b60e21b81526001600160a01b038e811660048301528d811660248301529151949650929450169163feab31ac91604480820192602092909190829003018186803b15801561055257600080fd5b505afa158015610566573d6000803e3d6000fd5b505050506040513d602081101561057c57600080fd5b50516101208401819052156105bf576105b28a8a8561012001516105ad86886000015161101d90919063ffffffff16565b610d89565b6101408501526101608401525b82608001518110156105d357608083018190525b85610689576036546040805163e240301960e01b81526001600160a01b038d811660048301529151600093929092169163e240301991602480820192602092909190829003018186803b15801561062957600080fd5b505afa15801561063d573d6000803e3d6000fd5b505050506040513d602081101561065357600080fd5b5051905082811015610687576005604051806060016040528060338152602001611234603391399550955050505050610ccc565b505b603660009054906101000a90046001600160a01b03166001600160a01b03166368beb4d68a8c8b8760800151878961014001518a61016001518b604001518f6040518a63ffffffff1660e01b8152600401808a6001600160a01b03166001600160a01b03168152602001896001600160a01b03166001600160a01b03168152602001886001600160a01b03166001600160a01b03168152602001878152602001868152602001858152602001848152602001838152602001821515151581526020019950505050505050505050600060405180830381600087803b15801561077057600080fd5b505af1158015610784573d6000803e3d6000fd5b505060365460408051631a59df7760e11b81526001600160a01b038f811660048301529151600095509190921692506334b3beee91602480820192602092909190829003018186803b1580156107d957600080fd5b505afa1580156107ed573d6000803e3d6000fd5b505050506040513d602081101561080357600080fd5b505190508615610882576040805163f866c31960e01b81526001600160a01b038b811660048301523360248301526044820186905291519183169163f866c3199160648082019260009290919082900301818387803b15801561086557600080fd5b505af1158015610879573d6000803e3d6000fd5b505050506109a2565b806001600160a01b0316633edb7cb88a856040518363ffffffff1660e01b815260040180836001600160a01b03166001600160a01b0316815260200182815260200192505050600060405180830381600087803b1580156108e257600080fd5b505af11580156108f6573d6000803e3d6000fd5b50505050603660009054906101000a90046001600160a01b03166001600160a01b031663fa93b2a58c33866040518463ffffffff1660e01b815260040180846001600160a01b03166001600160a01b03168152602001836001600160a01b03166001600160a01b031681526020018281526020019350505050600060405180830381600087803b15801561098957600080fd5b505af115801561099d573d6000803e3d6000fd5b505050505b6036546080850151604080516328fcf4d360e01b81526001600160a01b038e811660048301523360248301526044820193909352905191909216916328fcf4d391349160648082019260009290919082900301818588803b158015610a0657600080fd5b505af1158015610a1a573d6000803e3d6000fd5b505050505060008461014001511115610c2d57806001600160a01b0316633edb7cb88a8661016001516040518363ffffffff1660e01b815260040180836001600160a01b03166001600160a01b0316815260200182815260200192505050600060405180830381600087803b158015610a9257600080fd5b505af1158015610aa6573d6000803e3d6000fd5b50505050603660009054906101000a90046001600160a01b03166001600160a01b0316638f385c228c866101600151603560009054906101000a90046001600160a01b03166001600160a01b031663ee8912966040518163ffffffff1660e01b815260040160206040518083038186803b158015610b2357600080fd5b505afa158015610b37573d6000803e3d6000fd5b505050506040513d6020811015610b4d57600080fd5b5051604080516001600160e01b031960e087901b1681526001600160a01b0394851660048201526024810193909352921660448201529051606480830192600092919082900301818387803b158015610ba557600080fd5b505af1158015610bb9573d6000803e3d6000fd5b50505050886001600160a01b03168a6001600160a01b03168c6001600160a01b03167f36ca8b16d61dc13b1062adff83e3778ab92d14f9e35bfe9fd1283e02b13fb0a18761014001518861016001514260405180848152602001838152602001828152602001935050505060405180910390a45b60808085015160408087015181519283526020830187905282820152336060830152891515928201929092524260a082015290516001600160a01b03808c16928d821692918f16917f56864757fd5b1fc9f38f5f3a981cd8ae512ce41b902cf73fc506ee369c6bc2379181900360c00190a46000604051806040016040528060098152602001684e6f206572726f727360b81b81525095509550505050505b9550959350505050565b6035546001600160a01b031681565b600082610cf457506000610d41565b82820282848281610d0157fe5b0414610d3e5760405162461bcd60e51b81526004018080602001828103825260218152602001806112136021913960400191505060405180910390fd5b90505b92915050565b6000610d3e83836040518060400160405280601a81526020017f536166654d6174683a206469766973696f6e206279207a65726f00000000000081525061105f565b60355460408051631f94a27560e31b81529051600092839283926001600160a01b039092169163fca513a891600480820192602092909190829003018186803b158015610dd557600080fd5b505afa158015610de9573d6000803e3d6000fd5b505050506040513d6020811015610dff57600080fd5b50519050610e0b6111e3565b816001600160a01b031663b3596f07896040518263ffffffff1660e01b815260040180826001600160a01b03166001600160a01b0316815260200191505060206040518083038186803b158015610e6157600080fd5b505afa158015610e75573d6000803e3d6000fd5b505050506040513d6020811015610e8b57600080fd5b5051604080830191909152805163b3596f0760e01b81526001600160a01b03898116600483015291519184169163b3596f0791602480820192602092909190829003018186803b158015610ede57600080fd5b505afa158015610ef2573d6000803e3d6000fd5b505050506040513d6020811015610f0857600080fd5b50516060820152603654604080516331da9b2760e21b81526001600160a01b038b811660048301529151919092169163c76a6c9c916024808301926020929190829003018186803b158015610f5c57600080fd5b505afa158015610f70573d6000803e3d6000fd5b505050506040513d6020811015610f8657600080fd5b50516020820181905260408201516060830151610fc3926064926104b892610fb7919084908d63ffffffff610ce516565b9063ffffffff610ce516565b608082018190528510156110075784935061100081602001516104b86064610fb785606001516104b88a8860400151610ce590919063ffffffff16565b9250611012565b806080015193508592505b505094509492505050565b6000610d3e83836040518060400160405280601e81526020017f536166654d6174683a207375627472616374696f6e206f766572666c6f770000815250611101565b600081836110eb5760405162461bcd60e51b81526004018080602001828103825283818151815260200191508051906020019080838360005b838110156110b0578181015183820152602001611098565b50505050905090810190601f1680156110dd5780820380516001836020036101000a031916815260200191505b509250505060405180910390fd5b5060008385816110f757fe5b0495945050505050565b600081848411156111535760405162461bcd60e51b81526020600482018181528351602484015283519092839260449091019190850190808383600083156110b0578181015183820152602001611098565b505050900390565b604051806102000160405280600081526020016000815260200160008152602001600081526020016000815260200160008152602001600081526020016000815260200160008152602001600081526020016000815260200160008152602001600060028111156111c857fe5b81526000602082018190526040820181905260609091015290565b6040518060a001604052806000815260200160008152602001600081526020016000815260200160008152509056fe536166654d6174683a206d756c7469706c69636174696f6e206f766572666c6f7754686572652069736e277420656e6f756768206c697175696469747920617661696c61626c6520746f206c697175696461746554686520636f6c6c61746572616c2063686f73656e2063616e6e6f74206265206c6971756964617465644865616c746820666163746f72206973206e6f742062656c6f7720746865207468726573686f6c645573657220646964206e6f7420626f72726f7720746865207370656369666965642063757272656e6379a265627a7a723158203c74a7f4b7279d3d3f48b4a3886bd4474a6fe6a4e306408d3d798950e5f776e964736f6c634300050c0032",
  "source": "pragma solidity ^0.5.0;\n\nimport \"@openzeppelin/contracts/math/SafeMath.sol\";\nimport \"@openzeppelin/contracts/utils/ReentrancyGuard.sol\";\nimport \"@openzeppelin/contracts/utils/Address.sol\";\nimport \"@openzeppelin/contracts/utils/ReentrancyGuard.sol\";\nimport \"../libraries/openzeppelin-upgradeability/VersionedInitializable.sol\";\n\nimport \"../configuration/LendingPoolAddressesProvider.sol\";\nimport \"../configuration/LendingPoolParametersProvider.sol\";\nimport \"../tokenization/AToken.sol\";\nimport \"../libraries/CoreLibrary.sol\";\nimport \"../libraries/WadRayMath.sol\";\nimport \"./LendingPoolCore.sol\";\nimport \"./LendingPoolDataProvider.sol\";\nimport \"../interfaces/IPriceOracleGetter.sol\";\n\n/**\n* @title LendingPoolLiquidationManager contract\n* @author Aave\n* @notice Implements the liquidation function.\n**/\ncontract LendingPoolLiquidationManager is ReentrancyGuard, VersionedInitializable {\n    using SafeMath for uint256;\n    using WadRayMath for uint256;\n    using Address for address;\n\n    LendingPoolAddressesProvider public addressesProvider;\n    LendingPoolCore core;\n    LendingPoolDataProvider dataProvider;\n    LendingPoolParametersProvider parametersProvider;\n    IFeeProvider feeProvider;\n    address ethereumAddress;\n\n    uint256 constant LIQUIDATION_CLOSE_FACTOR_PERCENT = 50;\n\n    /**\n    * @dev emitted when a borrow fee is liquidated\n    * @param _collateral the address of the collateral being liquidated\n    * @param _reserve the address of the reserve\n    * @param _user the address of the user being liquidated\n    * @param _feeLiquidated the total fee liquidated\n    * @param _liquidatedCollateralForFee the amount of collateral received by the protocol in exchange for the fee\n    * @param _timestamp the timestamp of the action\n    **/\n    event OriginationFeeLiquidated(\n        address indexed _collateral,\n        address indexed _reserve,\n        address indexed _user,\n        uint256 _feeLiquidated,\n        uint256 _liquidatedCollateralForFee,\n        uint256 _timestamp\n    );\n\n    /**\n    * @dev emitted when a borrower is liquidated\n    * @param _collateral the address of the collateral being liquidated\n    * @param _reserve the address of the reserve\n    * @param _user the address of the user being liquidated\n    * @param _purchaseAmount the total amount liquidated\n    * @param _liquidatedCollateralAmount the amount of collateral being liquidated\n    * @param _accruedBorrowInterest the amount of interest accrued by the borrower since the last action\n    * @param _liquidator the address of the liquidator\n    * @param _receiveAToken true if the liquidator wants to receive aTokens, false otherwise\n    * @param _timestamp the timestamp of the action\n    **/\n    event LiquidationCall(\n        address indexed _collateral,\n        address indexed _reserve,\n        address indexed _user,\n        uint256 _purchaseAmount,\n        uint256 _liquidatedCollateralAmount,\n        uint256 _accruedBorrowInterest,\n        address _liquidator,\n        bool _receiveAToken,\n        uint256 _timestamp\n    );\n\n    enum LiquidationErrors {\n        NO_ERROR,\n        NO_COLLATERAL_AVAILABLE,\n        COLLATERAL_CANNOT_BE_LIQUIDATED,\n        CURRRENCY_NOT_BORROWED,\n        HEALTH_FACTOR_ABOVE_THRESHOLD,\n        NOT_ENOUGH_LIQUIDITY\n    }\n\n    struct LiquidationCallLocalVars {\n        uint256 userCollateralBalance;\n        uint256 userCompoundedBorrowBalance;\n        uint256 borrowBalanceIncrease;\n        uint256 maxPrincipalAmountToLiquidate;\n        uint256 actualAmountToLiquidate;\n        uint256 liquidationRatio;\n        uint256 collateralPrice;\n        uint256 principalCurrencyPrice;\n        uint256 maxAmountCollateralToLiquidate;\n        uint256 originationFee;\n        uint256 feeLiquidated;\n        uint256 liquidatedCollateralForFee;\n        CoreLibrary.InterestRateMode borrowRateMode;\n        uint256 userStableRate;\n        bool isCollateralEnabled;\n        bool healthFactorBelowThreshold;\n    }\n\n    /**\n    * @dev as the contract extends the VersionedInitializable contract to match the state\n    * of the LendingPool contract, the getRevision() function is needed.\n    */\n    function getRevision() internal pure returns (uint256) {\n        return 0;\n    }\n\n    /**\n    * @dev users can invoke this function to liquidate an undercollateralized position.\n    * @param _reserve the address of the collateral to liquidated\n    * @param _reserve the address of the principal reserve\n    * @param _user the address of the borrower\n    * @param _purchaseAmount the amount of principal that the liquidator wants to repay\n    * @param _receiveAToken true if the liquidators wants to receive the aTokens, false if\n    * he wants to receive the underlying asset directly\n    **/\n    function liquidationCall(\n        address _collateral,\n        address _reserve,\n        address _user,\n        uint256 _purchaseAmount,\n        bool _receiveAToken\n    ) external payable returns (uint256, string memory) {\n        // Usage of a memory struct of vars to avoid \"Stack too deep\" errors due to local variables\n        LiquidationCallLocalVars memory vars;\n\n        (, , , , , , , vars.healthFactorBelowThreshold) = dataProvider.calculateUserGlobalData(\n            _user\n        );\n\n        if (!vars.healthFactorBelowThreshold) {\n            return (\n                uint256(LiquidationErrors.HEALTH_FACTOR_ABOVE_THRESHOLD),\n                \"Health factor is not below the threshold\"\n            );\n        }\n\n        vars.userCollateralBalance = core.getUserUnderlyingAssetBalance(_collateral, _user);\n\n        //if _user hasn't deposited this specific collateral, nothing can be liquidated\n        if (vars.userCollateralBalance == 0) {\n            return (\n                uint256(LiquidationErrors.NO_COLLATERAL_AVAILABLE),\n                \"Invalid collateral to liquidate\"\n            );\n        }\n\n        vars.isCollateralEnabled =\n            core.isReserveUsageAsCollateralEnabled(_collateral) &&\n            core.isUserUseReserveAsCollateralEnabled(_collateral, _user);\n\n        //if _collateral isn't enabled as collateral by _user, it cannot be liquidated\n        if (!vars.isCollateralEnabled) {\n            return (\n                uint256(LiquidationErrors.COLLATERAL_CANNOT_BE_LIQUIDATED),\n                \"The collateral chosen cannot be liquidated\"\n            );\n        }\n\n        //if the user hasn't borrowed the specific currency defined by _reserve, it cannot be liquidated\n        (, vars.userCompoundedBorrowBalance, vars.borrowBalanceIncrease) = core\n            .getUserBorrowBalances(_reserve, _user);\n\n        if (vars.userCompoundedBorrowBalance == 0) {\n            return (\n                uint256(LiquidationErrors.CURRRENCY_NOT_BORROWED),\n                \"User did not borrow the specified currency\"\n            );\n        }\n\n        //all clear - calculate the max principal amount that can be liquidated\n        vars.maxPrincipalAmountToLiquidate = vars\n            .userCompoundedBorrowBalance\n            .mul(LIQUIDATION_CLOSE_FACTOR_PERCENT)\n            .div(100);\n\n        vars.actualAmountToLiquidate = _purchaseAmount > vars.maxPrincipalAmountToLiquidate\n            ? vars.maxPrincipalAmountToLiquidate\n            : _purchaseAmount;\n\n        (uint256 maxCollateralToLiquidate, uint256 principalAmountNeeded) = calculateAvailableCollateralToLiquidate(\n            _collateral,\n            _reserve,\n            vars.actualAmountToLiquidate,\n            vars.userCollateralBalance\n        );\n\n        vars.originationFee = core.getUserOriginationFee(_reserve, _user);\n\n        //if there is a fee to liquidate, calculate the maximum amount of fee that can be liquidated\n        if (vars.originationFee > 0) {\n            (\n                vars.liquidatedCollateralForFee,\n                vars.feeLiquidated\n            ) = calculateAvailableCollateralToLiquidate(\n                _collateral,\n                _reserve,\n                vars.originationFee,\n                vars.userCollateralBalance.sub(maxCollateralToLiquidate)\n            );\n        }\n\n        //if principalAmountNeeded < vars.ActualAmountToLiquidate, there isn't enough\n        //of _collateral to cover the actual amount that is being liquidated, hence we liquidate\n        //a smaller amount\n\n        if (principalAmountNeeded < vars.actualAmountToLiquidate) {\n            vars.actualAmountToLiquidate = principalAmountNeeded;\n        }\n\n        //if liquidator reclaims the underlying asset, we make sure there is enough available collateral in the reserve\n        if (!_receiveAToken) {\n            uint256 currentAvailableCollateral = core.getReserveAvailableLiquidity(_collateral);\n            if (currentAvailableCollateral < maxCollateralToLiquidate) {\n                return (\n                    uint256(LiquidationErrors.NOT_ENOUGH_LIQUIDITY),\n                    \"There isn't enough liquidity available to liquidate\"\n                );\n            }\n        }\n\n        core.updateStateOnLiquidation(\n            _reserve,\n            _collateral,\n            _user,\n            vars.actualAmountToLiquidate,\n            maxCollateralToLiquidate,\n            vars.feeLiquidated,\n            vars.liquidatedCollateralForFee,\n            vars.borrowBalanceIncrease,\n            _receiveAToken\n        );\n\n        AToken collateralAtoken = AToken(core.getReserveATokenAddress(_collateral));\n\n        //if liquidator reclaims the aToken, he receives the equivalent atoken amount\n        if (_receiveAToken) {\n            collateralAtoken.transferOnLiquidation(_user, msg.sender, maxCollateralToLiquidate);\n        } else {\n            //otherwise receives the underlying asset\n            //burn the equivalent amount of atoken\n            collateralAtoken.burnOnLiquidation(_user, maxCollateralToLiquidate);\n            core.transferToUser(_collateral, msg.sender, maxCollateralToLiquidate);\n        }\n\n        //transfers the principal currency to the pool\n        core.transferToReserve.value(msg.value)(_reserve, msg.sender, vars.actualAmountToLiquidate);\n\n        if (vars.feeLiquidated > 0) {\n            //if there is enough collateral to liquidate the fee, first transfer burn an equivalent amount of\n            //aTokens of the user\n            collateralAtoken.burnOnLiquidation(_user, vars.liquidatedCollateralForFee);\n\n            //then liquidate the fee by transferring it to the fee collection address\n            core.liquidateFee(\n                _collateral,\n                vars.liquidatedCollateralForFee,\n                addressesProvider.getTokenDistributor()\n            );\n\n            emit OriginationFeeLiquidated(\n                _collateral,\n                _reserve,\n                _user,\n                vars.feeLiquidated,\n                vars.liquidatedCollateralForFee,\n                //solium-disable-next-line\n                block.timestamp\n            );\n\n        }\n        emit LiquidationCall(\n            _collateral,\n            _reserve,\n            _user,\n            vars.actualAmountToLiquidate,\n            maxCollateralToLiquidate,\n            vars.borrowBalanceIncrease,\n            msg.sender,\n            _receiveAToken,\n            //solium-disable-next-line\n            block.timestamp\n        );\n\n        return (uint256(LiquidationErrors.NO_ERROR), \"No errors\");\n    }\n\n    struct AvailableCollateralToLiquidateLocalVars {\n        uint256 userCompoundedBorrowBalance;\n        uint256 liquidationBonus;\n        uint256 collateralPrice;\n        uint256 principalCurrencyPrice;\n        uint256 maxAmountCollateralToLiquidate;\n    }\n\n    /**\n    * @dev calculates how much of a specific collateral can be liquidated, given\n    * a certain amount of principal currency. This function needs to be called after\n    * all the checks to validate the liquidation have been performed, otherwise it might fail.\n    * @param _collateral the collateral to be liquidated\n    * @param _principal the principal currency to be liquidated\n    * @param _purchaseAmount the amount of principal being liquidated\n    * @param _userCollateralBalance the collatera balance for the specific _collateral asset of the user being liquidated\n    * @return the maximum amount that is possible to liquidated given all the liquidation constraints (user balance, close factor) and\n    * the purchase amount\n    **/\n    function calculateAvailableCollateralToLiquidate(\n        address _collateral,\n        address _principal,\n        uint256 _purchaseAmount,\n        uint256 _userCollateralBalance\n    ) internal view returns (uint256 collateralAmount, uint256 principalAmountNeeded) {\n        collateralAmount = 0;\n        principalAmountNeeded = 0;\n        IPriceOracleGetter oracle = IPriceOracleGetter(addressesProvider.getPriceOracle());\n\n        // Usage of a memory struct of vars to avoid \"Stack too deep\" errors due to local variables\n        AvailableCollateralToLiquidateLocalVars memory vars;\n\n        vars.collateralPrice = oracle.getAssetPrice(_collateral);\n        vars.principalCurrencyPrice = oracle.getAssetPrice(_principal);\n        vars.liquidationBonus = core.getReserveLiquidationBonus(_collateral);\n\n        //this is the maximum possible amount of the selected collateral that can be liquidated, given the\n        //max amount of principal currency that is available for liquidation.\n        vars.maxAmountCollateralToLiquidate = vars\n            .principalCurrencyPrice\n            .mul(_purchaseAmount)\n            .div(vars.collateralPrice)\n            .mul(vars.liquidationBonus)\n            .div(100);\n\n        if (vars.maxAmountCollateralToLiquidate > _userCollateralBalance) {\n            collateralAmount = _userCollateralBalance;\n            principalAmountNeeded = vars\n                .collateralPrice\n                .mul(collateralAmount)\n                .div(vars.principalCurrencyPrice)\n                .mul(100)\n                .div(vars.liquidationBonus);\n        } else {\n            collateralAmount = vars.maxAmountCollateralToLiquidate;\n            principalAmountNeeded = _purchaseAmount;\n        }\n\n        return (collateralAmount, principalAmountNeeded);\n    }\n}\n",
  "sourcePath": "/home/faycal/Desktop/rtoken-monorepo/packages/contracts/aave/contracts/lendingpool/LendingPoolLiquidationManager.sol",
  "compiler": {
    "name": "solc",
    "version": "0.5.12+commit.7709ece9.Emscripten.clang"
  },
  "schemaVersion": "3.0.21",
  "updatedAt": "2020-05-09T23:24:58.284Z",
  "devdoc": {
    "author": "Aave",
    "methods": {
      "liquidationCall(address,address,address,uint256,bool)": {
        "details": "users can invoke this function to liquidate an undercollateralized position.",
        "params": {
          "_purchaseAmount": "the amount of principal that the liquidator wants to repay",
          "_receiveAToken": "true if the liquidators wants to receive the aTokens, false if he wants to receive the underlying asset directly*",
          "_reserve": "the address of the principal reserve",
          "_user": "the address of the borrower"
        }
      }
    },
    "title": "LendingPoolLiquidationManager contract"
  },
  "userdoc": {
    "methods": {},
    "notice": "Implements the liquidation function.*"
  }
}