{
  "contractName": "LendingPoolParametersProvider",
  "abi": [
    {
      "constant": false,
      "inputs": [
        {
          "internalType": "address",
          "name": "_addressesProvider",
          "type": "address"
        }
      ],
      "name": "initialize",
      "outputs": [],
      "payable": false,
      "stateMutability": "nonpayable",
      "type": "function"
    },
    {
      "constant": true,
      "inputs": [],
      "name": "getMaxStableRateBorrowSizePercent",
      "outputs": [
        {
          "internalType": "uint256",
          "name": "",
          "type": "uint256"
        }
      ],
      "payable": false,
      "stateMutability": "pure",
      "type": "function"
    },
    {
      "constant": true,
      "inputs": [],
      "name": "getRebalanceDownRateDelta",
      "outputs": [
        {
          "internalType": "uint256",
          "name": "",
          "type": "uint256"
        }
      ],
      "payable": false,
      "stateMutability": "pure",
      "type": "function"
    },
    {
      "constant": true,
      "inputs": [],
      "name": "getFlashLoanFeesInBips",
      "outputs": [
        {
          "internalType": "uint256",
          "name": "",
          "type": "uint256"
        },
        {
          "internalType": "uint256",
          "name": "",
          "type": "uint256"
        }
      ],
      "payable": false,
      "stateMutability": "pure",
      "type": "function"
    }
  ],
  "bytecode": "0x60806040526000805534801561001457600080fd5b506101e4806100246000396000f3fe608060405234801561001057600080fd5b506004361061004c5760003560e01c806346f4f8d114610051578063586feb401461006b578063c4d66de81461008c578063d6b725ac146100b4575b600080fd5b6100596100bc565b60408051918252519081900360200190f35b6100736100cb565b6040805192835260208301919091528051918290030190f35b6100b2600480360360208110156100a257600080fd5b50356001600160a01b03166100d4565b005b610059610171565b6aa56fa5b99019a5c800000090565b6023610bb89091565b60006100de610176565b60015490915060ff16806100f557506100f561017b565b80610101575060005481115b61013c5760405162461bcd60e51b815260040180806020018281038252602e815260200180610182602e913960400191505060405180910390fd5b60015460ff1615801561015b576001805460ff19168117905560008290555b801561016c576001805460ff191690555b505050565b601990565b600190565b303b159056fe436f6e747261637420696e7374616e63652068617320616c7265616479206265656e20696e697469616c697a6564a265627a7a72315820dcdc0e21dd3db5c9942953513cf7a0db29267d3b90a0a5e3f07301e6b1cdf2bb64736f6c634300050c0032",
  "source": "pragma solidity ^0.5.0;\n\n\nimport \"../libraries/openzeppelin-upgradeability/VersionedInitializable.sol\";\nimport \"./UintStorage.sol\";\n\n/**\n* @title LendingPoolParametersProvider\n* @author Aave\n* @notice stores the configuration parameters of the Lending Pool contract\n**/\n\ncontract LendingPoolParametersProvider is VersionedInitializable {\n\n    uint256 private constant MAX_STABLE_RATE_BORROW_SIZE_PERCENT = 25;\n    uint256 private constant REBALANCE_DOWN_RATE_DELTA = (1e27)/5;\n    uint256 private constant FLASHLOAN_FEE_TOTAL = 35;\n    uint256 private constant FLASHLOAN_FEE_PROTOCOL = 3000;\n\n    uint256 constant private DATA_PROVIDER_REVISION = 0x1;\n\n    function getRevision() internal pure returns(uint256) {\n        return DATA_PROVIDER_REVISION;\n    }\n\n    /**\n    * @dev initializes the LendingPoolParametersProvider after it's added to the proxy\n    * @param _addressesProvider the address of the LendingPoolAddressesProvider\n    */\n    function initialize(address _addressesProvider) public initializer {\n    }\n    /**\n    * @dev returns the maximum stable rate borrow size, in percentage of the available liquidity.\n    **/\n    function getMaxStableRateBorrowSizePercent() external pure returns (uint256)  {\n        return MAX_STABLE_RATE_BORROW_SIZE_PERCENT;\n    }\n\n    /**\n    * @dev returns the delta between the current stable rate and the user stable rate at\n    *      which the borrow position of the user will be rebalanced (scaled down)\n    **/\n    function getRebalanceDownRateDelta() external pure returns (uint256) {\n        return REBALANCE_DOWN_RATE_DELTA;\n    }\n\n    /**\n    * @dev returns the fee applied to a flashloan and the portion to redirect to the protocol, in basis points.\n    **/\n    function getFlashLoanFeesInBips() external pure returns (uint256, uint256) {\n        return (FLASHLOAN_FEE_TOTAL, FLASHLOAN_FEE_PROTOCOL);\n    }\n}\n",
  "sourcePath": "/home/faycal/Desktop/rtoken-monorepo/packages/contracts/aave/contracts/configuration/LendingPoolParametersProvider.sol",
  "compiler": {
    "name": "solc",
    "version": "0.5.12+commit.7709ece9.Emscripten.clang"
  },
  "schemaVersion": "3.0.21",
  "updatedAt": "2020-05-09T23:24:58.176Z",
  "devdoc": {
    "author": "Aave",
    "methods": {
      "getFlashLoanFeesInBips()": {
        "details": "returns the fee applied to a flashloan and the portion to redirect to the protocol, in basis points.*"
      },
      "getMaxStableRateBorrowSizePercent()": {
        "details": "returns the maximum stable rate borrow size, in percentage of the available liquidity.*"
      },
      "getRebalanceDownRateDelta()": {
        "details": "returns the delta between the current stable rate and the user stable rate at     which the borrow position of the user will be rebalanced (scaled down)*"
      },
      "initialize(address)": {
        "details": "initializes the LendingPoolParametersProvider after it's added to the proxy",
        "params": {
          "_addressesProvider": "the address of the LendingPoolAddressesProvider"
        }
      }
    },
    "title": "LendingPoolParametersProvider"
  },
  "userdoc": {
    "methods": {},
    "notice": "stores the configuration parameters of the Lending Pool contract*"
  }
}