{
  "contractName": "MockAggregatorBase",
  "abi": [
    {
      "inputs": [
        {
          "internalType": "int256",
          "name": "_initialAnswer",
          "type": "int256"
        }
      ],
      "payable": false,
      "stateMutability": "nonpayable",
      "type": "constructor"
    },
    {
      "anonymous": false,
      "inputs": [
        {
          "indexed": true,
          "internalType": "int256",
          "name": "current",
          "type": "int256"
        },
        {
          "indexed": true,
          "internalType": "uint256",
          "name": "roundId",
          "type": "uint256"
        },
        {
          "indexed": false,
          "internalType": "uint256",
          "name": "timestamp",
          "type": "uint256"
        }
      ],
      "name": "AnswerUpdated",
      "type": "event"
    },
    {
      "constant": true,
      "inputs": [],
      "name": "latestAnswer",
      "outputs": [
        {
          "internalType": "int256",
          "name": "",
          "type": "int256"
        }
      ],
      "payable": false,
      "stateMutability": "view",
      "type": "function"
    }
  ],
  "bytecode": "0x608060405234801561001057600080fd5b506040516100ff3803806100ff8339818101604052602081101561003357600080fd5b5051600081815560408051428152905183917f0559884fd3a460db3073b7fc896cc77986f16e378210ded43186175bf646fc5f919081900360200190a35060808061007f6000396000f3fe6080604052348015600f57600080fd5b506004361060285760003560e01c806350d25bcd14602d575b600080fd5b60336045565b60408051918252519081900360200190f35b6000549056fea265627a7a72315820ddd4b2ef5196b79f9e9560e8259618e8b8928be13801c2f59abbb11f7db01bad64736f6c634300050c0032",
  "source": "pragma solidity ^0.5.0;\n\ncontract MockAggregatorBase  {\n    int256 private _latestAnswer;\n\n    event AnswerUpdated(int256 indexed current, uint256 indexed roundId, uint256 timestamp);\n\n    constructor (int256 _initialAnswer) public {\n        _latestAnswer = _initialAnswer;\n        emit AnswerUpdated(_initialAnswer, 0, now);\n    }\n\n    function latestAnswer() external view returns (int256) {\n        return _latestAnswer;\n    }\n}",
  "sourcePath": "/home/faycal/Desktop/rtoken-monorepo/packages/contracts/aave/contracts/mocks/oracle/CLAggregators/MockAggregatorBase.sol",
  "compiler": {
    "name": "solc",
    "version": "0.5.12+commit.7709ece9.Emscripten.clang"
  },
  "schemaVersion": "3.0.21",
  "updatedAt": "2020-05-09T23:24:58.355Z",
  "devdoc": {
    "methods": {}
  },
  "userdoc": {
    "methods": {}
  }
}