{
  "contractName": "MockAggregatorTUSD",
  "abi": [
    {
      "inputs": [
        {
          "internalType": "int256",
          "name": "_initialAnswer",
          "type": "int256"
        }
      ],
      "payable": false,
      "stateMutability": "nonpayable",
      "type": "constructor"
    },
    {
      "anonymous": false,
      "inputs": [
        {
          "indexed": true,
          "internalType": "int256",
          "name": "current",
          "type": "int256"
        },
        {
          "indexed": true,
          "internalType": "uint256",
          "name": "roundId",
          "type": "uint256"
        },
        {
          "indexed": false,
          "internalType": "uint256",
          "name": "timestamp",
          "type": "uint256"
        }
      ],
      "name": "AnswerUpdated",
      "type": "event"
    },
    {
      "constant": true,
      "inputs": [],
      "name": "latestAnswer",
      "outputs": [
        {
          "internalType": "int256",
          "name": "",
          "type": "int256"
        }
      ],
      "payable": false,
      "stateMutability": "view",
      "type": "function"
    }
  ],
  "bytecode": "0x608060405234801561001057600080fd5b506040516101023803806101028339818101604052602081101561003357600080fd5b5051600081815560408051428152905183929183917f0559884fd3a460db3073b7fc896cc77986f16e378210ded43186175bf646fc5f9181900360200190a350506080806100826000396000f3fe6080604052348015600f57600080fd5b506004361060285760003560e01c806350d25bcd14602d575b600080fd5b60336045565b60408051918252519081900360200190f35b6000549056fea265627a7a72315820eaf26c7f26fe240c0fb1708d324a481fc45ffadf03f49851cb9433893ac3746164736f6c634300050c0032",
  "source": "pragma solidity ^0.5.0;\n\nimport \"./MockAggregatorBase.sol\";\n\ncontract MockAggregatorTUSD is MockAggregatorBase {\n    constructor (int256 _initialAnswer) public MockAggregatorBase(_initialAnswer) {}\n}",
  "sourcePath": "/home/faycal/Desktop/rtoken-monorepo/packages/contracts/aave/contracts/mocks/oracle/CLAggregators/MockAggregatorTUSD.sol",
  "compiler": {
    "name": "solc",
    "version": "0.5.12+commit.7709ece9.Emscripten.clang"
  },
  "schemaVersion": "3.0.21",
  "updatedAt": "2020-05-09T23:24:58.366Z",
  "devdoc": {
    "methods": {}
  },
  "userdoc": {
    "methods": {}
  }
}