{
  "contractName": "CompoundAllocationStrategy",
  "abi": [
    {
      "inputs": [
        {
          "internalType": "contract CErc20Interface",
          "name": "cToken_",
          "type": "address"
        }
      ],
      "payable": false,
      "stateMutability": "nonpayable",
      "type": "constructor"
    },
    {
      "anonymous": false,
      "inputs": [
        {
          "indexed": true,
          "internalType": "address",
          "name": "previousOwner",
          "type": "address"
        },
        {
          "indexed": true,
          "internalType": "address",
          "name": "newOwner",
          "type": "address"
        }
      ],
      "name": "OwnershipTransferred",
      "type": "event"
    },
    {
      "constant": true,
      "inputs": [],
      "name": "isOwner",
      "outputs": [
        {
          "internalType": "bool",
          "name": "",
          "type": "bool"
        }
      ],
      "payable": false,
      "stateMutability": "view",
      "type": "function"
    },
    {
      "constant": true,
      "inputs": [],
      "name": "owner",
      "outputs": [
        {
          "internalType": "address",
          "name": "",
          "type": "address"
        }
      ],
      "payable": false,
      "stateMutability": "view",
      "type": "function"
    },
    {
      "constant": false,
      "inputs": [],
      "name": "renounceOwnership",
      "outputs": [],
      "payable": false,
      "stateMutability": "nonpayable",
      "type": "function"
    },
    {
      "constant": false,
      "inputs": [
        {
          "internalType": "address",
          "name": "newOwner",
          "type": "address"
        }
      ],
      "name": "transferOwnership",
      "outputs": [],
      "payable": false,
      "stateMutability": "nonpayable",
      "type": "function"
    },
    {
      "constant": true,
      "inputs": [],
      "name": "underlying",
      "outputs": [
        {
          "internalType": "address",
          "name": "",
          "type": "address"
        }
      ],
      "payable": false,
      "stateMutability": "view",
      "type": "function"
    },
    {
      "constant": true,
      "inputs": [],
      "name": "exchangeRateStored",
      "outputs": [
        {
          "internalType": "uint256",
          "name": "",
          "type": "uint256"
        }
      ],
      "payable": false,
      "stateMutability": "view",
      "type": "function"
    },
    {
      "constant": false,
      "inputs": [],
      "name": "accrueInterest",
      "outputs": [
        {
          "internalType": "bool",
          "name": "",
          "type": "bool"
        }
      ],
      "payable": false,
      "stateMutability": "nonpayable",
      "type": "function"
    },
    {
      "constant": false,
      "inputs": [
        {
          "internalType": "uint256",
          "name": "investAmount",
          "type": "uint256"
        }
      ],
      "name": "investUnderlying",
      "outputs": [
        {
          "internalType": "uint256",
          "name": "",
          "type": "uint256"
        }
      ],
      "payable": false,
      "stateMutability": "nonpayable",
      "type": "function"
    },
    {
      "constant": false,
      "inputs": [
        {
          "internalType": "uint256",
          "name": "redeemAmount",
          "type": "uint256"
        }
      ],
      "name": "redeemUnderlying",
      "outputs": [
        {
          "internalType": "uint256",
          "name": "",
          "type": "uint256"
        }
      ],
      "payable": false,
      "stateMutability": "nonpayable",
      "type": "function"
    },
    {
      "constant": false,
      "inputs": [],
      "name": "redeemAll",
      "outputs": [
        {
          "internalType": "uint256",
          "name": "savingsAmount",
          "type": "uint256"
        },
        {
          "internalType": "uint256",
          "name": "underlyingAmount",
          "type": "uint256"
        }
      ],
      "payable": false,
      "stateMutability": "nonpayable",
      "type": "function"
    }
  ],
  "bytecode": "0x608060405234801561001057600080fd5b50604051610f39380380610f398339818101604052602081101561003357600080fd5b50516100466001600160e01b0361015416565b600080546001600160a01b0319166001600160a01b03928316178082556040519216917f8be0079c531659141344cd1fd0a4f28419497f9722a3daafe3b4186f6b6457e0908290a3600180546001600160a01b0319166001600160a01b038381169190911791829055604080517f6f307dc300000000000000000000000000000000000000000000000000000000815290519290911691636f307dc391600480820192602092909190829003018186803b15801561010357600080fd5b505afa158015610117573d6000803e3d6000fd5b505050506040513d602081101561012d57600080fd5b5051600280546001600160a01b0319166001600160a01b0390921691909117905550610158565b3390565b610dd2806101676000396000f3fe608060405234801561001057600080fd5b506004361061009e5760003560e01c80638da5cb5b116100665780638da5cb5b146101295780638f32d59b14610131578063a6afed951461014d578063c17693c014610155578063f2fde38b146101725761009e565b8063182df0f5146100a35780632f4350c2146100bd5780636f307dc3146100de578063715018a614610102578063852a12e31461010c575b600080fd5b6100ab610198565b60408051918252519081900360200190f35b6100c561020e565b6040805192835260208301919091528051918290030190f35b6100e6610495565b604080516001600160a01b039092168252519081900360200190f35b61010a6104da565b005b6100ab6004803603602081101561012257600080fd5b503561056b565b6100e6610833565b610139610842565b604080519115158252519081900360200190f35b610139610866565b6100ab6004803603602081101561016b57600080fd5b50356108de565b61010a6004803603602081101561018857600080fd5b50356001600160a01b0316610c1c565b6001546040805163182df0f560e01b815290516000926001600160a01b03169163182df0f5916004808301926020929190829003018186803b1580156101dd57600080fd5b505afa1580156101f1573d6000803e3d6000fd5b505050506040513d602081101561020757600080fd5b5051905090565b600080610219610842565b610258576040805162461bcd60e51b81526020600482018190526024820152600080516020610d5b833981519152604482015290519081900360640190fd5b600154604080516370a0823160e01b815230600482015290516001600160a01b03909216916370a0823191602480820192602092909190829003018186803b1580156102a357600080fd5b505afa1580156102b7573d6000803e3d6000fd5b505050506040513d60208110156102cd57600080fd5b50516001546040805163db006a7560e01b81526004810184905290519294506001600160a01b039091169163db006a75916024808201926020929091908290030181600087803b15801561032057600080fd5b505af1158015610334573d6000803e3d6000fd5b505050506040513d602081101561034a57600080fd5b505115610395576040805162461bcd60e51b815260206004820152601460248201527318d51bdad95b8b9c995919595b4819985a5b195960621b604482015290519081900360640190fd5b600254604080516370a0823160e01b815230600482015290516001600160a01b03909216916370a0823191602480820192602092909190829003018186803b1580156103e057600080fd5b505afa1580156103f4573d6000803e3d6000fd5b505050506040513d602081101561040a57600080fd5b50516002546040805163a9059cbb60e01b81523360048201526024810184905290519293506001600160a01b039091169163a9059cbb916044808201926020929091908290030181600087803b15801561046357600080fd5b505af1158015610477573d6000803e3d6000fd5b505050506040513d602081101561048d57600080fd5b509192909150565b60015460408051636f307dc360e01b815290516000926001600160a01b031691636f307dc3916004808301926020929190829003018186803b1580156101dd57600080fd5b6104e2610842565b610521576040805162461bcd60e51b81526020600482018190526024820152600080516020610d5b833981519152604482015290519081900360640190fd5b600080546040516001600160a01b03909116907f8be0079c531659141344cd1fd0a4f28419497f9722a3daafe3b4186f6b6457e0908390a3600080546001600160a01b0319169055565b6000610575610842565b6105b4576040805162461bcd60e51b81526020600482018190526024820152600080516020610d5b833981519152604482015290519081900360640190fd5b600154604080516318160ddd60e01b815290516000926001600160a01b0316916318160ddd916004808301926020929190829003018186803b1580156105f957600080fd5b505afa15801561060d573d6000803e3d6000fd5b505050506040513d602081101561062357600080fd5b50516001546040805163852a12e360e01b81526004810187905290519293506001600160a01b039091169163852a12e3916024808201926020929091908290030181600087803b15801561067657600080fd5b505af115801561068a573d6000803e3d6000fd5b505050506040513d60208110156106a057600080fd5b5051156106f4576040805162461bcd60e51b815260206004820152601e60248201527f63546f6b656e2e72656465656d556e6465726c79696e67206661696c65640000604482015290519081900360640190fd5b600154604080516318160ddd60e01b815290516000926001600160a01b0316916318160ddd916004808301926020929190829003018186803b15801561073957600080fd5b505afa15801561074d573d6000803e3d6000fd5b505050506040513d602081101561076357600080fd5b505190506000828211156107a85760405162461bcd60e51b8152600401808060200182810382526023815260200180610d7b6023913960400191505060405180910390fd5b506002546040805163a9059cbb60e01b8152336004820152602481018790529051838503926001600160a01b03169163a9059cbb9160448083019260209291908290030181600087803b1580156107fe57600080fd5b505af1158015610812573d6000803e3d6000fd5b505050506040513d602081101561082857600080fd5b509095945050505050565b6000546001600160a01b031690565b600080546001600160a01b0316610857610c6f565b6001600160a01b031614905090565b6001546040805163a6afed9560e01b815290516000926001600160a01b03169163a6afed9591600480830192602092919082900301818787803b1580156108ac57600080fd5b505af11580156108c0573d6000803e3d6000fd5b505050506040513d60208110156108d657600080fd5b505115905090565b60006108e8610842565b610927576040805162461bcd60e51b81526020600482018190526024820152600080516020610d5b833981519152604482015290519081900360640190fd5b600254604080516323b872dd60e01b81523360048201523060248201526044810185905290516001600160a01b03909216916323b872dd916064808201926020929091908290030181600087803b15801561098157600080fd5b505af1158015610995573d6000803e3d6000fd5b505050506040513d60208110156109ab57600080fd5b50506002546001546040805163095ea7b360e01b81526001600160a01b039283166004820152602481018690529051919092169163095ea7b39160448083019260209291908290030181600087803b158015610a0657600080fd5b505af1158015610a1a573d6000803e3d6000fd5b505050506040513d6020811015610a3057600080fd5b5050600154604080516318160ddd60e01b815290516000926001600160a01b0316916318160ddd916004808301926020929190829003018186803b158015610a7757600080fd5b505afa158015610a8b573d6000803e3d6000fd5b505050506040513d6020811015610aa157600080fd5b50516001546040805163140e25ad60e31b81526004810187905290519293506001600160a01b039091169163a0712d68916024808201926020929091908290030181600087803b158015610af457600080fd5b505af1158015610b08573d6000803e3d6000fd5b505050506040513d6020811015610b1e57600080fd5b505115610b60576040805162461bcd60e51b815260206004820152600b60248201526a1b5a5b9d0819985a5b195960aa1b604482015290519081900360640190fd5b600154604080516318160ddd60e01b815290516000926001600160a01b0316916318160ddd916004808301926020929190829003018186803b158015610ba557600080fd5b505afa158015610bb9573d6000803e3d6000fd5b505050506040513d6020811015610bcf57600080fd5b50519050600082821015610c145760405162461bcd60e51b8152600401808060200182810382526021815260200180610d3a6021913960400191505060405180910390fd5b500392915050565b610c24610842565b610c63576040805162461bcd60e51b81526020600482018190526024820152600080516020610d5b833981519152604482015290519081900360640190fd5b610c6c81610c73565b50565b3390565b6001600160a01b038116610cb85760405162461bcd60e51b8152600401808060200182810382526026815260200180610d146026913960400191505060405180910390fd5b600080546040516001600160a01b03808516939216917f8be0079c531659141344cd1fd0a4f28419497f9722a3daafe3b4186f6b6457e091a3600080546001600160a01b0319166001600160a01b039290921691909117905556fe4f776e61626c653a206e6577206f776e657220697320746865207a65726f2061646472657373436f6d706f756e64206d696e746564206e6567617469766520616d6f756e74213f4f776e61626c653a2063616c6c6572206973206e6f7420746865206f776e6572436f6d706f756e642072656465656d6564206e6567617469766520616d6f756e74213fa265627a7a7231582086558183235d12ec77ccdb9beb5c49b897f98db906c3d07e511c721a19e98b3764736f6c634300050c0032",
  "source": "pragma solidity >=0.5.10 <0.6.0;\n\nimport {IAllocationStrategy} from \"./IAllocationStrategy.sol\";\nimport {Ownable} from \"@openzeppelin/contracts/ownership/Ownable.sol\";\nimport {IERC20} from \"@openzeppelin/contracts/token/ERC20/IERC20.sol\";\nimport {CErc20Interface} from \"../compound/contracts/CErc20Interface.sol\";\n\ncontract CompoundAllocationStrategy is IAllocationStrategy, Ownable {\n\n    CErc20Interface private cToken;\n    IERC20 private token;\n\n    constructor(CErc20Interface cToken_) public {\n        cToken = cToken_;\n        token = IERC20(cToken.underlying());\n    }\n\n    /// @dev ISavingStrategy.underlying implementation\n    function underlying() external view returns (address) {\n        return cToken.underlying();\n    }\n\n    /// @dev ISavingStrategy.exchangeRateStored implementation\n    function exchangeRateStored() external view returns (uint256) {\n        return cToken.exchangeRateStored();\n    }\n\n    /// @dev ISavingStrategy.accrueInterest implementation\n    function accrueInterest() external returns (bool) {\n        return cToken.accrueInterest() == 0;\n    }\n\n    /// @dev ISavingStrategy.investUnderlying implementation\n    function investUnderlying(uint256 investAmount) external onlyOwner returns (uint256) {\n        token.transferFrom(msg.sender, address(this), investAmount);\n        token.approve(address(cToken), investAmount);\n        uint256 cTotalBefore = cToken.totalSupply();\n        // TODO should we handle mint failure?\n        require(cToken.mint(investAmount) == 0, \"mint failed\");\n        uint256 cTotalAfter = cToken.totalSupply();\n        uint256 cCreatedAmount;\n        require (cTotalAfter >= cTotalBefore, \"Compound minted negative amount!?\");\n        cCreatedAmount = cTotalAfter - cTotalBefore;\n        return cCreatedAmount;\n    }\n\n    /// @dev ISavingStrategy.redeemUnderlying implementation\n    function redeemUnderlying(uint256 redeemAmount) external onlyOwner returns (uint256) {\n        uint256 cTotalBefore = cToken.totalSupply();\n        // TODO should we handle redeem failure?\n        require(cToken.redeemUnderlying(redeemAmount) == 0, \"cToken.redeemUnderlying failed\");\n        uint256 cTotalAfter = cToken.totalSupply();\n        uint256 cBurnedAmount;\n        require(cTotalAfter <= cTotalBefore, \"Compound redeemed negative amount!?\");\n        cBurnedAmount = cTotalBefore - cTotalAfter;\n        token.transfer(msg.sender, redeemAmount);\n        return cBurnedAmount;\n    }\n\n    /// @dev ISavingStrategy.redeemAll implementation\n    function redeemAll() external onlyOwner\n        returns (uint256 savingsAmount, uint256 underlyingAmount) {\n        savingsAmount = cToken.balanceOf(address(this));\n        require(cToken.redeem(savingsAmount) == 0, \"cToken.redeem failed\");\n        underlyingAmount = token.balanceOf(address(this));\n        token.transfer(msg.sender, underlyingAmount);\n    }\n\n}\n",
  "sourcePath": "/home/thisguy/repos/rToken-project/rtoken-monorepo/packages/contracts/contracts/CompoundAllocationStrategy.sol",
  "compiler": {
    "name": "solc",
    "version": "0.5.12+commit.7709ece9.Emscripten.clang"
  },
  "schemaVersion": "3.0.21",
  "updatedAt": "2020-04-22T15:18:28.143Z",
  "devdoc": {
    "methods": {
      "accrueInterest()": {
        "details": "ISavingStrategy.accrueInterest implementation"
      },
      "exchangeRateStored()": {
        "details": "ISavingStrategy.exchangeRateStored implementation"
      },
      "investUnderlying(uint256)": {
        "details": "ISavingStrategy.investUnderlying implementation"
      },
      "isOwner()": {
        "details": "Returns true if the caller is the current owner."
      },
      "owner()": {
        "details": "Returns the address of the current owner."
      },
      "redeemAll()": {
        "details": "ISavingStrategy.redeemAll implementation"
      },
      "redeemUnderlying(uint256)": {
        "details": "ISavingStrategy.redeemUnderlying implementation"
      },
      "renounceOwnership()": {
        "details": "Leaves the contract without owner. It will not be possible to call `onlyOwner` functions anymore. Can only be called by the current owner.     * NOTE: Renouncing ownership will leave the contract without an owner, thereby removing any functionality that is only available to the owner."
      },
      "transferOwnership(address)": {
        "details": "Transfers ownership of the contract to a new account (`newOwner`). Can only be called by the current owner."
      },
      "underlying()": {
        "details": "ISavingStrategy.underlying implementation"
      }
    }
  },
  "userdoc": {
    "methods": {}
  }
}