{
  "contractName": "Proxiable",
  "abi": [
    {
      "constant": true,
      "inputs": [],
      "name": "proxiableUUID",
      "outputs": [
        {
          "internalType": "bytes32",
          "name": "",
          "type": "bytes32"
        }
      ],
      "payable": false,
      "stateMutability": "pure",
      "type": "function"
    }
  ],
  "bytecode": "0x6080604052348015600f57600080fd5b50609e8061001e6000396000f3fe6080604052348015600f57600080fd5b506004361060285760003560e01c806352d1902d14602d575b600080fd5b60336045565b60408051918252519081900360200190f35b7fc5f16f0fcc639fa48a6947836d9850f504798523bf8c9a3a87d5876cf622bcf79056fea265627a7a72315820f482aef912195a26999db8e69cf9a14f0d6b8b42c510a4ef749c3eecee854c0864736f6c634300050c0032",
  "source": "pragma solidity ^0.5.0;\n\ncontract Proxiable {\n    // Code position in storage is keccak256(\"PROXIABLE\") = \"0xc5f16f0fcc639fa48a6947836d9850f504798523bf8c9a3a87d5876cf622bcf7\"\n\n    function updateCodeAddress(address newAddress) internal {\n        require(\n            bytes32(\n                    0xc5f16f0fcc639fa48a6947836d9850f504798523bf8c9a3a87d5876cf622bcf7\n                ) ==\n                Proxiable(newAddress).proxiableUUID(),\n            \"Not compatible\"\n        );\n        assembly {\n            // solium-disable-line\n            sstore(\n                0xc5f16f0fcc639fa48a6947836d9850f504798523bf8c9a3a87d5876cf622bcf7,\n                newAddress\n            )\n        }\n    }\n    function proxiableUUID() public pure returns (bytes32) {\n        return\n            0xc5f16f0fcc639fa48a6947836d9850f504798523bf8c9a3a87d5876cf622bcf7;\n    }\n}\n",
  "sourcePath": "/home/thisguy/repos/rToken-project/rtoken-monorepo/packages/contracts/contracts/Proxiable.sol",
  "compiler": {
    "name": "solc",
    "version": "0.5.12+commit.7709ece9.Emscripten.clang"
  },
  "schemaVersion": "3.0.21",
  "updatedAt": "2020-04-22T02:35:54.239Z",
  "devdoc": {
    "methods": {}
  },
  "userdoc": {
    "methods": {}
  }
}