{
  "contractName": "rDAI",
  "abi": [
    {
      "anonymous": false,
      "inputs": [
        {
          "indexed": false,
          "internalType": "address",
          "name": "strategy",
          "type": "address"
        },
        {
          "indexed": false,
          "internalType": "uint256",
          "name": "conversionRate",
          "type": "uint256"
        }
      ],
      "name": "AllocationStrategyChanged",
      "type": "event"
    },
    {
      "anonymous": false,
      "inputs": [
        {
          "indexed": true,
          "internalType": "address",
          "name": "owner",
          "type": "address"
        },
        {
          "indexed": true,
          "internalType": "address",
          "name": "spender",
          "type": "address"
        },
        {
          "indexed": false,
          "internalType": "uint256",
          "name": "value",
          "type": "uint256"
        }
      ],
      "name": "Approval",
      "type": "event"
    },
    {
      "anonymous": false,
      "inputs": [
        {
          "indexed": false,
          "internalType": "address",
          "name": "newCode",
          "type": "address"
        }
      ],
      "name": "CodeUpdated",
      "type": "event"
    },
    {
      "anonymous": false,
      "inputs": [
        {
          "indexed": true,
          "internalType": "address",
          "name": "account",
          "type": "address"
        },
        {
          "indexed": true,
          "internalType": "uint256",
          "name": "oldHatID",
          "type": "uint256"
        },
        {
          "indexed": true,
          "internalType": "uint256",
          "name": "newHatID",
          "type": "uint256"
        }
      ],
      "name": "HatChanged",
      "type": "event"
    },
    {
      "anonymous": false,
      "inputs": [
        {
          "indexed": true,
          "internalType": "uint256",
          "name": "hatID",
          "type": "uint256"
        }
      ],
      "name": "HatCreated",
      "type": "event"
    },
    {
      "anonymous": false,
      "inputs": [
        {
          "indexed": true,
          "internalType": "address",
          "name": "recipient",
          "type": "address"
        },
        {
          "indexed": false,
          "internalType": "uint256",
          "name": "amount",
          "type": "uint256"
        }
      ],
      "name": "InterestPaid",
      "type": "event"
    },
    {
      "anonymous": false,
      "inputs": [
        {
          "indexed": true,
          "internalType": "address",
          "name": "owner",
          "type": "address"
        },
        {
          "indexed": true,
          "internalType": "address",
          "name": "recipient",
          "type": "address"
        },
        {
          "indexed": true,
          "internalType": "uint256",
          "name": "hatId",
          "type": "uint256"
        },
        {
          "indexed": false,
          "internalType": "bool",
          "name": "isDistribution",
          "type": "bool"
        },
        {
          "indexed": false,
          "internalType": "uint256",
          "name": "redeemableAmount",
          "type": "uint256"
        },
        {
          "indexed": false,
          "internalType": "uint256",
          "name": "internalSavingsAmount",
          "type": "uint256"
        }
      ],
      "name": "LoansTransferred",
      "type": "event"
    },
    {
      "anonymous": false,
      "inputs": [
        {
          "indexed": true,
          "internalType": "address",
          "name": "previousOwner",
          "type": "address"
        },
        {
          "indexed": true,
          "internalType": "address",
          "name": "newOwner",
          "type": "address"
        }
      ],
      "name": "OwnershipTransferred",
      "type": "event"
    },
    {
      "anonymous": false,
      "inputs": [
        {
          "indexed": true,
          "internalType": "address",
          "name": "from",
          "type": "address"
        },
        {
          "indexed": true,
          "internalType": "address",
          "name": "to",
          "type": "address"
        },
        {
          "indexed": false,
          "internalType": "uint256",
          "name": "value",
          "type": "uint256"
        }
      ],
      "name": "Transfer",
      "type": "event"
    },
    {
      "constant": true,
      "inputs": [],
      "name": "ALLOCATION_STRATEGY_EXCHANGE_RATE_SCALE",
      "outputs": [
        {
          "internalType": "uint256",
          "name": "",
          "type": "uint256"
        }
      ],
      "payable": false,
      "stateMutability": "view",
      "type": "function"
    },
    {
      "constant": true,
      "inputs": [],
      "name": "INITIAL_SAVING_ASSET_CONVERSION_RATE",
      "outputs": [
        {
          "internalType": "uint256",
          "name": "",
          "type": "uint256"
        }
      ],
      "payable": false,
      "stateMutability": "view",
      "type": "function"
    },
    {
      "constant": true,
      "inputs": [],
      "name": "MAX_NUM_HAT_RECIPIENTS",
      "outputs": [
        {
          "internalType": "uint256",
          "name": "",
          "type": "uint256"
        }
      ],
      "payable": false,
      "stateMutability": "view",
      "type": "function"
    },
    {
      "constant": true,
      "inputs": [],
      "name": "MAX_UINT256",
      "outputs": [
        {
          "internalType": "uint256",
          "name": "",
          "type": "uint256"
        }
      ],
      "payable": false,
      "stateMutability": "view",
      "type": "function"
    },
    {
      "constant": true,
      "inputs": [],
      "name": "PROPORTION_BASE",
      "outputs": [
        {
          "internalType": "uint32",
          "name": "",
          "type": "uint32"
        }
      ],
      "payable": false,
      "stateMutability": "view",
      "type": "function"
    },
    {
      "constant": true,
      "inputs": [],
      "name": "SELF_HAT_ID",
      "outputs": [
        {
          "internalType": "uint256",
          "name": "",
          "type": "uint256"
        }
      ],
      "payable": false,
      "stateMutability": "view",
      "type": "function"
    },
    {
      "constant": true,
      "inputs": [],
      "name": "_guardCounter",
      "outputs": [
        {
          "internalType": "uint256",
          "name": "",
          "type": "uint256"
        }
      ],
      "payable": false,
      "stateMutability": "view",
      "type": "function"
    },
    {
      "constant": true,
      "inputs": [],
      "name": "_owner",
      "outputs": [
        {
          "internalType": "address",
          "name": "",
          "type": "address"
        }
      ],
      "payable": false,
      "stateMutability": "view",
      "type": "function"
    },
    {
      "constant": true,
      "inputs": [
        {
          "internalType": "address",
          "name": "",
          "type": "address"
        }
      ],
      "name": "accountStats",
      "outputs": [
        {
          "internalType": "uint256",
          "name": "cumulativeInterest",
          "type": "uint256"
        }
      ],
      "payable": false,
      "stateMutability": "view",
      "type": "function"
    },
    {
      "constant": true,
      "inputs": [
        {
          "internalType": "address",
          "name": "",
          "type": "address"
        }
      ],
      "name": "accounts",
      "outputs": [
        {
          "internalType": "uint256",
          "name": "hatID",
          "type": "uint256"
        },
        {
          "internalType": "uint256",
          "name": "rAmount",
          "type": "uint256"
        },
        {
          "internalType": "uint256",
          "name": "rInterest",
          "type": "uint256"
        },
        {
          "internalType": "uint256",
          "name": "lDebt",
          "type": "uint256"
        },
        {
          "internalType": "uint256",
          "name": "sInternalAmount",
          "type": "uint256"
        }
      ],
      "payable": false,
      "stateMutability": "view",
      "type": "function"
    },
    {
      "constant": true,
      "inputs": [
        {
          "internalType": "address",
          "name": "owner",
          "type": "address"
        },
        {
          "internalType": "address",
          "name": "spender",
          "type": "address"
        }
      ],
      "name": "allowance",
      "outputs": [
        {
          "internalType": "uint256",
          "name": "",
          "type": "uint256"
        }
      ],
      "payable": false,
      "stateMutability": "view",
      "type": "function"
    },
    {
      "constant": false,
      "inputs": [
        {
          "internalType": "address",
          "name": "spender",
          "type": "address"
        },
        {
          "internalType": "uint256",
          "name": "amount",
          "type": "uint256"
        }
      ],
      "name": "approve",
      "outputs": [
        {
          "internalType": "bool",
          "name": "",
          "type": "bool"
        }
      ],
      "payable": false,
      "stateMutability": "nonpayable",
      "type": "function"
    },
    {
      "constant": true,
      "inputs": [
        {
          "internalType": "address",
          "name": "owner",
          "type": "address"
        }
      ],
      "name": "balanceOf",
      "outputs": [
        {
          "internalType": "uint256",
          "name": "",
          "type": "uint256"
        }
      ],
      "payable": false,
      "stateMutability": "view",
      "type": "function"
    },
    {
      "constant": false,
      "inputs": [
        {
          "internalType": "address",
          "name": "allocationStrategy_",
          "type": "address"
        }
      ],
      "name": "changeAllocationStrategy",
      "outputs": [],
      "payable": false,
      "stateMutability": "nonpayable",
      "type": "function"
    },
    {
      "constant": false,
      "inputs": [
        {
          "internalType": "uint256",
          "name": "hatID",
          "type": "uint256"
        }
      ],
      "name": "changeHat",
      "outputs": [
        {
          "internalType": "bool",
          "name": "",
          "type": "bool"
        }
      ],
      "payable": false,
      "stateMutability": "nonpayable",
      "type": "function"
    },
    {
      "constant": false,
      "inputs": [
        {
          "internalType": "address",
          "name": "contractAddress",
          "type": "address"
        },
        {
          "internalType": "uint256",
          "name": "hatID",
          "type": "uint256"
        }
      ],
      "name": "changeHatFor",
      "outputs": [],
      "payable": false,
      "stateMutability": "nonpayable",
      "type": "function"
    },
    {
      "constant": false,
      "inputs": [
        {
          "internalType": "address[]",
          "name": "recipients",
          "type": "address[]"
        },
        {
          "internalType": "uint32[]",
          "name": "proportions",
          "type": "uint32[]"
        },
        {
          "internalType": "bool",
          "name": "doChangeHat",
          "type": "bool"
        }
      ],
      "name": "createHat",
      "outputs": [
        {
          "internalType": "uint256",
          "name": "hatID",
          "type": "uint256"
        }
      ],
      "payable": false,
      "stateMutability": "nonpayable",
      "type": "function"
    },
    {
      "constant": true,
      "inputs": [],
      "name": "decimals",
      "outputs": [
        {
          "internalType": "uint256",
          "name": "",
          "type": "uint256"
        }
      ],
      "payable": false,
      "stateMutability": "view",
      "type": "function"
    },
    {
      "constant": true,
      "inputs": [
        {
          "internalType": "address",
          "name": "owner",
          "type": "address"
        }
      ],
      "name": "getAccountStats",
      "outputs": [
        {
          "components": [
            {
              "internalType": "uint256",
              "name": "hatID",
              "type": "uint256"
            },
            {
              "internalType": "uint256",
              "name": "rAmount",
              "type": "uint256"
            },
            {
              "internalType": "uint256",
              "name": "rInterest",
              "type": "uint256"
            },
            {
              "internalType": "uint256",
              "name": "lDebt",
              "type": "uint256"
            },
            {
              "internalType": "uint256",
              "name": "sInternalAmount",
              "type": "uint256"
            },
            {
              "internalType": "uint256",
              "name": "rInterestPayable",
              "type": "uint256"
            },
            {
              "internalType": "uint256",
              "name": "cumulativeInterest",
              "type": "uint256"
            },
            {
              "internalType": "uint256",
              "name": "lRecipientsSum",
              "type": "uint256"
            }
          ],
          "internalType": "struct RTokenStructs.AccountStatsView",
          "name": "stats",
          "type": "tuple"
        }
      ],
      "payable": false,
      "stateMutability": "view",
      "type": "function"
    },
    {
      "constant": true,
      "inputs": [],
      "name": "getCurrentAllocationStrategy",
      "outputs": [
        {
          "internalType": "address",
          "name": "allocationStrategy",
          "type": "address"
        }
      ],
      "payable": false,
      "stateMutability": "view",
      "type": "function"
    },
    {
      "constant": true,
      "inputs": [],
      "name": "getCurrentSavingStrategy",
      "outputs": [
        {
          "internalType": "address",
          "name": "",
          "type": "address"
        }
      ],
      "payable": false,
      "stateMutability": "view",
      "type": "function"
    },
    {
      "constant": true,
      "inputs": [],
      "name": "getGlobalStats",
      "outputs": [
        {
          "components": [
            {
              "internalType": "uint256",
              "name": "totalSupply",
              "type": "uint256"
            },
            {
              "internalType": "uint256",
              "name": "totalSavingsAmount",
              "type": "uint256"
            }
          ],
          "internalType": "struct RTokenStructs.GlobalStats",
          "name": "",
          "type": "tuple"
        }
      ],
      "payable": false,
      "stateMutability": "view",
      "type": "function"
    },
    {
      "constant": true,
      "inputs": [
        {
          "internalType": "address",
          "name": "owner",
          "type": "address"
        }
      ],
      "name": "getHatByAddress",
      "outputs": [
        {
          "internalType": "uint256",
          "name": "hatID",
          "type": "uint256"
        },
        {
          "internalType": "address[]",
          "name": "recipients",
          "type": "address[]"
        },
        {
          "internalType": "uint32[]",
          "name": "proportions",
          "type": "uint32[]"
        }
      ],
      "payable": false,
      "stateMutability": "view",
      "type": "function"
    },
    {
      "constant": true,
      "inputs": [
        {
          "internalType": "uint256",
          "name": "hatID",
          "type": "uint256"
        }
      ],
      "name": "getHatByID",
      "outputs": [
        {
          "internalType": "address[]",
          "name": "recipients",
          "type": "address[]"
        },
        {
          "internalType": "uint32[]",
          "name": "proportions",
          "type": "uint32[]"
        }
      ],
      "payable": false,
      "stateMutability": "view",
      "type": "function"
    },
    {
      "constant": true,
      "inputs": [
        {
          "internalType": "uint256",
          "name": "hatID",
          "type": "uint256"
        }
      ],
      "name": "getHatStats",
      "outputs": [
        {
          "components": [
            {
              "internalType": "uint256",
              "name": "useCount",
              "type": "uint256"
            },
            {
              "internalType": "uint256",
              "name": "totalLoans",
              "type": "uint256"
            },
            {
              "internalType": "uint256",
              "name": "totalSavings",
              "type": "uint256"
            }
          ],
          "internalType": "struct RTokenStructs.HatStatsView",
          "name": "stats",
          "type": "tuple"
        }
      ],
      "payable": false,
      "stateMutability": "view",
      "type": "function"
    },
    {
      "constant": true,
      "inputs": [],
      "name": "getMaximumHatID",
      "outputs": [
        {
          "internalType": "uint256",
          "name": "hatID",
          "type": "uint256"
        }
      ],
      "payable": false,
      "stateMutability": "view",
      "type": "function"
    },
    {
      "constant": true,
      "inputs": [],
      "name": "getSavingAssetBalance",
      "outputs": [
        {
          "internalType": "uint256",
          "name": "rAmount",
          "type": "uint256"
        },
        {
          "internalType": "uint256",
          "name": "sOriginalAmount",
          "type": "uint256"
        }
      ],
      "payable": false,
      "stateMutability": "view",
      "type": "function"
    },
    {
      "constant": true,
      "inputs": [
        {
          "internalType": "uint256",
          "name": "",
          "type": "uint256"
        }
      ],
      "name": "hatStats",
      "outputs": [
        {
          "internalType": "uint256",
          "name": "useCount",
          "type": "uint256"
        },
        {
          "internalType": "uint256",
          "name": "totalLoans",
          "type": "uint256"
        },
        {
          "internalType": "uint256",
          "name": "totalInternalSavings",
          "type": "uint256"
        }
      ],
      "payable": false,
      "stateMutability": "view",
      "type": "function"
    },
    {
      "constant": true,
      "inputs": [],
      "name": "ias",
      "outputs": [
        {
          "internalType": "contract IAllocationStrategy",
          "name": "",
          "type": "address"
        }
      ],
      "payable": false,
      "stateMutability": "view",
      "type": "function"
    },
    {
      "constant": true,
      "inputs": [],
      "name": "initialized",
      "outputs": [
        {
          "internalType": "bool",
          "name": "",
          "type": "bool"
        }
      ],
      "payable": false,
      "stateMutability": "view",
      "type": "function"
    },
    {
      "constant": true,
      "inputs": [
        {
          "internalType": "address",
          "name": "owner",
          "type": "address"
        }
      ],
      "name": "interestPayableOf",
      "outputs": [
        {
          "internalType": "uint256",
          "name": "amount",
          "type": "uint256"
        }
      ],
      "payable": false,
      "stateMutability": "view",
      "type": "function"
    },
    {
      "constant": true,
      "inputs": [],
      "name": "isOwner",
      "outputs": [
        {
          "internalType": "bool",
          "name": "",
          "type": "bool"
        }
      ],
      "payable": false,
      "stateMutability": "view",
      "type": "function"
    },
    {
      "constant": false,
      "inputs": [
        {
          "internalType": "uint256",
          "name": "mintAmount",
          "type": "uint256"
        }
      ],
      "name": "mint",
      "outputs": [
        {
          "internalType": "bool",
          "name": "",
          "type": "bool"
        }
      ],
      "payable": false,
      "stateMutability": "nonpayable",
      "type": "function"
    },
    {
      "constant": false,
      "inputs": [
        {
          "internalType": "uint256",
          "name": "mintAmount",
          "type": "uint256"
        },
        {
          "internalType": "address[]",
          "name": "recipients",
          "type": "address[]"
        },
        {
          "internalType": "uint32[]",
          "name": "proportions",
          "type": "uint32[]"
        }
      ],
      "name": "mintWithNewHat",
      "outputs": [
        {
          "internalType": "bool",
          "name": "",
          "type": "bool"
        }
      ],
      "payable": false,
      "stateMutability": "nonpayable",
      "type": "function"
    },
    {
      "constant": false,
      "inputs": [
        {
          "internalType": "uint256",
          "name": "mintAmount",
          "type": "uint256"
        },
        {
          "internalType": "uint256",
          "name": "hatID",
          "type": "uint256"
        }
      ],
      "name": "mintWithSelectedHat",
      "outputs": [
        {
          "internalType": "bool",
          "name": "",
          "type": "bool"
        }
      ],
      "payable": false,
      "stateMutability": "nonpayable",
      "type": "function"
    },
    {
      "constant": true,
      "inputs": [],
      "name": "name",
      "outputs": [
        {
          "internalType": "string",
          "name": "",
          "type": "string"
        }
      ],
      "payable": false,
      "stateMutability": "view",
      "type": "function"
    },
    {
      "constant": true,
      "inputs": [],
      "name": "owner",
      "outputs": [
        {
          "internalType": "address",
          "name": "",
          "type": "address"
        }
      ],
      "payable": false,
      "stateMutability": "view",
      "type": "function"
    },
    {
      "constant": false,
      "inputs": [
        {
          "internalType": "address",
          "name": "owner",
          "type": "address"
        }
      ],
      "name": "payInterest",
      "outputs": [
        {
          "internalType": "bool",
          "name": "",
          "type": "bool"
        }
      ],
      "payable": false,
      "stateMutability": "nonpayable",
      "type": "function"
    },
    {
      "constant": true,
      "inputs": [],
      "name": "proxiableUUID",
      "outputs": [
        {
          "internalType": "bytes32",
          "name": "",
          "type": "bytes32"
        }
      ],
      "payable": false,
      "stateMutability": "pure",
      "type": "function"
    },
    {
      "constant": true,
      "inputs": [
        {
          "internalType": "address",
          "name": "owner",
          "type": "address"
        }
      ],
      "name": "receivedLoanOf",
      "outputs": [
        {
          "internalType": "uint256",
          "name": "amount",
          "type": "uint256"
        }
      ],
      "payable": false,
      "stateMutability": "view",
      "type": "function"
    },
    {
      "constant": true,
      "inputs": [
        {
          "internalType": "address",
          "name": "owner",
          "type": "address"
        }
      ],
      "name": "receivedSavingsOf",
      "outputs": [
        {
          "internalType": "uint256",
          "name": "amount",
          "type": "uint256"
        }
      ],
      "payable": false,
      "stateMutability": "view",
      "type": "function"
    },
    {
      "constant": false,
      "inputs": [
        {
          "internalType": "uint256",
          "name": "redeemTokens",
          "type": "uint256"
        }
      ],
      "name": "redeem",
      "outputs": [
        {
          "internalType": "bool",
          "name": "",
          "type": "bool"
        }
      ],
      "payable": false,
      "stateMutability": "nonpayable",
      "type": "function"
    },
    {
      "constant": false,
      "inputs": [],
      "name": "redeemAll",
      "outputs": [
        {
          "internalType": "bool",
          "name": "",
          "type": "bool"
        }
      ],
      "payable": false,
      "stateMutability": "nonpayable",
      "type": "function"
    },
    {
      "constant": false,
      "inputs": [
        {
          "internalType": "address",
          "name": "redeemTo",
          "type": "address"
        },
        {
          "internalType": "uint256",
          "name": "redeemTokens",
          "type": "uint256"
        }
      ],
      "name": "redeemAndTransfer",
      "outputs": [
        {
          "internalType": "bool",
          "name": "",
          "type": "bool"
        }
      ],
      "payable": false,
      "stateMutability": "nonpayable",
      "type": "function"
    },
    {
      "constant": false,
      "inputs": [
        {
          "internalType": "address",
          "name": "redeemTo",
          "type": "address"
        }
      ],
      "name": "redeemAndTransferAll",
      "outputs": [
        {
          "internalType": "bool",
          "name": "",
          "type": "bool"
        }
      ],
      "payable": false,
      "stateMutability": "nonpayable",
      "type": "function"
    },
    {
      "constant": false,
      "inputs": [],
      "name": "renounceOwnership",
      "outputs": [],
      "payable": false,
      "stateMutability": "nonpayable",
      "type": "function"
    },
    {
      "constant": true,
      "inputs": [],
      "name": "savingAssetConversionRate",
      "outputs": [
        {
          "internalType": "uint256",
          "name": "",
          "type": "uint256"
        }
      ],
      "payable": false,
      "stateMutability": "view",
      "type": "function"
    },
    {
      "constant": true,
      "inputs": [],
      "name": "savingAssetOrignalAmount",
      "outputs": [
        {
          "internalType": "uint256",
          "name": "",
          "type": "uint256"
        }
      ],
      "payable": false,
      "stateMutability": "view",
      "type": "function"
    },
    {
      "constant": true,
      "inputs": [],
      "name": "symbol",
      "outputs": [
        {
          "internalType": "string",
          "name": "",
          "type": "string"
        }
      ],
      "payable": false,
      "stateMutability": "view",
      "type": "function"
    },
    {
      "constant": true,
      "inputs": [],
      "name": "token",
      "outputs": [
        {
          "internalType": "contract IERC20",
          "name": "",
          "type": "address"
        }
      ],
      "payable": false,
      "stateMutability": "view",
      "type": "function"
    },
    {
      "constant": true,
      "inputs": [],
      "name": "totalSupply",
      "outputs": [
        {
          "internalType": "uint256",
          "name": "",
          "type": "uint256"
        }
      ],
      "payable": false,
      "stateMutability": "view",
      "type": "function"
    },
    {
      "constant": false,
      "inputs": [
        {
          "internalType": "address",
          "name": "dst",
          "type": "address"
        },
        {
          "internalType": "uint256",
          "name": "amount",
          "type": "uint256"
        }
      ],
      "name": "transfer",
      "outputs": [
        {
          "internalType": "bool",
          "name": "",
          "type": "bool"
        }
      ],
      "payable": false,
      "stateMutability": "nonpayable",
      "type": "function"
    },
    {
      "constant": false,
      "inputs": [
        {
          "internalType": "address",
          "name": "dst",
          "type": "address"
        }
      ],
      "name": "transferAll",
      "outputs": [
        {
          "internalType": "bool",
          "name": "",
          "type": "bool"
        }
      ],
      "payable": false,
      "stateMutability": "nonpayable",
      "type": "function"
    },
    {
      "constant": false,
      "inputs": [
        {
          "internalType": "address",
          "name": "src",
          "type": "address"
        },
        {
          "internalType": "address",
          "name": "dst",
          "type": "address"
        }
      ],
      "name": "transferAllFrom",
      "outputs": [
        {
          "internalType": "bool",
          "name": "",
          "type": "bool"
        }
      ],
      "payable": false,
      "stateMutability": "nonpayable",
      "type": "function"
    },
    {
      "constant": true,
      "inputs": [
        {
          "internalType": "address",
          "name": "",
          "type": "address"
        },
        {
          "internalType": "address",
          "name": "",
          "type": "address"
        }
      ],
      "name": "transferAllowances",
      "outputs": [
        {
          "internalType": "uint256",
          "name": "",
          "type": "uint256"
        }
      ],
      "payable": false,
      "stateMutability": "view",
      "type": "function"
    },
    {
      "constant": false,
      "inputs": [
        {
          "internalType": "address",
          "name": "src",
          "type": "address"
        },
        {
          "internalType": "address",
          "name": "dst",
          "type": "address"
        },
        {
          "internalType": "uint256",
          "name": "amount",
          "type": "uint256"
        }
      ],
      "name": "transferFrom",
      "outputs": [
        {
          "internalType": "bool",
          "name": "",
          "type": "bool"
        }
      ],
      "payable": false,
      "stateMutability": "nonpayable",
      "type": "function"
    },
    {
      "constant": false,
      "inputs": [
        {
          "internalType": "address",
          "name": "newOwner",
          "type": "address"
        }
      ],
      "name": "transferOwnership",
      "outputs": [],
      "payable": false,
      "stateMutability": "nonpayable",
      "type": "function"
    },
    {
      "constant": false,
      "inputs": [
        {
          "internalType": "address",
          "name": "newCode",
          "type": "address"
        }
      ],
      "name": "updateCode",
      "outputs": [],
      "payable": false,
      "stateMutability": "nonpayable",
      "type": "function"
    },
    {
      "constant": false,
      "inputs": [
        {
          "internalType": "contract IAllocationStrategy",
          "name": "allocationStrategy",
          "type": "address"
        },
        {
          "internalType": "string",
          "name": "name_",
          "type": "string"
        },
        {
          "internalType": "string",
          "name": "symbol_",
          "type": "string"
        },
        {
          "internalType": "uint256",
          "name": "decimals_",
          "type": "uint256"
        }
      ],
      "name": "initialize",
      "outputs": [],
      "payable": false,
      "stateMutability": "nonpayable",
      "type": "function"
    },
    {
      "constant": false,
      "inputs": [
        {
          "internalType": "contract IAllocationStrategy",
          "name": "allocationStrategy",
          "type": "address"
        }
      ],
      "name": "initialize",
      "outputs": [],
      "payable": false,
      "stateMutability": "nonpayable",
      "type": "function"
    }
  ],
  "bytecode": "0x60806040819052600080546001600160a01b03191633178082556001600160a01b0316917f8be0079c531659141344cd1fd0a4f28419497f9722a3daafe3b4186f6b6457e0908290a3614808806100576000396000f3fe608060405234801561001057600080fd5b50600436106103a45760003560e01c806370a08231116101e9578063c034d0db1161010f578063d8884795116100ad578063f04bf8b31161007c578063f04bf8b314610757578063f2fde38b14610779578063fc0c546a1461078c578063fdbbf8ac14610794576103a4565b8063d888479514610713578063db006a7514610729578063dd62ed3e1461073c578063e192782b1461074f576103a4565b8063c4d66de8116100e9578063c4d66de8146106c7578063d007c644146106da578063d271be3f146106ed578063d3ac25c414610700576103a4565b8063c034d0db146104f5578063c1a2007d14610431578063c200659e146106bf576103a4565b80638f32d59b11610187578063a9059cbb11610156578063a9059cbb14610689578063b2bdfa7b1461069c578063b5dbfc1a146106a4578063bf5bfdfb146106b7576103a4565b80638f32d59b1461065357806395d89b411461065b578063a0712d6814610663578063a3a7e7f314610676576103a4565b806377ede051116101c357806377ede0511461062557806381c8d895146103d257806384d4b410146106385780638da5cb5b1461064b576103a4565b806370a0823114610602578063715018a61461061557806371ee46eb1461061d576103a4565b8063313ce567116102ce5780634d12d4b61161026c5780635cde50551161023b5780635cde5055146105a35780635e5c06e2146105b657806363152a50146105da5780636b4169c3146105ed576103a4565b80634d12d4b6146105535780634fd7c0dd1461056657806352d1902d14610586578063556043ef1461058e576103a4565b80633e20a929116102a85780633e20a9291461051057806346951954146105185780634929fbf71461052d578063496cc16414610540576103a4565b8063313ce567146104ed57806333a581d2146104f5578063388c0b8c146104fd576103a4565b8063158ef93e1161034657806323b872dd1161031557806323b872dd1461049f57806328cdfaeb146104b25780632f2ba814146104d25780632f4350c2146104e5576103a4565b8063158ef93e1461045957806318160ddd146104615780631cda95d514610469578063226e835c1461048a576103a4565b806306fdde031161038257806306fdde0314610409578063095ea7b31461041e57806310f3a6d81461043157806313e23e4114610446576103a4565b80630290cbc8146103a9578063039ab887146103d2578063054ab01a146103e7575b600080fd5b6103bc6103b7366004613799565b6107a7565b6040516103c991906143d3565b60405180910390f35b6103da61081a565b6040516103c991906143fc565b6103fa6103f5366004613799565b610826565b6040516103c9939291906145e4565b610411610855565b6040516103c99190614418565b6103bc61042c36600461385c565b6108e0565b61043961094e565b6040516103c99190614342565b6103da610454366004613799565b61095e565b6103bc610980565b6103da610990565b61047c6104773660046139fd565b610996565b6040516103c99291906143ae565b6104926109ac565b6040516103c99190614689565b6103bc6104ad36600461380f565b6109b4565b6104c56104c0366004613799565b610a0c565b6040516103c991906145b9565b6103bc6104e03660046139fd565b610b5d565b6103bc610ba2565b6103da610c0a565b6103da610c10565b6103bc61050b366004613aa2565b610c16565b6103da610c6b565b61052b610526366004613799565b610c75565b005b61052b61053b36600461385c565b610d0a565b6103da61054e366004613799565b610d61565b61052b61056136600461396c565b610d73565b6105796105743660046139fd565b610fb0565b6040516103c991906145d6565b6103da610ff2565b610596611016565b6040516103c9919061440a565b6103da6105b136600461388c565b611025565b6105c96105c4366004613799565b6110dc565b6040516103c995949392919061463d565b6103da6105e83660046137d5565b61110b565b6105f5611128565b6040516103c991906145c8565b6103da610610366004613799565b611158565b61052b611176565b6103da6111e4565b6103da610633366004613799565b6111ea565b6103bc6106463660046137d5565b611212565b61043961125c565b6103bc61126b565b61041161127c565b6103bc6106713660046139fd565b6112d7565b6103bc610684366004613799565b6112ed565b6103bc61069736600461385c565b611338565b61043961138a565b6103bc6106b2366004613a1b565b611399565b6103da611459565b6103da61145f565b61052b6106d536600461394e565b611465565b6103bc6106e8366004613799565b6114b7565b6103bc6106fb36600461385c565b6114cd565b61052b61070e366004613799565b6114ee565b61071b61192a565b6040516103c9929190614621565b6103bc6107373660046139fd565b61193f565b6103da61074a3660046137d5565b611960565b6103da61198b565b61076a6107653660046139fd565b611990565b6040516103c99392919061462f565b61052b610787366004613799565b6119b1565b6105966119de565b6103da6107a2366004613799565b6119ed565b60018054810190819055600090336107be81611a1d565b6001600160a01b0381166000908152600c60205260409020600101546107e5908590611bc6565b600192505060015481146108145760405162461bcd60e51b815260040161080b90614599565b60405180910390fd5b50919050565b670de0b6b3a764000081565b6001600160a01b0381166000908152600c602052604090205460608061084b83611d20565b9395909450915050565b6002805460408051602060018416156101000260001901909316849004601f810184900484028201840190925281815292918301828280156108d85780601f106108ad576101008083540402835291602001916108d8565b820191906000526020600020905b8154815290600101906020018083116108bb57829003601f168201915b505050505081565b336000818152600a602090815260408083206001600160a01b03871680855292528083208590555191929182907f8c5be1e5ebec7d5bd14f71427d1e84f3dd0314c0f7b2291e5b200ac8c7c3b9259061093a9087906143fc565b60405180910390a360019150505b92915050565b6006546001600160a01b03165b90565b6001600160a01b0381166000908152600c60205260409020600401545b919050565b600054600160a01b900460ff1681565b60055481565b6060806109a283611d20565b9094909350915050565b63ffffffff81565b600180548101908190556000906109ca85611a1d565b6109d633868686611e82565b6109df84611a1d565b600191506001548114610a045760405162461bcd60e51b815260040161080b90614599565b509392505050565b610a14613430565b6001600160a01b0382166000908152600c6020908152604091829020805484526001810154918401919091526002810154918301919091526004810154606083015260058101546080830152610a69816120fe565b60a08301526001600160a01b0383166000908152600d60205260408120805460c08501528254909190600b9060001914610aa4578354610aa7565b60005b81548110610ab157fe5b90600052602060002090600202019050826000015460001480610ad657508254600019145b15610af757610aed84602001518560400151612151565b60e0850152610b55565b60005b6001820154811015610b5357836003016000836000018381548110610b1b57fe5b60009182526020808320909101546001600160a01b0316835282019290925260400190205460e0860180519091019052600101610afa565b505b505050919050565b60018054810190819055600090610b74338461216c565b610b7d33611a1d565b6001915060015481146108145760405162461bcd60e51b815260040161080b90614599565b6001805481019081905560009033610bb981611a1d565b6001600160a01b0381166000908152600c6020526040902060010154610be0908290611bc6565b60019250506001548114610c065760405162461bcd60e51b815260040161080b90614599565b5090565b60045481565b60001981565b60018054810190819055600090610c2d338461216c565b610c3684612252565b610c3f33611a1d565b600191506001548114610c645760405162461bcd60e51b815260040161080b90614599565b5092915050565b600b546000190190565b610c7d61126b565b610c995760405162461bcd60e51b815260040161080b90614529565b600054600160a01b900460ff161515600114610cc75760405162461bcd60e51b815260040161080b90614579565b610cd081612550565b7f34459cf4c63f38e9b4af4ff8f74035bad6157484e669ffde70188afdf9917c6881604051610cff9190614342565b60405180910390a150565b610d1261126b565b610d2e5760405162461bcd60e51b815260040161080b90614529565b610d3782612623565b610d535760405162461bcd60e51b815260040161080b906144c9565b610d5d828261216c565b5050565b600d6020526000908152604090205481565b600054600160a01b900460ff1615610d9d5760405162461bcd60e51b815260040161080b906144b9565b610da5612629565b600080546001600160a01b03191633179055600180558251610dce906002906020860190613475565b508151610de2906003906020850190613475565b506004818155670de0b6b3a7640000600955600680546001600160a01b0319166001600160a01b03878116919091179182905560408051636f307dc360e01b815290519290911692636f307dc3928282019260209290829003018186803b158015610e4c57600080fd5b505afa158015610e60573d6000803e3d6000fd5b505050506040513d601f19601f82011682018060405250610e8491908101906137b7565b600780546001600160a01b03929092166001600160a01b031990921691909117905560408051600081830181815260608301845282528251818152602080820190945283830152600b8054600181018083559190925282518051919460029093027f0175b7a638427703f0dbe7bb9bbf987a2551717b34e79f33b5b1008d1fa01db90192610f17928492909101906134ef565b506020828101518051610f309260018501920190613550565b5050600080525050600e6020526000197fe710864318d4a32f37d6ce54cb3fadbef648dd12d8dbdf53973564d56b7f881c556006546009546040517faa54229fa6d6451d2cd5d13b5bc60f1230a0f79091118926e9b95d8f4811713a92610fa2926001600160a01b0390911691614393565b60405180910390a150505050565b610fb86135fb565b6000828152600e60209081526040909120805483526001810154918301919091526002810154610fe79061263e565b604083015250919050565b7fc5f16f0fcc639fa48a6947836d9850f504798523bf8c9a3a87d5876cf622bcf790565b6006546001600160a01b031681565b6001805481019081905560408051602080880282810182019093528782526000939261109f92918a918a9182919085019084908082843760009201919091525050604080516020808b0282810182019093528a82529093508a9250899182918501908490808284376000920191909152506126dc92505050565b915082156110b1576110b1338361216c565b60015481146110d25760405162461bcd60e51b815260040161080b90614599565b5095945050505050565b600c60205260009081526040902080546001820154600283015460048401546005909401549293919290919085565b600a60209081526000928352604080842090915290825290205481565b61113061361c565b600061113d60085461291d565b60408051808201909152600554815291016020820152905090565b6001600160a01b03166000908152600c602052604090206001015490565b61117e61126b565b61119a5760405162461bcd60e51b815260040161080b90614529565b600080546040516001600160a01b03909116907f8be0079c531659141344cd1fd0a4f28419497f9722a3daafe3b4186f6b6457e0908390a3600080546001600160a01b0319169055565b60085481565b6001600160a01b0381166000908152600c6020526040812061120b816120fe565b9392505050565b6001805481019081905560009061122884611a1d565b6001600160a01b0384166000908152600c602052604090206001015461125390339086908690611e82565b610c3f83611a1d565b6000546001600160a01b031690565b6000546001600160a01b0316331490565b6003805460408051602060026001851615610100026000190190941693909304601f810184900484028201840190925281815292918301828280156108d85780601f106108ad576101008083540402835291602001916108d8565b60018054810190819055600090610b7483612252565b600180548101908190556000903361130481611a1d565b6001600160a01b0381166000908152600c602052604090206001015461132f90829081908790611e82565b6107e584611a1d565b600180548101908190556000903361134f81611a1d565b61135b81828787611e82565b61136485611a1d565b60019250506001548114610c645760405162461bcd60e51b815260040161080b90614599565b6000546001600160a01b031681565b6001805481019081905560408051602080870282810182019093528682526000939284926114159290918a918a91829185019084908082843760009201919091525050604080516020808b0282810182019093528a82529093508a9250899182918501908490808284376000920191909152506126dc92505050565b9050611421338261216c565b61142a88612252565b61143333611a1d565b600192505060015481146110d25760405162461bcd60e51b815260040161080b90614599565b60015481565b60095481565b6114b4816040518060400160405280600e81526020016d52656465656d61626c652044414960901b815250604051806040016040528060048152602001637244414960e01b8152506012610d73565b50565b60018054810190819055600090610b7d83611a1d565b60018054810190819055600090336114e481611a1d565b6113648585611bc6565b6001805481019081905561150061126b565b61151c5760405162461bcd60e51b815260040161080b90614529565b60075460408051636f307dc360e01b8152905184926001600160a01b039081169290841691636f307dc391600480820192602092909190829003018186803b15801561156757600080fd5b505afa15801561157b573d6000803e3d6000fd5b505050506040513d601f19601f8201168201806040525061159f91908101906137b7565b6001600160a01b0316146115c55760405162461bcd60e51b815260040161080b906144f9565b600680546001600160a01b038381166001600160a01b0319831617909255604080516317a1a86160e11b8152815193909216926000928492632f4350c29260048084019382900301818787803b15801561161e57600080fd5b505af1158015611632573d6000803e3d6000fd5b505050506040513d601f19601f820116820180604052506116569190810190613ac1565b506007546040516370a0823160e01b81529192506000916001600160a01b03909116906370a082319061168d903090600401614342565b60206040518083038186803b1580156116a557600080fd5b505afa1580156116b9573d6000803e3d6000fd5b505050506040513d601f19601f820116820180604052506116dd9190810190613930565b60075460065460405163095ea7b360e01b81529293506001600160a01b039182169263095ea7b3926117159216908590600401614393565b602060405180830381600087803b15801561172f57600080fd5b505af1158015611743573d6000803e3d6000fd5b505050506040513d601f19601f820116820180604052506117679190810190613912565b6117835760405162461bcd60e51b815260040161080b906144a9565b600654604051630305da4f60e61b81526000916001600160a01b03169063c17693c0906117b49085906004016143fc565b602060405180830381600087803b1580156117ce57600080fd5b505af11580156117e2573d6000803e3d6000fd5b505050506040513d601f19601f820116820180604052506118069190810190613930565b6006549091506001600160a01b0385811691161461188457836001600160a01b031663f2fde38b61183561125c565b6040518263ffffffff1660e01b81526004016118519190614342565b600060405180830381600087803b15801561186b57600080fd5b505af115801561187f573d6000803e3d6000fd5b505050505b600061189160085461297c565b6009549091506118b7836118ab878463ffffffff61299f16565b9063ffffffff6129d916565b6009556118c382612a1b565b6008556009546040517faa54229fa6d6451d2cd5d13b5bc60f1230a0f79091118926e9b95d8f4811713a916118fa918c9190614393565b60405180910390a1505050505050506001548114610d5d5760405162461bcd60e51b815260040161080b90614599565b6008546000906119398161291d565b91509091565b600180548101908190556000903361195681611a1d565b6107e58185611bc6565b6001600160a01b039182166000908152600a6020908152604080832093909416825291909152205490565b603281565b600e6020526000908152604090208054600182015460029092015490919083565b6119b961126b565b6119d55760405162461bcd60e51b815260040161080b90614529565b6114b481612a3d565b6007546001600160a01b031681565b6001600160a01b0381166000908152600c6020526040812060058101548290611a159061263e565b949350505050565b6001600160a01b038082166000908152600c60209081526040808320600d8352818420600654835163a6afed9560e01b815293519296919591169363a6afed95936004808201949293918390030190829087803b158015611a7d57600080fd5b505af1158015611a91573d6000803e3d6000fd5b505050506040513d601f19601f82011682018060405250611ab59190810190613912565b611ad15760405162461bcd60e51b815260040161080b90614429565b6000611adc836120fe565b90508015611bc0578154611af6908263ffffffff612abe16565b82556002830154611b0d908263ffffffff612abe16565b60028401556001830154611b27908263ffffffff612abe16565b6001840155600554611b3f908263ffffffff612abe16565b6005556040516001600160a01b038516907f16cbc685358ca7d4e6b273dcdf2cb5d18c80b950aa2319b519756cd016233a6c90611b7d9084906143fc565b60405180910390a2836001600160a01b031660006001600160a01b03166000805160206147a683398151915283604051611bb791906143fc565b60405180910390a35b50505050565b336000908152600c6020526040902081611bf25760405162461bcd60e51b815260040161080b90614549565b8060010154821115611c165760405162461bcd60e51b815260040161080b906144e9565b611c203383612ae3565b6001810154611c35908363ffffffff612b9f16565b6001820155600554611c4d908363ffffffff612b9f16565b60055560075460405163a9059cbb60e01b81526001600160a01b039091169063a9059cbb90611c829086908690600401614393565b602060405180830381600087803b158015611c9c57600080fd5b505af1158015611cb0573d6000803e3d6000fd5b505050506040513d601f19601f82011682018060405250611cd49190810190613912565b611cf05760405162461bcd60e51b815260040161080b90614509565b60405160009033906000805160206147a683398151915290611d139086906143fc565b60405180910390a3505050565b6060808215801590611d3457506000198314155b15611e6357611d41613636565b600b8481548110611d4e57fe5b906000526020600020906002020160405180604001604052908160008201805480602002602001604051908101604052809291908181526020018280548015611dc057602002820191906000526020600020905b81546001600160a01b03168152600190910190602001808311611da2575b5050505050815260200160018201805480602002602001604051908101604052809291908181526020018280548015611e4457602002820191906000526020600020906000905b82829054906101000a900463ffffffff1663ffffffff1681526020019060040190602082600301049283019260010382029150808411611e075790505b5050505050815250509050806000015192508060200151915050611e7d565b505060408051600080825260208201908152818301909252905b915091565b816001600160a01b0316836001600160a01b03161415611eb45760405162461bcd60e51b815260040161080b906144d9565b6001600160a01b0383166000908152600c6020526040902060010154811115611eef5760405162461bcd60e51b815260040161080b90614539565b60006001600160a01b038581169085161415611f0e5750600019611f36565b506001600160a01b038084166000908152600a60209081526040808320938816835292905220545b81811015611f565760405162461bcd60e51b815260040161080b90614439565b6000611f68828463ffffffff612b9f16565b6001600160a01b0386166000908152600c602052604081206001015491925090611f98908563ffffffff612b9f16565b6001600160a01b0386166000908152600c602052604081206001015491925090611fc8908663ffffffff612abe16565b90506000198414611ffc576001600160a01b038088166000908152600a60209081526040808320938c168352929052208390555b60006120088887612be1565b9050612015878783612c90565b6001600160a01b038089166000818152600c60205260408082206001808201899055948c16835290822090930185905552541580159061206b57506001600160a01b0387166000908152600c6020526040902054155b801561209157506001600160a01b0388166000908152600c602052604090205460001914155b156120ba576001600160a01b0388166000908152600c60205260409020546120ba90889061216c565b866001600160a01b0316886001600160a01b03166000805160206147a6833981519152886040516120eb91906143fc565b60405180910390a3505050505050505050565b60008061210e836005015461263e565b905061212b83600201548460040154612abe90919063ffffffff16565b811115612147578260020154836004015482030391505061097b565b600091505061097b565b60008183101561216357506000610948565b50808203610948565b60001981148061217d5750600b5481105b6121995760405162461bcd60e51b815260040161080b90614479565b6001600160a01b0382166000908152600c602090815260408083208054808552600e909352818420858552919093206001840154156121ff5760006121e2878660010154612be1565b86865560018601549091506121f990889083612c90565b50612203565b8484555b815460001901825580546001018155604051859084906001600160a01b038916907f356f094000bcd3968ad51bf92c9d115ed7294626dea8ae4cc5b24273702e111390600090a4505050505050565b600754604051636eb1769f60e11b815282916001600160a01b03169063dd62ed3e906122849033903090600401614350565b60206040518083038186803b15801561229c57600080fd5b505afa1580156122b0573d6000803e3d6000fd5b505050506040513d601f19601f820116820180604052506122d49190810190613930565b10156122f25760405162461bcd60e51b815260040161080b90614559565b336000818152600c60205260409081902060075491516323b872dd60e01b815290926001600160a01b03909216916323b872dd9161233791903090879060040161436b565b602060405180830381600087803b15801561235157600080fd5b505af1158015612365573d6000803e3d6000fd5b505050506040513d601f19601f820116820180604052506123899190810190613912565b6123a55760405162461bcd60e51b815260040161080b90614509565b60075460065460405163095ea7b360e01b81526001600160a01b039283169263095ea7b3926123db929116908690600401614393565b602060405180830381600087803b1580156123f557600080fd5b505af1158015612409573d6000803e3d6000fd5b505050506040513d601f19601f8201168201806040525061242d9190810190613912565b6124495760405162461bcd60e51b815260040161080b906144a9565b600654604051630305da4f60e61b81526000916001600160a01b03169063c17693c09061247a9086906004016143fc565b602060405180830381600087803b15801561249457600080fd5b505af11580156124a8573d6000803e3d6000fd5b505050506040513d601f19601f820116820180604052506124cc9190810190613930565b6005549091506124e2908463ffffffff612abe16565b60055560018201546124fa908463ffffffff612abe16565b6001830155600854612512908263ffffffff612abe16565b60085560006125208261297c565b905061252d338583612c90565b60405133906000906000805160206147a683398151915290611bb79088906143fc565b806001600160a01b03166352d1902d6040518163ffffffff1660e01b815260040160206040518083038186803b15801561258957600080fd5b505afa15801561259d573d6000803e3d6000fd5b505050506040513d601f19601f820116820180604052506125c19190810190613930565b7fc5f16f0fcc639fa48a6947836d9850f504798523bf8c9a3a87d5876cf622bcf7146125ff5760405162461bcd60e51b815260040161080b90614449565b7fc5f16f0fcc639fa48a6947836d9850f504798523bf8c9a3a87d5876cf622bcf755565b3b151590565b6000805460ff60a01b1916600160a01b179055565b60006109486009546118ab600660009054906101000a90046001600160a01b03166001600160a01b031663182df0f56040518163ffffffff1660e01b815260040160206040518083038186803b15801561269757600080fd5b505afa1580156126ab573d6000803e3d6000fd5b505050506040513d601f19601f820116820180604052506126cf9190810190613930565b859063ffffffff61299f16565b60008060008451116127005760405162461bcd60e51b815260040161080b906145a9565b6032845111156127225760405162461bcd60e51b815260040161080b90614569565b82518451146127435760405162461bcd60e51b815260040161080b90614469565b506000805b84518210156127f957600084838151811061275f57fe5b602002602001015163ffffffff161161278a5760405162461bcd60e51b815260040161080b90614589565b60006001600160a01b03168583815181106127a157fe5b60200260200101516001600160a01b031614156127d05760405162461bcd60e51b815260040161080b90614499565b8382815181106127dc57fe5b602002602001015163ffffffff1681019050816001019150612748565b600091505b8351821015612863578063ffffffff801685848151811061281b57fe5b602002602001015163ffffffff16028161283157fe5b0484838151811061283e57fe5b602002602001019063ffffffff16908163ffffffff16815250508160010191506127fe565b604080518082019091528581526020808201869052600b80546001818101808455600093909352845180519195939460029093027f0175b7a638427703f0dbe7bb9bbf987a2551717b34e79f33b5b1008d1fa01db901926128c9928492909101906134ef565b5060208281015180516128e29260018501920190613550565b505050039250827f755babe5551737dcd4c723af196cff0ed1fa99a4c6957c62262d6b1425f864aa60405160405180910390a2505092915050565b6000610948670de0b6b3a76400006118ab600660009054906101000a90046001600160a01b03166001600160a01b031663182df0f56040518163ffffffff1660e01b815260040160206040518083038186803b15801561269757600080fd5b6000610948670de0b6b3a76400006118ab6009548561299f90919063ffffffff16565b6000826129ae57506000610948565b828202828482816129bb57fe5b041461120b5760405162461bcd60e51b815260040161080b90614519565b600061120b83836040518060400160405280601a81526020017f536166654d6174683a206469766973696f6e206279207a65726f000000000000815250612f38565b600954600090610948906118ab84670de0b6b3a764000063ffffffff61299f16565b6001600160a01b038116612a635760405162461bcd60e51b815260040161080b90614459565b600080546040516001600160a01b03808516939216917f8be0079c531659141344cd1fd0a4f28419497f9722a3daafe3b4186f6b6457e091a3600080546001600160a01b0319166001600160a01b0392909216919091179055565b60008282018381101561120b5760405162461bcd60e51b815260040161080b90614489565b60065460405163852a12e360e01b81526000916001600160a01b03169063852a12e390612b149085906004016143fc565b602060405180830381600087803b158015612b2e57600080fd5b505af1158015612b42573d6000803e3d6000fd5b505050506040513d601f19601f82011682018060405250612b669190810190613930565b9050612b718161297c565b50612b7c8383612f6f565b806008541115612b9457600880548290039055612b9a565b60006008555b505050565b600061120b83836040518060400160405280601e81526020017f536166654d6174683a207375627472616374696f6e206f766572666c6f77000081525061325c565b6006546040805163a6afed9560e01b815290516000926001600160a01b03169163a6afed9591600480830192602092919082900301818787803b158015612c2757600080fd5b505af1158015612c3b573d6000803e3d6000fd5b505050506040513d601f19601f82011682018060405250612c5f9190810190613912565b612c7b5760405162461bcd60e51b815260040161080b90614429565b612c8482613288565b90506109488383612f6f565b6001600160a01b0383166000908152600c602052604081208054909190600b9060001914612cbf578254612cc2565b60005b81548110612ccc57fe5b600091825260208220600290910201805490925015612ee95750600084845b6001840154831015612ee2576000600c6000866000018681548110612d0c57fe5b60009182526020808320909101546001600160a01b03168352820192909252604001812060018701549092506000190185149081612d975763ffffffff8016612d8a886001018881548110612d5d57fe5b600091825260209091206008820401548d916007166004026101000a900463ffffffff9081169061299f16565b81612d9157fe5b04612d99565b845b9050612de5818960030160008a6000018a81548110612db457fe5b60009182526020808320909101546001600160a01b031683528201929092526040019020549063ffffffff612abe16565b886003016000896000018981548110612dfa57fe5b60009182526020808320909101546001600160a01b031683528201929092526040019020556004830154612e34908263ffffffff612abe16565b6004840155612e438582612151565b9450600082612e725763ffffffff8016612e65896001018981548110612d5d57fe5b81612e6c57fe5b04612e74565b845b6005850154909150612e8c908263ffffffff612abe16565b6005850155612e9b8582612151565b9450612ed38c896000018981548110612eb057fe5b6000918252602090912001548b546001600160a01b039091169060018686613327565b50505050826001019250612ceb565b5050612f30565b6004830154612efe908663ffffffff612abe16565b60048401556005830154612f18908563ffffffff612abe16565b60058401558254612f30908790819060018989613327565b505050505050565b60008183612f595760405162461bcd60e51b815260040161080b9190614418565b506000838581612f6557fe5b0495945050505050565b6001600160a01b0382166000908152600c602052604081208054909190600b9060001914612f9e578254612fa1565b60005b81548110612fab57fe5b906000526020600020906002020190506000612fcf83600101548460020154612151565b905083811115612fdc5750825b6000612fe782613288565b8354909150156131e857818160005b60018601548110156131e0576000600c600088600001848154811061301757fe5b60009182526020808320909101546001600160a01b031683528201929092526040018120600189015490925060001901831490816130a25763ffffffff80166130958a600101868154811061306857fe5b600091825260209091206008820401548b916007166004026101000a900463ffffffff9081169061299f16565b8161309c57fe5b046130a4565b855b90506130b4836004015482612151565b83600401819055506130ff8a60030160008b60000187815481106130d457fe5b60009182526020808320909101546001600160a01b0316835282019290925260400190205482612151565b8a60030160008b600001878154811061311457fe5b60009182526020808320909101546001600160a01b031683528201929092526040019020556131438682612151565b95506000826131725763ffffffff80166131658b600101878154811061306857fe5b8161316c57fe5b04613174565b855b9050613184846005015482612151565b60058501556131938682612151565b955061319e846133fe565b6131d18d8b60000187815481106131b157fe5b60009182526020822001548e546001600160a01b03909116918686613327565b50505050806001019050612ff6565b50505061322b565b6131f6846004015483612151565b6004850155600584015461320a9082612151565b6005850155613218846133fe565b61322b8687866000015460008686613327565b81851115612f305761323e828603613288565b905061324e846005015482612151565b6005850155612f30846133fe565b600081848411156132805760405162461bcd60e51b815260040161080b9190614418565b505050900390565b6000610948600660009054906101000a90046001600160a01b03166001600160a01b031663182df0f56040518163ffffffff1660e01b815260040160206040518083038186803b1580156132db57600080fd5b505afa1580156132ef573d6000803e3d6000fd5b505050506040513d601f19601f820116820180604052506133139190810190613930565b6009546118ab90859063ffffffff61299f16565b6000600e6000868152602001908152602001600020905084866001600160a01b0316886001600160a01b03167f7fb238306664f9cc50083b666d8979f411dd72154c6e9bf558c76b39e14e7d29878787604051613386939291906143e1565b60405180910390a483156133cd5760018101546133a9908463ffffffff612abe16565b600182015560028101546133c3908363ffffffff612abe16565b60028201556133f5565b6133db816001015484612151565b600182015560028101546133ef9083612151565b60028201555b50505050505050565b600061340d826005015461263e565b90508160040154810382600201541115610d5d5760048201549003600290910155565b60405180610100016040528060008152602001600081526020016000815260200160008152602001600081526020016000815260200160008152602001600081525090565b828054600181600116156101000203166002900490600052602060002090601f016020900481019282601f106134b657805160ff19168380011785556134e3565b828001600101855582156134e3579182015b828111156134e35782518255916020019190600101906134c8565b50610c06929150613650565b828054828255906000526020600020908101928215613544579160200282015b8281111561354457825182546001600160a01b0319166001600160a01b0390911617825560209092019160019091019061350f565b50610c0692915061366a565b828054828255906000526020600020906007016008900481019282156135ef5791602002820160005b838211156135bd57835183826101000a81548163ffffffff021916908363ffffffff1602179055509260200192600401602081600301049283019260010302613579565b80156135ed5782816101000a81549063ffffffff02191690556004016020816003010492830192600103026135bd565b505b50610c0692915061368e565b60405180606001604052806000815260200160008152602001600081525090565b604051806040016040528060008152602001600081525090565b604051806040016040528060608152602001606081525090565b61095b91905b80821115610c065760008155600101613656565b61095b91905b80821115610c065780546001600160a01b0319168155600101613670565b61095b91905b80821115610c0657805463ffffffff19168155600101613694565b803561094881614776565b805161094881614776565b60008083601f8401126136d757600080fd5b50813567ffffffffffffffff8111156136ef57600080fd5b60208301915083602082028301111561370757600080fd5b9250929050565b80356109488161478a565b80516109488161478a565b805161094881614793565b80356109488161479c565b600082601f83011261374b57600080fd5b813561375e613759826146be565b614697565b9150808252602083016020830185838301111561377a57600080fd5b613785838284614734565b50505092915050565b803561094881614793565b6000602082840312156137ab57600080fd5b6000611a1584846136af565b6000602082840312156137c957600080fd5b6000611a1584846136ba565b600080604083850312156137e857600080fd5b60006137f485856136af565b9250506020613805858286016136af565b9150509250929050565b60008060006060848603121561382457600080fd5b600061383086866136af565b9350506020613841868287016136af565b92505060406138528682870161378e565b9150509250925092565b6000806040838503121561386f57600080fd5b600061387b85856136af565b92505060206138058582860161378e565b6000806000806000606086880312156138a457600080fd5b853567ffffffffffffffff8111156138bb57600080fd5b6138c7888289016136c5565b9550955050602086013567ffffffffffffffff8111156138e657600080fd5b6138f2888289016136c5565b935093505060406139058882890161370e565b9150509295509295909350565b60006020828403121561392457600080fd5b6000611a158484613719565b60006020828403121561394257600080fd5b6000611a158484613724565b60006020828403121561396057600080fd5b6000611a15848461372f565b6000806000806080858703121561398257600080fd5b600061398e878761372f565b945050602085013567ffffffffffffffff8111156139ab57600080fd5b6139b78782880161373a565b935050604085013567ffffffffffffffff8111156139d457600080fd5b6139e08782880161373a565b92505060606139f18782880161378e565b91505092959194509250565b600060208284031215613a0f57600080fd5b6000611a15848461378e565b600080600080600060608688031215613a3357600080fd5b6000613a3f888861378e565b955050602086013567ffffffffffffffff811115613a5c57600080fd5b613a68888289016136c5565b9450945050604086013567ffffffffffffffff811115613a8757600080fd5b613a93888289016136c5565b92509250509295509295909350565b60008060408385031215613ab557600080fd5b600061387b858561378e565b60008060408385031215613ad457600080fd5b6000613ae08585613724565b925050602061380585828601613724565b6000613afd8383613b20565b505060200190565b6000613afd8383614339565b613b1a81614729565b82525050565b613b1a816146f9565b6000613b34826146ec565b613b3e81856146f0565b9350613b49836146e6565b8060005b83811015613b77578151613b618882613af1565b9750613b6c836146e6565b925050600101613b4d565b509495945050505050565b6000613b8d826146ec565b613b9781856146f0565b9350613ba2836146e6565b8060005b83811015613b77578151613bba8882613b05565b9750613bc5836146e6565b925050600101613ba6565b613b1a81614704565b613b1a8161095b565b613b1a81614709565b6000613bf6826146ec565b613c0081856146f0565b9350613c10818560208601614740565b613c198161476c565b9093019392505050565b6000613c306015836146f0565b741858d8dc9d59525b9d195c995cdd0819985a5b1959605a1b815260200192915050565b6000613c616021836146f0565b7f4e6f7420656e6f75676820616c6c6f77616e636520666f72207472616e7366658152603960f91b602082015260400192915050565b6000613ca4600e836146f0565b6d4e6f7420636f6d70617469626c6560901b815260200192915050565b6000613cce6026836146f0565b7f4f776e61626c653a206e6577206f776e657220697320746865207a65726f206181526564647265737360d01b602082015260400192915050565b6000613d166020836146f0565b7f496e76616c6964206861743a206c656e677468206e6f74206d61746368696e67815260200192915050565b6000613d4f600e836146f0565b6d125b9d985b1a59081a185d08125160921b815260200192915050565b6000613d79601b836146f0565b7f536166654d6174683a206164646974696f6e206f766572666c6f770000000000815260200192915050565b6000613db26028836146f0565b7f496e76616c6964206861743a20726563697069656e742073686f756c64206e6f815267074206265203078360c41b602082015260400192915050565b6000613dfc6014836146f0565b731d1bdad95b88185c1c1c9bdd994819985a5b195960621b815260200192915050565b6000613e2c6029836146f0565b7f546865206c6962726172792068617320616c7265616479206265656e20696e698152683a34b0b634bd32b21760b91b602082015260400192915050565b6000613e77602e836146f0565b7f41646d696e2063616e206f6e6c79206368616e67652068617420666f7220636f81526d6e7472616374206164647265737360901b602082015260400192915050565b6000613ec76018836146f0565b7f7372632073686f756c64206e6f7420657175616c206473740000000000000000815260200192915050565b6000613f00601c836146f0565b7f4e6f7420656e6f7567682062616c616e636520746f2072656465656d00000000815260200192915050565b6000613f396032836146f0565b7f4e65772073747261746567792073686f756c642068617665207468652073616d81527119481d5b99195c9b1e5a5b99c8185cdcd95d60721b602082015260400192915050565b6000613f8d6015836146f0565b741d1bdad95b881d1c985b9cd9995c8819985a5b1959605a1b815260200192915050565b6000613fbe6021836146f0565b7f536166654d6174683a206d756c7469706c69636174696f6e206f766572666c6f8152607760f81b602082015260400192915050565b60006140016020836146f0565b7f4f776e61626c653a2063616c6c6572206973206e6f7420746865206f776e6572815260200192915050565b600061403a601e836146f0565b7f4e6f7420656e6f7567682062616c616e636520746f207472616e736665720000815260200192915050565b6000614073601c836146f0565b7f52656465656d20616d6f756e742063616e6e6f74206265207a65726f00000000815260200192915050565b60006140ac6014836146f0565b734e6f7420656e6f75676820616c6c6f77616e636560601b815260200192915050565b60006140dc6032836146f0565b7f496e76616c696c64206861743a206d6178696d756d206e756d626572206f66208152711c9958da5c1a595b9d1cc81c995858da195960721b602082015260400192915050565b60006141306033836146f0565b7f546865206c696272617279206973206c6f636b65642e204e6f206469726563748152721013b1b0b636139034b99030b63637bbb2b21760691b602082015260400192915050565b6000614185602f836146f0565b7f496e76616c6964206861743a2070726f706f7274696f6e2073686f756c64206281526e065206c6172676572207468616e203608c1b602082015260400192915050565b60006141d6601f836146f0565b7f5265656e7472616e637947756172643a207265656e7472616e742063616c6c00815260200192915050565b600061420f6023836146f0565b7f496e76616c6964206861743a206174206c65617374206f6e6520726563697069815262195b9d60ea1b602082015260400192915050565b80516101008301906142598482613bd9565b50602082015161426c6020850182613bd9565b50604082015161427f6040850182613bd9565b5060608201516142926060850182613bd9565b5060808201516142a56080850182613bd9565b5060a08201516142b860a0850182613bd9565b5060c08201516142cb60c0850182613bd9565b5060e0820151611bc060e0850182613bd9565b805160408301906142ef8482613bd9565b506020820151611bc06020850182613bd9565b805160608301906143138482613bd9565b5060208201516143266020850182613bd9565b506040820151611bc06040850182613bd9565b613b1a81614720565b602081016109488284613b20565b6040810161435e8285613b11565b61120b6020830184613b20565b606081016143798286613b11565b6143866020830185613b20565b611a156040830184613bd9565b604081016143a18285613b20565b61120b6020830184613bd9565b604080825281016143bf8185613b29565b90508181036020830152611a158184613b82565b602081016109488284613bd0565b606081016143ef8286613bd0565b6143866020830185613bd9565b602081016109488284613bd9565b602081016109488284613be2565b6020808252810161120b8184613beb565b6020808252810161094881613c23565b6020808252810161094881613c54565b6020808252810161094881613c97565b6020808252810161094881613cc1565b6020808252810161094881613d09565b6020808252810161094881613d42565b6020808252810161094881613d6c565b6020808252810161094881613da5565b6020808252810161094881613def565b6020808252810161094881613e1f565b6020808252810161094881613e6a565b6020808252810161094881613eba565b6020808252810161094881613ef3565b6020808252810161094881613f2c565b6020808252810161094881613f80565b6020808252810161094881613fb1565b6020808252810161094881613ff4565b602080825281016109488161402d565b6020808252810161094881614066565b602080825281016109488161409f565b60208082528101610948816140cf565b6020808252810161094881614123565b6020808252810161094881614178565b60208082528101610948816141c9565b6020808252810161094881614202565b61010081016109488284614247565b6040810161094882846142de565b606081016109488284614302565b606081016145f28286613bd9565b81810360208301526146048185613b29565b905081810360408301526146188184613b82565b95945050505050565b604081016143a18285613bd9565b606081016143ef8286613bd9565b60a0810161464b8288613bd9565b6146586020830187613bd9565b6146656040830186613bd9565b6146726060830185613bd9565b61467f6080830184613bd9565b9695505050505050565b602081016109488284614339565b60405181810167ffffffffffffffff811182821017156146b657600080fd5b604052919050565b600067ffffffffffffffff8211156146d557600080fd5b506020601f91909101601f19160190565b60200190565b5190565b90815260200190565b600061094882614714565b151590565b6000610948826146f9565b6001600160a01b031690565b63ffffffff1690565b600061094882614709565b82818337506000910152565b60005b8381101561475b578181015183820152602001614743565b83811115611bc05750506000910152565b601f01601f191690565b61477f816146f9565b81146114b457600080fd5b61477f81614704565b61477f8161095b565b61477f8161470956feddf252ad1be2c89b69c2b068fc378daa952ba7f163c4a11628f55a4df523b3efa365627a7a723158204080923ff4f180f7018bf58ea48e4fa24bc55e05de33f0d49830b03400ab73e06c6578706572696d656e74616cf564736f6c634300050c0040",
  "source": "/**\n * Because the use of ABIEncoderV2 , the pragma should be locked above 0.5.10 ,\n * as there is a known bug in array storage:\n * https://blog.ethereum.org/2019/06/25/solidity-storage-array-bugs/\n */\npragma solidity >=0.5.10 <0.6.0;\npragma experimental ABIEncoderV2;\n\nimport { RToken, IAllocationStrategy } from \"../RToken.sol\";\n\n/**\n * @notice RToken instantiation for rSAI (Redeemable SAI)\n */\ncontract rDAI is RToken {\n\n    function initialize (\n        IAllocationStrategy allocationStrategy) external {\n        RToken.initialize(allocationStrategy,\n            \"Redeemable DAI\",\n            \"rDAI\",\n            18);\n    }\n\n}\n",
  "sourcePath": "/home/thisguy/repos/rToken-project/rtoken-monorepo/packages/contracts/contracts/tokens/rDAI.sol",
  "compiler": {
    "name": "solc",
    "version": "0.5.12+commit.7709ece9.Emscripten.clang"
  },
  "schemaVersion": "3.0.21",
  "updatedAt": "2020-04-22T02:35:54.271Z",
  "devdoc": {
    "methods": {
      "changeAllocationStrategy(address)": {
        "details": "IRToken.changeAllocationStrategy implementation"
      },
      "changeHat(uint256)": {
        "details": "IRToken.changeHat implementation"
      },
      "changeHatFor(address,uint256)": {
        "details": "IRToken.changeHatFor implementation"
      },
      "createHat(address[],uint32[],bool)": {
        "details": "IRToken.createHat implementation"
      },
      "getAccountStats(address)": {
        "details": "IRToken.getAccountStats implementation"
      },
      "getCurrentAllocationStrategy()": {
        "details": "IRToken.changeHatFor implementation"
      },
      "getCurrentSavingStrategy()": {
        "details": "IRToken.getCurrentSavingStrategy implementation"
      },
      "getGlobalStats()": {
        "details": "IRToken.getAccountStats implementation!1"
      },
      "getHatByAddress(address)": {
        "details": "IRToken.getHatByAddress implementation"
      },
      "getHatByID(uint256)": {
        "details": "IRToken.getHatByID implementation"
      },
      "getHatStats(uint256)": {
        "details": "IRToken.getHatStats implementation"
      },
      "getMaximumHatID()": {
        "details": "IRToken.getMaximumHatID implementation"
      },
      "getSavingAssetBalance()": {
        "details": "IRToken.getSavingAssetBalance implementation"
      },
      "interestPayableOf(address)": {
        "details": "IRToken.interestPayableOf implementation"
      },
      "isOwner()": {
        "details": "Returns true if the caller is the current owner."
      },
      "mint(uint256)": {
        "details": "IRToken.mint implementation"
      },
      "mintWithNewHat(uint256,address[],uint32[])": {
        "details": "IRToken.mintWithNewHat implementation"
      },
      "mintWithSelectedHat(uint256,uint256)": {
        "details": "IRToken.mintWithSelectedHat implementation"
      },
      "owner()": {
        "details": "Returns the address of the current owner."
      },
      "payInterest(address)": {
        "details": "IRToken.payInterest implementation"
      },
      "receivedLoanOf(address)": {
        "details": "IRToken.receivedLoanOf implementation"
      },
      "receivedSavingsOf(address)": {
        "details": "IRToken.receivedSavingsOf implementation"
      },
      "redeem(uint256)": {
        "details": "IRToken.redeem implementation     It withdraws equal amount of initially supplied underlying assets"
      },
      "redeemAll()": {
        "details": "IRToken.redeemAll implementation"
      },
      "redeemAndTransfer(address,uint256)": {
        "details": "IRToken.redeemAndTransfer implementation"
      },
      "redeemAndTransferAll(address)": {
        "details": "IRToken.redeemAndTransferAll implementation"
      },
      "renounceOwnership()": {
        "details": "Leaves the contract without owner. It will not be possible to call `onlyOwner` functions anymore. Can only be called by the current owner.     * > Note: Renouncing ownership will leave the contract without an owner, thereby removing any functionality that is only available to the owner."
      },
      "transferAll(address)": {
        "details": "IRToken.transferAll implementation"
      },
      "transferAllFrom(address,address)": {
        "details": "IRToken.transferAllFrom implementation"
      },
      "transferOwnership(address)": {
        "details": "Transfers ownership of the contract to a new account (`newOwner`). Can only be called by the current owner."
      },
      "updateCode(address)": {
        "details": "Update the rToken logic contract code"
      }
    }
  },
  "userdoc": {
    "methods": {
      "allowance(address,address)": {
        "notice": "Returns the remaining number of tokens that `spender` will be allowed to spend on behalf of `owner` through `transferFrom`. This is zero by default.     * This value changes when `approve` or `transferFrom` are called."
      },
      "approve(address,uint256)": {
        "notice": "Sets `amount` as the allowance of `spender` over the caller's tokens.     * Returns a boolean value indicating whether the operation succeeded.     * > Beware that changing an allowance with this method brings the risk that someone may use both the old and the new allowance by unfortunate transaction ordering. One possible solution to mitigate this race condition is to first reduce the spender's allowance to 0 and set the desired value afterwards: https://github.com/ethereum/EIPs/issues/20#issuecomment-263524729     * Emits an `Approval` event."
      },
      "balanceOf(address)": {
        "notice": "Returns the amount of tokens owned by `account`."
      },
      "initialize(address,string,string,uint256)": {
        "notice": "Create rToken linked with cToken at `cToken_`"
      },
      "transfer(address,uint256)": {
        "notice": "Moves `amount` tokens from the caller's account to `dst`.     * Returns a boolean value indicating whether the operation succeeded.     * Emits a `Transfer` event. May also emit `InterestPaid` event."
      },
      "transferFrom(address,address,uint256)": {
        "notice": "Moves `amount` tokens from `sender` to `recipient` using the allowance mechanism. `amount` is then deducted from the caller's allowance.     * Returns a boolean value indicating whether the operation succeeded.     * Emits a `Transfer` event."
      }
    },
    "notice": "RToken instantiation for rSAI (Redeemable SAI)"
  }
}