{
  "contractName": "rSAI",
  "abi": [
    {
      "anonymous": false,
      "inputs": [
        {
          "indexed": false,
          "internalType": "address",
          "name": "strategy",
          "type": "address"
        },
        {
          "indexed": false,
          "internalType": "uint256",
          "name": "conversionRate",
          "type": "uint256"
        }
      ],
      "name": "AllocationStrategyChanged",
      "type": "event"
    },
    {
      "anonymous": false,
      "inputs": [
        {
          "indexed": true,
          "internalType": "address",
          "name": "owner",
          "type": "address"
        },
        {
          "indexed": true,
          "internalType": "address",
          "name": "spender",
          "type": "address"
        },
        {
          "indexed": false,
          "internalType": "uint256",
          "name": "value",
          "type": "uint256"
        }
      ],
      "name": "Approval",
      "type": "event"
    },
    {
      "anonymous": false,
      "inputs": [
        {
          "indexed": false,
          "internalType": "address",
          "name": "newCode",
          "type": "address"
        }
      ],
      "name": "CodeUpdated",
      "type": "event"
    },
    {
      "anonymous": false,
      "inputs": [
        {
          "indexed": true,
          "internalType": "address",
          "name": "account",
          "type": "address"
        },
        {
          "indexed": true,
          "internalType": "uint256",
          "name": "oldHatID",
          "type": "uint256"
        },
        {
          "indexed": true,
          "internalType": "uint256",
          "name": "newHatID",
          "type": "uint256"
        }
      ],
      "name": "HatChanged",
      "type": "event"
    },
    {
      "anonymous": false,
      "inputs": [
        {
          "indexed": true,
          "internalType": "uint256",
          "name": "hatID",
          "type": "uint256"
        }
      ],
      "name": "HatCreated",
      "type": "event"
    },
    {
      "anonymous": false,
      "inputs": [
        {
          "indexed": true,
          "internalType": "address",
          "name": "recipient",
          "type": "address"
        },
        {
          "indexed": false,
          "internalType": "uint256",
          "name": "amount",
          "type": "uint256"
        }
      ],
      "name": "InterestPaid",
      "type": "event"
    },
    {
      "anonymous": false,
      "inputs": [
        {
          "indexed": true,
          "internalType": "address",
          "name": "owner",
          "type": "address"
        },
        {
          "indexed": true,
          "internalType": "address",
          "name": "recipient",
          "type": "address"
        },
        {
          "indexed": true,
          "internalType": "uint256",
          "name": "hatId",
          "type": "uint256"
        },
        {
          "indexed": false,
          "internalType": "bool",
          "name": "isDistribution",
          "type": "bool"
        },
        {
          "indexed": false,
          "internalType": "uint256",
          "name": "redeemableAmount",
          "type": "uint256"
        },
        {
          "indexed": false,
          "internalType": "uint256",
          "name": "internalSavingsAmount",
          "type": "uint256"
        }
      ],
      "name": "LoansTransferred",
      "type": "event"
    },
    {
      "anonymous": false,
      "inputs": [
        {
          "indexed": true,
          "internalType": "address",
          "name": "previousOwner",
          "type": "address"
        },
        {
          "indexed": true,
          "internalType": "address",
          "name": "newOwner",
          "type": "address"
        }
      ],
      "name": "OwnershipTransferred",
      "type": "event"
    },
    {
      "anonymous": false,
      "inputs": [
        {
          "indexed": true,
          "internalType": "address",
          "name": "from",
          "type": "address"
        },
        {
          "indexed": true,
          "internalType": "address",
          "name": "to",
          "type": "address"
        },
        {
          "indexed": false,
          "internalType": "uint256",
          "name": "value",
          "type": "uint256"
        }
      ],
      "name": "Transfer",
      "type": "event"
    },
    {
      "constant": true,
      "inputs": [],
      "name": "ALLOCATION_STRATEGY_EXCHANGE_RATE_SCALE",
      "outputs": [
        {
          "internalType": "uint256",
          "name": "",
          "type": "uint256"
        }
      ],
      "payable": false,
      "stateMutability": "view",
      "type": "function"
    },
    {
      "constant": true,
      "inputs": [],
      "name": "INITIAL_SAVING_ASSET_CONVERSION_RATE",
      "outputs": [
        {
          "internalType": "uint256",
          "name": "",
          "type": "uint256"
        }
      ],
      "payable": false,
      "stateMutability": "view",
      "type": "function"
    },
    {
      "constant": true,
      "inputs": [],
      "name": "MAX_NUM_HAT_RECIPIENTS",
      "outputs": [
        {
          "internalType": "uint256",
          "name": "",
          "type": "uint256"
        }
      ],
      "payable": false,
      "stateMutability": "view",
      "type": "function"
    },
    {
      "constant": true,
      "inputs": [],
      "name": "MAX_UINT256",
      "outputs": [
        {
          "internalType": "uint256",
          "name": "",
          "type": "uint256"
        }
      ],
      "payable": false,
      "stateMutability": "view",
      "type": "function"
    },
    {
      "constant": true,
      "inputs": [],
      "name": "PROPORTION_BASE",
      "outputs": [
        {
          "internalType": "uint32",
          "name": "",
          "type": "uint32"
        }
      ],
      "payable": false,
      "stateMutability": "view",
      "type": "function"
    },
    {
      "constant": true,
      "inputs": [],
      "name": "SELF_HAT_ID",
      "outputs": [
        {
          "internalType": "uint256",
          "name": "",
          "type": "uint256"
        }
      ],
      "payable": false,
      "stateMutability": "view",
      "type": "function"
    },
    {
      "constant": true,
      "inputs": [],
      "name": "_guardCounter",
      "outputs": [
        {
          "internalType": "uint256",
          "name": "",
          "type": "uint256"
        }
      ],
      "payable": false,
      "stateMutability": "view",
      "type": "function"
    },
    {
      "constant": true,
      "inputs": [],
      "name": "_owner",
      "outputs": [
        {
          "internalType": "address",
          "name": "",
          "type": "address"
        }
      ],
      "payable": false,
      "stateMutability": "view",
      "type": "function"
    },
    {
      "constant": true,
      "inputs": [
        {
          "internalType": "address",
          "name": "",
          "type": "address"
        }
      ],
      "name": "accountStats",
      "outputs": [
        {
          "internalType": "uint256",
          "name": "cumulativeInterest",
          "type": "uint256"
        }
      ],
      "payable": false,
      "stateMutability": "view",
      "type": "function"
    },
    {
      "constant": true,
      "inputs": [
        {
          "internalType": "address",
          "name": "",
          "type": "address"
        }
      ],
      "name": "accounts",
      "outputs": [
        {
          "internalType": "uint256",
          "name": "hatID",
          "type": "uint256"
        },
        {
          "internalType": "uint256",
          "name": "rAmount",
          "type": "uint256"
        },
        {
          "internalType": "uint256",
          "name": "rInterest",
          "type": "uint256"
        },
        {
          "internalType": "uint256",
          "name": "lDebt",
          "type": "uint256"
        },
        {
          "internalType": "uint256",
          "name": "sInternalAmount",
          "type": "uint256"
        }
      ],
      "payable": false,
      "stateMutability": "view",
      "type": "function"
    },
    {
      "constant": true,
      "inputs": [
        {
          "internalType": "address",
          "name": "owner",
          "type": "address"
        },
        {
          "internalType": "address",
          "name": "spender",
          "type": "address"
        }
      ],
      "name": "allowance",
      "outputs": [
        {
          "internalType": "uint256",
          "name": "",
          "type": "uint256"
        }
      ],
      "payable": false,
      "stateMutability": "view",
      "type": "function"
    },
    {
      "constant": false,
      "inputs": [
        {
          "internalType": "address",
          "name": "spender",
          "type": "address"
        },
        {
          "internalType": "uint256",
          "name": "amount",
          "type": "uint256"
        }
      ],
      "name": "approve",
      "outputs": [
        {
          "internalType": "bool",
          "name": "",
          "type": "bool"
        }
      ],
      "payable": false,
      "stateMutability": "nonpayable",
      "type": "function"
    },
    {
      "constant": true,
      "inputs": [
        {
          "internalType": "address",
          "name": "owner",
          "type": "address"
        }
      ],
      "name": "balanceOf",
      "outputs": [
        {
          "internalType": "uint256",
          "name": "",
          "type": "uint256"
        }
      ],
      "payable": false,
      "stateMutability": "view",
      "type": "function"
    },
    {
      "constant": false,
      "inputs": [
        {
          "internalType": "address",
          "name": "allocationStrategy_",
          "type": "address"
        }
      ],
      "name": "changeAllocationStrategy",
      "outputs": [],
      "payable": false,
      "stateMutability": "nonpayable",
      "type": "function"
    },
    {
      "constant": false,
      "inputs": [
        {
          "internalType": "uint256",
          "name": "hatID",
          "type": "uint256"
        }
      ],
      "name": "changeHat",
      "outputs": [
        {
          "internalType": "bool",
          "name": "",
          "type": "bool"
        }
      ],
      "payable": false,
      "stateMutability": "nonpayable",
      "type": "function"
    },
    {
      "constant": false,
      "inputs": [
        {
          "internalType": "address",
          "name": "contractAddress",
          "type": "address"
        },
        {
          "internalType": "uint256",
          "name": "hatID",
          "type": "uint256"
        }
      ],
      "name": "changeHatFor",
      "outputs": [],
      "payable": false,
      "stateMutability": "nonpayable",
      "type": "function"
    },
    {
      "constant": false,
      "inputs": [
        {
          "internalType": "address[]",
          "name": "recipients",
          "type": "address[]"
        },
        {
          "internalType": "uint32[]",
          "name": "proportions",
          "type": "uint32[]"
        },
        {
          "internalType": "bool",
          "name": "doChangeHat",
          "type": "bool"
        }
      ],
      "name": "createHat",
      "outputs": [
        {
          "internalType": "uint256",
          "name": "hatID",
          "type": "uint256"
        }
      ],
      "payable": false,
      "stateMutability": "nonpayable",
      "type": "function"
    },
    {
      "constant": true,
      "inputs": [],
      "name": "decimals",
      "outputs": [
        {
          "internalType": "uint256",
          "name": "",
          "type": "uint256"
        }
      ],
      "payable": false,
      "stateMutability": "view",
      "type": "function"
    },
    {
      "constant": true,
      "inputs": [
        {
          "internalType": "address",
          "name": "owner",
          "type": "address"
        }
      ],
      "name": "getAccountStats",
      "outputs": [
        {
          "components": [
            {
              "internalType": "uint256",
              "name": "hatID",
              "type": "uint256"
            },
            {
              "internalType": "uint256",
              "name": "rAmount",
              "type": "uint256"
            },
            {
              "internalType": "uint256",
              "name": "rInterest",
              "type": "uint256"
            },
            {
              "internalType": "uint256",
              "name": "lDebt",
              "type": "uint256"
            },
            {
              "internalType": "uint256",
              "name": "sInternalAmount",
              "type": "uint256"
            },
            {
              "internalType": "uint256",
              "name": "rInterestPayable",
              "type": "uint256"
            },
            {
              "internalType": "uint256",
              "name": "cumulativeInterest",
              "type": "uint256"
            },
            {
              "internalType": "uint256",
              "name": "lRecipientsSum",
              "type": "uint256"
            }
          ],
          "internalType": "struct RTokenStructs.AccountStatsView",
          "name": "stats",
          "type": "tuple"
        }
      ],
      "payable": false,
      "stateMutability": "view",
      "type": "function"
    },
    {
      "constant": true,
      "inputs": [],
      "name": "getCurrentAllocationStrategy",
      "outputs": [
        {
          "internalType": "address",
          "name": "allocationStrategy",
          "type": "address"
        }
      ],
      "payable": false,
      "stateMutability": "view",
      "type": "function"
    },
    {
      "constant": true,
      "inputs": [],
      "name": "getCurrentSavingStrategy",
      "outputs": [
        {
          "internalType": "address",
          "name": "",
          "type": "address"
        }
      ],
      "payable": false,
      "stateMutability": "view",
      "type": "function"
    },
    {
      "constant": true,
      "inputs": [],
      "name": "getGlobalStats",
      "outputs": [
        {
          "components": [
            {
              "internalType": "uint256",
              "name": "totalSupply",
              "type": "uint256"
            },
            {
              "internalType": "uint256",
              "name": "totalSavingsAmount",
              "type": "uint256"
            }
          ],
          "internalType": "struct RTokenStructs.GlobalStats",
          "name": "",
          "type": "tuple"
        }
      ],
      "payable": false,
      "stateMutability": "view",
      "type": "function"
    },
    {
      "constant": true,
      "inputs": [
        {
          "internalType": "address",
          "name": "owner",
          "type": "address"
        }
      ],
      "name": "getHatByAddress",
      "outputs": [
        {
          "internalType": "uint256",
          "name": "hatID",
          "type": "uint256"
        },
        {
          "internalType": "address[]",
          "name": "recipients",
          "type": "address[]"
        },
        {
          "internalType": "uint32[]",
          "name": "proportions",
          "type": "uint32[]"
        }
      ],
      "payable": false,
      "stateMutability": "view",
      "type": "function"
    },
    {
      "constant": true,
      "inputs": [
        {
          "internalType": "uint256",
          "name": "hatID",
          "type": "uint256"
        }
      ],
      "name": "getHatByID",
      "outputs": [
        {
          "internalType": "address[]",
          "name": "recipients",
          "type": "address[]"
        },
        {
          "internalType": "uint32[]",
          "name": "proportions",
          "type": "uint32[]"
        }
      ],
      "payable": false,
      "stateMutability": "view",
      "type": "function"
    },
    {
      "constant": true,
      "inputs": [
        {
          "internalType": "uint256",
          "name": "hatID",
          "type": "uint256"
        }
      ],
      "name": "getHatStats",
      "outputs": [
        {
          "components": [
            {
              "internalType": "uint256",
              "name": "useCount",
              "type": "uint256"
            },
            {
              "internalType": "uint256",
              "name": "totalLoans",
              "type": "uint256"
            },
            {
              "internalType": "uint256",
              "name": "totalSavings",
              "type": "uint256"
            }
          ],
          "internalType": "struct RTokenStructs.HatStatsView",
          "name": "stats",
          "type": "tuple"
        }
      ],
      "payable": false,
      "stateMutability": "view",
      "type": "function"
    },
    {
      "constant": true,
      "inputs": [],
      "name": "getMaximumHatID",
      "outputs": [
        {
          "internalType": "uint256",
          "name": "hatID",
          "type": "uint256"
        }
      ],
      "payable": false,
      "stateMutability": "view",
      "type": "function"
    },
    {
      "constant": true,
      "inputs": [],
      "name": "getSavingAssetBalance",
      "outputs": [
        {
          "internalType": "uint256",
          "name": "rAmount",
          "type": "uint256"
        },
        {
          "internalType": "uint256",
          "name": "sOriginalAmount",
          "type": "uint256"
        }
      ],
      "payable": false,
      "stateMutability": "view",
      "type": "function"
    },
    {
      "constant": true,
      "inputs": [
        {
          "internalType": "uint256",
          "name": "",
          "type": "uint256"
        }
      ],
      "name": "hatStats",
      "outputs": [
        {
          "internalType": "uint256",
          "name": "useCount",
          "type": "uint256"
        },
        {
          "internalType": "uint256",
          "name": "totalLoans",
          "type": "uint256"
        },
        {
          "internalType": "uint256",
          "name": "totalInternalSavings",
          "type": "uint256"
        }
      ],
      "payable": false,
      "stateMutability": "view",
      "type": "function"
    },
    {
      "constant": true,
      "inputs": [],
      "name": "ias",
      "outputs": [
        {
          "internalType": "contract IAllocationStrategy",
          "name": "",
          "type": "address"
        }
      ],
      "payable": false,
      "stateMutability": "view",
      "type": "function"
    },
    {
      "constant": false,
      "inputs": [
        {
          "internalType": "contract IAllocationStrategy",
          "name": "allocationStrategy",
          "type": "address"
        },
        {
          "internalType": "string",
          "name": "name_",
          "type": "string"
        },
        {
          "internalType": "string",
          "name": "symbol_",
          "type": "string"
        },
        {
          "internalType": "uint256",
          "name": "decimals_",
          "type": "uint256"
        }
      ],
      "name": "initialize",
      "outputs": [],
      "payable": false,
      "stateMutability": "nonpayable",
      "type": "function"
    },
    {
      "constant": true,
      "inputs": [],
      "name": "initialized",
      "outputs": [
        {
          "internalType": "bool",
          "name": "",
          "type": "bool"
        }
      ],
      "payable": false,
      "stateMutability": "view",
      "type": "function"
    },
    {
      "constant": true,
      "inputs": [
        {
          "internalType": "address",
          "name": "owner",
          "type": "address"
        }
      ],
      "name": "interestPayableOf",
      "outputs": [
        {
          "internalType": "uint256",
          "name": "amount",
          "type": "uint256"
        }
      ],
      "payable": false,
      "stateMutability": "view",
      "type": "function"
    },
    {
      "constant": true,
      "inputs": [],
      "name": "isOwner",
      "outputs": [
        {
          "internalType": "bool",
          "name": "",
          "type": "bool"
        }
      ],
      "payable": false,
      "stateMutability": "view",
      "type": "function"
    },
    {
      "constant": false,
      "inputs": [
        {
          "internalType": "uint256",
          "name": "mintAmount",
          "type": "uint256"
        }
      ],
      "name": "mint",
      "outputs": [
        {
          "internalType": "bool",
          "name": "",
          "type": "bool"
        }
      ],
      "payable": false,
      "stateMutability": "nonpayable",
      "type": "function"
    },
    {
      "constant": false,
      "inputs": [
        {
          "internalType": "uint256",
          "name": "mintAmount",
          "type": "uint256"
        },
        {
          "internalType": "address[]",
          "name": "recipients",
          "type": "address[]"
        },
        {
          "internalType": "uint32[]",
          "name": "proportions",
          "type": "uint32[]"
        }
      ],
      "name": "mintWithNewHat",
      "outputs": [
        {
          "internalType": "bool",
          "name": "",
          "type": "bool"
        }
      ],
      "payable": false,
      "stateMutability": "nonpayable",
      "type": "function"
    },
    {
      "constant": false,
      "inputs": [
        {
          "internalType": "uint256",
          "name": "mintAmount",
          "type": "uint256"
        },
        {
          "internalType": "uint256",
          "name": "hatID",
          "type": "uint256"
        }
      ],
      "name": "mintWithSelectedHat",
      "outputs": [
        {
          "internalType": "bool",
          "name": "",
          "type": "bool"
        }
      ],
      "payable": false,
      "stateMutability": "nonpayable",
      "type": "function"
    },
    {
      "constant": true,
      "inputs": [],
      "name": "name",
      "outputs": [
        {
          "internalType": "string",
          "name": "",
          "type": "string"
        }
      ],
      "payable": false,
      "stateMutability": "view",
      "type": "function"
    },
    {
      "constant": true,
      "inputs": [],
      "name": "owner",
      "outputs": [
        {
          "internalType": "address",
          "name": "",
          "type": "address"
        }
      ],
      "payable": false,
      "stateMutability": "view",
      "type": "function"
    },
    {
      "constant": false,
      "inputs": [
        {
          "internalType": "address",
          "name": "owner",
          "type": "address"
        }
      ],
      "name": "payInterest",
      "outputs": [
        {
          "internalType": "bool",
          "name": "",
          "type": "bool"
        }
      ],
      "payable": false,
      "stateMutability": "nonpayable",
      "type": "function"
    },
    {
      "constant": true,
      "inputs": [],
      "name": "proxiableUUID",
      "outputs": [
        {
          "internalType": "bytes32",
          "name": "",
          "type": "bytes32"
        }
      ],
      "payable": false,
      "stateMutability": "pure",
      "type": "function"
    },
    {
      "constant": true,
      "inputs": [
        {
          "internalType": "address",
          "name": "owner",
          "type": "address"
        }
      ],
      "name": "receivedLoanOf",
      "outputs": [
        {
          "internalType": "uint256",
          "name": "amount",
          "type": "uint256"
        }
      ],
      "payable": false,
      "stateMutability": "view",
      "type": "function"
    },
    {
      "constant": true,
      "inputs": [
        {
          "internalType": "address",
          "name": "owner",
          "type": "address"
        }
      ],
      "name": "receivedSavingsOf",
      "outputs": [
        {
          "internalType": "uint256",
          "name": "amount",
          "type": "uint256"
        }
      ],
      "payable": false,
      "stateMutability": "view",
      "type": "function"
    },
    {
      "constant": false,
      "inputs": [
        {
          "internalType": "uint256",
          "name": "redeemTokens",
          "type": "uint256"
        }
      ],
      "name": "redeem",
      "outputs": [
        {
          "internalType": "bool",
          "name": "",
          "type": "bool"
        }
      ],
      "payable": false,
      "stateMutability": "nonpayable",
      "type": "function"
    },
    {
      "constant": false,
      "inputs": [],
      "name": "redeemAll",
      "outputs": [
        {
          "internalType": "bool",
          "name": "",
          "type": "bool"
        }
      ],
      "payable": false,
      "stateMutability": "nonpayable",
      "type": "function"
    },
    {
      "constant": false,
      "inputs": [
        {
          "internalType": "address",
          "name": "redeemTo",
          "type": "address"
        },
        {
          "internalType": "uint256",
          "name": "redeemTokens",
          "type": "uint256"
        }
      ],
      "name": "redeemAndTransfer",
      "outputs": [
        {
          "internalType": "bool",
          "name": "",
          "type": "bool"
        }
      ],
      "payable": false,
      "stateMutability": "nonpayable",
      "type": "function"
    },
    {
      "constant": false,
      "inputs": [
        {
          "internalType": "address",
          "name": "redeemTo",
          "type": "address"
        }
      ],
      "name": "redeemAndTransferAll",
      "outputs": [
        {
          "internalType": "bool",
          "name": "",
          "type": "bool"
        }
      ],
      "payable": false,
      "stateMutability": "nonpayable",
      "type": "function"
    },
    {
      "constant": false,
      "inputs": [],
      "name": "renounceOwnership",
      "outputs": [],
      "payable": false,
      "stateMutability": "nonpayable",
      "type": "function"
    },
    {
      "constant": true,
      "inputs": [],
      "name": "savingAssetConversionRate",
      "outputs": [
        {
          "internalType": "uint256",
          "name": "",
          "type": "uint256"
        }
      ],
      "payable": false,
      "stateMutability": "view",
      "type": "function"
    },
    {
      "constant": true,
      "inputs": [],
      "name": "savingAssetOrignalAmount",
      "outputs": [
        {
          "internalType": "uint256",
          "name": "",
          "type": "uint256"
        }
      ],
      "payable": false,
      "stateMutability": "view",
      "type": "function"
    },
    {
      "constant": true,
      "inputs": [],
      "name": "symbol",
      "outputs": [
        {
          "internalType": "string",
          "name": "",
          "type": "string"
        }
      ],
      "payable": false,
      "stateMutability": "view",
      "type": "function"
    },
    {
      "constant": true,
      "inputs": [],
      "name": "token",
      "outputs": [
        {
          "internalType": "contract IERC20",
          "name": "",
          "type": "address"
        }
      ],
      "payable": false,
      "stateMutability": "view",
      "type": "function"
    },
    {
      "constant": true,
      "inputs": [],
      "name": "totalSupply",
      "outputs": [
        {
          "internalType": "uint256",
          "name": "",
          "type": "uint256"
        }
      ],
      "payable": false,
      "stateMutability": "view",
      "type": "function"
    },
    {
      "constant": false,
      "inputs": [
        {
          "internalType": "address",
          "name": "dst",
          "type": "address"
        },
        {
          "internalType": "uint256",
          "name": "amount",
          "type": "uint256"
        }
      ],
      "name": "transfer",
      "outputs": [
        {
          "internalType": "bool",
          "name": "",
          "type": "bool"
        }
      ],
      "payable": false,
      "stateMutability": "nonpayable",
      "type": "function"
    },
    {
      "constant": false,
      "inputs": [
        {
          "internalType": "address",
          "name": "dst",
          "type": "address"
        }
      ],
      "name": "transferAll",
      "outputs": [
        {
          "internalType": "bool",
          "name": "",
          "type": "bool"
        }
      ],
      "payable": false,
      "stateMutability": "nonpayable",
      "type": "function"
    },
    {
      "constant": false,
      "inputs": [
        {
          "internalType": "address",
          "name": "src",
          "type": "address"
        },
        {
          "internalType": "address",
          "name": "dst",
          "type": "address"
        }
      ],
      "name": "transferAllFrom",
      "outputs": [
        {
          "internalType": "bool",
          "name": "",
          "type": "bool"
        }
      ],
      "payable": false,
      "stateMutability": "nonpayable",
      "type": "function"
    },
    {
      "constant": true,
      "inputs": [
        {
          "internalType": "address",
          "name": "",
          "type": "address"
        },
        {
          "internalType": "address",
          "name": "",
          "type": "address"
        }
      ],
      "name": "transferAllowances",
      "outputs": [
        {
          "internalType": "uint256",
          "name": "",
          "type": "uint256"
        }
      ],
      "payable": false,
      "stateMutability": "view",
      "type": "function"
    },
    {
      "constant": false,
      "inputs": [
        {
          "internalType": "address",
          "name": "src",
          "type": "address"
        },
        {
          "internalType": "address",
          "name": "dst",
          "type": "address"
        },
        {
          "internalType": "uint256",
          "name": "amount",
          "type": "uint256"
        }
      ],
      "name": "transferFrom",
      "outputs": [
        {
          "internalType": "bool",
          "name": "",
          "type": "bool"
        }
      ],
      "payable": false,
      "stateMutability": "nonpayable",
      "type": "function"
    },
    {
      "constant": false,
      "inputs": [
        {
          "internalType": "address",
          "name": "newOwner",
          "type": "address"
        }
      ],
      "name": "transferOwnership",
      "outputs": [],
      "payable": false,
      "stateMutability": "nonpayable",
      "type": "function"
    },
    {
      "constant": false,
      "inputs": [
        {
          "internalType": "address",
          "name": "newCode",
          "type": "address"
        }
      ],
      "name": "updateCode",
      "outputs": [],
      "payable": false,
      "stateMutability": "nonpayable",
      "type": "function"
    },
    {
      "constant": false,
      "inputs": [],
      "name": "updateTokenInfo",
      "outputs": [],
      "payable": false,
      "stateMutability": "nonpayable",
      "type": "function"
    }
  ],
  "bytecode": "0x60806040819052600080546001600160a01b03191633178082556001600160a01b0316917f8be0079c531659141344cd1fd0a4f28419497f9722a3daafe3b4186f6b6457e0908290a3614815806100576000396000f3fe608060405234801561001057600080fd5b50600436106103a45760003560e01c806370a08231116101e9578063bf5bfdfb1161010f578063d8884795116100ad578063f04bf8b31161007c578063f04bf8b31461074c578063f2fde38b1461076e578063fc0c546a14610781578063fdbbf8ac14610789576103a4565b8063d888479514610708578063db006a751461071e578063dd62ed3e14610731578063e192782b14610744576103a4565b8063c200659e116100e9578063c200659e146106c7578063d007c644146106cf578063d271be3f146106e2578063d3ac25c4146106f5576103a4565b8063bf5bfdfb146106bf578063c034d0db146104f5578063c1a2007d14610431576103a4565b80638f32d59b11610187578063a573fe1f11610156578063a573fe1f14610689578063a9059cbb14610691578063b2bdfa7b146106a4578063b5dbfc1a146106ac576103a4565b80638f32d59b1461065357806395d89b411461065b578063a0712d6814610663578063a3a7e7f314610676576103a4565b806377ede051116101c357806377ede0511461062557806381c8d895146103d257806384d4b410146106385780638da5cb5b1461064b576103a4565b806370a0823114610602578063715018a61461061557806371ee46eb1461061d576103a4565b8063313ce567116102ce5780634d12d4b61161026c5780635cde50551161023b5780635cde5055146105a35780635e5c06e2146105b657806363152a50146105da5780636b4169c3146105ed576103a4565b80634d12d4b6146105535780634fd7c0dd1461056657806352d1902d14610586578063556043ef1461058e576103a4565b80633e20a929116102a85780633e20a9291461051057806346951954146105185780634929fbf71461052d578063496cc16414610540576103a4565b8063313ce567146104ed57806333a581d2146104f5578063388c0b8c146104fd576103a4565b8063158ef93e1161034657806323b872dd1161031557806323b872dd1461049f57806328cdfaeb146104b25780632f2ba814146104d25780632f4350c2146104e5576103a4565b8063158ef93e1461045957806318160ddd146104615780631cda95d514610469578063226e835c1461048a576103a4565b806306fdde031161038257806306fdde0314610409578063095ea7b31461041e57806310f3a6d81461043157806313e23e4114610446576103a4565b80630290cbc8146103a9578063039ab887146103d2578063054ab01a146103e7575b600080fd5b6103bc6103b73660046137c4565b61079c565b6040516103c991906143e0565b60405180910390f35b6103da61080f565b6040516103c99190614409565b6103fa6103f53660046137c4565b61081b565b6040516103c9939291906145f1565b61041161084a565b6040516103c99190614425565b6103bc61042c366004613887565b6108d5565b610439610943565b6040516103c9919061434f565b6103da6104543660046137c4565b610953565b6103bc610975565b6103da610985565b61047c610477366004613a0a565b61098b565b6040516103c99291906143bb565b6104926109a1565b6040516103c99190614696565b6103bc6104ad36600461383a565b6109a9565b6104c56104c03660046137c4565b610a01565b6040516103c991906145c6565b6103bc6104e0366004613a0a565b610b52565b6103bc610b97565b6103da610bff565b6103da610c05565b6103bc61050b366004613aaf565b610c0b565b6103da610c60565b61052b6105263660046137c4565b610c6a565b005b61052b61053b366004613887565b610cff565b6103da61054e3660046137c4565b610d56565b61052b610561366004613979565b610d68565b610579610574366004613a0a565b610fa5565b6040516103c991906145e3565b6103da610fe7565b61059661100b565b6040516103c99190614417565b6103da6105b13660046138b7565b61101a565b6105c96105c43660046137c4565b6110d1565b6040516103c995949392919061464a565b6103da6105e8366004613800565b611100565b6105f561111d565b6040516103c991906145d5565b6103da6106103660046137c4565b61114d565b61052b61116b565b6103da6111d9565b6103da6106333660046137c4565b6111df565b6103bc610646366004613800565b611207565b610439611251565b6103bc611260565b610411611271565b6103bc610671366004613a0a565b6112cc565b6103bc6106843660046137c4565b6112e2565b61052b61132d565b6103bc61069f366004613887565b6113b5565b610439611407565b6103bc6106ba366004613a28565b611416565b6103da6114d6565b6103da6114dc565b6103bc6106dd3660046137c4565b6114e2565b6103bc6106f0366004613887565b6114f8565b61052b6107033660046137c4565b611519565b610710611955565b6040516103c992919061462e565b6103bc61072c366004613a0a565b61196a565b6103da61073f366004613800565b61198b565b6103da6119b6565b61075f61075a366004613a0a565b6119bb565b6040516103c99392919061463c565b61052b61077c3660046137c4565b6119dc565b610596611a09565b6103da6107973660046137c4565b611a18565b60018054810190819055600090336107b381611a48565b6001600160a01b0381166000908152600c60205260409020600101546107da908590611bf1565b600192505060015481146108095760405162461bcd60e51b8152600401610800906145a6565b60405180910390fd5b50919050565b670de0b6b3a764000081565b6001600160a01b0381166000908152600c602052604090205460608061084083611d4b565b9395909450915050565b6002805460408051602060018416156101000260001901909316849004601f810184900484028201840190925281815292918301828280156108cd5780601f106108a2576101008083540402835291602001916108cd565b820191906000526020600020905b8154815290600101906020018083116108b057829003601f168201915b505050505081565b336000818152600a602090815260408083206001600160a01b03871680855292528083208590555191929182907f8c5be1e5ebec7d5bd14f71427d1e84f3dd0314c0f7b2291e5b200ac8c7c3b9259061092f908790614409565b60405180910390a360019150505b92915050565b6006546001600160a01b03165b90565b6001600160a01b0381166000908152600c60205260409020600401545b919050565b600054600160a01b900460ff1681565b60055481565b60608061099783611d4b565b9094909350915050565b63ffffffff81565b600180548101908190556000906109bf85611a48565b6109cb33868686611ead565b6109d484611a48565b6001915060015481146109f95760405162461bcd60e51b8152600401610800906145a6565b509392505050565b610a0961345b565b6001600160a01b0382166000908152600c6020908152604091829020805484526001810154918401919091526002810154918301919091526004810154606083015260058101546080830152610a5e81612129565b60a08301526001600160a01b0383166000908152600d60205260408120805460c08501528254909190600b9060001914610a99578354610a9c565b60005b81548110610aa657fe5b90600052602060002090600202019050826000015460001480610acb57508254600019145b15610aec57610ae28460200151856040015161217c565b60e0850152610b4a565b60005b6001820154811015610b4857836003016000836000018381548110610b1057fe5b60009182526020808320909101546001600160a01b0316835282019290925260400190205460e0860180519091019052600101610aef565b505b505050919050565b60018054810190819055600090610b693384612197565b610b7233611a48565b6001915060015481146108095760405162461bcd60e51b8152600401610800906145a6565b6001805481019081905560009033610bae81611a48565b6001600160a01b0381166000908152600c6020526040902060010154610bd5908290611bf1565b60019250506001548114610bfb5760405162461bcd60e51b8152600401610800906145a6565b5090565b60045481565b60001981565b60018054810190819055600090610c223384612197565b610c2b8461227d565b610c3433611a48565b600191506001548114610c595760405162461bcd60e51b8152600401610800906145a6565b5092915050565b600b546000190190565b610c72611260565b610c8e5760405162461bcd60e51b815260040161080090614536565b600054600160a01b900460ff161515600114610cbc5760405162461bcd60e51b815260040161080090614586565b610cc58161257b565b7f34459cf4c63f38e9b4af4ff8f74035bad6157484e669ffde70188afdf9917c6881604051610cf4919061434f565b60405180910390a150565b610d07611260565b610d235760405162461bcd60e51b815260040161080090614536565b610d2c8261264e565b610d485760405162461bcd60e51b8152600401610800906144d6565b610d528282612197565b5050565b600d6020526000908152604090205481565b600054600160a01b900460ff1615610d925760405162461bcd60e51b8152600401610800906144c6565b610d9a612654565b600080546001600160a01b03191633179055600180558251610dc39060029060208601906134a0565b508151610dd79060039060208501906134a0565b506004818155670de0b6b3a7640000600955600680546001600160a01b0319166001600160a01b03878116919091179182905560408051636f307dc360e01b815290519290911692636f307dc3928282019260209290829003018186803b158015610e4157600080fd5b505afa158015610e55573d6000803e3d6000fd5b505050506040513d601f19601f82011682018060405250610e7991908101906137e2565b600780546001600160a01b03929092166001600160a01b031990921691909117905560408051600081830181815260608301845282528251818152602080820190945283830152600b8054600181018083559190925282518051919460029093027f0175b7a638427703f0dbe7bb9bbf987a2551717b34e79f33b5b1008d1fa01db90192610f0c9284929091019061351a565b506020828101518051610f25926001850192019061357b565b5050600080525050600e6020526000197fe710864318d4a32f37d6ce54cb3fadbef648dd12d8dbdf53973564d56b7f881c556006546009546040517faa54229fa6d6451d2cd5d13b5bc60f1230a0f79091118926e9b95d8f4811713a92610f97926001600160a01b03909116916143a0565b60405180910390a150505050565b610fad613626565b6000828152600e60209081526040909120805483526001810154918301919091526002810154610fdc90612669565b604083015250919050565b7fc5f16f0fcc639fa48a6947836d9850f504798523bf8c9a3a87d5876cf622bcf790565b6006546001600160a01b031681565b6001805481019081905560408051602080880282810182019093528782526000939261109492918a918a9182919085019084908082843760009201919091525050604080516020808b0282810182019093528a82529093508a92508991829185019084908082843760009201919091525061270792505050565b915082156110a6576110a63383612197565b60015481146110c75760405162461bcd60e51b8152600401610800906145a6565b5095945050505050565b600c60205260009081526040902080546001820154600283015460048401546005909401549293919290919085565b600a60209081526000928352604080842090915290825290205481565b611125613647565b6000611132600854612948565b60408051808201909152600554815291016020820152905090565b6001600160a01b03166000908152600c602052604090206001015490565b611173611260565b61118f5760405162461bcd60e51b815260040161080090614536565b600080546040516001600160a01b03909116907f8be0079c531659141344cd1fd0a4f28419497f9722a3daafe3b4186f6b6457e0908390a3600080546001600160a01b0319169055565b60085481565b6001600160a01b0381166000908152600c6020526040812061120081612129565b9392505050565b6001805481019081905560009061121d84611a48565b6001600160a01b0384166000908152600c602052604090206001015461124890339086908690611ead565b610c3483611a48565b6000546001600160a01b031690565b6000546001600160a01b0316331490565b6003805460408051602060026001851615610100026000190190941693909304601f810184900484028201840190925281815292918301828280156108cd5780601f106108a2576101008083540402835291602001916108cd565b60018054810190819055600090610b698361227d565b60018054810190819055600090336112f981611a48565b6001600160a01b0381166000908152600c602052604090206001015461132490829081908790611ead565b6107da84611a48565b611335611260565b6113515760405162461bcd60e51b815260040161080090614536565b60408051808201909152600e8082526d52656465656d61626c652053414960901b6020909201918252611386916002916134a0565b50604080518082019091526004808252637253414960e01b60209092019182526113b2916003916134a0565b50565b60018054810190819055600090336113cc81611a48565b6113d881828787611ead565b6113e185611a48565b60019250506001548114610c595760405162461bcd60e51b8152600401610800906145a6565b6000546001600160a01b031681565b6001805481019081905560408051602080870282810182019093528682526000939284926114929290918a918a91829185019084908082843760009201919091525050604080516020808b0282810182019093528a82529093508a92508991829185019084908082843760009201919091525061270792505050565b905061149e3382612197565b6114a78861227d565b6114b033611a48565b600192505060015481146110c75760405162461bcd60e51b8152600401610800906145a6565b60015481565b60095481565b60018054810190819055600090610b7283611a48565b600180548101908190556000903361150f81611a48565b6113e18585611bf1565b6001805481019081905561152b611260565b6115475760405162461bcd60e51b815260040161080090614536565b60075460408051636f307dc360e01b8152905184926001600160a01b039081169290841691636f307dc391600480820192602092909190829003018186803b15801561159257600080fd5b505afa1580156115a6573d6000803e3d6000fd5b505050506040513d601f19601f820116820180604052506115ca91908101906137e2565b6001600160a01b0316146115f05760405162461bcd60e51b815260040161080090614506565b600680546001600160a01b038381166001600160a01b0319831617909255604080516317a1a86160e11b8152815193909216926000928492632f4350c29260048084019382900301818787803b15801561164957600080fd5b505af115801561165d573d6000803e3d6000fd5b505050506040513d601f19601f820116820180604052506116819190810190613ace565b506007546040516370a0823160e01b81529192506000916001600160a01b03909116906370a08231906116b890309060040161434f565b60206040518083038186803b1580156116d057600080fd5b505afa1580156116e4573d6000803e3d6000fd5b505050506040513d601f19601f82011682018060405250611708919081019061395b565b60075460065460405163095ea7b360e01b81529293506001600160a01b039182169263095ea7b39261174092169085906004016143a0565b602060405180830381600087803b15801561175a57600080fd5b505af115801561176e573d6000803e3d6000fd5b505050506040513d601f19601f82011682018060405250611792919081019061393d565b6117ae5760405162461bcd60e51b8152600401610800906144b6565b600654604051630305da4f60e61b81526000916001600160a01b03169063c17693c0906117df908590600401614409565b602060405180830381600087803b1580156117f957600080fd5b505af115801561180d573d6000803e3d6000fd5b505050506040513d601f19601f82011682018060405250611831919081019061395b565b6006549091506001600160a01b038581169116146118af57836001600160a01b031663f2fde38b611860611251565b6040518263ffffffff1660e01b815260040161187c919061434f565b600060405180830381600087803b15801561189657600080fd5b505af11580156118aa573d6000803e3d6000fd5b505050505b60006118bc6008546129a7565b6009549091506118e2836118d6878463ffffffff6129ca16565b9063ffffffff612a0416565b6009556118ee82612a46565b6008556009546040517faa54229fa6d6451d2cd5d13b5bc60f1230a0f79091118926e9b95d8f4811713a91611925918c91906143a0565b60405180910390a1505050505050506001548114610d525760405162461bcd60e51b8152600401610800906145a6565b60085460009061196481612948565b91509091565b600180548101908190556000903361198181611a48565b6107da8185611bf1565b6001600160a01b039182166000908152600a6020908152604080832093909416825291909152205490565b603281565b600e6020526000908152604090208054600182015460029092015490919083565b6119e4611260565b611a005760405162461bcd60e51b815260040161080090614536565b6113b281612a68565b6007546001600160a01b031681565b6001600160a01b0381166000908152600c6020526040812060058101548290611a4090612669565b949350505050565b6001600160a01b038082166000908152600c60209081526040808320600d8352818420600654835163a6afed9560e01b815293519296919591169363a6afed95936004808201949293918390030190829087803b158015611aa857600080fd5b505af1158015611abc573d6000803e3d6000fd5b505050506040513d601f19601f82011682018060405250611ae0919081019061393d565b611afc5760405162461bcd60e51b815260040161080090614436565b6000611b0783612129565b90508015611beb578154611b21908263ffffffff612ae916565b82556002830154611b38908263ffffffff612ae916565b60028401556001830154611b52908263ffffffff612ae916565b6001840155600554611b6a908263ffffffff612ae916565b6005556040516001600160a01b038516907f16cbc685358ca7d4e6b273dcdf2cb5d18c80b950aa2319b519756cd016233a6c90611ba8908490614409565b60405180910390a2836001600160a01b031660006001600160a01b03166000805160206147b383398151915283604051611be29190614409565b60405180910390a35b50505050565b336000908152600c6020526040902081611c1d5760405162461bcd60e51b815260040161080090614556565b8060010154821115611c415760405162461bcd60e51b8152600401610800906144f6565b611c4b3383612b0e565b6001810154611c60908363ffffffff612bca16565b6001820155600554611c78908363ffffffff612bca16565b60055560075460405163a9059cbb60e01b81526001600160a01b039091169063a9059cbb90611cad90869086906004016143a0565b602060405180830381600087803b158015611cc757600080fd5b505af1158015611cdb573d6000803e3d6000fd5b505050506040513d601f19601f82011682018060405250611cff919081019061393d565b611d1b5760405162461bcd60e51b815260040161080090614516565b60405160009033906000805160206147b383398151915290611d3e908690614409565b60405180910390a3505050565b6060808215801590611d5f57506000198314155b15611e8e57611d6c613661565b600b8481548110611d7957fe5b906000526020600020906002020160405180604001604052908160008201805480602002602001604051908101604052809291908181526020018280548015611deb57602002820191906000526020600020905b81546001600160a01b03168152600190910190602001808311611dcd575b5050505050815260200160018201805480602002602001604051908101604052809291908181526020018280548015611e6f57602002820191906000526020600020906000905b82829054906101000a900463ffffffff1663ffffffff1681526020019060040190602082600301049283019260010382029150808411611e325790505b5050505050815250509050806000015192508060200151915050611ea8565b505060408051600080825260208201908152818301909252905b915091565b816001600160a01b0316836001600160a01b03161415611edf5760405162461bcd60e51b8152600401610800906144e6565b6001600160a01b0383166000908152600c6020526040902060010154811115611f1a5760405162461bcd60e51b815260040161080090614546565b60006001600160a01b038581169085161415611f395750600019611f61565b506001600160a01b038084166000908152600a60209081526040808320938816835292905220545b81811015611f815760405162461bcd60e51b815260040161080090614446565b6000611f93828463ffffffff612bca16565b6001600160a01b0386166000908152600c602052604081206001015491925090611fc3908563ffffffff612bca16565b6001600160a01b0386166000908152600c602052604081206001015491925090611ff3908663ffffffff612ae916565b90506000198414612027576001600160a01b038088166000908152600a60209081526040808320938c168352929052208390555b60006120338887612c0c565b9050612040878783612cbb565b6001600160a01b038089166000818152600c60205260408082206001808201899055948c16835290822090930185905552541580159061209657506001600160a01b0387166000908152600c6020526040902054155b80156120bc57506001600160a01b0388166000908152600c602052604090205460001914155b156120e5576001600160a01b0388166000908152600c60205260409020546120e5908890612197565b866001600160a01b0316886001600160a01b03166000805160206147b3833981519152886040516121169190614409565b60405180910390a3505050505050505050565b6000806121398360050154612669565b905061215683600201548460040154612ae990919063ffffffff16565b8111156121725782600201548360040154820303915050610970565b6000915050610970565b60008183101561218e5750600061093d565b5080820361093d565b6000198114806121a85750600b5481105b6121c45760405162461bcd60e51b815260040161080090614486565b6001600160a01b0382166000908152600c602090815260408083208054808552600e9093528184208585529190932060018401541561222a57600061220d878660010154612c0c565b868655600186015490915061222490889083612cbb565b5061222e565b8484555b815460001901825580546001018155604051859084906001600160a01b038916907f356f094000bcd3968ad51bf92c9d115ed7294626dea8ae4cc5b24273702e111390600090a4505050505050565b600754604051636eb1769f60e11b815282916001600160a01b03169063dd62ed3e906122af903390309060040161435d565b60206040518083038186803b1580156122c757600080fd5b505afa1580156122db573d6000803e3d6000fd5b505050506040513d601f19601f820116820180604052506122ff919081019061395b565b101561231d5760405162461bcd60e51b815260040161080090614566565b336000818152600c60205260409081902060075491516323b872dd60e01b815290926001600160a01b03909216916323b872dd91612362919030908790600401614378565b602060405180830381600087803b15801561237c57600080fd5b505af1158015612390573d6000803e3d6000fd5b505050506040513d601f19601f820116820180604052506123b4919081019061393d565b6123d05760405162461bcd60e51b815260040161080090614516565b60075460065460405163095ea7b360e01b81526001600160a01b039283169263095ea7b3926124069291169086906004016143a0565b602060405180830381600087803b15801561242057600080fd5b505af1158015612434573d6000803e3d6000fd5b505050506040513d601f19601f82011682018060405250612458919081019061393d565b6124745760405162461bcd60e51b8152600401610800906144b6565b600654604051630305da4f60e61b81526000916001600160a01b03169063c17693c0906124a5908690600401614409565b602060405180830381600087803b1580156124bf57600080fd5b505af11580156124d3573d6000803e3d6000fd5b505050506040513d601f19601f820116820180604052506124f7919081019061395b565b60055490915061250d908463ffffffff612ae916565b6005556001820154612525908463ffffffff612ae916565b600183015560085461253d908263ffffffff612ae916565b600855600061254b826129a7565b9050612558338583612cbb565b60405133906000906000805160206147b383398151915290611be2908890614409565b806001600160a01b03166352d1902d6040518163ffffffff1660e01b815260040160206040518083038186803b1580156125b457600080fd5b505afa1580156125c8573d6000803e3d6000fd5b505050506040513d601f19601f820116820180604052506125ec919081019061395b565b7fc5f16f0fcc639fa48a6947836d9850f504798523bf8c9a3a87d5876cf622bcf71461262a5760405162461bcd60e51b815260040161080090614456565b7fc5f16f0fcc639fa48a6947836d9850f504798523bf8c9a3a87d5876cf622bcf755565b3b151590565b6000805460ff60a01b1916600160a01b179055565b600061093d6009546118d6600660009054906101000a90046001600160a01b03166001600160a01b031663182df0f56040518163ffffffff1660e01b815260040160206040518083038186803b1580156126c257600080fd5b505afa1580156126d6573d6000803e3d6000fd5b505050506040513d601f19601f820116820180604052506126fa919081019061395b565b859063ffffffff6129ca16565b600080600084511161272b5760405162461bcd60e51b8152600401610800906145b6565b60328451111561274d5760405162461bcd60e51b815260040161080090614576565b825184511461276e5760405162461bcd60e51b815260040161080090614476565b506000805b845182101561282457600084838151811061278a57fe5b602002602001015163ffffffff16116127b55760405162461bcd60e51b815260040161080090614596565b60006001600160a01b03168583815181106127cc57fe5b60200260200101516001600160a01b031614156127fb5760405162461bcd60e51b8152600401610800906144a6565b83828151811061280757fe5b602002602001015163ffffffff1681019050816001019150612773565b600091505b835182101561288e578063ffffffff801685848151811061284657fe5b602002602001015163ffffffff16028161285c57fe5b0484838151811061286957fe5b602002602001019063ffffffff16908163ffffffff1681525050816001019150612829565b604080518082019091528581526020808201869052600b80546001818101808455600093909352845180519195939460029093027f0175b7a638427703f0dbe7bb9bbf987a2551717b34e79f33b5b1008d1fa01db901926128f49284929091019061351a565b50602082810151805161290d926001850192019061357b565b505050039250827f755babe5551737dcd4c723af196cff0ed1fa99a4c6957c62262d6b1425f864aa60405160405180910390a2505092915050565b600061093d670de0b6b3a76400006118d6600660009054906101000a90046001600160a01b03166001600160a01b031663182df0f56040518163ffffffff1660e01b815260040160206040518083038186803b1580156126c257600080fd5b600061093d670de0b6b3a76400006118d6600954856129ca90919063ffffffff16565b6000826129d95750600061093d565b828202828482816129e657fe5b04146112005760405162461bcd60e51b815260040161080090614526565b600061120083836040518060400160405280601a81526020017f536166654d6174683a206469766973696f6e206279207a65726f000000000000815250612f63565b60095460009061093d906118d684670de0b6b3a764000063ffffffff6129ca16565b6001600160a01b038116612a8e5760405162461bcd60e51b815260040161080090614466565b600080546040516001600160a01b03808516939216917f8be0079c531659141344cd1fd0a4f28419497f9722a3daafe3b4186f6b6457e091a3600080546001600160a01b0319166001600160a01b0392909216919091179055565b6000828201838110156112005760405162461bcd60e51b815260040161080090614496565b60065460405163852a12e360e01b81526000916001600160a01b03169063852a12e390612b3f908590600401614409565b602060405180830381600087803b158015612b5957600080fd5b505af1158015612b6d573d6000803e3d6000fd5b505050506040513d601f19601f82011682018060405250612b91919081019061395b565b9050612b9c816129a7565b50612ba78383612f9a565b806008541115612bbf57600880548290039055612bc5565b60006008555b505050565b600061120083836040518060400160405280601e81526020017f536166654d6174683a207375627472616374696f6e206f766572666c6f770000815250613287565b6006546040805163a6afed9560e01b815290516000926001600160a01b03169163a6afed9591600480830192602092919082900301818787803b158015612c5257600080fd5b505af1158015612c66573d6000803e3d6000fd5b505050506040513d601f19601f82011682018060405250612c8a919081019061393d565b612ca65760405162461bcd60e51b815260040161080090614436565b612caf826132b3565b905061093d8383612f9a565b6001600160a01b0383166000908152600c602052604081208054909190600b9060001914612cea578254612ced565b60005b81548110612cf757fe5b600091825260208220600290910201805490925015612f145750600084845b6001840154831015612f0d576000600c6000866000018681548110612d3757fe5b60009182526020808320909101546001600160a01b03168352820192909252604001812060018701549092506000190185149081612dc25763ffffffff8016612db5886001018881548110612d8857fe5b600091825260209091206008820401548d916007166004026101000a900463ffffffff908116906129ca16565b81612dbc57fe5b04612dc4565b845b9050612e10818960030160008a6000018a81548110612ddf57fe5b60009182526020808320909101546001600160a01b031683528201929092526040019020549063ffffffff612ae916565b886003016000896000018981548110612e2557fe5b60009182526020808320909101546001600160a01b031683528201929092526040019020556004830154612e5f908263ffffffff612ae916565b6004840155612e6e858261217c565b9450600082612e9d5763ffffffff8016612e90896001018981548110612d8857fe5b81612e9757fe5b04612e9f565b845b6005850154909150612eb7908263ffffffff612ae916565b6005850155612ec6858261217c565b9450612efe8c896000018981548110612edb57fe5b6000918252602090912001548b546001600160a01b039091169060018686613352565b50505050826001019250612d16565b5050612f5b565b6004830154612f29908663ffffffff612ae916565b60048401556005830154612f43908563ffffffff612ae916565b60058401558254612f5b908790819060018989613352565b505050505050565b60008183612f845760405162461bcd60e51b81526004016108009190614425565b506000838581612f9057fe5b0495945050505050565b6001600160a01b0382166000908152600c602052604081208054909190600b9060001914612fc9578254612fcc565b60005b81548110612fd657fe5b906000526020600020906002020190506000612ffa8360010154846002015461217c565b9050838111156130075750825b6000613012826132b3565b83549091501561321357818160005b600186015481101561320b576000600c600088600001848154811061304257fe5b60009182526020808320909101546001600160a01b031683528201929092526040018120600189015490925060001901831490816130cd5763ffffffff80166130c08a600101868154811061309357fe5b600091825260209091206008820401548b916007166004026101000a900463ffffffff908116906129ca16565b816130c757fe5b046130cf565b855b90506130df83600401548261217c565b836004018190555061312a8a60030160008b60000187815481106130ff57fe5b60009182526020808320909101546001600160a01b031683528201929092526040019020548261217c565b8a60030160008b600001878154811061313f57fe5b60009182526020808320909101546001600160a01b0316835282019290925260400190205561316e868261217c565b955060008261319d5763ffffffff80166131908b600101878154811061309357fe5b8161319757fe5b0461319f565b855b90506131af84600501548261217c565b60058501556131be868261217c565b95506131c984613429565b6131fc8d8b60000187815481106131dc57fe5b60009182526020822001548e546001600160a01b03909116918686613352565b50505050806001019050613021565b505050613256565b61322184600401548361217c565b60048501556005840154613235908261217c565b600585015561324384613429565b6132568687866000015460008686613352565b81851115612f5b576132698286036132b3565b905061327984600501548261217c565b6005850155612f5b84613429565b600081848411156132ab5760405162461bcd60e51b81526004016108009190614425565b505050900390565b600061093d600660009054906101000a90046001600160a01b03166001600160a01b031663182df0f56040518163ffffffff1660e01b815260040160206040518083038186803b15801561330657600080fd5b505afa15801561331a573d6000803e3d6000fd5b505050506040513d601f19601f8201168201806040525061333e919081019061395b565b6009546118d690859063ffffffff6129ca16565b6000600e6000868152602001908152602001600020905084866001600160a01b0316886001600160a01b03167f7fb238306664f9cc50083b666d8979f411dd72154c6e9bf558c76b39e14e7d298787876040516133b1939291906143ee565b60405180910390a483156133f85760018101546133d4908463ffffffff612ae916565b600182015560028101546133ee908363ffffffff612ae916565b6002820155613420565b61340681600101548461217c565b6001820155600281015461341a908361217c565b60028201555b50505050505050565b60006134388260050154612669565b90508160040154810382600201541115610d525760048201549003600290910155565b60405180610100016040528060008152602001600081526020016000815260200160008152602001600081526020016000815260200160008152602001600081525090565b828054600181600116156101000203166002900490600052602060002090601f016020900481019282601f106134e157805160ff191683800117855561350e565b8280016001018555821561350e579182015b8281111561350e5782518255916020019190600101906134f3565b50610bfb92915061367b565b82805482825590600052602060002090810192821561356f579160200282015b8281111561356f57825182546001600160a01b0319166001600160a01b0390911617825560209092019160019091019061353a565b50610bfb929150613695565b8280548282559060005260206000209060070160089004810192821561361a5791602002820160005b838211156135e857835183826101000a81548163ffffffff021916908363ffffffff16021790555092602001926004016020816003010492830192600103026135a4565b80156136185782816101000a81549063ffffffff02191690556004016020816003010492830192600103026135e8565b505b50610bfb9291506136b9565b60405180606001604052806000815260200160008152602001600081525090565b604051806040016040528060008152602001600081525090565b604051806040016040528060608152602001606081525090565b61095091905b80821115610bfb5760008155600101613681565b61095091905b80821115610bfb5780546001600160a01b031916815560010161369b565b61095091905b80821115610bfb57805463ffffffff191681556001016136bf565b803561093d81614783565b805161093d81614783565b60008083601f84011261370257600080fd5b50813567ffffffffffffffff81111561371a57600080fd5b60208301915083602082028301111561373257600080fd5b9250929050565b803561093d81614797565b805161093d81614797565b805161093d816147a0565b803561093d816147a9565b600082601f83011261377657600080fd5b8135613789613784826146cb565b6146a4565b915080825260208301602083018583830111156137a557600080fd5b6137b0838284614741565b50505092915050565b803561093d816147a0565b6000602082840312156137d657600080fd5b6000611a4084846136da565b6000602082840312156137f457600080fd5b6000611a4084846136e5565b6000806040838503121561381357600080fd5b600061381f85856136da565b9250506020613830858286016136da565b9150509250929050565b60008060006060848603121561384f57600080fd5b600061385b86866136da565b935050602061386c868287016136da565b925050604061387d868287016137b9565b9150509250925092565b6000806040838503121561389a57600080fd5b60006138a685856136da565b9250506020613830858286016137b9565b6000806000806000606086880312156138cf57600080fd5b853567ffffffffffffffff8111156138e657600080fd5b6138f2888289016136f0565b9550955050602086013567ffffffffffffffff81111561391157600080fd5b61391d888289016136f0565b9350935050604061393088828901613739565b9150509295509295909350565b60006020828403121561394f57600080fd5b6000611a408484613744565b60006020828403121561396d57600080fd5b6000611a40848461374f565b6000806000806080858703121561398f57600080fd5b600061399b878761375a565b945050602085013567ffffffffffffffff8111156139b857600080fd5b6139c487828801613765565b935050604085013567ffffffffffffffff8111156139e157600080fd5b6139ed87828801613765565b92505060606139fe878288016137b9565b91505092959194509250565b600060208284031215613a1c57600080fd5b6000611a4084846137b9565b600080600080600060608688031215613a4057600080fd5b6000613a4c88886137b9565b955050602086013567ffffffffffffffff811115613a6957600080fd5b613a75888289016136f0565b9450945050604086013567ffffffffffffffff811115613a9457600080fd5b613aa0888289016136f0565b92509250509295509295909350565b60008060408385031215613ac257600080fd5b60006138a685856137b9565b60008060408385031215613ae157600080fd5b6000613aed858561374f565b92505060206138308582860161374f565b6000613b0a8383613b2d565b505060200190565b6000613b0a8383614346565b613b2781614736565b82525050565b613b2781614706565b6000613b41826146f9565b613b4b81856146fd565b9350613b56836146f3565b8060005b83811015613b84578151613b6e8882613afe565b9750613b79836146f3565b925050600101613b5a565b509495945050505050565b6000613b9a826146f9565b613ba481856146fd565b9350613baf836146f3565b8060005b83811015613b84578151613bc78882613b12565b9750613bd2836146f3565b925050600101613bb3565b613b2781614711565b613b2781610950565b613b2781614716565b6000613c03826146f9565b613c0d81856146fd565b9350613c1d81856020860161474d565b613c2681614779565b9093019392505050565b6000613c3d6015836146fd565b741858d8dc9d59525b9d195c995cdd0819985a5b1959605a1b815260200192915050565b6000613c6e6021836146fd565b7f4e6f7420656e6f75676820616c6c6f77616e636520666f72207472616e7366658152603960f91b602082015260400192915050565b6000613cb1600e836146fd565b6d4e6f7420636f6d70617469626c6560901b815260200192915050565b6000613cdb6026836146fd565b7f4f776e61626c653a206e6577206f776e657220697320746865207a65726f206181526564647265737360d01b602082015260400192915050565b6000613d236020836146fd565b7f496e76616c6964206861743a206c656e677468206e6f74206d61746368696e67815260200192915050565b6000613d5c600e836146fd565b6d125b9d985b1a59081a185d08125160921b815260200192915050565b6000613d86601b836146fd565b7f536166654d6174683a206164646974696f6e206f766572666c6f770000000000815260200192915050565b6000613dbf6028836146fd565b7f496e76616c6964206861743a20726563697069656e742073686f756c64206e6f815267074206265203078360c41b602082015260400192915050565b6000613e096014836146fd565b731d1bdad95b88185c1c1c9bdd994819985a5b195960621b815260200192915050565b6000613e396029836146fd565b7f546865206c6962726172792068617320616c7265616479206265656e20696e698152683a34b0b634bd32b21760b91b602082015260400192915050565b6000613e84602e836146fd565b7f41646d696e2063616e206f6e6c79206368616e67652068617420666f7220636f81526d6e7472616374206164647265737360901b602082015260400192915050565b6000613ed46018836146fd565b7f7372632073686f756c64206e6f7420657175616c206473740000000000000000815260200192915050565b6000613f0d601c836146fd565b7f4e6f7420656e6f7567682062616c616e636520746f2072656465656d00000000815260200192915050565b6000613f466032836146fd565b7f4e65772073747261746567792073686f756c642068617665207468652073616d81527119481d5b99195c9b1e5a5b99c8185cdcd95d60721b602082015260400192915050565b6000613f9a6015836146fd565b741d1bdad95b881d1c985b9cd9995c8819985a5b1959605a1b815260200192915050565b6000613fcb6021836146fd565b7f536166654d6174683a206d756c7469706c69636174696f6e206f766572666c6f8152607760f81b602082015260400192915050565b600061400e6020836146fd565b7f4f776e61626c653a2063616c6c6572206973206e6f7420746865206f776e6572815260200192915050565b6000614047601e836146fd565b7f4e6f7420656e6f7567682062616c616e636520746f207472616e736665720000815260200192915050565b6000614080601c836146fd565b7f52656465656d20616d6f756e742063616e6e6f74206265207a65726f00000000815260200192915050565b60006140b96014836146fd565b734e6f7420656e6f75676820616c6c6f77616e636560601b815260200192915050565b60006140e96032836146fd565b7f496e76616c696c64206861743a206d6178696d756d206e756d626572206f66208152711c9958da5c1a595b9d1cc81c995858da195960721b602082015260400192915050565b600061413d6033836146fd565b7f546865206c696272617279206973206c6f636b65642e204e6f206469726563748152721013b1b0b636139034b99030b63637bbb2b21760691b602082015260400192915050565b6000614192602f836146fd565b7f496e76616c6964206861743a2070726f706f7274696f6e2073686f756c64206281526e065206c6172676572207468616e203608c1b602082015260400192915050565b60006141e3601f836146fd565b7f5265656e7472616e637947756172643a207265656e7472616e742063616c6c00815260200192915050565b600061421c6023836146fd565b7f496e76616c6964206861743a206174206c65617374206f6e6520726563697069815262195b9d60ea1b602082015260400192915050565b80516101008301906142668482613be6565b5060208201516142796020850182613be6565b50604082015161428c6040850182613be6565b50606082015161429f6060850182613be6565b5060808201516142b26080850182613be6565b5060a08201516142c560a0850182613be6565b5060c08201516142d860c0850182613be6565b5060e0820151611beb60e0850182613be6565b805160408301906142fc8482613be6565b506020820151611beb6020850182613be6565b805160608301906143208482613be6565b5060208201516143336020850182613be6565b506040820151611beb6040850182613be6565b613b278161472d565b6020810161093d8284613b2d565b6040810161436b8285613b1e565b6112006020830184613b2d565b606081016143868286613b1e565b6143936020830185613b2d565b611a406040830184613be6565b604081016143ae8285613b2d565b6112006020830184613be6565b604080825281016143cc8185613b36565b90508181036020830152611a408184613b8f565b6020810161093d8284613bdd565b606081016143fc8286613bdd565b6143936020830185613be6565b6020810161093d8284613be6565b6020810161093d8284613bef565b602080825281016112008184613bf8565b6020808252810161093d81613c30565b6020808252810161093d81613c61565b6020808252810161093d81613ca4565b6020808252810161093d81613cce565b6020808252810161093d81613d16565b6020808252810161093d81613d4f565b6020808252810161093d81613d79565b6020808252810161093d81613db2565b6020808252810161093d81613dfc565b6020808252810161093d81613e2c565b6020808252810161093d81613e77565b6020808252810161093d81613ec7565b6020808252810161093d81613f00565b6020808252810161093d81613f39565b6020808252810161093d81613f8d565b6020808252810161093d81613fbe565b6020808252810161093d81614001565b6020808252810161093d8161403a565b6020808252810161093d81614073565b6020808252810161093d816140ac565b6020808252810161093d816140dc565b6020808252810161093d81614130565b6020808252810161093d81614185565b6020808252810161093d816141d6565b6020808252810161093d8161420f565b610100810161093d8284614254565b6040810161093d82846142eb565b6060810161093d828461430f565b606081016145ff8286613be6565b81810360208301526146118185613b36565b905081810360408301526146258184613b8f565b95945050505050565b604081016143ae8285613be6565b606081016143fc8286613be6565b60a081016146588288613be6565b6146656020830187613be6565b6146726040830186613be6565b61467f6060830185613be6565b61468c6080830184613be6565b9695505050505050565b6020810161093d8284614346565b60405181810167ffffffffffffffff811182821017156146c357600080fd5b604052919050565b600067ffffffffffffffff8211156146e257600080fd5b506020601f91909101601f19160190565b60200190565b5190565b90815260200190565b600061093d82614721565b151590565b600061093d82614706565b6001600160a01b031690565b63ffffffff1690565b600061093d82614716565b82818337506000910152565b60005b83811015614768578181015183820152602001614750565b83811115611beb5750506000910152565b601f01601f191690565b61478c81614706565b81146113b257600080fd5b61478c81614711565b61478c81610950565b61478c8161471656feddf252ad1be2c89b69c2b068fc378daa952ba7f163c4a11628f55a4df523b3efa365627a7a723158207ef460320b619ee25911606bb0ada18d5f34bf80ade0f8e0cf588d54117347d06c6578706572696d656e74616cf564736f6c634300050c0040",
  "source": "/**\n * Because the use of ABIEncoderV2 , the pragma should be locked above 0.5.10 ,\n * as there is a known bug in array storage:\n * https://blog.ethereum.org/2019/06/25/solidity-storage-array-bugs/\n */\npragma solidity >=0.5.10 <0.6.0;\npragma experimental ABIEncoderV2;\n\nimport { RToken } from \"../RToken.sol\";\n\n/**\n * @notice RToken instantiation for rSAI (Redeemable SAI)\n */\ncontract rSAI is RToken {\n\n    function updateTokenInfo()\n        external\n        onlyOwner {\n        name = \"Redeemable SAI\";\n        symbol = \"rSAI\";\n    }\n\n}\n",
  "sourcePath": "/home/thisguy/repos/rToken-project/rtoken-monorepo/packages/contracts/contracts/tokens/rSAI.sol",
  "compiler": {
    "name": "solc",
    "version": "0.5.12+commit.7709ece9.Emscripten.clang"
  },
  "schemaVersion": "3.0.21",
  "updatedAt": "2020-04-22T02:35:54.272Z",
  "devdoc": {
    "methods": {
      "changeAllocationStrategy(address)": {
        "details": "IRToken.changeAllocationStrategy implementation"
      },
      "changeHat(uint256)": {
        "details": "IRToken.changeHat implementation"
      },
      "changeHatFor(address,uint256)": {
        "details": "IRToken.changeHatFor implementation"
      },
      "createHat(address[],uint32[],bool)": {
        "details": "IRToken.createHat implementation"
      },
      "getAccountStats(address)": {
        "details": "IRToken.getAccountStats implementation"
      },
      "getCurrentAllocationStrategy()": {
        "details": "IRToken.changeHatFor implementation"
      },
      "getCurrentSavingStrategy()": {
        "details": "IRToken.getCurrentSavingStrategy implementation"
      },
      "getGlobalStats()": {
        "details": "IRToken.getAccountStats implementation!1"
      },
      "getHatByAddress(address)": {
        "details": "IRToken.getHatByAddress implementation"
      },
      "getHatByID(uint256)": {
        "details": "IRToken.getHatByID implementation"
      },
      "getHatStats(uint256)": {
        "details": "IRToken.getHatStats implementation"
      },
      "getMaximumHatID()": {
        "details": "IRToken.getMaximumHatID implementation"
      },
      "getSavingAssetBalance()": {
        "details": "IRToken.getSavingAssetBalance implementation"
      },
      "interestPayableOf(address)": {
        "details": "IRToken.interestPayableOf implementation"
      },
      "isOwner()": {
        "details": "Returns true if the caller is the current owner."
      },
      "mint(uint256)": {
        "details": "IRToken.mint implementation"
      },
      "mintWithNewHat(uint256,address[],uint32[])": {
        "details": "IRToken.mintWithNewHat implementation"
      },
      "mintWithSelectedHat(uint256,uint256)": {
        "details": "IRToken.mintWithSelectedHat implementation"
      },
      "owner()": {
        "details": "Returns the address of the current owner."
      },
      "payInterest(address)": {
        "details": "IRToken.payInterest implementation"
      },
      "receivedLoanOf(address)": {
        "details": "IRToken.receivedLoanOf implementation"
      },
      "receivedSavingsOf(address)": {
        "details": "IRToken.receivedSavingsOf implementation"
      },
      "redeem(uint256)": {
        "details": "IRToken.redeem implementation     It withdraws equal amount of initially supplied underlying assets"
      },
      "redeemAll()": {
        "details": "IRToken.redeemAll implementation"
      },
      "redeemAndTransfer(address,uint256)": {
        "details": "IRToken.redeemAndTransfer implementation"
      },
      "redeemAndTransferAll(address)": {
        "details": "IRToken.redeemAndTransferAll implementation"
      },
      "renounceOwnership()": {
        "details": "Leaves the contract without owner. It will not be possible to call `onlyOwner` functions anymore. Can only be called by the current owner.     * > Note: Renouncing ownership will leave the contract without an owner, thereby removing any functionality that is only available to the owner."
      },
      "transferAll(address)": {
        "details": "IRToken.transferAll implementation"
      },
      "transferAllFrom(address,address)": {
        "details": "IRToken.transferAllFrom implementation"
      },
      "transferOwnership(address)": {
        "details": "Transfers ownership of the contract to a new account (`newOwner`). Can only be called by the current owner."
      },
      "updateCode(address)": {
        "details": "Update the rToken logic contract code"
      }
    }
  },
  "userdoc": {
    "methods": {
      "allowance(address,address)": {
        "notice": "Returns the remaining number of tokens that `spender` will be allowed to spend on behalf of `owner` through `transferFrom`. This is zero by default.     * This value changes when `approve` or `transferFrom` are called."
      },
      "approve(address,uint256)": {
        "notice": "Sets `amount` as the allowance of `spender` over the caller's tokens.     * Returns a boolean value indicating whether the operation succeeded.     * > Beware that changing an allowance with this method brings the risk that someone may use both the old and the new allowance by unfortunate transaction ordering. One possible solution to mitigate this race condition is to first reduce the spender's allowance to 0 and set the desired value afterwards: https://github.com/ethereum/EIPs/issues/20#issuecomment-263524729     * Emits an `Approval` event."
      },
      "balanceOf(address)": {
        "notice": "Returns the amount of tokens owned by `account`."
      },
      "initialize(address,string,string,uint256)": {
        "notice": "Create rToken linked with cToken at `cToken_`"
      },
      "transfer(address,uint256)": {
        "notice": "Moves `amount` tokens from the caller's account to `dst`.     * Returns a boolean value indicating whether the operation succeeded.     * Emits a `Transfer` event. May also emit `InterestPaid` event."
      },
      "transferFrom(address,address,uint256)": {
        "notice": "Moves `amount` tokens from `sender` to `recipient` using the allowance mechanism. `amount` is then deducted from the caller's allowance.     * Returns a boolean value indicating whether the operation succeeded.     * Emits a `Transfer` event."
      }
    },
    "notice": "RToken instantiation for rSAI (Redeemable SAI)"
  }
}