{
  "contractName": "RTokenStorageLayoutTester",
  "abi": [
    {
      "anonymous": false,
      "inputs": [
        {
          "indexed": false,
          "internalType": "address",
          "name": "strategy",
          "type": "address"
        },
        {
          "indexed": false,
          "internalType": "uint256",
          "name": "conversionRate",
          "type": "uint256"
        }
      ],
      "name": "AllocationStrategyChanged",
      "type": "event"
    },
    {
      "anonymous": false,
      "inputs": [
        {
          "indexed": true,
          "internalType": "address",
          "name": "owner",
          "type": "address"
        },
        {
          "indexed": true,
          "internalType": "address",
          "name": "spender",
          "type": "address"
        },
        {
          "indexed": false,
          "internalType": "uint256",
          "name": "value",
          "type": "uint256"
        }
      ],
      "name": "Approval",
      "type": "event"
    },
    {
      "anonymous": false,
      "inputs": [
        {
          "indexed": false,
          "internalType": "address",
          "name": "newCode",
          "type": "address"
        }
      ],
      "name": "CodeUpdated",
      "type": "event"
    },
    {
      "anonymous": false,
      "inputs": [
        {
          "indexed": true,
          "internalType": "address",
          "name": "account",
          "type": "address"
        },
        {
          "indexed": true,
          "internalType": "uint256",
          "name": "oldHatID",
          "type": "uint256"
        },
        {
          "indexed": true,
          "internalType": "uint256",
          "name": "newHatID",
          "type": "uint256"
        }
      ],
      "name": "HatChanged",
      "type": "event"
    },
    {
      "anonymous": false,
      "inputs": [
        {
          "indexed": true,
          "internalType": "uint256",
          "name": "hatID",
          "type": "uint256"
        }
      ],
      "name": "HatCreated",
      "type": "event"
    },
    {
      "anonymous": false,
      "inputs": [
        {
          "indexed": true,
          "internalType": "address",
          "name": "recipient",
          "type": "address"
        },
        {
          "indexed": false,
          "internalType": "uint256",
          "name": "amount",
          "type": "uint256"
        }
      ],
      "name": "InterestPaid",
      "type": "event"
    },
    {
      "anonymous": false,
      "inputs": [
        {
          "indexed": true,
          "internalType": "address",
          "name": "owner",
          "type": "address"
        },
        {
          "indexed": true,
          "internalType": "address",
          "name": "recipient",
          "type": "address"
        },
        {
          "indexed": true,
          "internalType": "uint256",
          "name": "hatId",
          "type": "uint256"
        },
        {
          "indexed": false,
          "internalType": "bool",
          "name": "isDistribution",
          "type": "bool"
        },
        {
          "indexed": false,
          "internalType": "uint256",
          "name": "redeemableAmount",
          "type": "uint256"
        },
        {
          "indexed": false,
          "internalType": "uint256",
          "name": "internalSavingsAmount",
          "type": "uint256"
        }
      ],
      "name": "LoansTransferred",
      "type": "event"
    },
    {
      "anonymous": false,
      "inputs": [
        {
          "indexed": true,
          "internalType": "address",
          "name": "previousOwner",
          "type": "address"
        },
        {
          "indexed": true,
          "internalType": "address",
          "name": "newOwner",
          "type": "address"
        }
      ],
      "name": "OwnershipTransferred",
      "type": "event"
    },
    {
      "anonymous": false,
      "inputs": [
        {
          "indexed": true,
          "internalType": "address",
          "name": "from",
          "type": "address"
        },
        {
          "indexed": true,
          "internalType": "address",
          "name": "to",
          "type": "address"
        },
        {
          "indexed": false,
          "internalType": "uint256",
          "name": "value",
          "type": "uint256"
        }
      ],
      "name": "Transfer",
      "type": "event"
    },
    {
      "constant": true,
      "inputs": [],
      "name": "ALLOCATION_STRATEGY_EXCHANGE_RATE_SCALE",
      "outputs": [
        {
          "internalType": "uint256",
          "name": "",
          "type": "uint256"
        }
      ],
      "payable": false,
      "stateMutability": "view",
      "type": "function"
    },
    {
      "constant": true,
      "inputs": [],
      "name": "INITIAL_SAVING_ASSET_CONVERSION_RATE",
      "outputs": [
        {
          "internalType": "uint256",
          "name": "",
          "type": "uint256"
        }
      ],
      "payable": false,
      "stateMutability": "view",
      "type": "function"
    },
    {
      "constant": true,
      "inputs": [],
      "name": "MAX_NUM_HAT_RECIPIENTS",
      "outputs": [
        {
          "internalType": "uint256",
          "name": "",
          "type": "uint256"
        }
      ],
      "payable": false,
      "stateMutability": "view",
      "type": "function"
    },
    {
      "constant": true,
      "inputs": [],
      "name": "MAX_UINT256",
      "outputs": [
        {
          "internalType": "uint256",
          "name": "",
          "type": "uint256"
        }
      ],
      "payable": false,
      "stateMutability": "view",
      "type": "function"
    },
    {
      "constant": true,
      "inputs": [],
      "name": "PROPORTION_BASE",
      "outputs": [
        {
          "internalType": "uint32",
          "name": "",
          "type": "uint32"
        }
      ],
      "payable": false,
      "stateMutability": "view",
      "type": "function"
    },
    {
      "constant": true,
      "inputs": [],
      "name": "SELF_HAT_ID",
      "outputs": [
        {
          "internalType": "uint256",
          "name": "",
          "type": "uint256"
        }
      ],
      "payable": false,
      "stateMutability": "view",
      "type": "function"
    },
    {
      "constant": true,
      "inputs": [],
      "name": "_guardCounter",
      "outputs": [
        {
          "internalType": "uint256",
          "name": "",
          "type": "uint256"
        }
      ],
      "payable": false,
      "stateMutability": "view",
      "type": "function"
    },
    {
      "constant": true,
      "inputs": [],
      "name": "_owner",
      "outputs": [
        {
          "internalType": "address",
          "name": "",
          "type": "address"
        }
      ],
      "payable": false,
      "stateMutability": "view",
      "type": "function"
    },
    {
      "constant": true,
      "inputs": [
        {
          "internalType": "address",
          "name": "",
          "type": "address"
        }
      ],
      "name": "accountStats",
      "outputs": [
        {
          "internalType": "uint256",
          "name": "cumulativeInterest",
          "type": "uint256"
        }
      ],
      "payable": false,
      "stateMutability": "view",
      "type": "function"
    },
    {
      "constant": true,
      "inputs": [
        {
          "internalType": "address",
          "name": "",
          "type": "address"
        }
      ],
      "name": "accounts",
      "outputs": [
        {
          "internalType": "uint256",
          "name": "hatID",
          "type": "uint256"
        },
        {
          "internalType": "uint256",
          "name": "rAmount",
          "type": "uint256"
        },
        {
          "internalType": "uint256",
          "name": "rInterest",
          "type": "uint256"
        },
        {
          "internalType": "uint256",
          "name": "lDebt",
          "type": "uint256"
        },
        {
          "internalType": "uint256",
          "name": "sInternalAmount",
          "type": "uint256"
        }
      ],
      "payable": false,
      "stateMutability": "view",
      "type": "function"
    },
    {
      "constant": true,
      "inputs": [
        {
          "internalType": "address",
          "name": "owner",
          "type": "address"
        },
        {
          "internalType": "address",
          "name": "spender",
          "type": "address"
        }
      ],
      "name": "allowance",
      "outputs": [
        {
          "internalType": "uint256",
          "name": "",
          "type": "uint256"
        }
      ],
      "payable": false,
      "stateMutability": "view",
      "type": "function"
    },
    {
      "constant": false,
      "inputs": [
        {
          "internalType": "address",
          "name": "spender",
          "type": "address"
        },
        {
          "internalType": "uint256",
          "name": "amount",
          "type": "uint256"
        }
      ],
      "name": "approve",
      "outputs": [
        {
          "internalType": "bool",
          "name": "",
          "type": "bool"
        }
      ],
      "payable": false,
      "stateMutability": "nonpayable",
      "type": "function"
    },
    {
      "constant": true,
      "inputs": [
        {
          "internalType": "address",
          "name": "owner",
          "type": "address"
        }
      ],
      "name": "balanceOf",
      "outputs": [
        {
          "internalType": "uint256",
          "name": "",
          "type": "uint256"
        }
      ],
      "payable": false,
      "stateMutability": "view",
      "type": "function"
    },
    {
      "constant": false,
      "inputs": [
        {
          "internalType": "address",
          "name": "allocationStrategy_",
          "type": "address"
        }
      ],
      "name": "changeAllocationStrategy",
      "outputs": [],
      "payable": false,
      "stateMutability": "nonpayable",
      "type": "function"
    },
    {
      "constant": false,
      "inputs": [
        {
          "internalType": "uint256",
          "name": "hatID",
          "type": "uint256"
        }
      ],
      "name": "changeHat",
      "outputs": [
        {
          "internalType": "bool",
          "name": "",
          "type": "bool"
        }
      ],
      "payable": false,
      "stateMutability": "nonpayable",
      "type": "function"
    },
    {
      "constant": false,
      "inputs": [
        {
          "internalType": "address",
          "name": "contractAddress",
          "type": "address"
        },
        {
          "internalType": "uint256",
          "name": "hatID",
          "type": "uint256"
        }
      ],
      "name": "changeHatFor",
      "outputs": [],
      "payable": false,
      "stateMutability": "nonpayable",
      "type": "function"
    },
    {
      "constant": false,
      "inputs": [
        {
          "internalType": "address[]",
          "name": "recipients",
          "type": "address[]"
        },
        {
          "internalType": "uint32[]",
          "name": "proportions",
          "type": "uint32[]"
        },
        {
          "internalType": "bool",
          "name": "doChangeHat",
          "type": "bool"
        }
      ],
      "name": "createHat",
      "outputs": [
        {
          "internalType": "uint256",
          "name": "hatID",
          "type": "uint256"
        }
      ],
      "payable": false,
      "stateMutability": "nonpayable",
      "type": "function"
    },
    {
      "constant": true,
      "inputs": [],
      "name": "decimals",
      "outputs": [
        {
          "internalType": "uint256",
          "name": "",
          "type": "uint256"
        }
      ],
      "payable": false,
      "stateMutability": "view",
      "type": "function"
    },
    {
      "constant": true,
      "inputs": [
        {
          "internalType": "address",
          "name": "owner",
          "type": "address"
        }
      ],
      "name": "getAccountStats",
      "outputs": [
        {
          "components": [
            {
              "internalType": "uint256",
              "name": "hatID",
              "type": "uint256"
            },
            {
              "internalType": "uint256",
              "name": "rAmount",
              "type": "uint256"
            },
            {
              "internalType": "uint256",
              "name": "rInterest",
              "type": "uint256"
            },
            {
              "internalType": "uint256",
              "name": "lDebt",
              "type": "uint256"
            },
            {
              "internalType": "uint256",
              "name": "sInternalAmount",
              "type": "uint256"
            },
            {
              "internalType": "uint256",
              "name": "rInterestPayable",
              "type": "uint256"
            },
            {
              "internalType": "uint256",
              "name": "cumulativeInterest",
              "type": "uint256"
            },
            {
              "internalType": "uint256",
              "name": "lRecipientsSum",
              "type": "uint256"
            }
          ],
          "internalType": "struct RTokenStructs.AccountStatsView",
          "name": "stats",
          "type": "tuple"
        }
      ],
      "payable": false,
      "stateMutability": "view",
      "type": "function"
    },
    {
      "constant": true,
      "inputs": [],
      "name": "getCurrentAllocationStrategy",
      "outputs": [
        {
          "internalType": "address",
          "name": "allocationStrategy",
          "type": "address"
        }
      ],
      "payable": false,
      "stateMutability": "view",
      "type": "function"
    },
    {
      "constant": true,
      "inputs": [],
      "name": "getCurrentSavingStrategy",
      "outputs": [
        {
          "internalType": "address",
          "name": "",
          "type": "address"
        }
      ],
      "payable": false,
      "stateMutability": "view",
      "type": "function"
    },
    {
      "constant": true,
      "inputs": [],
      "name": "getGlobalStats",
      "outputs": [
        {
          "components": [
            {
              "internalType": "uint256",
              "name": "totalSupply",
              "type": "uint256"
            },
            {
              "internalType": "uint256",
              "name": "totalSavingsAmount",
              "type": "uint256"
            }
          ],
          "internalType": "struct RTokenStructs.GlobalStats",
          "name": "",
          "type": "tuple"
        }
      ],
      "payable": false,
      "stateMutability": "view",
      "type": "function"
    },
    {
      "constant": true,
      "inputs": [
        {
          "internalType": "address",
          "name": "owner",
          "type": "address"
        }
      ],
      "name": "getHatByAddress",
      "outputs": [
        {
          "internalType": "uint256",
          "name": "hatID",
          "type": "uint256"
        },
        {
          "internalType": "address[]",
          "name": "recipients",
          "type": "address[]"
        },
        {
          "internalType": "uint32[]",
          "name": "proportions",
          "type": "uint32[]"
        }
      ],
      "payable": false,
      "stateMutability": "view",
      "type": "function"
    },
    {
      "constant": true,
      "inputs": [
        {
          "internalType": "uint256",
          "name": "hatID",
          "type": "uint256"
        }
      ],
      "name": "getHatByID",
      "outputs": [
        {
          "internalType": "address[]",
          "name": "recipients",
          "type": "address[]"
        },
        {
          "internalType": "uint32[]",
          "name": "proportions",
          "type": "uint32[]"
        }
      ],
      "payable": false,
      "stateMutability": "view",
      "type": "function"
    },
    {
      "constant": true,
      "inputs": [
        {
          "internalType": "uint256",
          "name": "hatID",
          "type": "uint256"
        }
      ],
      "name": "getHatStats",
      "outputs": [
        {
          "components": [
            {
              "internalType": "uint256",
              "name": "useCount",
              "type": "uint256"
            },
            {
              "internalType": "uint256",
              "name": "totalLoans",
              "type": "uint256"
            },
            {
              "internalType": "uint256",
              "name": "totalSavings",
              "type": "uint256"
            }
          ],
          "internalType": "struct RTokenStructs.HatStatsView",
          "name": "stats",
          "type": "tuple"
        }
      ],
      "payable": false,
      "stateMutability": "view",
      "type": "function"
    },
    {
      "constant": true,
      "inputs": [],
      "name": "getMaximumHatID",
      "outputs": [
        {
          "internalType": "uint256",
          "name": "hatID",
          "type": "uint256"
        }
      ],
      "payable": false,
      "stateMutability": "view",
      "type": "function"
    },
    {
      "constant": true,
      "inputs": [],
      "name": "getSavingAssetBalance",
      "outputs": [
        {
          "internalType": "uint256",
          "name": "rAmount",
          "type": "uint256"
        },
        {
          "internalType": "uint256",
          "name": "sOriginalAmount",
          "type": "uint256"
        }
      ],
      "payable": false,
      "stateMutability": "view",
      "type": "function"
    },
    {
      "constant": true,
      "inputs": [
        {
          "internalType": "uint256",
          "name": "",
          "type": "uint256"
        }
      ],
      "name": "hatStats",
      "outputs": [
        {
          "internalType": "uint256",
          "name": "useCount",
          "type": "uint256"
        },
        {
          "internalType": "uint256",
          "name": "totalLoans",
          "type": "uint256"
        },
        {
          "internalType": "uint256",
          "name": "totalInternalSavings",
          "type": "uint256"
        }
      ],
      "payable": false,
      "stateMutability": "view",
      "type": "function"
    },
    {
      "constant": true,
      "inputs": [],
      "name": "ias",
      "outputs": [
        {
          "internalType": "contract IAllocationStrategy",
          "name": "",
          "type": "address"
        }
      ],
      "payable": false,
      "stateMutability": "view",
      "type": "function"
    },
    {
      "constant": false,
      "inputs": [
        {
          "internalType": "contract IAllocationStrategy",
          "name": "allocationStrategy",
          "type": "address"
        },
        {
          "internalType": "string",
          "name": "name_",
          "type": "string"
        },
        {
          "internalType": "string",
          "name": "symbol_",
          "type": "string"
        },
        {
          "internalType": "uint256",
          "name": "decimals_",
          "type": "uint256"
        }
      ],
      "name": "initialize",
      "outputs": [],
      "payable": false,
      "stateMutability": "nonpayable",
      "type": "function"
    },
    {
      "constant": true,
      "inputs": [],
      "name": "initialized",
      "outputs": [
        {
          "internalType": "bool",
          "name": "",
          "type": "bool"
        }
      ],
      "payable": false,
      "stateMutability": "view",
      "type": "function"
    },
    {
      "constant": true,
      "inputs": [
        {
          "internalType": "address",
          "name": "owner",
          "type": "address"
        }
      ],
      "name": "interestPayableOf",
      "outputs": [
        {
          "internalType": "uint256",
          "name": "amount",
          "type": "uint256"
        }
      ],
      "payable": false,
      "stateMutability": "view",
      "type": "function"
    },
    {
      "constant": true,
      "inputs": [],
      "name": "isOwner",
      "outputs": [
        {
          "internalType": "bool",
          "name": "",
          "type": "bool"
        }
      ],
      "payable": false,
      "stateMutability": "view",
      "type": "function"
    },
    {
      "constant": false,
      "inputs": [
        {
          "internalType": "uint256",
          "name": "mintAmount",
          "type": "uint256"
        }
      ],
      "name": "mint",
      "outputs": [
        {
          "internalType": "bool",
          "name": "",
          "type": "bool"
        }
      ],
      "payable": false,
      "stateMutability": "nonpayable",
      "type": "function"
    },
    {
      "constant": false,
      "inputs": [
        {
          "internalType": "uint256",
          "name": "mintAmount",
          "type": "uint256"
        },
        {
          "internalType": "address[]",
          "name": "recipients",
          "type": "address[]"
        },
        {
          "internalType": "uint32[]",
          "name": "proportions",
          "type": "uint32[]"
        }
      ],
      "name": "mintWithNewHat",
      "outputs": [
        {
          "internalType": "bool",
          "name": "",
          "type": "bool"
        }
      ],
      "payable": false,
      "stateMutability": "nonpayable",
      "type": "function"
    },
    {
      "constant": false,
      "inputs": [
        {
          "internalType": "uint256",
          "name": "mintAmount",
          "type": "uint256"
        },
        {
          "internalType": "uint256",
          "name": "hatID",
          "type": "uint256"
        }
      ],
      "name": "mintWithSelectedHat",
      "outputs": [
        {
          "internalType": "bool",
          "name": "",
          "type": "bool"
        }
      ],
      "payable": false,
      "stateMutability": "nonpayable",
      "type": "function"
    },
    {
      "constant": true,
      "inputs": [],
      "name": "name",
      "outputs": [
        {
          "internalType": "string",
          "name": "",
          "type": "string"
        }
      ],
      "payable": false,
      "stateMutability": "view",
      "type": "function"
    },
    {
      "constant": true,
      "inputs": [],
      "name": "owner",
      "outputs": [
        {
          "internalType": "address",
          "name": "",
          "type": "address"
        }
      ],
      "payable": false,
      "stateMutability": "view",
      "type": "function"
    },
    {
      "constant": false,
      "inputs": [
        {
          "internalType": "address",
          "name": "owner",
          "type": "address"
        }
      ],
      "name": "payInterest",
      "outputs": [
        {
          "internalType": "bool",
          "name": "",
          "type": "bool"
        }
      ],
      "payable": false,
      "stateMutability": "nonpayable",
      "type": "function"
    },
    {
      "constant": true,
      "inputs": [],
      "name": "proxiableUUID",
      "outputs": [
        {
          "internalType": "bytes32",
          "name": "",
          "type": "bytes32"
        }
      ],
      "payable": false,
      "stateMutability": "pure",
      "type": "function"
    },
    {
      "constant": true,
      "inputs": [
        {
          "internalType": "address",
          "name": "owner",
          "type": "address"
        }
      ],
      "name": "receivedLoanOf",
      "outputs": [
        {
          "internalType": "uint256",
          "name": "amount",
          "type": "uint256"
        }
      ],
      "payable": false,
      "stateMutability": "view",
      "type": "function"
    },
    {
      "constant": true,
      "inputs": [
        {
          "internalType": "address",
          "name": "owner",
          "type": "address"
        }
      ],
      "name": "receivedSavingsOf",
      "outputs": [
        {
          "internalType": "uint256",
          "name": "amount",
          "type": "uint256"
        }
      ],
      "payable": false,
      "stateMutability": "view",
      "type": "function"
    },
    {
      "constant": false,
      "inputs": [
        {
          "internalType": "uint256",
          "name": "redeemTokens",
          "type": "uint256"
        }
      ],
      "name": "redeem",
      "outputs": [
        {
          "internalType": "bool",
          "name": "",
          "type": "bool"
        }
      ],
      "payable": false,
      "stateMutability": "nonpayable",
      "type": "function"
    },
    {
      "constant": false,
      "inputs": [],
      "name": "redeemAll",
      "outputs": [
        {
          "internalType": "bool",
          "name": "",
          "type": "bool"
        }
      ],
      "payable": false,
      "stateMutability": "nonpayable",
      "type": "function"
    },
    {
      "constant": false,
      "inputs": [
        {
          "internalType": "address",
          "name": "redeemTo",
          "type": "address"
        },
        {
          "internalType": "uint256",
          "name": "redeemTokens",
          "type": "uint256"
        }
      ],
      "name": "redeemAndTransfer",
      "outputs": [
        {
          "internalType": "bool",
          "name": "",
          "type": "bool"
        }
      ],
      "payable": false,
      "stateMutability": "nonpayable",
      "type": "function"
    },
    {
      "constant": false,
      "inputs": [
        {
          "internalType": "address",
          "name": "redeemTo",
          "type": "address"
        }
      ],
      "name": "redeemAndTransferAll",
      "outputs": [
        {
          "internalType": "bool",
          "name": "",
          "type": "bool"
        }
      ],
      "payable": false,
      "stateMutability": "nonpayable",
      "type": "function"
    },
    {
      "constant": false,
      "inputs": [],
      "name": "renounceOwnership",
      "outputs": [],
      "payable": false,
      "stateMutability": "nonpayable",
      "type": "function"
    },
    {
      "constant": true,
      "inputs": [],
      "name": "savingAssetConversionRate",
      "outputs": [
        {
          "internalType": "uint256",
          "name": "",
          "type": "uint256"
        }
      ],
      "payable": false,
      "stateMutability": "view",
      "type": "function"
    },
    {
      "constant": true,
      "inputs": [],
      "name": "savingAssetOrignalAmount",
      "outputs": [
        {
          "internalType": "uint256",
          "name": "",
          "type": "uint256"
        }
      ],
      "payable": false,
      "stateMutability": "view",
      "type": "function"
    },
    {
      "constant": true,
      "inputs": [],
      "name": "symbol",
      "outputs": [
        {
          "internalType": "string",
          "name": "",
          "type": "string"
        }
      ],
      "payable": false,
      "stateMutability": "view",
      "type": "function"
    },
    {
      "constant": true,
      "inputs": [],
      "name": "token",
      "outputs": [
        {
          "internalType": "contract IERC20",
          "name": "",
          "type": "address"
        }
      ],
      "payable": false,
      "stateMutability": "view",
      "type": "function"
    },
    {
      "constant": true,
      "inputs": [],
      "name": "totalSupply",
      "outputs": [
        {
          "internalType": "uint256",
          "name": "",
          "type": "uint256"
        }
      ],
      "payable": false,
      "stateMutability": "view",
      "type": "function"
    },
    {
      "constant": false,
      "inputs": [
        {
          "internalType": "address",
          "name": "dst",
          "type": "address"
        },
        {
          "internalType": "uint256",
          "name": "amount",
          "type": "uint256"
        }
      ],
      "name": "transfer",
      "outputs": [
        {
          "internalType": "bool",
          "name": "",
          "type": "bool"
        }
      ],
      "payable": false,
      "stateMutability": "nonpayable",
      "type": "function"
    },
    {
      "constant": false,
      "inputs": [
        {
          "internalType": "address",
          "name": "dst",
          "type": "address"
        }
      ],
      "name": "transferAll",
      "outputs": [
        {
          "internalType": "bool",
          "name": "",
          "type": "bool"
        }
      ],
      "payable": false,
      "stateMutability": "nonpayable",
      "type": "function"
    },
    {
      "constant": false,
      "inputs": [
        {
          "internalType": "address",
          "name": "src",
          "type": "address"
        },
        {
          "internalType": "address",
          "name": "dst",
          "type": "address"
        }
      ],
      "name": "transferAllFrom",
      "outputs": [
        {
          "internalType": "bool",
          "name": "",
          "type": "bool"
        }
      ],
      "payable": false,
      "stateMutability": "nonpayable",
      "type": "function"
    },
    {
      "constant": true,
      "inputs": [
        {
          "internalType": "address",
          "name": "",
          "type": "address"
        },
        {
          "internalType": "address",
          "name": "",
          "type": "address"
        }
      ],
      "name": "transferAllowances",
      "outputs": [
        {
          "internalType": "uint256",
          "name": "",
          "type": "uint256"
        }
      ],
      "payable": false,
      "stateMutability": "view",
      "type": "function"
    },
    {
      "constant": false,
      "inputs": [
        {
          "internalType": "address",
          "name": "src",
          "type": "address"
        },
        {
          "internalType": "address",
          "name": "dst",
          "type": "address"
        },
        {
          "internalType": "uint256",
          "name": "amount",
          "type": "uint256"
        }
      ],
      "name": "transferFrom",
      "outputs": [
        {
          "internalType": "bool",
          "name": "",
          "type": "bool"
        }
      ],
      "payable": false,
      "stateMutability": "nonpayable",
      "type": "function"
    },
    {
      "constant": false,
      "inputs": [
        {
          "internalType": "address",
          "name": "newOwner",
          "type": "address"
        }
      ],
      "name": "transferOwnership",
      "outputs": [],
      "payable": false,
      "stateMutability": "nonpayable",
      "type": "function"
    },
    {
      "constant": false,
      "inputs": [
        {
          "internalType": "address",
          "name": "newCode",
          "type": "address"
        }
      ],
      "name": "updateCode",
      "outputs": [],
      "payable": false,
      "stateMutability": "nonpayable",
      "type": "function"
    },
    {
      "constant": true,
      "inputs": [],
      "name": "validate",
      "outputs": [],
      "payable": false,
      "stateMutability": "pure",
      "type": "function"
    }
  ],
  "bytecode": "0x60806040819052600080546001600160a01b03191633178082556001600160a01b0316917f8be0079c531659141344cd1fd0a4f28419497f9722a3daafe3b4186f6b6457e0908290a3614799806100576000396000f3fe608060405234801561001057600080fd5b50600436106103a45760003560e01c80636b4169c3116101e9578063bf5bfdfb1161010f578063d8884795116100ad578063f04bf8b31161007c578063f04bf8b31461074c578063f2fde38b1461076e578063fc0c546a14610781578063fdbbf8ac14610789576103a4565b8063d888479514610708578063db006a751461071e578063dd62ed3e14610731578063e192782b14610744576103a4565b8063c200659e116100e9578063c200659e146106c7578063d007c644146106cf578063d271be3f146106e2578063d3ac25c4146106f5576103a4565b8063bf5bfdfb146106bf578063c034d0db146104f5578063c1a2007d14610431576103a4565b80638da5cb5b11610187578063a3a7e7f311610156578063a3a7e7f31461067e578063a9059cbb14610691578063b2bdfa7b146106a4578063b5dbfc1a146106ac576103a4565b80638da5cb5b146106535780638f32d59b1461065b57806395d89b4114610663578063a0712d681461066b576103a4565b806371ee46eb116101c357806371ee46eb1461062557806377ede0511461062d57806381c8d895146103d257806384d4b41014610640576103a4565b80636b4169c3146105f557806370a082311461060a578063715018a61461061d576103a4565b8063313ce567116102ce5780634d12d4b61161026c5780635cde50551161023b5780635cde5055146105a35780635e5c06e2146105b657806363152a50146105da5780636901f668146105ed576103a4565b80634d12d4b6146105535780634fd7c0dd1461056657806352d1902d14610586578063556043ef1461058e576103a4565b80633e20a929116102a85780633e20a9291461051057806346951954146105185780634929fbf71461052d578063496cc16414610540576103a4565b8063313ce567146104ed57806333a581d2146104f5578063388c0b8c146104fd576103a4565b8063158ef93e1161034657806323b872dd1161031557806323b872dd1461049f57806328cdfaeb146104b25780632f2ba814146104d25780632f4350c2146104e5576103a4565b8063158ef93e1461045957806318160ddd146104615780631cda95d514610469578063226e835c1461048a576103a4565b806306fdde031161038257806306fdde0314610409578063095ea7b31461041e57806310f3a6d81461043157806313e23e4114610446576103a4565b80630290cbc8146103a9578063039ab887146103d2578063054ab01a146103e7575b600080fd5b6103bc6103b7366004613748565b61079c565b6040516103c99190614364565b60405180910390f35b6103da61080f565b6040516103c9919061438d565b6103fa6103f5366004613748565b61081b565b6040516103c993929190614575565b61041161084a565b6040516103c991906143a9565b6103bc61042c36600461380b565b6108d5565b610439610943565b6040516103c991906142d3565b6103da610454366004613748565b610953565b6103bc610975565b6103da610985565b61047c61047736600461398e565b61098b565b6040516103c992919061433f565b6104926109a1565b6040516103c9919061461a565b6103bc6104ad3660046137be565b6109a9565b6104c56104c0366004613748565b610a01565b6040516103c9919061454a565b6103bc6104e036600461398e565b610b52565b6103bc610b97565b6103da610bff565b6103da610c05565b6103bc61050b366004613a33565b610c0b565b6103da610c60565b61052b610526366004613748565b610c6a565b005b61052b61053b36600461380b565b610cff565b6103da61054e366004613748565b610d56565b61052b6105613660046138fd565b610d68565b61057961057436600461398e565b610fa5565b6040516103c99190614567565b6103da610fe7565b61059661100b565b6040516103c9919061439b565b6103da6105b136600461383b565b61101a565b6105c96105c4366004613748565b6110d1565b6040516103c99594939291906145ce565b6103da6105e8366004613784565b611100565b61052b61111d565b6105fd611126565b6040516103c99190614559565b6103da610618366004613748565b611156565b61052b611174565b6103da6111e2565b6103da61063b366004613748565b6111e8565b6103bc61064e366004613784565b611210565b61043961125a565b6103bc611269565b61041161127a565b6103bc61067936600461398e565b6112d5565b6103bc61068c366004613748565b6112eb565b6103bc61069f36600461380b565b611336565b610439611388565b6103bc6106ba3660046139ac565b611397565b6103da611457565b6103da61145d565b6103bc6106dd366004613748565b611463565b6103bc6106f036600461380b565b611479565b61052b610703366004613748565b61149a565b6107106118d6565b6040516103c99291906145b2565b6103bc61072c36600461398e565b6118eb565b6103da61073f366004613784565b61190c565b6103da611937565b61075f61075a36600461398e565b61193c565b6040516103c9939291906145c0565b61052b61077c366004613748565b61195d565b61059661198d565b6103da610797366004613748565b61199c565b60018054810190819055600090336107b3816119cc565b6001600160a01b0381166000908152600c60205260409020600101546107da908590611b75565b600192505060015481146108095760405162461bcd60e51b81526004016108009061452a565b60405180910390fd5b50919050565b670de0b6b3a764000081565b6001600160a01b0381166000908152600c602052604090205460608061084083611ccf565b9395909450915050565b6002805460408051602060018416156101000260001901909316849004601f810184900484028201840190925281815292918301828280156108cd5780601f106108a2576101008083540402835291602001916108cd565b820191906000526020600020905b8154815290600101906020018083116108b057829003601f168201915b505050505081565b336000818152600a602090815260408083206001600160a01b03871680855292528083208590555191929182907f8c5be1e5ebec7d5bd14f71427d1e84f3dd0314c0f7b2291e5b200ac8c7c3b9259061092f90879061438d565b60405180910390a360019150505b92915050565b6006546001600160a01b03165b90565b6001600160a01b0381166000908152600c60205260409020600401545b919050565b600054600160a01b900460ff1681565b60055481565b60608061099783611ccf565b9094909350915050565b63ffffffff81565b600180548101908190556000906109bf856119cc565b6109cb33868686611e31565b6109d4846119cc565b6001915060015481146109f95760405162461bcd60e51b81526004016108009061452a565b509392505050565b610a096133df565b6001600160a01b0382166000908152600c6020908152604091829020805484526001810154918401919091526002810154918301919091526004810154606083015260058101546080830152610a5e816120ad565b60a08301526001600160a01b0383166000908152600d60205260408120805460c08501528254909190600b9060001914610a99578354610a9c565b60005b81548110610aa657fe5b90600052602060002090600202019050826000015460001480610acb57508254600019145b15610aec57610ae284602001518560400151612100565b60e0850152610b4a565b60005b6001820154811015610b4857836003016000836000018381548110610b1057fe5b60009182526020808320909101546001600160a01b0316835282019290925260400190205460e0860180519091019052600101610aef565b505b505050919050565b60018054810190819055600090610b69338461211b565b610b72336119cc565b6001915060015481146108095760405162461bcd60e51b81526004016108009061452a565b6001805481019081905560009033610bae816119cc565b6001600160a01b0381166000908152600c6020526040902060010154610bd5908290611b75565b60019250506001548114610bfb5760405162461bcd60e51b81526004016108009061452a565b5090565b60045481565b60001981565b60018054810190819055600090610c22338461211b565b610c2b84612201565b610c34336119cc565b600191506001548114610c595760405162461bcd60e51b81526004016108009061452a565b5092915050565b600b546000190190565b610c72611269565b610c8e5760405162461bcd60e51b8152600401610800906144ba565b600054600160a01b900460ff161515600114610cbc5760405162461bcd60e51b81526004016108009061450a565b610cc5816124ff565b7f34459cf4c63f38e9b4af4ff8f74035bad6157484e669ffde70188afdf9917c6881604051610cf491906142d3565b60405180910390a150565b610d07611269565b610d235760405162461bcd60e51b8152600401610800906144ba565b610d2c826125d2565b610d485760405162461bcd60e51b81526004016108009061445a565b610d52828261211b565b5050565b600d6020526000908152604090205481565b600054600160a01b900460ff1615610d925760405162461bcd60e51b81526004016108009061444a565b610d9a6125d8565b600080546001600160a01b03191633179055600180558251610dc3906002906020860190613424565b508151610dd7906003906020850190613424565b506004818155670de0b6b3a7640000600955600680546001600160a01b0319166001600160a01b03878116919091179182905560408051636f307dc360e01b815290519290911692636f307dc3928282019260209290829003018186803b158015610e4157600080fd5b505afa158015610e55573d6000803e3d6000fd5b505050506040513d601f19601f82011682018060405250610e799190810190613766565b600780546001600160a01b03929092166001600160a01b031990921691909117905560408051600081830181815260608301845282528251818152602080820190945283830152600b8054600181018083559190925282518051919460029093027f0175b7a638427703f0dbe7bb9bbf987a2551717b34e79f33b5b1008d1fa01db90192610f0c9284929091019061349e565b506020828101518051610f2592600185019201906134ff565b5050600080525050600e6020526000197fe710864318d4a32f37d6ce54cb3fadbef648dd12d8dbdf53973564d56b7f881c556006546009546040517faa54229fa6d6451d2cd5d13b5bc60f1230a0f79091118926e9b95d8f4811713a92610f97926001600160a01b0390911691614324565b60405180910390a150505050565b610fad6135aa565b6000828152600e60209081526040909120805483526001810154918301919091526002810154610fdc906125ed565b604083015250919050565b7fc5f16f0fcc639fa48a6947836d9850f504798523bf8c9a3a87d5876cf622bcf790565b6006546001600160a01b031681565b6001805481019081905560408051602080880282810182019093528782526000939261109492918a918a9182919085019084908082843760009201919091525050604080516020808b0282810182019093528a82529093508a92508991829185019084908082843760009201919091525061268b92505050565b915082156110a6576110a6338361211b565b60015481146110c75760405162461bcd60e51b81526004016108009061452a565b5095945050505050565b600c60205260009081526040902080546001820154600283015460048401546005909401549293919290919085565b600a60209081526000928352604080842090915290825290205481565b600e6000610d52565b61112e6135cb565b600061113b6008546128cc565b60408051808201909152600554815291016020820152905090565b6001600160a01b03166000908152600c602052604090206001015490565b61117c611269565b6111985760405162461bcd60e51b8152600401610800906144ba565b600080546040516001600160a01b03909116907f8be0079c531659141344cd1fd0a4f28419497f9722a3daafe3b4186f6b6457e0908390a3600080546001600160a01b0319169055565b60085481565b6001600160a01b0381166000908152600c60205260408120611209816120ad565b9392505050565b60018054810190819055600090611226846119cc565b6001600160a01b0384166000908152600c602052604090206001015461125190339086908690611e31565b610c34836119cc565b6000546001600160a01b031690565b6000546001600160a01b0316331490565b6003805460408051602060026001851615610100026000190190941693909304601f810184900484028201840190925281815292918301828280156108cd5780601f106108a2576101008083540402835291602001916108cd565b60018054810190819055600090610b6983612201565b6001805481019081905560009033611302816119cc565b6001600160a01b0381166000908152600c602052604090206001015461132d90829081908790611e31565b6107da846119cc565b600180548101908190556000903361134d816119cc565b61135981828787611e31565b611362856119cc565b60019250506001548114610c595760405162461bcd60e51b81526004016108009061452a565b6000546001600160a01b031681565b6001805481019081905560408051602080870282810182019093528682526000939284926114139290918a918a91829185019084908082843760009201919091525050604080516020808b0282810182019093528a82529093508a92508991829185019084908082843760009201919091525061268b92505050565b905061141f338261211b565b61142888612201565b611431336119cc565b600192505060015481146110c75760405162461bcd60e51b81526004016108009061452a565b60015481565b60095481565b60018054810190819055600090610b72836119cc565b6001805481019081905560009033611490816119cc565b6113628585611b75565b600180548101908190556114ac611269565b6114c85760405162461bcd60e51b8152600401610800906144ba565b60075460408051636f307dc360e01b8152905184926001600160a01b039081169290841691636f307dc391600480820192602092909190829003018186803b15801561151357600080fd5b505afa158015611527573d6000803e3d6000fd5b505050506040513d601f19601f8201168201806040525061154b9190810190613766565b6001600160a01b0316146115715760405162461bcd60e51b81526004016108009061448a565b600680546001600160a01b038381166001600160a01b0319831617909255604080516317a1a86160e11b8152815193909216926000928492632f4350c29260048084019382900301818787803b1580156115ca57600080fd5b505af11580156115de573d6000803e3d6000fd5b505050506040513d601f19601f820116820180604052506116029190810190613a52565b506007546040516370a0823160e01b81529192506000916001600160a01b03909116906370a08231906116399030906004016142d3565b60206040518083038186803b15801561165157600080fd5b505afa158015611665573d6000803e3d6000fd5b505050506040513d601f19601f8201168201806040525061168991908101906138df565b60075460065460405163095ea7b360e01b81529293506001600160a01b039182169263095ea7b3926116c19216908590600401614324565b602060405180830381600087803b1580156116db57600080fd5b505af11580156116ef573d6000803e3d6000fd5b505050506040513d601f19601f8201168201806040525061171391908101906138c1565b61172f5760405162461bcd60e51b81526004016108009061443a565b600654604051630305da4f60e61b81526000916001600160a01b03169063c17693c09061176090859060040161438d565b602060405180830381600087803b15801561177a57600080fd5b505af115801561178e573d6000803e3d6000fd5b505050506040513d601f19601f820116820180604052506117b291908101906138df565b6006549091506001600160a01b0385811691161461183057836001600160a01b031663f2fde38b6117e161125a565b6040518263ffffffff1660e01b81526004016117fd91906142d3565b600060405180830381600087803b15801561181757600080fd5b505af115801561182b573d6000803e3d6000fd5b505050505b600061183d60085461292b565b60095490915061186383611857878463ffffffff61294e16565b9063ffffffff61298816565b60095561186f826129ca565b6008556009546040517faa54229fa6d6451d2cd5d13b5bc60f1230a0f79091118926e9b95d8f4811713a916118a6918c9190614324565b60405180910390a1505050505050506001548114610d525760405162461bcd60e51b81526004016108009061452a565b6008546000906118e5816128cc565b91509091565b6001805481019081905560009033611902816119cc565b6107da8185611b75565b6001600160a01b039182166000908152600a6020908152604080832093909416825291909152205490565b603281565b600e6020526000908152604090208054600182015460029092015490919083565b611965611269565b6119815760405162461bcd60e51b8152600401610800906144ba565b61198a816129ec565b50565b6007546001600160a01b031681565b6001600160a01b0381166000908152600c60205260408120600581015482906119c4906125ed565b949350505050565b6001600160a01b038082166000908152600c60209081526040808320600d8352818420600654835163a6afed9560e01b815293519296919591169363a6afed95936004808201949293918390030190829087803b158015611a2c57600080fd5b505af1158015611a40573d6000803e3d6000fd5b505050506040513d601f19601f82011682018060405250611a6491908101906138c1565b611a805760405162461bcd60e51b8152600401610800906143ba565b6000611a8b836120ad565b90508015611b6f578154611aa5908263ffffffff612a6d16565b82556002830154611abc908263ffffffff612a6d16565b60028401556001830154611ad6908263ffffffff612a6d16565b6001840155600554611aee908263ffffffff612a6d16565b6005556040516001600160a01b038516907f16cbc685358ca7d4e6b273dcdf2cb5d18c80b950aa2319b519756cd016233a6c90611b2c90849061438d565b60405180910390a2836001600160a01b031660006001600160a01b031660008051602061473783398151915283604051611b66919061438d565b60405180910390a35b50505050565b336000908152600c6020526040902081611ba15760405162461bcd60e51b8152600401610800906144da565b8060010154821115611bc55760405162461bcd60e51b81526004016108009061447a565b611bcf3383612a92565b6001810154611be4908363ffffffff612b4e16565b6001820155600554611bfc908363ffffffff612b4e16565b60055560075460405163a9059cbb60e01b81526001600160a01b039091169063a9059cbb90611c319086908690600401614324565b602060405180830381600087803b158015611c4b57600080fd5b505af1158015611c5f573d6000803e3d6000fd5b505050506040513d601f19601f82011682018060405250611c8391908101906138c1565b611c9f5760405162461bcd60e51b81526004016108009061449a565b604051600090339060008051602061473783398151915290611cc290869061438d565b60405180910390a3505050565b6060808215801590611ce357506000198314155b15611e1257611cf06135e5565b600b8481548110611cfd57fe5b906000526020600020906002020160405180604001604052908160008201805480602002602001604051908101604052809291908181526020018280548015611d6f57602002820191906000526020600020905b81546001600160a01b03168152600190910190602001808311611d51575b5050505050815260200160018201805480602002602001604051908101604052809291908181526020018280548015611df357602002820191906000526020600020906000905b82829054906101000a900463ffffffff1663ffffffff1681526020019060040190602082600301049283019260010382029150808411611db65790505b5050505050815250509050806000015192508060200151915050611e2c565b505060408051600080825260208201908152818301909252905b915091565b816001600160a01b0316836001600160a01b03161415611e635760405162461bcd60e51b81526004016108009061446a565b6001600160a01b0383166000908152600c6020526040902060010154811115611e9e5760405162461bcd60e51b8152600401610800906144ca565b60006001600160a01b038581169085161415611ebd5750600019611ee5565b506001600160a01b038084166000908152600a60209081526040808320938816835292905220545b81811015611f055760405162461bcd60e51b8152600401610800906143ca565b6000611f17828463ffffffff612b4e16565b6001600160a01b0386166000908152600c602052604081206001015491925090611f47908563ffffffff612b4e16565b6001600160a01b0386166000908152600c602052604081206001015491925090611f77908663ffffffff612a6d16565b90506000198414611fab576001600160a01b038088166000908152600a60209081526040808320938c168352929052208390555b6000611fb78887612b90565b9050611fc4878783612c3f565b6001600160a01b038089166000818152600c60205260408082206001808201899055948c16835290822090930185905552541580159061201a57506001600160a01b0387166000908152600c6020526040902054155b801561204057506001600160a01b0388166000908152600c602052604090205460001914155b15612069576001600160a01b0388166000908152600c602052604090205461206990889061211b565b866001600160a01b0316886001600160a01b03166000805160206147378339815191528860405161209a919061438d565b60405180910390a3505050505050505050565b6000806120bd83600501546125ed565b90506120da83600201548460040154612a6d90919063ffffffff16565b8111156120f65782600201548360040154820303915050610970565b6000915050610970565b6000818310156121125750600061093d565b5080820361093d565b60001981148061212c5750600b5481105b6121485760405162461bcd60e51b81526004016108009061440a565b6001600160a01b0382166000908152600c602090815260408083208054808552600e909352818420858552919093206001840154156121ae576000612191878660010154612b90565b86865560018601549091506121a890889083612c3f565b506121b2565b8484555b815460001901825580546001018155604051859084906001600160a01b038916907f356f094000bcd3968ad51bf92c9d115ed7294626dea8ae4cc5b24273702e111390600090a4505050505050565b600754604051636eb1769f60e11b815282916001600160a01b03169063dd62ed3e9061223390339030906004016142e1565b60206040518083038186803b15801561224b57600080fd5b505afa15801561225f573d6000803e3d6000fd5b505050506040513d601f19601f8201168201806040525061228391908101906138df565b10156122a15760405162461bcd60e51b8152600401610800906144ea565b336000818152600c60205260409081902060075491516323b872dd60e01b815290926001600160a01b03909216916323b872dd916122e69190309087906004016142fc565b602060405180830381600087803b15801561230057600080fd5b505af1158015612314573d6000803e3d6000fd5b505050506040513d601f19601f8201168201806040525061233891908101906138c1565b6123545760405162461bcd60e51b81526004016108009061449a565b60075460065460405163095ea7b360e01b81526001600160a01b039283169263095ea7b39261238a929116908690600401614324565b602060405180830381600087803b1580156123a457600080fd5b505af11580156123b8573d6000803e3d6000fd5b505050506040513d601f19601f820116820180604052506123dc91908101906138c1565b6123f85760405162461bcd60e51b81526004016108009061443a565b600654604051630305da4f60e61b81526000916001600160a01b03169063c17693c09061242990869060040161438d565b602060405180830381600087803b15801561244357600080fd5b505af1158015612457573d6000803e3d6000fd5b505050506040513d601f19601f8201168201806040525061247b91908101906138df565b600554909150612491908463ffffffff612a6d16565b60055560018201546124a9908463ffffffff612a6d16565b60018301556008546124c1908263ffffffff612a6d16565b60085560006124cf8261292b565b90506124dc338583612c3f565b604051339060009060008051602061473783398151915290611b6690889061438d565b806001600160a01b03166352d1902d6040518163ffffffff1660e01b815260040160206040518083038186803b15801561253857600080fd5b505afa15801561254c573d6000803e3d6000fd5b505050506040513d601f19601f8201168201806040525061257091908101906138df565b7fc5f16f0fcc639fa48a6947836d9850f504798523bf8c9a3a87d5876cf622bcf7146125ae5760405162461bcd60e51b8152600401610800906143da565b7fc5f16f0fcc639fa48a6947836d9850f504798523bf8c9a3a87d5876cf622bcf755565b3b151590565b6000805460ff60a01b1916600160a01b179055565b600061093d600954611857600660009054906101000a90046001600160a01b03166001600160a01b031663182df0f56040518163ffffffff1660e01b815260040160206040518083038186803b15801561264657600080fd5b505afa15801561265a573d6000803e3d6000fd5b505050506040513d601f19601f8201168201806040525061267e91908101906138df565b859063ffffffff61294e16565b60008060008451116126af5760405162461bcd60e51b81526004016108009061453a565b6032845111156126d15760405162461bcd60e51b8152600401610800906144fa565b82518451146126f25760405162461bcd60e51b8152600401610800906143fa565b506000805b84518210156127a857600084838151811061270e57fe5b602002602001015163ffffffff16116127395760405162461bcd60e51b81526004016108009061451a565b60006001600160a01b031685838151811061275057fe5b60200260200101516001600160a01b0316141561277f5760405162461bcd60e51b81526004016108009061442a565b83828151811061278b57fe5b602002602001015163ffffffff16810190508160010191506126f7565b600091505b8351821015612812578063ffffffff80168584815181106127ca57fe5b602002602001015163ffffffff1602816127e057fe5b048483815181106127ed57fe5b602002602001019063ffffffff16908163ffffffff16815250508160010191506127ad565b604080518082019091528581526020808201869052600b80546001818101808455600093909352845180519195939460029093027f0175b7a638427703f0dbe7bb9bbf987a2551717b34e79f33b5b1008d1fa01db901926128789284929091019061349e565b50602082810151805161289192600185019201906134ff565b505050039250827f755babe5551737dcd4c723af196cff0ed1fa99a4c6957c62262d6b1425f864aa60405160405180910390a2505092915050565b600061093d670de0b6b3a7640000611857600660009054906101000a90046001600160a01b03166001600160a01b031663182df0f56040518163ffffffff1660e01b815260040160206040518083038186803b15801561264657600080fd5b600061093d670de0b6b3a76400006118576009548561294e90919063ffffffff16565b60008261295d5750600061093d565b8282028284828161296a57fe5b04146112095760405162461bcd60e51b8152600401610800906144aa565b600061120983836040518060400160405280601a81526020017f536166654d6174683a206469766973696f6e206279207a65726f000000000000815250612ee7565b60095460009061093d9061185784670de0b6b3a764000063ffffffff61294e16565b6001600160a01b038116612a125760405162461bcd60e51b8152600401610800906143ea565b600080546040516001600160a01b03808516939216917f8be0079c531659141344cd1fd0a4f28419497f9722a3daafe3b4186f6b6457e091a3600080546001600160a01b0319166001600160a01b0392909216919091179055565b6000828201838110156112095760405162461bcd60e51b81526004016108009061441a565b60065460405163852a12e360e01b81526000916001600160a01b03169063852a12e390612ac390859060040161438d565b602060405180830381600087803b158015612add57600080fd5b505af1158015612af1573d6000803e3d6000fd5b505050506040513d601f19601f82011682018060405250612b1591908101906138df565b9050612b208161292b565b50612b2b8383612f1e565b806008541115612b4357600880548290039055612b49565b60006008555b505050565b600061120983836040518060400160405280601e81526020017f536166654d6174683a207375627472616374696f6e206f766572666c6f77000081525061320b565b6006546040805163a6afed9560e01b815290516000926001600160a01b03169163a6afed9591600480830192602092919082900301818787803b158015612bd657600080fd5b505af1158015612bea573d6000803e3d6000fd5b505050506040513d601f19601f82011682018060405250612c0e91908101906138c1565b612c2a5760405162461bcd60e51b8152600401610800906143ba565b612c3382613237565b905061093d8383612f1e565b6001600160a01b0383166000908152600c602052604081208054909190600b9060001914612c6e578254612c71565b60005b81548110612c7b57fe5b600091825260208220600290910201805490925015612e985750600084845b6001840154831015612e91576000600c6000866000018681548110612cbb57fe5b60009182526020808320909101546001600160a01b03168352820192909252604001812060018701549092506000190185149081612d465763ffffffff8016612d39886001018881548110612d0c57fe5b600091825260209091206008820401548d916007166004026101000a900463ffffffff9081169061294e16565b81612d4057fe5b04612d48565b845b9050612d94818960030160008a6000018a81548110612d6357fe5b60009182526020808320909101546001600160a01b031683528201929092526040019020549063ffffffff612a6d16565b886003016000896000018981548110612da957fe5b60009182526020808320909101546001600160a01b031683528201929092526040019020556004830154612de3908263ffffffff612a6d16565b6004840155612df28582612100565b9450600082612e215763ffffffff8016612e14896001018981548110612d0c57fe5b81612e1b57fe5b04612e23565b845b6005850154909150612e3b908263ffffffff612a6d16565b6005850155612e4a8582612100565b9450612e828c896000018981548110612e5f57fe5b6000918252602090912001548b546001600160a01b0390911690600186866132d6565b50505050826001019250612c9a565b5050612edf565b6004830154612ead908663ffffffff612a6d16565b60048401556005830154612ec7908563ffffffff612a6d16565b60058401558254612edf9087908190600189896132d6565b505050505050565b60008183612f085760405162461bcd60e51b815260040161080091906143a9565b506000838581612f1457fe5b0495945050505050565b6001600160a01b0382166000908152600c602052604081208054909190600b9060001914612f4d578254612f50565b60005b81548110612f5a57fe5b906000526020600020906002020190506000612f7e83600101548460020154612100565b905083811115612f8b5750825b6000612f9682613237565b83549091501561319757818160005b600186015481101561318f576000600c6000886000018481548110612fc657fe5b60009182526020808320909101546001600160a01b031683528201929092526040018120600189015490925060001901831490816130515763ffffffff80166130448a600101868154811061301757fe5b600091825260209091206008820401548b916007166004026101000a900463ffffffff9081169061294e16565b8161304b57fe5b04613053565b855b9050613063836004015482612100565b83600401819055506130ae8a60030160008b600001878154811061308357fe5b60009182526020808320909101546001600160a01b0316835282019290925260400190205482612100565b8a60030160008b60000187815481106130c357fe5b60009182526020808320909101546001600160a01b031683528201929092526040019020556130f28682612100565b95506000826131215763ffffffff80166131148b600101878154811061301757fe5b8161311b57fe5b04613123565b855b9050613133846005015482612100565b60058501556131428682612100565b955061314d846133ad565b6131808d8b600001878154811061316057fe5b60009182526020822001548e546001600160a01b039091169186866132d6565b50505050806001019050612fa5565b5050506131da565b6131a5846004015483612100565b600485015560058401546131b99082612100565b60058501556131c7846133ad565b6131da86878660000154600086866132d6565b81851115612edf576131ed828603613237565b90506131fd846005015482612100565b6005850155612edf846133ad565b6000818484111561322f5760405162461bcd60e51b815260040161080091906143a9565b505050900390565b600061093d600660009054906101000a90046001600160a01b03166001600160a01b031663182df0f56040518163ffffffff1660e01b815260040160206040518083038186803b15801561328a57600080fd5b505afa15801561329e573d6000803e3d6000fd5b505050506040513d601f19601f820116820180604052506132c291908101906138df565b60095461185790859063ffffffff61294e16565b6000600e6000868152602001908152602001600020905084866001600160a01b0316886001600160a01b03167f7fb238306664f9cc50083b666d8979f411dd72154c6e9bf558c76b39e14e7d2987878760405161333593929190614372565b60405180910390a4831561337c576001810154613358908463ffffffff612a6d16565b60018201556002810154613372908363ffffffff612a6d16565b60028201556133a4565b61338a816001015484612100565b6001820155600281015461339e9083612100565b60028201555b50505050505050565b60006133bc82600501546125ed565b90508160040154810382600201541115610d525760048201549003600290910155565b60405180610100016040528060008152602001600081526020016000815260200160008152602001600081526020016000815260200160008152602001600081525090565b828054600181600116156101000203166002900490600052602060002090601f016020900481019282601f1061346557805160ff1916838001178555613492565b82800160010185558215613492579182015b82811115613492578251825591602001919060010190613477565b50610bfb9291506135ff565b8280548282559060005260206000209081019282156134f3579160200282015b828111156134f357825182546001600160a01b0319166001600160a01b039091161782556020909201916001909101906134be565b50610bfb929150613619565b8280548282559060005260206000209060070160089004810192821561359e5791602002820160005b8382111561356c57835183826101000a81548163ffffffff021916908363ffffffff1602179055509260200192600401602081600301049283019260010302613528565b801561359c5782816101000a81549063ffffffff021916905560040160208160030104928301926001030261356c565b505b50610bfb92915061363d565b60405180606001604052806000815260200160008152602001600081525090565b604051806040016040528060008152602001600081525090565b604051806040016040528060608152602001606081525090565b61095091905b80821115610bfb5760008155600101613605565b61095091905b80821115610bfb5780546001600160a01b031916815560010161361f565b61095091905b80821115610bfb57805463ffffffff19168155600101613643565b803561093d81614707565b805161093d81614707565b60008083601f84011261368657600080fd5b50813567ffffffffffffffff81111561369e57600080fd5b6020830191508360208202830111156136b657600080fd5b9250929050565b803561093d8161471b565b805161093d8161471b565b805161093d81614724565b803561093d8161472d565b600082601f8301126136fa57600080fd5b813561370d6137088261464f565b614628565b9150808252602083016020830185838301111561372957600080fd5b6137348382846146c5565b50505092915050565b803561093d81614724565b60006020828403121561375a57600080fd5b60006119c4848461365e565b60006020828403121561377857600080fd5b60006119c48484613669565b6000806040838503121561379757600080fd5b60006137a3858561365e565b92505060206137b48582860161365e565b9150509250929050565b6000806000606084860312156137d357600080fd5b60006137df868661365e565b93505060206137f08682870161365e565b92505060406138018682870161373d565b9150509250925092565b6000806040838503121561381e57600080fd5b600061382a858561365e565b92505060206137b48582860161373d565b60008060008060006060868803121561385357600080fd5b853567ffffffffffffffff81111561386a57600080fd5b61387688828901613674565b9550955050602086013567ffffffffffffffff81111561389557600080fd5b6138a188828901613674565b935093505060406138b4888289016136bd565b9150509295509295909350565b6000602082840312156138d357600080fd5b60006119c484846136c8565b6000602082840312156138f157600080fd5b60006119c484846136d3565b6000806000806080858703121561391357600080fd5b600061391f87876136de565b945050602085013567ffffffffffffffff81111561393c57600080fd5b613948878288016136e9565b935050604085013567ffffffffffffffff81111561396557600080fd5b613971878288016136e9565b92505060606139828782880161373d565b91505092959194509250565b6000602082840312156139a057600080fd5b60006119c4848461373d565b6000806000806000606086880312156139c457600080fd5b60006139d0888861373d565b955050602086013567ffffffffffffffff8111156139ed57600080fd5b6139f988828901613674565b9450945050604086013567ffffffffffffffff811115613a1857600080fd5b613a2488828901613674565b92509250509295509295909350565b60008060408385031215613a4657600080fd5b600061382a858561373d565b60008060408385031215613a6557600080fd5b6000613a7185856136d3565b92505060206137b4858286016136d3565b6000613a8e8383613ab1565b505060200190565b6000613a8e83836142ca565b613aab816146ba565b82525050565b613aab8161468a565b6000613ac58261467d565b613acf8185614681565b9350613ada83614677565b8060005b83811015613b08578151613af28882613a82565b9750613afd83614677565b925050600101613ade565b509495945050505050565b6000613b1e8261467d565b613b288185614681565b9350613b3383614677565b8060005b83811015613b08578151613b4b8882613a96565b9750613b5683614677565b925050600101613b37565b613aab81614695565b613aab81610950565b613aab8161469a565b6000613b878261467d565b613b918185614681565b9350613ba18185602086016146d1565b613baa816146fd565b9093019392505050565b6000613bc1601583614681565b741858d8dc9d59525b9d195c995cdd0819985a5b1959605a1b815260200192915050565b6000613bf2602183614681565b7f4e6f7420656e6f75676820616c6c6f77616e636520666f72207472616e7366658152603960f91b602082015260400192915050565b6000613c35600e83614681565b6d4e6f7420636f6d70617469626c6560901b815260200192915050565b6000613c5f602683614681565b7f4f776e61626c653a206e6577206f776e657220697320746865207a65726f206181526564647265737360d01b602082015260400192915050565b6000613ca7602083614681565b7f496e76616c6964206861743a206c656e677468206e6f74206d61746368696e67815260200192915050565b6000613ce0600e83614681565b6d125b9d985b1a59081a185d08125160921b815260200192915050565b6000613d0a601b83614681565b7f536166654d6174683a206164646974696f6e206f766572666c6f770000000000815260200192915050565b6000613d43602883614681565b7f496e76616c6964206861743a20726563697069656e742073686f756c64206e6f815267074206265203078360c41b602082015260400192915050565b6000613d8d601483614681565b731d1bdad95b88185c1c1c9bdd994819985a5b195960621b815260200192915050565b6000613dbd602983614681565b7f546865206c6962726172792068617320616c7265616479206265656e20696e698152683a34b0b634bd32b21760b91b602082015260400192915050565b6000613e08602e83614681565b7f41646d696e2063616e206f6e6c79206368616e67652068617420666f7220636f81526d6e7472616374206164647265737360901b602082015260400192915050565b6000613e58601883614681565b7f7372632073686f756c64206e6f7420657175616c206473740000000000000000815260200192915050565b6000613e91601c83614681565b7f4e6f7420656e6f7567682062616c616e636520746f2072656465656d00000000815260200192915050565b6000613eca603283614681565b7f4e65772073747261746567792073686f756c642068617665207468652073616d81527119481d5b99195c9b1e5a5b99c8185cdcd95d60721b602082015260400192915050565b6000613f1e601583614681565b741d1bdad95b881d1c985b9cd9995c8819985a5b1959605a1b815260200192915050565b6000613f4f602183614681565b7f536166654d6174683a206d756c7469706c69636174696f6e206f766572666c6f8152607760f81b602082015260400192915050565b6000613f92602083614681565b7f4f776e61626c653a2063616c6c6572206973206e6f7420746865206f776e6572815260200192915050565b6000613fcb601e83614681565b7f4e6f7420656e6f7567682062616c616e636520746f207472616e736665720000815260200192915050565b6000614004601c83614681565b7f52656465656d20616d6f756e742063616e6e6f74206265207a65726f00000000815260200192915050565b600061403d601483614681565b734e6f7420656e6f75676820616c6c6f77616e636560601b815260200192915050565b600061406d603283614681565b7f496e76616c696c64206861743a206d6178696d756d206e756d626572206f66208152711c9958da5c1a595b9d1cc81c995858da195960721b602082015260400192915050565b60006140c1603383614681565b7f546865206c696272617279206973206c6f636b65642e204e6f206469726563748152721013b1b0b636139034b99030b63637bbb2b21760691b602082015260400192915050565b6000614116602f83614681565b7f496e76616c6964206861743a2070726f706f7274696f6e2073686f756c64206281526e065206c6172676572207468616e203608c1b602082015260400192915050565b6000614167601f83614681565b7f5265656e7472616e637947756172643a207265656e7472616e742063616c6c00815260200192915050565b60006141a0602383614681565b7f496e76616c6964206861743a206174206c65617374206f6e6520726563697069815262195b9d60ea1b602082015260400192915050565b80516101008301906141ea8482613b6a565b5060208201516141fd6020850182613b6a565b5060408201516142106040850182613b6a565b5060608201516142236060850182613b6a565b5060808201516142366080850182613b6a565b5060a082015161424960a0850182613b6a565b5060c082015161425c60c0850182613b6a565b5060e0820151611b6f60e0850182613b6a565b805160408301906142808482613b6a565b506020820151611b6f6020850182613b6a565b805160608301906142a48482613b6a565b5060208201516142b76020850182613b6a565b506040820151611b6f6040850182613b6a565b613aab816146b1565b6020810161093d8284613ab1565b604081016142ef8285613aa2565b6112096020830184613ab1565b6060810161430a8286613aa2565b6143176020830185613ab1565b6119c46040830184613b6a565b604081016143328285613ab1565b6112096020830184613b6a565b604080825281016143508185613aba565b905081810360208301526119c48184613b13565b6020810161093d8284613b61565b606081016143808286613b61565b6143176020830185613b6a565b6020810161093d8284613b6a565b6020810161093d8284613b73565b602080825281016112098184613b7c565b6020808252810161093d81613bb4565b6020808252810161093d81613be5565b6020808252810161093d81613c28565b6020808252810161093d81613c52565b6020808252810161093d81613c9a565b6020808252810161093d81613cd3565b6020808252810161093d81613cfd565b6020808252810161093d81613d36565b6020808252810161093d81613d80565b6020808252810161093d81613db0565b6020808252810161093d81613dfb565b6020808252810161093d81613e4b565b6020808252810161093d81613e84565b6020808252810161093d81613ebd565b6020808252810161093d81613f11565b6020808252810161093d81613f42565b6020808252810161093d81613f85565b6020808252810161093d81613fbe565b6020808252810161093d81613ff7565b6020808252810161093d81614030565b6020808252810161093d81614060565b6020808252810161093d816140b4565b6020808252810161093d81614109565b6020808252810161093d8161415a565b6020808252810161093d81614193565b610100810161093d82846141d8565b6040810161093d828461426f565b6060810161093d8284614293565b606081016145838286613b6a565b81810360208301526145958185613aba565b905081810360408301526145a98184613b13565b95945050505050565b604081016143328285613b6a565b606081016143808286613b6a565b60a081016145dc8288613b6a565b6145e96020830187613b6a565b6145f66040830186613b6a565b6146036060830185613b6a565b6146106080830184613b6a565b9695505050505050565b6020810161093d82846142ca565b60405181810167ffffffffffffffff8111828210171561464757600080fd5b604052919050565b600067ffffffffffffffff82111561466657600080fd5b506020601f91909101601f19160190565b60200190565b5190565b90815260200190565b600061093d826146a5565b151590565b600061093d8261468a565b6001600160a01b031690565b63ffffffff1690565b600061093d8261469a565b82818337506000910152565b60005b838110156146ec5781810151838201526020016146d4565b83811115611b6f5750506000910152565b601f01601f191690565b6147108161468a565b811461198a57600080fd5b61471081614695565b61471081610950565b6147108161469a56feddf252ad1be2c89b69c2b068fc378daa952ba7f163c4a11628f55a4df523b3efa365627a7a723158202892ba92005e46fb21eb02abcd33892817fecdd51e5f4d6d8886f44b7f1ed1676c6578706572696d656e74616cf564736f6c634300050c0040",
  "source": "pragma solidity >=0.5.10 <0.6.0;\npragma experimental ABIEncoderV2;\n\nimport {RToken} from '../RToken.sol';\n\n/**\n * @dev Test RTokenStorage Layout\n */\ncontract RTokenStorageLayoutTester is RToken {\n    function validate() public pure {\n        uint256 slot;\n        uint256 offset;\n\n        // address public _owner;\n        assembly { slot:= _owner_slot offset := _owner_offset }\n        require (slot == 0 && offset == 0, \"_owner changed location\");\n\n        // bool public initialized;\n        assembly { slot:= initialized_slot offset := initialized_offset }\n        require (slot == 0 && offset == 20, \"initialized changed location\");\n\n        // uint256 public _guardCounter;\n        assembly { slot:= _guardCounter_slot offset := _guardCounter_offset }\n        require (slot == 1 && offset == 0, \"_guardCounter changed location\");\n\n        // string public name;\n        assembly { slot:= name_slot offset := name_offset }\n        require (slot == 2 && offset == 0, \"name changed location\");\n\n        // string public symbol;\n        assembly { slot:= symbol_slot offset := symbol_offset }\n        require (slot == 3 && offset == 0, \"symbol changed location\");\n\n        // string public decimals;\n        assembly { slot:= decimals_slot offset := decimals_offset }\n        require (slot == 4 && offset == 0, \"decimals changed location\");\n\n        // string public totalSupply;\n        assembly { slot:= totalSupply_slot offset := totalSupply_offset }\n        require (slot == 5 && offset == 0, \"totalSupply changed location\");\n\n        // string public ias;\n        assembly { slot:= ias_slot offset := ias_offset }\n        require (slot == 6 && offset == 0, \"ias changed location\");\n\n        // string public token;\n        assembly { slot:= token_slot offset := token_offset }\n        require (slot == 7 && offset == 0, \"token changed location\");\n\n        // string public savingAssetOrignalAmount;\n        assembly { slot:= savingAssetOrignalAmount_slot offset := savingAssetOrignalAmount_offset }\n        require (slot == 8 && offset == 0, \"savingAssetOrignalAmount changed location\");\n\n        // string public savingAssetConversionRate;\n        assembly { slot:= savingAssetConversionRate_slot offset := savingAssetConversionRate_offset }\n        require (slot == 9 && offset == 0, \"savingAssetOrignalAmount changed location\");\n\n        // string public transferAllowances;\n        assembly { slot:= transferAllowances_slot offset := transferAllowances_offset }\n        require (slot == 10 && offset == 0, \"savingAssetOrignalAmount changed location\");\n\n        // string public hats;\n        assembly { slot:= hats_slot offset := hats_offset }\n        require (slot == 11 && offset == 0, \"hats changed location\");\n\n        // string public accounts;\n        assembly { slot:= accounts_slot offset := accounts_offset }\n        require (slot == 12 && offset == 0, \"accounts changed location\");\n\n        /* Account storage account = accounts[address(0)];\n        assembly { slot:= account.hatID_slot offset := account.hatID_offset }\n        require (slot == 12 && offset == 0, \"accounts changed location\"); */\n\n        // string public accountStats;\n        assembly { slot:= accountStats_slot offset := accountStats_offset }\n        require (slot == 13 && offset == 0, \"accountStats changed location\");\n\n        // string public hatStats;\n        assembly { slot:= hatStats_slot offset := hatStats_offset }\n        require (slot == 14 && offset == 0, \"hatStats changed location\");\n    }\n}\n",
  "sourcePath": "/home/thisguy/repos/rToken-project/rtoken-monorepo/packages/contracts/contracts/test/StorageLayout.sol",
  "compiler": {
    "name": "solc",
    "version": "0.5.12+commit.7709ece9.Emscripten.clang"
  },
  "schemaVersion": "3.0.21",
  "updatedAt": "2020-04-22T02:35:54.267Z",
  "devdoc": {
    "details": "Test RTokenStorage Layout",
    "methods": {
      "changeAllocationStrategy(address)": {
        "details": "IRToken.changeAllocationStrategy implementation"
      },
      "changeHat(uint256)": {
        "details": "IRToken.changeHat implementation"
      },
      "changeHatFor(address,uint256)": {
        "details": "IRToken.changeHatFor implementation"
      },
      "createHat(address[],uint32[],bool)": {
        "details": "IRToken.createHat implementation"
      },
      "getAccountStats(address)": {
        "details": "IRToken.getAccountStats implementation"
      },
      "getCurrentAllocationStrategy()": {
        "details": "IRToken.changeHatFor implementation"
      },
      "getCurrentSavingStrategy()": {
        "details": "IRToken.getCurrentSavingStrategy implementation"
      },
      "getGlobalStats()": {
        "details": "IRToken.getAccountStats implementation!1"
      },
      "getHatByAddress(address)": {
        "details": "IRToken.getHatByAddress implementation"
      },
      "getHatByID(uint256)": {
        "details": "IRToken.getHatByID implementation"
      },
      "getHatStats(uint256)": {
        "details": "IRToken.getHatStats implementation"
      },
      "getMaximumHatID()": {
        "details": "IRToken.getMaximumHatID implementation"
      },
      "getSavingAssetBalance()": {
        "details": "IRToken.getSavingAssetBalance implementation"
      },
      "interestPayableOf(address)": {
        "details": "IRToken.interestPayableOf implementation"
      },
      "isOwner()": {
        "details": "Returns true if the caller is the current owner."
      },
      "mint(uint256)": {
        "details": "IRToken.mint implementation"
      },
      "mintWithNewHat(uint256,address[],uint32[])": {
        "details": "IRToken.mintWithNewHat implementation"
      },
      "mintWithSelectedHat(uint256,uint256)": {
        "details": "IRToken.mintWithSelectedHat implementation"
      },
      "owner()": {
        "details": "Returns the address of the current owner."
      },
      "payInterest(address)": {
        "details": "IRToken.payInterest implementation"
      },
      "receivedLoanOf(address)": {
        "details": "IRToken.receivedLoanOf implementation"
      },
      "receivedSavingsOf(address)": {
        "details": "IRToken.receivedSavingsOf implementation"
      },
      "redeem(uint256)": {
        "details": "IRToken.redeem implementation     It withdraws equal amount of initially supplied underlying assets"
      },
      "redeemAll()": {
        "details": "IRToken.redeemAll implementation"
      },
      "redeemAndTransfer(address,uint256)": {
        "details": "IRToken.redeemAndTransfer implementation"
      },
      "redeemAndTransferAll(address)": {
        "details": "IRToken.redeemAndTransferAll implementation"
      },
      "renounceOwnership()": {
        "details": "Leaves the contract without owner. It will not be possible to call `onlyOwner` functions anymore. Can only be called by the current owner.     * > Note: Renouncing ownership will leave the contract without an owner, thereby removing any functionality that is only available to the owner."
      },
      "transferAll(address)": {
        "details": "IRToken.transferAll implementation"
      },
      "transferAllFrom(address,address)": {
        "details": "IRToken.transferAllFrom implementation"
      },
      "transferOwnership(address)": {
        "details": "Transfers ownership of the contract to a new account (`newOwner`). Can only be called by the current owner."
      },
      "updateCode(address)": {
        "details": "Update the rToken logic contract code"
      }
    }
  },
  "userdoc": {
    "methods": {
      "allowance(address,address)": {
        "notice": "Returns the remaining number of tokens that `spender` will be allowed to spend on behalf of `owner` through `transferFrom`. This is zero by default.     * This value changes when `approve` or `transferFrom` are called."
      },
      "approve(address,uint256)": {
        "notice": "Sets `amount` as the allowance of `spender` over the caller's tokens.     * Returns a boolean value indicating whether the operation succeeded.     * > Beware that changing an allowance with this method brings the risk that someone may use both the old and the new allowance by unfortunate transaction ordering. One possible solution to mitigate this race condition is to first reduce the spender's allowance to 0 and set the desired value afterwards: https://github.com/ethereum/EIPs/issues/20#issuecomment-263524729     * Emits an `Approval` event."
      },
      "balanceOf(address)": {
        "notice": "Returns the amount of tokens owned by `account`."
      },
      "initialize(address,string,string,uint256)": {
        "notice": "Create rToken linked with cToken at `cToken_`"
      },
      "transfer(address,uint256)": {
        "notice": "Moves `amount` tokens from the caller's account to `dst`.     * Returns a boolean value indicating whether the operation succeeded.     * Emits a `Transfer` event. May also emit `InterestPaid` event."
      },
      "transferFrom(address,address,uint256)": {
        "notice": "Moves `amount` tokens from `sender` to `recipient` using the allowance mechanism. `amount` is then deducted from the caller's allowance.     * Returns a boolean value indicating whether the operation succeeded.     * Emits a `Transfer` event."
      }
    }
  }
}